:020000040800F2
:1000000000040020B10200088104000881040008F7
:1000100081040008810400088104000881040008AC
:10002000810400088104000881040008B10400086C
:10003000810400088104000881040008B10500085B
:10004000810400088104000881040008312B0008A5
:10005000810400088104000881040008810400086C
:10006000810400088104000881040008810400085C
:10007000810400088104000881040008810400084C
:10008000810400088104000881040008412400085C
:10009000A1270008810400088104000881040008E9
:1000A000810400088104000881040008810400081C
:1000B000810400088104000881040008810400080C
:1000C00081040008810400088104000881040008FC
:1000D00081040008810400088104000881040008EC
:0C00E0008104000881040008810400086D
:1000F00040F60003C2F2000370B41D6810F8013B23
:10010000EC181A46647804F00304012C11F8014B32
:1001100008BF03F120022E192346767806F0030665
:10012000012E08BF04F12003D21A01D1002BE5D122
:10013000104670BC704700BF0000000000000000C7
:10014000C9B2F0B4002950D010F0030F10D00378DA
:10015000002B79D0994246D0431C05E013F8012BBF
:10016000002A3FD091423ED013F0030F1846F5D13C
:10017000036841EA01270646A3F1013247EA07472F
:1001800022EA030212F0803F1DD187EA0303A3F1A4
:10019000013222EA030313F0803F14D1043002E05D
:1001A00012F0803F0FD1064650F8043BA3F1013511
:1001B00087EA030225EA0303A2F1013413F0803F2A
:1001C00024EA0202ECD033783046002B3CD099422E
:1001D00009D0731C01E0914205D0184613F8012B99
:1001E000002AF8D11046F0BC704710F0030F0CD075
:1001F0000378002BF7D0431C03E013F8012B002AEF
:10020000F1D013F0030F1846F7D102680346A2F1AC
:10021000013121EA020212F0803F0AD10430034684
:1002200050F8042BA2F1013121EA020212F0803FC2
:10023000F5D01A781846002AD5D00133184613F89D
:10024000012B002AFAD1CEE71846CCE700000000C7
:10025000F0B40646047874B10F780546064657B1E7
:10026000BC4218BF0A4602D108E09C4206D012F8F0
:10027000013F002BF9D1301AF0BC70476C786E1C2E
:10028000002CF8D03546EBE700000000000000002D
:10029000704700BFAFF30080AFF30080AFF3008082
:1002A000FEE700BFAFF30080AFF30080AFF3008044
:1002B00072B6634C84F30988022383F31488BFF376
:1002C0006F8F02F0ADFC5F4A5F48824217D213463F
:1002D0004FF05531D64343F8041B85198342C5F3CB
:1002E00080050CD225B1196002F10803834206D2C1
:1002F0001A4642F8041B5960131D8342F8D3534A2F
:10030000A24217D213464FF05531D54343F8041B90
:100310006019A342C0F380000CD220B1196002F131
:100320000803A34206D21E4646F8041B5960331D3B
:10033000A342F8D34649474CA14222D246480B4635
:10034000024652F8046BCD4343F8046B04EB050CF2
:10035000A342CCF3800514D23DB1166800F1080227
:100360001E6001F10803A3420BD2104650F8045B53
:10037000194641F8045B5668021D5E600B1DA342DE
:10038000F3D3364A3648824216D200211346D6436A
:1003900043F8041B84198342C4F380040CD224B1B3
:1003A000196002F10803834206D21A4642F8041B80
:1003B0005960131D8342F8D32A4D2B4EFFF768FF77
:1003C000B54219D22C4654F8043BE94377189847B4
:1003D000B442C7F380070FD22FB1236805F1080498
:1003E0009847B44208D2254655F8042B90476068D8
:1003F0002C1D8047B442F6D31C4D1D4E03F068F807
:10040000B5421AD22C46EF4354F8043B06EB070ED4
:10041000CEF380079847B4420FD22FB1226805F17E
:1004200008049047B44208D2254655F8040B80478B
:1004300061682C1D8847B442F6D3FFF731BF00BF77
:10044000000800200000002000040020000400201C
:100450000008002024080020C843000828080020C5
:10046000EC0E0020EC000008EC000008EC00000896
:10047000EC000008AFF30080AFF30080AFF3008022
:10048000FEE700BFAFF30080AFF30080AFF3008062
:1004900072B6FEE7AFF30080AFF30080AFF30080E9
:1004A00000F086F900F024FC00F0A2F900DF00BFA4
:1004B00000B5EFF30983203383F3098800F030F8A7
:1004C0005DF804FBAFF30080AFF30080AFF3008072
:1004D0000A4B002210B59A60094A07201021DA6001
:1004E00000F0BEF80A204FF4007100F0B9F80B20BC
:1004F0008021BDE8104000F0B3B800BF00ED00E07F
:100500000000FA05AFF30080AFF30080AFF3008086
:10051000202383F311887047AFF30080AFF300808E
:10052000002383F311887047AFF30080AFF300809E
:1005300000B5FFF7EDFF1748436813F4006F17D0BD
:10054000EFF30983203B83F30988134A4FF080704F
:100550009169D86181B11068D269816892689142CD
:1005600094BF002201228AB10C4999615DF804FB15
:10057000FFF7D6FF5DF804FB1068D26981689268C6
:10058000914234BF00220122002AEDD1044A9A612F
:100590005DF804FB00ED00E05C0D0020A104000804
:1005A000AC040008AFF30080AFF30080AFF300802D
:1005B00010B500F07DF9FFF7ABFF00F039F900F05E
:1005C000AFF800F055F9FFF7ABFF00F091F9BDE887
:1005D0001040FFF7ADBF00BFAFF30080AFF3008066
:1005E0002DE9F04FC1F80CD0D0F80CD0BDE8F08F59
:1005F00008B500F0FDF8FFF793FF2846A04700F08C
:10060000AFFC08BDAFF30080AFF30080AFF3008014
:10061000F0B400F00307FE00FF2313FA06F200F027
:100620001F04B1400125A5408608094CC03654F886
:100630002670400927EA020242EA010300F160073E
:1006400044F8263044F8275044F82050F0BC704756
:1006500000E100E0AFF30080AFF30080AFF3008073
:1006600000F0030210B4FF23D40013FA04F2A140F7
:100670008008064C063054F8203023EA020242EA91
:10068000010344F8203010BC704700BF00ED00E0CB
:100690000248034AC3699A61FEE700BF5C0D00206F
:1006A000F0370008AFF30080AFF30080AFF30080B5
:1006B00030B583B0FFF70CFF00F04AFA00F0E0F924
:1006C00000F04EFF00F09CFF00F062F940210E4860
:1006D00000F036FB0D4D0E490124E86180F8204002
:1006E000C16100F04DF8002383F3118862B6EA6916
:1006F0001D46084BC021936107482246074B0095D1
:1007000000F0AEFB03B030BD280800205C0D0020D7
:1007100000040020F837000878080020910600083F
:1007200070B500F005F9114B9A69002A01DD013A14
:100730009A61DA690E4C516A2368481C5062E1687C
:10074000481CA342E0600FD09D68013D9D605DB9EB
:1007500026461968DA681869DD604E6021609047A6
:10076000236898680028F4D070BD00BF5C0D00209D
:100770004C0D0020AFF30080AFF30080AFF300809A
:100780000548036813B9054A116821B10448054BAF
:100790001860FFF77DBE704738090020440D002027
:1007A00010380008480D0020AFF30080AFF3008040
:1007B000084810B5036853B9074C216821B1074AAE
:1007C000074B1A60FFF764FE0120206010BD024C49
:1007D000F5E700BF38090020440D00201838000854
:1007E000480D0020AFF30080AFF30080AFF300802E
:1007F000094810B5036833B9084C2168002903DDA6
:100800000020206010BD054C054A064B1A60FFF71A
:100810003FFE0020206010BD38090020440D00205C
:1008200020380008480D0020AFF30080AFF30080AF
:10083000084810B50368002B0ADD074C216821B178
:10084000064A074B1A60FFF723FE0120206010BD07
:10085000014CF5E738090020440D00202838000835
:10086000480D0020AFF30080AFF30080AFF30080AD
:100870000A4810B50368002B06DD094C21680029E1
:1008800003DD0020206010BD054C064A064B1A60AF
:10089000FFF7FEFD0020206010BD00BF38090020DA
:1008A000440D002030380008480D0020AFF30080D0
:1008B00010B5FFF72DFE094C2368002B02DB08481A
:1008C00002682AB1074B08491960FFF7E1FD236868
:1008D0005A1C2260FFF724FE10BD00BF380900201B
:1008E000440D0020480D002038380008AFF3008088
:1008F00010B5FFF70DFE094C2368002B02DD0848F8
:1009000002682AB1074B08491960FFF7C1FD236847
:100910005A1E2260FFF704FE10BD00BF38090020F8
:10092000440D0020480D002040380008AFF300803F
:1009300006480368002B04DB054A1168002900DD26
:1009400070470448044B1860FFF7A2BD3809002027
:10095000440D002048380008480D0020AFF3008007
:100960000648036823B9064A1168002900DD70476C
:100970000448054B1860FFF78BBD00BF3809002005
:10098000440D002050380008480D0020AFF30080CF
:10099000034A4021134643F8081B5360704700BFC9
:1009A0003C090020AFF30080AFF30080AFF300807C
:1009B00010B40D4A0D4C0E495368E468C9691C60B7
:1009C0005960846A03F110019C6090F8204002F5A0
:1009D000816081421C7328BF02F10803516028BF67
:1009E000536010BC704700BF3C0900204C0D002034
:1009F0005C0D0020AFF30080AFF30080AFF3008008
:100A0000014B1860FFF744BD480D0020AFF3008094
:100A100010B40B4603E09C688268944209D31B68BB
:100A20009942F8D14B68016043601860486010BC7F
:100A300070471946F6E700BFAFF30080AFF30080C0
:100A40004B6801604360486018607047AFF30080F6
:100A50000346006802681A6053607047AFF3008075
:100A600042680168116003685A607047AFF3008004
:100A70000346006802681A60704700BFAFF3008049
:100A8000044B4FF0FF3000225B601B609860DA601F
:100A9000704700BF4C0D0020AFF30080AFF3008023
:100AA000F8B504460D4616461F46FFF741FFCCB188
:100AB000C6B1BDB10D4927610B68E6609A689542E1
:100AC00004D91B68AD1A9A68AA42FAD35A688B42B5
:100AD0002360626014605C60A56002D09868451B6A
:100AE0009D60F8BD0248FFF78BFFE3E74C0D002047
:100AF00060380008AFF30080AFF30080AFF30080F0
:100B000010B50446FFF714FF84B1E36893B123687E
:100B10000A4A934203D09968A2688818986060686E
:100B2000002203602368E260586010BD0448FFF7AC
:100B300067FFEAE70348FFF763FFE8E74C0D002093
:100B40007038000880380008AFF30080AFF30080F1
:100B5000044B002014225B601B6098609A615B610B
:100B60001B6170475C0D0020AFF30080AFF3008085
:100B700010B590F8203004468BB10E2B0FD0002218
:100B8000094BA16884F820201B6898688842FBD232
:100B90005968236061600C605C60204610BD0348AA
:100BA000FFF72EFFEBE700BF5C0D0020A038000828
:100BB00010B590F8203004460D2B0FD8DFE803F075
:100BC000160E0E070E0B0E0E0E0E0E0E0E0B806A7C
:100BD00081684A1C82602046FFF742FF4FF0FF33D6
:100BE0002046A362BDE81040FFF7C2BF10BD00BFA2
:100BF00070B5114C0646FFF7B3FEE569142385F87E
:100C000020602046A361FFF723FF0122014680F800
:100C100020202846E161FFF7CBFEEA69ADF124030D
:100C20009A4202D90548FFF7EBFEE0692946BDE884
:100C30007040FFF7D5BC00BF5C0D0020B438000841
:100C400070B50E4686B00546FFF78AFEB6F1FF3F47
:100C500012D00C4C3146E3690B4A01A8FFF720FF84
:100C60002846FFF7C5FF049B13B101A8FFF748FF13
:100C7000E069806A06B070BD2846FFF7B9FF014CF5
:100C8000F6E700BF5C0D0020B10B0008AFF3008059
:100C900070B5154D04460E46FFF762FEE869A2687E
:100CA0008368A6629A4215D9FFF762FF01231422D6
:100CB000064684F82030AA61EC61FFF779FEF069FE
:100CC000ADF1240188420AD820463146BDE8704083
:100CD000FFF786BC2046BDE87040FFF749BF0348D8
:100CE000FFF78EFEF0E700BF5C0D0020B43800086F
:100CF00070B5104C14232046E569A361FFF7A8FEE8
:100D00000122014680F820202846E161FFF730FFEC
:100D10002846FFF74DFEEA69ADF124039A4202D955
:100D20000548FFF76DFEE0692946BDE87040FFF712
:100D300057BC00BF5C0D0020B4380008AFF3008042
:100D4000F0B40022104C0125022380F8203080F8F6
:100D5000212080F82250656900F1300600F12C0C4A
:100D600000F14C0704618160456141646061026487
:100D7000C263426282612861C0F82CC04663066388
:100D8000C761F0BC704700BF5C0D0020AFF300806E
:100D9000884213D2C34300F8012BCB18884203F0DA
:100DA00001030CD01BB100F8012B884208D0034688
:100DB00003F8012B4270581C8842F8D170477047E5
:100DC000704700BFAFF30080AFF30080AFF3008047
:100DD000F8B504460D4616461F46FFF7A9FD0CB1AF
:100DE000AF2D2BD81848FFF70BFE243D6119E160A9
:100DF0006751069D15484D600023154A02270125BD
:100E0000086284F8207084F8225084F821305069F8
:100E100004F1300104F12C0704F14C0522616061FA
:100E2000A6606664546123640461E3636362A36142
:100E3000E76261632163E5612046F8BD7F2ED1D86A
:100E4000002FD2D1CEE700BFD0380008F10500084E
:100E50005C0D0020AFF30080AFF30080AFF30080A3
:100E6000F0B504460D461E4683B017464C30234667
:100E7000FF211A4602F8011B5970531C8342F8D116
:100E80006019834215D25521DA4303F8011B00EBA8
:100E9000020C83420CF001020BD01AB103F8011BC3
:100EA000834206D01A4602F8011B5970531C834234
:100EB000F8D1FFF72DFBFFF77BFC2046089C3A4654
:100EC000334629460094FFF783FF00210446FFF7CD
:100ED000DFFEFFF78DFCFFF723FB204603B0F0BDDC
:100EE00010B5044610B90848FFF78AFDFFF710FB5C
:100EF000FFF75EFC21460620FFF7A2FEFFF778FC15
:100F0000FFF70EFB10BD00BF10390008AFF30080E3
:100F1000114970B5CD69EB6A05F12C04A342A862B2
:100F200007D02046FFF7A4FDFFF722FEE86AA042A3
:100F3000F7D195F8212012F0030F04D16B692869CD
:100F4000186129694B610E20FFF752FE0348BDE886
:100F50007040FFF755BD00BF5C0D00202039000830
:100F600010B50446FFF7D4FAFFF722FC2046BDE88F
:100F70001040FFF7CDBF00BFAFF30080AFF300809C
:100F800070B50446FFF7C4FAFFF712FC94F822503C
:100F9000002D20D0013DEDB284F82250FFF728FC4F
:100FA000FFF7BEFA1DB994F820300E2B00D070BDAB
:100FB00094F8210000F00303012B12D0022BF6D18C
:100FC00063692169A06C1961226921465361BDE8FA
:100FD000704000F005BC0848FFF712FD94F822505D
:100FE000D8E76169236920460B6122695161BDE838
:100FF000704000F05DBB00BF84390008AFF3008093
:101000002DE9F04182B00D4617461E4600F008FB60
:10101000044608B300F14C084146FF22FFF7B8FE32
:10102000404661195522FFF7B3FEFFF771FAFFF74B
:10103000BFFB2046089C3A46334629460094FFF7FA
:10104000C7FE0123002180F821300446FFF720FE6F
:10105000FFF7CEFBFFF764FA204602B0BDE8F0814F
:1010600010B5FFF755FAFFF7A3FB06490C6994F892
:101070002200431C84F82230FFF7BAFBFFF750FA36
:10108000204610BD5C0D0020AFF30080AFF3008060
:1010900038B50546FFF73CFAFFF78AFB2C69114B80
:1010A0009C4215D094F82230FF2B0BD0581C84F8AA
:1010B0002200FFF79DFBFFF733FA2846FFF760FF9A
:1010C000204638BD0848FFF79BFC94F82230EDE736
:1010D000FFF78EFB0024FFF723FA2846FFF750FFA7
:1010E000204638BD5C0D0020C0390008AFF30080F9
:1010F00010B5044620B1002364602460A36010BDD5
:101100000348FFF77DFC002364602460A36010BDEA
:10111000E0390008AFF30080AFF30080AFF3008048
:10112000294B70B50546DE69FFF71AFC002D46D045
:10113000AC68002C2AD0B268A068824207D994F823
:101140002030A260042B2DD0052B24D0ABB130462B
:101150002946FFF75DFC0420B562FFF749FDAB6847
:10116000B34202D01948FFF74BFC306CA84211D0B3
:101170001748BDE87040FFF743BC012284F82020E7
:101180002046FFF76DFCFFF7F3FCE0E7316CAE6043
:10119000E960356470BD2046FFF762FCA16AFFF785
:1011A00037FCD4E72046FFF75BFCA16AFFF730FC71
:1011B000A46AB268A468A1689142C0D3C7E7054891
:1011C000FFF71EFCB4E700BF5C0D0020003A0008EA
:1011D000143A0008F0390008AFF30080AFF3008044
:1011E00010B50446FFF794F9FFF7E2FA2046FFF73F
:1011F00097FFFFF7FDFAFFF793F910BDAFF30080FB
:1012000038B51F4BDD69FFF783F9FFF7D1FA2C6C76
:10121000002C30D0A068A84203D01A48FFF7F0FB9A
:101220002C6C2268E368A2422B641CD0696C4BB121
:101230001A689A4203D09068814238BF0146DB6841
:10124000002BF5D1A9602046FFF702FC016CA060DD
:10125000E16000210464FFF71BFDFFF7C9FAFFF707
:101260005FF9204638BD0023A360FFF7C1FAFFF7FE
:1012700057F9204638BD0448FFF7C2FB2C6CC9E77C
:101280005C0D0020503A00083C3A0008AFF30080A3
:1012900038B504460D46FFF74BFBBCB1E26B94F842
:1012A00020301543082BE5630CD0092B00D038BD46
:1012B000A06A0540A842FAD12046FFF759FC002158
:1012C000816238BDA36A1D42F6D138BD0148FFF7DF
:1012D00097FBE3E7BC3A0008AFF30080AFF3008070
:1012E00070B505460E46FFF723FB65B12C68AC428E
:1012F00008D0A168606846EA0101FFF7C9FF2468C9
:10130000AC42F6D170BD0248FFF77AFBEEE700BFB2
:10131000E03A0008AFF30080AFF30080AFF3008045
:1013200010B503460C4611B94FF0FF3010BD014611
:101330000548C26910469362FFF782FB0D202146E3
:10134000BDE81040FFF77CBC5C0D0020AFF30080CF
:1013500010B48A180024406000608460416181619B
:10136000C1600261C36110BC704700BFAFF3008071
:1013700070B504460D46FFF7CBF8FFF719FAE3699D
:101380000BB120469847A368204629464BB9FFF782
:10139000C7FF061EF7DAFFF72BFAFFF7C1F8304652
:1013A00070BDA269581EA06012F8016B2369A2618A
:1013B0009A4224BFE368A361FFF71AFAFFF7B0F877
:1013C000304670BDAFF30080AFF30080AFF3008014
:1013D0002DE9F8430446904689461D46C769002A10
:1013E0002FD0FFF795F8FFF7E3F900260FB120465D
:1013F000B847A3682046294653B9FFF791FF002854
:10140000F7D0FFF7F5F9FFF78BF83046BDE8F88322
:10141000A269591EA16012F8010B09F806002369A0
:10142000A2619A4224BFE368A361FFF7E1F9FFF7E5
:1014300077F801364645E8D0FFF76AF8FFF7B8F9C4
:10144000D4E70248FFF7DCFACBE700BF203B0008F7
:1014500010B48C1840600060826041618161C1609D
:101460000461C36110BC7047AFF30080AFF300802C
:10147000F8B504460D461646FFF74AF8FFF798F907
:10148000A368204631464BB9FFF74AFF071EF7DA3B
:10149000FFF7AEF9FFF744F83846F8BD6269581E09
:1014A000A06002F8015B236962619A4224BFE3688D
:1014B0006361E3690BB120469847FFF799F9FFF79D
:1014C0002FF800273846F8BDAFF30080AFF3008057
:1014D0002DE9F843044615460E469946D0F81C807F
:1014E000002A36D0FFF714F8FFF762F90027A36847
:1014F00020465A1E03B3A260616996F800C001F845
:1015000001CB22696161914224BFE1686161B8F158
:10151000000F00D0C047FFF76BF9FFF701F8013764
:10152000013D13D00136FEF7F3FFFFF741F9A36841
:1015300020465A1E002BDED120464946FFF7F0FE1A
:101540000028D4D0FFF754F9FEF7EAFF3846BDE88B
:10155000F8830248FFF754FAC4E700BF343B0008A1
:10156000054B064A064823F00701064B116020F0A0
:1015700007021A60704700BFF30E0020800D0020A4
:10158000005000207C0D0020AFF30080AFF30080FE
:1015900010B50446FFF7CCF9074A084913680968F3
:1015A000E01D20F00700C91A884203D818181060FF
:1015B000184610BD002010BD800D00207C0D0020BD
:1015C00010B50446FEF7A4FFFFF7F2F82046FFF738
:1015D000DFFF0446FFF70CF9FEF7A2FF204610BD1F
:1015E000024A034910680B68C01A70477C0D00203E
:1015F000800D0020AFF30080AFF30080AFF30080D8
:10160000044B0549002203F1100019609A60DA606A
:10161000FFF76EBD880D0020C1150008AFF30080F4
:10162000F8B5204E0731002818BF064606F1100015
:1016300021F0070506F10804FFF7D2FD00E01C4683
:101640002368F3B15A689542F9D805F108018A4236
:1016500014D36FF00707D3F800E0C5EB070C0CEBD1
:1016600002005F1843F801E0786027605D601C4667
:1016700044F8086BFFF7C4FD2046F8BD1A682260E5
:10168000F5E7FFF7BDFD3468002CF5D005F1080043
:10169000A04720B10660456000F10804ECE704466D
:1016A000EAE700BF880D0020AFF30080AFF30080B1
:1016B0002DE9F041074600284BD057F8086CA7F1F8
:1016C000080506F11000FFF78BFD08363446AC42E2
:1016D00004D86068083023189D4220D3B44204D057
:1016E000AC4202D323681C46F1E723680BB19D424C
:1016F000F9D26A6847F8083C256002F1080357F8F8
:10170000080CE91881420ED0636803F1080E04EB5F
:101710000E0CAC4515D0BDE8F041FFF771BD0F4888
:10172000FFF76EF9DAE74968EB58521808326A6039
:1017300047F8083C636803F1080E04EB0E0CAC4557
:10174000E9D16A6857F8080C9B1808336360206079
:10175000E1E70348FFF754F9AFE700BF703B00082B
:10176000603B0008AFF30080AFF30080AFF3008070
:1017700038B50E4C0D46002818BF044604F1100081
:10178000FFF72EFDA3686BB10022144659681B6851
:1017900052180134002BF9D105B12A60FFF730FD52
:1017A000204638BD1A461C46F6E700BF880D0020CB
:1017B00038B504460D46FFF7BBF81CB115B115F05E
:1017C000070F02D00348FFF71BF923682B60256041
:1017D00038BD00BFB43B0008AFF30080AFF300801A
:1017E00038B505460C46FEF793FEFEF7E1FF2846A6
:1017F0002146FFF7DDFFFEF7FBFFFEF791FE38BD48
:1018000010B500F04DFD00F02BFB064800F0E0FDA8
:1018100000F026F800F01CFC00F03AFDBDE8104096
:1018200001F006BA003E0008AFF30080AFF300807D
:1018300010B590F84210044680F84A1000F040FEBF
:1018400063681B6813B1204601219847032020706C
:1018500010BD00BFAFF30080AFF30080AFF3008096
:1018600000F0FEBDAFF30080AFF30080AFF3008067
:10187000002301220270436083608381C38170472B
:1018800038B504460D4600B3F9B1FEF741FEFEF748
:101890008FFF2178481EC3B2012B02D90D48FFF7F4
:1018A000AFF80023204623616361A361E3612362F3
:1018B0006362A362E362656000F0DAFD02222270D7
:1018C000FEF796FFFEF72CFE38BD0348FFF798F8A9
:1018D000DBE700BF003C0008F03B0008AFF30080EE
:1018E0002DE9F04104460D461646FFF721F8002C7D
:1018F0002AD0002E28D02378042B02D01448FFF7DA
:101900007FF82F1D54F8270010B11248FFF778F820
:10191000316811F010030FD1726994464CF8043B02
:101920005360CCF80430B069014641F8043B0A1D0D
:10193000436042F8043B13602046294644F8276080
:10194000BDE8F04100F0CCBD0348FFF759F8D2E7FD
:10195000443C0008603C00082C3C0008AFF30080C9
:1019600070B504460E46FEF7E3FF9CB1E38953FAD7
:1019700006F515F0010501D0012070BD012010FA17
:1019800006F242EA03032046E381314601F060F8A3
:10199000284670BD0148FFF733F8E7E7B43C00087C
:1019A00070B504460E46FEF7C3FF9CB1A38953FAF7
:1019B00006F515F0010501D0012070BD012010FAD7
:1019C00006F242EA03032046A381314601F050F8B3
:1019D000284670BD0148FFF713F8E7E7CC3C000844
:1019E00010B4002202240470A0F8482080F84A2095
:1019F00080F84B208281C281026142618261C261B2
:101A0000026242628262C26280F8302010BC00F042
:101A1000E7BD00BFAFF30080AFF30080AFF30080FD
:101A200000222DE9F041044680F8302000F1400208
:101A300000F016FE63689B68002B1FD02046984775
:101A4000E0B1A56B94F84030B4F84610A9423CBF11
:101A5000A1630D4613F0800F33D1002D64D1042112
:101A600084F83010204629462A462B4600F0E0FF35
:101A700020462946BDE8F04100F0FABF94F8403016
:101A800013F060061A462DD00021204601F010F810
:101A90002046002100F0FCFF6268136813B1204665
:101AA00005219847A56BB4F8461094F840300520FE
:101AB000A9423CBFA1630D4613F0800F84F83000AB
:101AC000CBD0002D3FD00123002184F830302046B8
:101AD000626B2B4600F0ACFF20460021BDE8F041D0
:101AE00000F0C6BF94F8417003F07F0141EA072778
:101AF000B7F5407F00F0998034DDB7F5C06F00F096
:101B0000BD8050DDB7F5106F00F0A68040F60245AD
:101B1000AF425BD0B7F5006FB6D1012504F14B00A1
:101B20006063A563E6638FE70320002184F830003B
:101B3000626B20462B4600F063FF20460021BDE883
:101B4000F04100F085BF022284F83020204629466B
:101B50002A462B4600F054FF20462946BDE8F041B6
:101B600000F076BF022F49D02BDDB7F5807F34D04F
:101B7000B7F5817F88D194F84200002884D194F889
:101B8000443013F00F0108D013F0800F40F0B18003
:101B9000204600F09DFF94F8402000256563A56372
:101BA000E563134650E740F2023087427BD0B7F539
:101BB000A06F7FF469AF55496663A663E16335465C
:101BC00042E7002F41D0012F7FF45EAF504902253C
:101BD00000226163A563E26336E794F842C0BCF17A
:101BE000010F7FF451AFB4F84810666321F0020E84
:101BF000A4F848E0A663E663354625E794F8441068
:101C000011F0800F66D1204601F00F0100F008FDB1
:101C1000012866D002287FF437AF3E4BA063636390
:101C2000E66394F8403005460EE794F84200012838
:101C30007FF42AAFB4F84820666342F00205A4F8A6
:101C40004850A663E6633546FEE6022504F14802E5
:101C50006263A563E763F7E694F8421084F84B10DB
:101C6000002934D10325257060680368002B94D0C7
:101C700020460221984794F840208EE7636820466A
:101C80005D6894F8431094F84220B4F84430A847B3
:101C900000283FF4F9AE4268056894F8403062636A
:101CA000A563E663D0E694F8421000297FF4ECAE19
:101CB00094F8443013F00F013FF46FAF13F0800F2E
:101CC0001DD1204600F0E4FE94F8402065E704238F
:101CD0002370C9E7204601F00F0100F0B1FC012894
:101CE00098D10D4DA7636563E66394F840303D4697
:101CF000AAE6204600F004FF94F840204DE7204675
:101D000000F0D6FE94F8402047E700BF31180008E5
:101D1000D03B0008E03B0008203D0008AFF3008006
:101D200090F8303070B5012B044619D0042B10D038
:101D3000002100F0BDFE0021204600F0A9FE6168F0
:101D40000B6813B1204605219847052284F83020FE
:101D500070BDC36B03B19847002384F8303070BD69
:101D6000836BB0F846209A4206D90269118AB3FB08
:101D7000F1F501FB153575B1002102200A460B462D
:101D800084F83000204600F03BFE20460021BDE8EC
:101D9000704000F05DBE29462A462B4600F048FE02
:101DA00020462946BDE8704000F062BEAFF30080D7
:101DB00090F8303070B5022B044621D0032B11D09F
:101DC0000021204600F074FE2046002100F060FE55
:101DD00063681B6813B1204605219847052184F8E4
:101DE000301070BD002104250A460B4680F83050A3
:101DF00000F01EFE20460021BDE8704000F038BE15
:101E000002699169CB68002BDAD1C36B03B19847A3
:101E1000002084F8300070BDAFF30080AFF3008085
:101E200001494B6883607047001000E0AFF3008009
:101E3000084B09495A6883680968D31AC2685B1A53
:101E40009342836004D80269934238BF03617047AC
:101E5000C3607047001000E0A80D0020AFF30080C1
:101E600010B50B4A86B00B490B4C002301A8019218
:101E70004FF0FF3223600393049302910592FFF722
:101E8000CFFF01A802998847039B236006B010BDCD
:101E9000211E0008311E0008A80D0020AFF30080AD
:101EA000806BD0F1010038BF00207047AFF3008095
:101EB0008069D0F1010038BF00207047AFF3008087
:101EC00038B50446FEF724FBFEF772FC0023A56834
:101ED000A360FEF78DFCFEF723FB284638BD00BF4C
:101EE0002DE9F0418469D4F8D000D4F8408003682B
:101EF000E76B9D89A66B15F0020501D0BDE8F08166
:101F0000FEF776FCFEF70CFBD4F8D030C7EB080CDC
:101F100018680121E26BC6EB0C0300F009FCFEF728
:101F2000F7FAFEF745FCD4F8D00001210068FFF76E
:101F300037FDA168201D41F00802A2602946FFF785
:101F4000CFF9E36B266C226BF11A04F13006B24232
:101F50006364A163D2D03046FEF77AFDFEF708FE37
:101F60008562226BB242F6D1BDE8F081AFF300800A
:101F7000F8B54469D4F8D0100868C38913F0080F85
:101F800001D1A56905B1F8BDFEF732FCFEF7C8FA2C
:101F9000D4F8D06003213068E269402300F088FB68
:101FA0000646FEF7B5FAFEF703FCD4F8D00003218D
:101FB0000068FFF7D5FCA168201D41F00407A76069
:101FC0002946FFF78DF92369E26904F11007BB4246
:101FD000A262A661D7D03846FEF73AFDFEF7C8FDEB
:101FE00085622369BB42F6D1F8BD00BFAFF3008024
:101FF0001030FFF7EDB900BFAFF30080AFF3008002
:1020000010304FF0FF33FFF7E3B900BFAFF30080AC
:102010003030FFF75DBA00BFAFF30080AFF3008050
:1020200030304FF0FF33FFF753BA00BFAFF30080FB
:102030001030FFF79DB900BFAFF30080AFF3008011
:102040003030FFF715BA00BFAFF30080AFF3008068
:10205000704700BFAFF30080AFF30080AFF30080A4
:1020600038B50E4B0546044645F8043B656000252F
:10207000A5600125103004F150014022084B257362
:10208000FFF766F904F1300004F190014022054B9E
:10209000FFF7DEF96462A46438BD00BF703D00083C
:1020A000711F0008E11E0008AFF30080AFF300804D
:1020B00070B504460D46E0B1FEF72AFAFEF778FB4C
:1020C000217B481EC3B2012B02D90C48FEF798FCB5
:1020D0002B680222C4F8D0509C602273FEF788FB64
:1020E000FEF71EFA294651F8040BBDE87040FFF7D1
:1020F000C7BB0348FEF784FCDEE700BF403D000895
:10210000303D0008AFF30080AFF30080AFF30080F4
:1021100090F8401001F06003202B01D000207047A0
:1021200090F84130212B0BD0222B03D0202B07D04D
:1021300000207047002242638263C263012070471F
:1021400003490723002241638363C2630120704770
:1021500004080020AFF30080AFF30080AFF30080ED
:10216000F8B5846805460E46FEF7D2F9FEF760FB27
:10217000206CE26BA36B871AFF1A04D1FEF778FB81
:10218000FEF7CEF9F8BDFEF773FBFEF7C9F9284656
:102190003146E26B3B4600F0CBFAFEF7B9F9FEF7A9
:1021A00047FB28463146FFF7FBFBA168201D41F0A5
:1021B0000802A2600021FFF793F8E36B256C206B07
:1021C000E91A04F13005A8426364A163D6D0002661
:1021D0002846FEF73DFCFEF7CBFC8662206BA8424A
:1021E000F6D1FEF745FBFEF79BF9F8BDAFF3008093
:1021F0002DE9F041846805460F46FEF789F9FEF7A0
:1022000017FBA6692EB1FEF733FBFEF789F9BDE88F
:10221000F081FEF72DFBFEF783F94023284639466F
:10222000E26900F045FA8046FEF772F9FEF700FB1E
:1022300028463946FFF794FBA568201D45F00401A8
:10224000A1603146FFF74CF82369E26904F11005FB
:10225000AB42A262C4F81880D5D02846FEF7F8FB3E
:10226000FEF786FC86622069A842F6D1FEF700FBE5
:10227000FEF756F9BDE8F081AFF30080AFF30080C0
:10228000704700BFAFF30080AFF30080AFF3008072
:1022900000F086BCAFF30080AFF30080AFF30080A6
:1022A000204B00224FF0FF3030B41F491C691861E9
:1022B0001A61DD68D8604BF67F30DA601B4C4860ED
:1022C00007208A600860E168194841F08071E16088
:1022D0000468184944F001040460D86940F0805053
:1022E000D861D86940F00060D861086840F4807017
:1022F0000860186A00F44071B1F5407F03D04FF4D4
:10230000803119621A62074B1A6A12F4004F07D122
:10231000186A40F440721A62196A41F40040186267
:1023200030BC70470010024010E000E0F0ED00E02B
:10233000001000E000700040AFF30080AFF30080B9
:102340001F4B1868194640F001021A600B681C4ABE
:1023500013F0020FFAD01368002003F0F9011160A6
:10236000114650604868164A10F00C0FFAD11068F8
:10237000114640F4803313600B68114A13F4003F98
:10238000FAD05368114643F488105060136843F044
:102390008070106008680A4A10F0007FFAD009487F
:1023A000094B1121506019605068114640F002033A
:1023B00053604A6802F00C0CBCF1080FF9D1704769
:1023C000001002400064510000200240AFF3008082
:1023D000154B30B49A69154D42F07D049C6101683B
:1023E000134CE960826813496A604368124A2B60A3
:1023F000C568124BE56045696560056925608469BB
:10240000CC60046A4C60C4690C60416AD160C16AE6
:102410005160816A1160026BDA60816B5960426BB6
:102420001A6030BC704700BF001002400008014035
:10243000000C014000100140001401400018014050
:1024400010B5FEF735FAFEF753FABDE81040FEF777
:102450006FB800BFAFF30080AFF30080AFF3008030
:102460000148FFF705BA00BFAC0D0020AFF30080B4
:10247000037870B5012B044600D070BD0C4A904221
:1024800004D02046BDE87040FFF7AABA094A0A4DB9
:10249000D669132046F40006D66160212B64FEF74E
:1024A000B7F81420E021FEF7B3F800232B64E8E727
:1024B000AC0D002000100240005C0040AFF3008033
:1024C00090F84A00024B40F08002DA64704700BF87
:1024D000005C0040AFF30080AFF30080AFF30080FA
:1024E0000A1D2DE9F04150F822400546226802F00D
:1024F0000303013B022B96BF36484FF4007330F8BC
:102500001330A06808B143F02003E66866B112F00A
:10251000100F55D0012010FA01F2B5F80E8043F4E7
:10252000405342EA0807EF8143EA010C2A4F2CF49A
:10253000F04626F0700047F8210047F6700857F87B
:10254000212003EA080C638A8CEA02063E2B47F836
:1025500021602BD95F1E47F01F06701C42116FEAE5
:10256000C2676FEA57421C4ED5F84C80306DB4F804
:1025700010C000F1005707F5405606EBC1000CEB08
:10258000080647000021B6F5007FB980BA81EE64E5
:1025900019D89B19B3F5007FC7F80080EB6402D906
:1025A0000E48FEF72DFABE60BDE8F0815A1E42F0DB
:1025B00001077E1C06EBD670420202F47C42D2E791
:1025C00043F40053B0E70548FEF71AFA638AEE6C4D
:1025D000DFE700BFA03D0008005C0040D03D0008E0
:1025E000416830B40A4BCD6800241C65A54214BF75
:1025F0004FF41E454FF41C455C6421468024DC6486
:102600001D64044B4022C264036130BCFFF768BF05
:10261000005C0040E03D0008AFF30080AFF30080B5
:10262000054B53F8210010F4405004D0B0F5805F02
:102630000CBF012002207047005C0040AFF3008017
:10264000054B53F8211001F03003102B9ABF034AB9
:10265000D05C0220704700BF005C0040B03D000825
:102660000F4B10B41C6D134604F1005000F5405C94
:102670000CEBC1046100886800F1005C0CF540546B
:1026800061008C465CF8044B888823F8024BBCF848
:1026900008105080BCF8042099805A8010BC704704
:1026A000005C0040AFF30080AFF30080AFF3008028
:1026B0001B48F0B4006D00F1005000F5405C0CEBDD
:1026C000C1014800816880898005800D834228BF50
:1026D000034601335B0820D001F1005101F540555C
:1026E00069005C1E51F8045B234622F8025B04F08B
:1026F000010493B12CB151F8044B013B22F8024B79
:102700000BD00D4655F8047B4E68144624F8027B26
:10271000291D5680A21C023BF3D1F0BC704700BFBC
:10272000005C0040AFF30080AFF30080AFF30080A7
:10273000184870B4046D04F1005000F5405C0CEBD7
:10274000C104591C600049080468838020D004F14A
:10275000005C01390CF5405332F8020B5C000B466B
:1027600044F8040B01F0010193B129B132F8021BC6
:10277000013B44F8041B0BD0104630F8026B55881F
:10278000214641F8046B821C65600C1D023BF3D1AD
:1027900070BC7047005C0040AFF30080AFF3008076
:1027A0002DE9F04F81B0FEF783F8904B5C6C14F488
:1027B000806F40F00C8114F4006F0ED08C488B4A6F
:1027C0004368116C1B6841F0080111640BB10321CF
:1027D0009847864A6FF40060506414F4805F09D013
:1027E000824A916C11F4004F00F0E4807F4A6FF44C
:1027F0008050506414F4007F08D07D484368DB6843
:1028000003B1984779486FF40071416414F4004FA4
:1028100000F0A480DFF8D891744DCA4613E001207F
:1028200010FA04F1B9F80EE059F828302EEA010C3C
:10283000A9F80EC0DA686E48214690476C6C14F413
:10284000004F00F08B8004F00F0455F8246004F171
:10285000040816F0800F59F828703AD055F8241063
:1028600021F4F04C2CF0F00345F824303A6812F0D3
:10287000100F7AD12B6D796903F1005202F5405E99
:102880000EEBC4004300B3F804C00A688868D1F8AE
:1028900004E01FFA8CF3D218C018C3EB0E030A60D1
:1028A00088604B60002B60D0B7F810E05FFA84FBC3
:1028B0004F485946734528BF7346FFF739FF55F80F
:1028C0002B2022F4F04020F0400C8CF0300145F831
:1028D0002B1016F4004FB1D055F8241016F4006FE9
:1028E00021F4784E2EF0700345F824304BD138682F
:1028F00010F0100F93D1BB69E6B25A6831469B685D
:102900003B48FFF7D5FEBB6955F826E01A885F689B
:10291000D968D3F808C02EF4904E2EF0700E013A0C
:102920003F1809188EF4405EC0EB0C0092B245F8D7
:1029300026E05F60D96098601A80002A2AD055F896
:10294000242022F4904121F0700C8CF4405045F882
:1029500024006C6C14F4004F7FF475AFFDF7C8FFD2
:1029600001B0BDE8F04FFDF7E3BD012212FA04F01B
:10297000BAF80CC0BB682CEA0001AAF80C101C487D
:1029800021469847A5E759F8283019485A68214642
:10299000904753E7012111FA04F0BAF80EC05AF833
:1029A00028302CEA000EAAF80EE0DC681048314608
:1029B000A04743E70E48116C436821F008011B68EB
:1029C0001164002B3FF412AF042198470EE7084D25
:1029D0002846FFF705F86868036813B12846002108
:1029E000984702496FF480624A64E4E6005C004064
:1029F000AC0D0020AFF30080AFF30080AFF3008098
:102A0000043150F821108869426000228360C2605E
:102A10003BB14A8A511EC918B1FBF2FCA0F800C0B4
:102A20007047012303807047AFF30080AFF300804D
:102A300070B40D1D50F8254000266569248A6B602E
:102A4000A34228BF23462A60AE6070BCFFF770BE69
:102A5000054B53F8212022F4904C2CF0700080F4A8
:102A6000405243F821207047005C0040AFF30080E3
:102A7000054B53F8212022F4F04C2CF0400080F05C
:102A8000300243F821207047005C0040AFF3008023
:102A9000054B53F8212022F4904C2CF0700080F468
:102AA000805243F821207047005C0040AFF3008063
:102AB000054B53F8212022F4F04C2CF0400080F01C
:102AC000100243F821207047005C0040AFF3008003
:102AD000094B53F8210000F44052B2F5405F09D091
:102AE00053F8212022F4F04020F0400C8CF40052E6
:102AF00043F82120704700BF005C0040AFF3008026
:102B0000084B53F8210000F03002302A09D053F866
:102B1000212022F4F04020F0400C8CF0200243F8F9
:102B200021207047005C0040AFF30080AFF30080CD
:102B300010B5FDF7BDFE16498B88154A13F0080F36
:102B4000FAD011889488B2F804C00C402CF0070029
:102B50000304180C14F0010F908014D114F0020F2C
:102B60000CD114F0040F03D00A48022102689047E8
:102B7000FDF7BEFEBDE81040FDF7DABC05480121B7
:102B800003689847EDE70348002102689047E5E7AE
:102B9000002800400C0E0020AFF30080AFF300804F
:102BA0001A498B88194A13F0080FFAD010899389B3
:102BB00001041FFA83FC61444FF22340814217D085
:102BC000B2F804C011491CF0200FF9D08A88002304
:102BD0001FFA82FC4CF010004FF2234288800B81D8
:102BE0008A81B1F804C02CF0100003041A0C8A800A
:102BF000064A918811F0200FFBD0044A002313806D
:102C0000034A0320F0211360FDF702BD00280040B5
:102C10000C0E0020AFF30080AFF30080AFF3008014
:102C2000FFF78EBBAFF30080AFF30080AFF30080FF
:102C3000704700BFAFF30080AFF30080AFF30080B8
:102C4000002903DD0449054A00F06ABA044B05492E
:102C5000DA6800F065BA00BF403E00084C3E00084C
:102C60004C0D0020543E0008AFF30080AFF300800D
:102C700010B5002982B0044606DD1949194A02B090
:102C8000BDE8104000F04CBA1749184A00F048FA65
:102C900020461749174A00F043FA20461649174ABA
:102CA00000F03EFA20461649164A00F039FA20464E
:102CB0001549164A00F034FA20461549154A00F025
:102CC0002FFA20461449154A00F02AFA2046144CDF
:102CD0001449154A154B009400F022FA02B010BDB9
:102CE000403E00085C3E0008643E0008783E000854
:102CF000803E0008943E0008A03E0008B43E000854
:102D0000BC3E0008D03E0008DC3E0008F03E000853
:102D1000083F00081C3F0008443F0008583F0008D7
:102D2000943F00086C3F0008843F0008903F000873
:102D30000A6838B5054642B10C462846034900F0FA
:102D4000EFF954F8082F002AF7D138BDA03F00084A
:102D50002DE9F041054600680C4616469846A8B194
:102D60002F4602E057F8080F68B13146FDF7C0F969
:102D700005460028F6D120467E684146069AB047AF
:102D80002846BDE8F0810120BDE8F0810120BDE8C2
:102D9000F08100BFAFF30080AFF30080AFF300809D
:102DA00038B504460D46A8B108600D492046FDF728
:102DB0004FFA241820462021FDF7C2F9286018B1E7
:102DC000002300F8013B28602078002814BF20462B
:102DD000002038BD0C68002CE7D1204638BD00BF6C
:102DE000D0360008AFF30080AFF30080AFF300806F
:102DF000014B1B60704700BF100E0020AFF3008036
:102E000000B583B00090034B0020FEF7F9F803B043
:102E100000BD00BFD12E0008AFF30080AFF30080EB
:102E2000013A2DE9F843884605460F4601EB0209B1
:102E3000296828464B694FF0FF31984704B2002CAF
:102E400006462CDB042C2DD0082C0FD00D2C30D0B6
:102E50001F2CEDDD4F45EBD2296828460C694FF059
:102E6000FF32F1B2A04707F8016BE1E74745DFD039
:102E70002B6821461E694FF0FF322846B04728686C
:102E8000202103694FF0FF32284698472A682846D8
:102E9000166921464FF0FF32B047013FC8E70120D5
:102EA000BDE8F8832846074900F03AF90120BDE85B
:102EB000F8832846044900F033F900203870BDE853
:102EC000F88300BFA43F0008543F0008AFF3008020
:102ED0002DE9F04365490468CB69654AD0F8048060
:102EE00099B020469A61634900F01AF94FF0000941
:102EF0002046614900F014F9204602A94022FFF75C
:102F00008FFF064600283BD117A902A8FFF748FF0C
:102F100017A905463046FFF743FF0346002842D075
:102F2000304617A91293FFF73BFF034600285DD0F8
:102F3000304617A91393FFF733FF0346002857D0F5
:102F4000304617A91493FFF72BFF0346002851D0F2
:102F5000304617A91593FFF723FF00284CD02046D1
:102F6000464900F0DDF820464349169600F0D8F8AF
:102F7000204602A94022FFF753FF06460028C3D08F
:102F800020463F4900F0CCF8FDF7C2FAFDF710FCEF
:102F900000213C48FEF7A4F90020FDF7B9FF00200E
:102FA00019B0BDE8F08306460DF1600C0CEB86000D
:102FB00040F8189C002D9BD028463349FDF798F81F
:102FC00038B9002EE0D0204630492F4A00F0A8F84A
:102FD0008EE728462E49FDF78BF878B9002E30D0C1
:102FE00020462A492A4A00F09BF881E70126DBE7C0
:102FF0000226D9E70326D7E70426D5E712AF2548EE
:1030000021462A4633460097FFF7A2FE00283FF4E8
:103010006FAFB8F1000F0AD03346404612AE2146DA
:103020002A460096FFF794FE00283FF461AF204641
:1030300019492A4600F074F82046184900F070F843
:1030400056E71749204600F06BF820461149FFF774
:103050006FFEB8F1000F03D020464146FFF768FE2F
:103060002046104900F05CF842E700BF5C0D0020EC
:10307000A83F0008B03F0008C83F0008DC3F000838
:10308000D03F0008100E0020F43F0008403E00082A
:10309000FC3F00080C0800201C40000820400008ED
:1030A00004400008543F0008AFF30080AFF30080F5
:1030B00070B400F10B0600F10A04B1FBF2F502FB5B
:1030C000151101F13003392BC8BF01F1370329462F
:1030D000254604F801390029EFD10446C5EB060C5A
:1030E000E2436044121812F0010F29460AD004F896
:1030F000013B11F8013F05E011F8013F637011F841
:10310000013F541C224602F8013B8242F4D170BCBC
:10311000704700BFAFF30080AFF30080AFF30080D3
:103120000EB42DE9F04F84B00DAB53F8044BDFF82B
:1031300090B305460393217859B1013425290DD068
:103140002A68284613694FF0FF32984721780029F2
:10315000F3D104B0BDE8F04F03B0704723782D2BB6
:1031600000F0868100262E2B06BF14F8013F4FF099
:1031700030084FF020080398611C4FF0000A07E068
:10318000027804300AEB8A0A11F8013B02EB4A0A82
:10319000A3F13004E2B2092A0C46F3D92A2BEFD06E
:1031A0002E2B039000F050814FF0000C6C2B00F0A0
:1031B00045814C2B00F04281A3F14100C1B2192995
:1031C0008CBF00210121A3F14407342F00F21981A3
:1031D000DFE817F024011701170117011701170184
:1031E000170117011701170117011C01170117011A
:1031F0001701170117013201170117010C011701FF
:1032000017011701170117011701170117011701FE
:103210001701C30024011701170117011701170136
:10322000170117011701170117011C0117011701D9
:103230001701350017013201170117010C01039B1B
:1032400047F6FF781F681A1D0392002F08BF5F46DC
:103250003878BCF1000F08BFC446002800F02B816D
:10326000781CC14384447A7801EB0C0909F0010110
:10327000431C92B1634510D021B1184613F8012BBD
:103280004AB90AE01A4612F8011B184629B15978C2
:103290001046531C09B16345F4D1C7EB0009C9EBD3
:1032A0000A0C4FF020082CEAEC7A002E67D0B9F116
:1032B000000F28DD3E462A68F843B94416F8011B82
:1032C00009EB0007136928464FF0FF3298474E4537
:1032D00007F0010717D01FB12B6816F8011B0BE090
:1032E0002868374617F8011B03694FF0FF3228465C
:1032F00098472B6871787E1C1B6928464FF0FF3277
:1033000098474E45ECD1BAF1000F3FF414AF2E6848
:103310000AF1FF3C33692846664641464FF0FF32CA
:103320000CF001079847002E3FF405AF1FB12A6843
:10333000284613690AE02868414603694FF0FF32C6
:10334000284698472968013E0B69284641464FF0B8
:10335000FF329847013EEED1EDE6039900AF0A68CF
:103360000B1D4FF0200803938DF80020781CC7EB4D
:103370000009C9EB0A0C2CEAEC7A002E97D1CAF1AD
:10338000000ABAF1000F92D039782D2900F085801B
:1033900029686FEA0A0E0B69284641464FF0FF3252
:1033A0000EF0010698471AF1010A80D056B129683B
:1033B00028460B694FF0FF32414698471AF1010A3F
:1033C0003FF475AF2868414603694FF0FF32284645
:1033D000984728680AF1010A0369414628464FF0D8
:1033E000FF3298471AF1010AECD160E7102281B14F
:1033F000039B191D039119686846FFF759FE6F4634
:10340000B5E700AF8DF80030781CB0E7082200293E
:10341000EED10398071D01680397EDE700292FD12E
:10342000039B19681A1D002903922FDB68460A22A4
:10343000FFF73EFE6F469AE70A22D8E72278EAB104
:10344000013413460121BEE64FF0000C0C4614F87F
:10345000013B0CEB8C07A3F13001CAB2092A2146CB
:1034600003D92A2B08D10278043002EB470CEDE790
:1034700014F8013F012676E6039097E60121A2E6C3
:10348000039F3968381D00290390CFDA2D2000AF43
:103490008DF800004942781CC9E7B8F1300F7FF47D
:1034A00077AF2A68284616694FF0FF32B0470137D8
:1034B00009F1FF396CE738464FF0200857E700BFA5
:1034C00030400008AFF30080AFF30080AFF300801E
:1034D00008B5FEF795F9FDF7EBF800F0B9F800F044
:1034E000CFF8FA20FDF7FCFCF9E700BFAFF300804E
:1034F000022906D0032906D00748012918BF002059
:10350000704706487047032A03D8054800EBC200FD
:1035100070470020704700BFC0430008B04000085B
:1035200080430008AFF30080AFF30080AFF300806A
:10353000F0B5002985B0054605DD144905B0BDE8A4
:10354000F040FFF7EDBD1249FFF7EAFDFDF788FDFA
:10355000104E0446A168E368676A009194F822005F
:103560000D49421E019294F82000224656F820E0B0
:103570002846CDF808E00397FFF7D2FD2046FDF777
:1035800087FD04460028E5D105B0F0BD00410008E4
:1035900014410008B042000844410008AFF3008025
:1035A00030B5002983B0044604DD0E49FFF7B8FDAD
:1035B00003B030BD01A90020FEF7DAF80546FEF79A
:1035C0000FF8094902462046FFF7AAFD20462A4681
:1035D0000649FFF7A5FD20460549019AFFF7A0FD22
:1035E000E6E700BF64410008744100089441000808
:1035F000AC410008AFF30080AFF30080AFF3008070
:10360000022938B50C46054616D1FCF781FFFDF7B7
:103610000FF928460121094AFEF762F9284621469A
:10362000074AFEF75DF928460321064AFEF758F9D6
:10363000FDF71EF9FCF774FF38BD00BF40400008DD
:10364000C040000880420008AFF30080AFF3008064
:1036500010B5084C4FF47A70FDF742FC2046FEF797
:10366000FFFC20460449FEF723FDBDE81040FFF7AC
:10367000BFBB00BF140E0020A0430008AFF30080C2
:1036800010B50E4C206850B190F820C0BCF10E0F60
:1036900000D010BDFDF774FC0020206010BD084B69
:1036A000D3F8D02011680B78042BEDD105484FF4E6
:1036B0004B614022FFF7A4FB206010BDE80E002004
:1036C000140E0020A0420008AFF30080AFF300808A
:1036D0002000390000000000000000000000000091
:1036E00000202020202020202020282828282820D2
:1036F00020202020202020202020202020202020CA
:103700002088101010101010101010101010101031
:103710001004040404040404040404101010101021
:1037200010104141414141410101010101010101EB
:10373000010101010101010101010101101010103D
:1037400010104242424242420202020202020202BD
:103750000202020202020202020202021010101011
:103760002000000000000000000000000000000039
:103770000000000000000000000000000000000049
:103780000000000000000000000000000000000039
:103790000000000000000000000000000000000029
:1037A0000000000000000000000000000000000019
:1037B0000000000000000000000000000000000009
:1037C00000000000000000000000000000000000F9
:1037D00000000000000000000000000000000000E9
:1037E00000000000000000000000000000000000D9
:1037F00069646C65000000006D61696E0000000086
:1038000053562331000000005356233200000000BD
:1038100053562333000000005356233400000000A9
:103820005356233500000000535623360000000095
:103830005356233700000000535623380000000081
:103840005356233900000000535623313000000046
:10385000535623313100000000000000000000003A
:1038600022636856545365744922282900000000D9
:1038700022636856545265736574492228290000F2
:103880006368565452657365744928292C20233186
:103890000000000000000000000000000000000028
:1038A000636853636852656164794928292C202331
:1038B00031000000737461636B206F766572666C13
:1038C0006F77000000000000000000000000000012
:1038D00022636854686443726561746549222829CB
:1038E0000000000022636854686453657450726974
:1038F0006F72697479222829000000006368546897
:1039000064526573756D6528292C202331000000F1
:10391000226368546864536C65657022282900002E
:103920006368546864457869745328292C202331CE
:10393000000000002263685468645761697422289B
:103940002900000063685468645761697428292C51
:103950002023310063685468645761697428292CF6
:1039600020233200000000000000000000000000E2
:10397000636854686441646452656628292C202376
:1039800031000000636854686452656C656173655A
:1039900028292C2023310000226368546864437274
:1039A0006561746546726F6D4D656D6F7279506FAC
:1039B0006F6C2228290000000000000000000000B9
:1039C00063685265674E65787454687265616428EF
:1039D000292C20233100000000000000000000001E
:1039E0002263684D7478496E6974222829000000AA
:1039F0002263684D74784C6F636B53222829000052
:103A000063684D74784C6F636B5328292C202331E5
:103A10000000000063684D74784C6F636B53282975
:103A20002C202332000000002263684D7478547209
:103A3000794C6F636B5322282900000063684D7432
:103A400078556E6C6F636B28292C202331000000A1
:103A500063684D7478556E6C6F636B28292C202336
:103A60003200000063684D7478556E6C6F636B5361
:103A700028292C202331000063684D7478556E6C22
:103A80006F636B5328292C202332000000000000B4
:103A900022636845767452656769737465724D6117
:103AA000736B222829000000226368457674556EE6
:103AB00072656769737465722228290022636845FC
:103AC00076745369676E616C4922282900000000F2
:103AD0002263684576745369676E616C22282900F9
:103AE00022636845767442726F6164636173744DDA
:103AF00061736B4922282900226368457674446902
:103B00007370617463682228290000006368457639
:103B100074446973706174636828292C2023310010
:103B200022636849515265616454696D656F7574AB
:103B3000222829002263684F5157726974655469BD
:103B40006D656F75742228290000000000000000D8
:103B500022636848656170496E69742228290000F3
:103B600022636848656170467265652228290000F5
:103B70006368486561704672656528292C20233189
:103B80000000000000000000000000000000000035
:103B9000226368506F6F6C496E6974222829000097
:103BA000226368506F6F6C416C6C6F6349222829E7
:103BB00000000000226368506F6F6C4672656549B3
:103BC0002228290000000000000000000000000082
:103BD00000000000000000000000000000000000E5
:103BE00000000000000000000000000000000000D5
:103BF00022757362537461727422282900000000D8
:103C0000757362537461727428292C20233100006B
:103C10002275736253746F70222829007573625382
:103C2000746F7028292C20233100000022757362E4
:103C3000496E6974456E64706F696E7449222829F3
:103C400000000000757362456E61626C65456E64CC
:103C5000706F696E744928292C2023310000000000
:103C6000757362456E61626C65456E64706F696EF6
:103C7000744928292C202332000000002275736229
:103C800044697361626C65456E64706F696E7473CC
:103C9000492228290000000075736244697361623B
:103CA0006C65456E64706F696E74734928292C20A9
:103CB000233100002275736253746172745265631C
:103CC0006569766549222829000000002275736223
:103CD00053746172745472616E736D6974492228F1
:103CE00029000000227573625374616C6C52656325
:103CF00065697665492228290000000022757362F3
:103D00005374616C6C5472616E736D6974492228CE
:103D1000290000000000000000000000000000007A
:103D20000100000000000000000000000000000092
:103D30002273647553746172742228290000000094
:103D4000736475537461727428292C202331000028
:103D500022736453746F70222829000073647553B2
:103D6000746F7028292C202331000000000000000F
:103D70002120000801200008A11E0008B11E000833
:103D8000412000083120000811200008F11F000820
:103D9000C11E00080000000000000000000000003C
:103DA0000004000000060000000000000000000009
:103DB00000020202020202020202020202020202E5
:103DC00001000000000000000000000000000000F2
:103DD000706D5F616C6C6F6328292C2023310000AB
:103DE00000000000211A0008211D0008B11D000874
:103DF00040004000FC0D0020FC0D002000000000F1
:103E0000FFFFFFFF844B888888888888FFFFFFFFBB
:103E1000888888888888B8B4FFFFFFFF8888844432
:103E200088338388FFFFFFFF4488888888888888D4
:103E3000FFFFFFFF88888888888888880000000046
:103E400055736167653A2025730D0A0073797374A1
:103E5000696D6500256C750D0A000000696E666F5E
:103E6000000000004B65726E656C3A202020202017
:103E7000202025730D0A0000322E342E320000005F
:103E8000436F6D70696C65723A2020202020257385
:103E90000D0A000047434320342E352E3200000027
:103EA0004172636869746563747572653A2025733D
:103EB0000D0A000041524D76372D4D00436F72655B
:103EC0002056617269616E743A2025730D0A0000F4
:103ED000436F727465782D4D33000000506F72741B
:103EE00020496E666F3A2020202025730D0A0000BD
:103EF000416476616E636564206B65726E656C20EB
:103F00006D6F646500000000506C6174666F726DC7
:103F10003A202020202025730D0A000053544D33F1
:103F200032463120506572666F726D616E63652036
:103F30004C696E65204D656469756D2044656E73CE
:103F400069747900426F6172643A20202020202039
:103F5000202025730D0A00004F6C696D6578205391
:103F6000544D33322D503130330000004275696CAE
:103F7000642074696D653A202020257325732573AC
:103F80000D0A000041756720313420323031330092
:103F9000202D200032303A34353A31320000000012
:103FA000257320005E4400007368656C6C0000009F
:103FB0000D0A43686962694F532F52542053686554
:103FC0006C6C0D0A0000000063683E2000000000D9
:103FD0000D0A6C6F676F757400000000746F6F20BE
:103FE0006D616E7920617267756D656E74730D0A0F
:103FF00000000000657869740000000068656C705E
:1040000000000000436F6D6D616E64733A20686557
:104010006C70206578697420000000002573000032
:10402000203F0D0A0000000000000000000000001A
:10403000286E756C6C290000000000000000000074
:1040400012000000000000006121000800000000D4
:104050004000000000000000000000000000000020
:1040600009024300020100C03209040000010202FB
:1040700001000524001001052401000104240202AE
:104080000524060001070582030800FF090401005A
:10409000020A000000070503024000000705810234
:1040A00040000000000000000000000000000000D0
:1040B0004300000060400008000000000000000015
:1040C0001300000000000000812200080000000032
:1040D00010000000000000000000000000000000D0
:1040E00050420008A135000854420008313500084C
:1040F00000000000000000000000000000000000C0
:1041000055736167653A20746872656164730D0A5E
:104110000000000020202020616464722020202004
:10412000737461636B207072696F207265667320AF
:104130002020202073746174652074696D650D0AF8
:1041400000000000252E386C7820252E386C782051
:1041500025346C752025346C752025397320256C29
:10416000750D0A0055736167653A206D656D0D0A1E
:1041700000000000636F72652066726565206D65E2
:104180006D6F7279203A2025752062797465730D00
:104190000A0000006865617020667261676D656E77
:1041A00074732020203A2025750D0A00686561701F
:1041B000206672656520746F74616C20203A20253A
:1041C000752062797465730D0A0000005245414400
:1041D0005900000043555252454E54005355535018
:1041E000454E444544000000575453454D000000DF
:1041F00057544D54580000005754434F4E4400004C
:10420000534C454550494E4700000000575445580F
:104210004954000057544F52455654005754414E8C
:104220004445565400000000534E444D534751003E
:10423000534E444D5347000057544D534700000020
:10424000575451554555450046494E414C000000D4
:104250006D656D0074687265616473000000000034
:1042600012011001020000408304405700020102C5
:10427000030100000000000000000000000000003A
:10428000120000000000000000000000F121000802
:1042900000004000000000000000000000000000DE
:1042A000140E0020E04000080000000000000000A4
:1042B000CC410008D4410008DC410008E841000876
:1042C000F0410008F8410008004200080C420008D4
:1042D000144200081C42000828420008304200082E
:1042E0003842000840420008484200080000000030
:1042F00004030904000000000000000000000000AA
:104300002603530054004D006900630072006F00E3
:1043100065006C0065006300740072006F006E0041
:10432000690063007300000000000000000000004E
:104330003803430068006900620069004F005300C1
:104340002F005200540020005600690072007400D3
:10435000750061006C00200043004F004D002000FC
:1043600050006F00720074000000000000000000A8
:10437000080332003400320000000000000000009A
:1043800004000000F042000826000000004300087E
:1043900038000000304300080800000070430008A7
:1043A000AC0D002001360008F1340008112100088E
:1043B00000000000000000000000000000000000FD
:0843C000120000006042000839
:1043C800E036000800960000000008005C3E000887
:1043D800712C00084C3E0008412C00080000000029
:0443E80000000000D1
:04000005080000F0FF
:00000001FF
