:020000040800F2
:1000000000280020114100081D07000829070008EA
:100010003107000839070008410700080000000008
:100020000000000000000000000000004907000878
:100030005507000800000000610700086D07000870
:100040005541000855410008554100085541000838
:100050005541000855410008554100085541000828
:100060005541000855410008554100085541000818
:100070005541000855410008554100085541000808
:10008000554100085541000855410008790700080E
:1000900085070008554100085541000855410008F2
:1000A00055410008554100085541000855410008D8
:1000B00055410008554100085541000855410008C8
:1000C00055410008554100085541000855410008B8
:1000D00055410008554100085541000855410008A8
:1000E0005541000855410008554100080000000036
:1000F0000000000000000000000000000000000000
:0C01000000000000000000005FF808F1A3
:10010C0040F23413C2F200031A780AB901201870B5
:10011C00704700BF40F23410C2F2000008B503680B
:10012C002BB140F20003C0F2000303B1984708BDA5
:10013C0080B400AFBD4680BC704700BF80B400AF38
:10014C00BD4680BC704700BF80B400AFBD4680BCCC
:10015C00704700BF80B483B000AF0346FB7107F15A
:10016C000C07BD4680BC704780B584B000AF104B07
:10017C001B68FB600F4B1B68BB600F4B1B687B60E5
:10018C00FA687B68D318FB60FB68002B0BD0F8680F
:10019C000A494FF0080200F015F8B86808494FF00A
:1001AC00040200F00FF807F11007BD4680BD00BF38
:1001BC00E8F7FF1FECF7FF1FF0F7FF1F760000209A
:1001CC008600002080B487B000AFF860B960134699
:1001DC00FB714FF00003FB754FF00003FB7531E032
:1001EC00FB684FEA1373092B0DD8FB7D4FEA4303D1
:1001FC00BA68D318FA684FEA1272D2B202F130021E
:10020C00D2B21A700CE0FB7D4FEA4303BA68D318E4
:10021C00FA684FEA1272D2B202F13702D2B21A70F5
:10022C00FB684FEA0313FB60FB7D4FEA430303F1CA
:10023C000103BA68D3184FF000021A70FB7D03F16A
:10024C000103FB75FA7DFB799A42C9D307F11C07B0
:10025C00BD4680BC704700BF80B582B000AF00F0D7
:10026C0009F800F025F80346FB7100F035F8034659
:10027C00BB71FEE780B582B000AF4FF010004FF0BD
:10028C00010101F0D1FD4FF44043BB804FF004035A
:10029C00FB714FF00103BB7107F1040303481946CE
:1002AC0001F0A8FC07F10807BD4680BD0010014015
:1002BC0080B500AF07484FF4804101F07BFD034649
:1002CC00002B02D04FF0000301E04FF00103184661
:1002DC0080BD00BF0010014080B500AF07484FF44F
:1002EC00004101F067FD0346002B02D04FF00003E4
:1002FC0001E04FF00103184680BD00BF0010014023
:10030C0080B584B000AFB9607A600246FA737B8026
:10031C00FB7B002B0DD17A687B881046B9681A4696
:10032C0001F036FE03461A46054B1A604FF00003E7
:10033C0001E04FF00103184607F11007BD4680BDE0
:10034C003801002080B584B000AFB9607A600246F5
:10035C00FA737B80FB7B002B0DD17A687B8810466F
:10036C00B9681A4601F0BEFD03461A46054B1A60E1
:10037C004FF0000301E04FF00103184607F110079E
:10038C00BD4680BD3801002080B590B000AF03465B
:10039C00FB714FF00003FB634FF00003BB63FB7971
:1003AC00002B3BD107F10C03184601F04BFE97F8DC
:1003BC002430DBB203F10203BB633B7DDBB24FF0B5
:1003CC00010202FA03F3002B03DA03F5FE7303F1C7
:1003DC0003034FEA6323FB63FB6903F10102BB6B6D
:1003EC0002FA03F3FA6B02FB03F2104B1A60104B88
:1003FC004FF400721A600D4B1B680D4A126802FB19
:10040C0003F20C4B1A60094B1B68094A126802FB79
:10041C0003F2084B1A604FF0000301E04FF00103A8
:10042C00184607F14007BD4680BD00BF840100207F
:10043C007C0100207401002080B584B000AF03461D
:10044C00B9607A60FB734C4B1B78002B15D1FA7B8F
:10045C004A4B53F82230BA6802FB03F2484B1A603D
:10046C00FA7B464B53F822307A6802FB03F2454B79
:10047C001A60414B4FF001021A703F4B1B78012B55
:10048C005CD1414B1B68002B21D13D4B1A68F97B89
:10049C003A4B53F821309BB2F97B084611463B4A44
:1004AC00FFF750FF394B4FF0810019464FF04002D7
:1004BC0003F0D8FDFA7B314B53F82230A3F1400204
:1004CC00314B1A60324B4FF040021A6016E02F4A43
:1004DC002F4B1B68D3184FF0810019464FF0400288
:1004EC0003F0C0FD284B1B68A3F14002264B1A6099
:1004FC00274B1B6803F14002254B1A604FF001009B
:10050C004FF0400103F0EEFC4FF001004FF03001D2
:10051C0003F034FB1A4B1B6803F14002184B1A60B2
:10052C00184B1B68A3F14002164B1A60194B9B68C1
:10053C00A3F14002174B9A60FFF7FAFD114B1B68B1
:10054C00002B15D1104B4FF000021A60104B4FF0DE
:10055C0000021A600A4B4FF000021A600E4B4FF06B
:10056C0003021A70044B4FF000021A70FFF7E6FDFD
:10057C0007F11007BD4680BD440100207C0100201E
:10058C0050010020540100203C0100209401002067
:10059C008C010020BC030020B603002080B586B07F
:1005AC0000AF0346B9607A60FB734E4B1B6803F1D6
:1005BC0040037B614C4B1B78002B15D1FA7B4B4BCA
:1005CC0053F82230BA6802FB03F2494B1A60FA7BEB
:1005DC00464B53F822307A6802FB03F2454B1A6003
:1005EC00414B4FF001021A703F4B1B78012B5DD130
:1005FC00414B4FF000021A6012E0404A394B1B6825
:10060C00D2183D4B1B683E49C95C117003F10102C5
:10061C00394B1A60334B1B6803F10102314B1A60E2
:10062C00304B1A687B699A42E7D3364B1B881A46C3
:10063C002F4B1B68D2182E4B1A602E4B1A68314B5D
:10064C001B88D21A2B4B1A602A4B1B68F97B274A42
:10065C0052F82120B3FBF2F102FB01F29B1A002BA2
:10066C0015D1204B4FF000021A60214B1A68F97B10
:10067C001E4B53F82130D21AF97B1C4B53F8213006
:10068C009BB2F97B084611461C4AFFF739FE1E4BFC
:10069C009A681C4B1B88D21A1B4B9A604FF00200B5
:1006AC004FF4405103F0A4FAFFF742FD114B1B68C5
:1006BC00002B03D0154B1B78042B0FD1094B4FF09B
:1006CC0000021A604FF000004FF0010100F0C8FC6E
:1006DC00054B4FF000021A70FFF730FD07F11807B9
:1006EC00BD4680BD40010020440100207C0100205B
:1006FC00480100204C0100209001002094010020B2
:10070C00D0030020B4030020BC030020B60300205B
:10071C0080B400AFBD4680BC704700BF80B400AF52
:10072C00FEE700BF80B400AFFEE700BF80B400AFAF
:10073C00FEE700BF80B400AFFEE700BF80B400AF9F
:10074C00BD4680BC704700BF80B400AFBD4680BCC6
:10075C00704700BF80B400AFBD4680BC704700BF7F
:10076C0080B400AFBD4680BC704700BF80B500AF01
:10077C0003F0C8F880BD00BF80B500AF00F0DAFC14
:10078C0080BD00BF80B500AF154B154A126842F012
:10079C0001021A60124A124B5968124B01EA030308
:1007AC0053600F4A0E4B1B6823F0847323F4803381
:1007BC0013600B4B0A4A126822F480221A60084B11
:1007CC00074A526822F4FE025A60054B4FF41F028E
:1007DC009A6000F00BF8044B4FF000629A6080BDF9
:1007EC00001002400000FFF800ED00E080B500AF03
:1007FC0000F002F880BD00BF80B483B000AF4FF0B2
:10080C0000037B604FF000033B603B4B3A4A12689D
:10081C0042F480321A60384B1B6803F400333B609F
:10082C007B6803F101037B603B68002B03D17B6881
:10083C00B3F5A06FEFD1304B1B6803F40033002BE2
:10084C0003D04FF001033B6002E04FF000033B602C
:10085C003B68012B4BD1294B284A126842F01002FD
:10086C001A60264B254A126822F003021A60234BA9
:10087C00224A126842F001021A601F4B1E4A52684B
:10088C005A601D4B1C4A52685A601B4B1A4A5268DC
:10089C0042F480625A60184B174A526822F47C1258
:1008AC005A60154B144A526842F488125A60124B23
:1008BC00114A126842F080721A6000BF0E4B1B681E
:1008CC0003F00073002BF9D00B4B0B4A526822F04B
:1008DC0003025A60084B084A526842F002025A60FE
:1008EC0000BF054B5B6803F00C03082BF9D107F133
:1008FC000C07BD4680BC704700100240002002402F
:10090C0080B500AF1F4B1B78A3F10203032B34D827
:10091C0001A252F823F000BF4B0900086D09000832
:10092C003509000835090008164B4FF000021A7003
:10093C004FF002004FF4405103F05AF920E0124BF3
:10094C00DB7B282B1BD1104B597B104B1A68104B9F
:10095C001B68084611461A4600F094FF00BF0FE0D2
:10096C004FF000004FF0010100F07AFB4FF0020055
:10097C004FF4405103F03CF902E000BF00E000BF2F
:10098C0080BD00BFB603002094030020B8030020F4
:10099C00CC03002080B582B000AF284BDB7BFB7111
:1009AC004FF00200264903F085FB03469AB2254B13
:1009BC001A80254B1B78002B02D0012B03D025E08D
:1009CC0000F048F836E0FB792A2B0BD11B4B597BF6
:1009DC001E4B1A681E4B1B68084611461A4600F03F
:1009EC00A1FF27E04FF0010000F06AFB134B5B7B8B
:1009FC0018464FF005014FF0240200F01DFF4FF098
:100A0C0002004FF0000100F02BFB13E04FF002004E
:100A1C0000F056FB094B5B7B18464FF005014FF07D
:100A2C00240200F009FF4FF002004FF0000100F02B
:100A3C0017FB00BF07F10807BD4680BD94030020DB
:100A4C00D0030020B4030020B6030020B80300201C
:100A5C00CC03002080B582B000AF4FF000037B6068
:100A6C000BE0434A7B68D31842497A688A1812789B
:100A7C001A707B6803F101037B603F4B1B881A469D
:100A8C007B689A42EDD83A4B5A683C4B5A60384BCB
:100A9C009A683A4B9A60384B1B881F2B17D04FF033
:100AAC00020000F00DFB324B4FF000021A60304B8D
:100ABC005B7B18464FF005014FF01A0200F0BCFEAC
:100ACC004FF001004FF0000100F0CAFA98E2284BF9
:100ADC00DB7B282B03D0264BDB7B2A2B1FD1244B13
:100AEC005B7C4FEA0362224B9B7C4FEA03431A4325
:100AFC001F4BDB7C4FEA03231A431D4B1B7D42EA41
:100B0C0003031A461E4B1A60194B9B7D4FEA0322B6
:100B1C00174BDB7D42EA03031A461A4B1A60144B3F
:100B2C001A68194B9A4240F05882114B5B7B1A465B
:100B3C00164B1B689A4207D80D4B9B7B002B03D09E
:100B4C000B4B9B7B102B23D94FF0020000F0B8FA13
:100B5C00074B5B7B18464FF005014FF0240200F069
:100B6C006BFE4FF001004FF0000100F079FA47E204
:100B7C0094030020D0030020B4030020BC03002009
:100B8C00B8030020CC0300205553424368010020D9
:100B9C00DA4BDB7BAF2B00F20C8201A252F823F074
:100BAC00CD0E0008BF0F0008BF0F00086D0E000827
:100BBC00210F0008BF0F0008BF0F0008BF0F00086F
:100BCC00510F0008BF0F0008810F0008BF0F00086D
:100BDC00BF0F0008BF0F0008BF0F0008BF0F0008B1
:100BEC00BF0F0008BF0F0008790E0008BF0F0008E8
:100BFC00BF0F0008390F0008BF0F0008BF0F000817
:100C0C00BF0F0008BF0F00089D0E0008850E0008DE
:100C1C00BF0F0008450F0008910E0008BF0F000819
:100C2C00BF0F0008BF0F0008BF0F0008B50E00086B
:100C3C00BF0F0008C10E0008BF0F0008BF0F00084F
:100C4C00D90E0008BF0F0008F10E0008BF0F0008F6
:100C5C00BF0F0008BF0F0008BF0F0008150F0008DA
:100C6C00BF0F0008BF0F0008BF0F0008BF0F000820
:100C7C00BF0F0008BF0F0008BF0F0008BF0F000810
:100C8C00BF0F0008BF0F0008BF0F0008BF0F000800
:100C9C00BF0F0008BF0F0008BF0F0008BF0F0008F0
:100CAC00BF0F0008BF0F0008BF0F0008BF0F0008E0
:100CBC00BF0F0008BF0F0008BF0F0008BF0F0008D0
:100CCC00BF0F0008BF0F0008BF0F0008BF0F0008C0
:100CDC00BF0F0008BF0F0008BF0F0008BF0F0008B0
:100CEC00BF0F0008BF0F0008BF0F0008BF0F0008A0
:100CFC00BF0F00082D0F0008BF0F0008BF0F000822
:100D0C00BF0F0008BF0F0008A90E0008BF0F000896
:100D1C00BF0F0008BF0F0008BF0F0008BF0F00086F
:100D2C00BF0F0008BF0F0008BF0F0008BF0F00085F
:100D3C00BF0F0008BF0F0008BF0F0008BF0F00084F
:100D4C00BF0F0008BF0F0008BF0F0008BF0F00083F
:100D5C00BF0F0008BF0F0008BF0F0008BF0F00082F
:100D6C00BF0F0008BF0F0008BF0F0008BF0F00081F
:100D7C00BF0F0008BF0F0008BF0F0008BF0F00080F
:100D8C00BF0F0008BF0F0008BF0F0008BF0F0008FF
:100D9C00BF0F0008BF0F0008BF0F0008BF0F0008EF
:100DAC00BF0F0008BF0F0008BF0F0008BF0F0008DF
:100DBC00BF0F0008BF0F0008BF0F0008BF0F0008CF
:100DCC00690F0008BF0F0008990F0008BF0F00083B
:100DDC00BF0F0008BF0F0008BF0F0008B10F0008BD
:100DEC00BF0F0008BF0F0008BF0F0008BF0F00089F
:100DFC00BF0F0008BF0F0008BF0F0008BF0F00088F
:100E0C00BF0F0008BF0F0008BF0F0008BF0F00087E
:100E1C00BF0F0008BF0F0008750F0008BF0F0008B8
:100E2C00BF0F0008BF0F0008BF0F0008BF0F00085E
:100E3C00BF0F0008BF0F0008BF0F0008BF0F00084E
:100E4C005D0F0008BF0F00088D0F0008BF0F0008D2
:100E5C00BF0F0008BF0F0008BF0F0008A50F000848
:100E6C00264B5B7B184600F0C9FCC9E0234B5B7B2F
:100E7C00184600F083FBC3E0204B5B7B184600F068
:100E8C00F1FCBDE01D4B5B7B184600F0EBFCB7E0C2
:100E9C001A4B5B7B184600F091FCB1E0174B5B7B67
:100EAC00184600F09BFCABE0144B5B7B184600F043
:100EBC009BFBA5E0114B5B7B184600F001FC9FE00F
:100ECC000E4B5B7B184600F0ADFD99E00B4B597B4C
:100EDC000B4B1A680B4B1B68084611461A4600F060
:100EEC00D1FC8DE0054B597B054B1A68054B1B68F3
:100EFC00084611461A4600F015FD81E094030020C7
:100F0C00B8030020CC0300203F4B5B7B184600F05D
:100F1C0059FD75E03C4B5B7B184600F0AFFD6FE074
:100F2C00394B5B7B184600F0CFFD69E0364B5B7BA1
:100F3C00184600F0C9FD63E0334B5B7B184600F0AC
:100F4C00C3FD5DE0304B5B7B184600F0BDFD57E008
:100F5C002D4B5B7B184600F0B7FD51E02A4B5B7BB9
:100F6C00184600F0B1FD4BE0274B5B7B184600F0B8
:100F7C00ABFD45E0244B5B7B184600F0A5FD3FE044
:100F8C00214B5B7B184600F09FFD39E01E4B5B7BD1
:100F9C00184600F099FD33E01B4B5B7B184600F0C4
:100FAC0093FD2DE0184B5B7B184600F08DFD00BFC8
:100FBC0026E04FF0020000F083F8134B5B7B1846E1
:100FCC004FF005014FF0200200F036FC4FF001000D
:100FDC004FF0000100F044F812E04FF0020000F076
:100FEC006FF8094B5B7B18464FF005014FF0200260
:100FFC0000F022FC4FF001004FF0000100F030F83F
:10100C0007F10807BD4680BD9403002080B582B06F
:10101C0000AF78600B467B807B884FF0810079684D
:10102C001A4603F01FF84FF001004FF0300102F0A8
:10103C00A5FD094B4FF003021A70084B9A687B8888
:10104C00D21A064B9A60054B4FF000021A7307F147
:10105C000807BD4680BD00BFB6030020BC030020BE
:10106C0080B582B000AF02460B46FA71BB71114BD2
:10107C00114A1A600F4BFA791A730E4B4FF081001C
:10108C0019464FF00D0202F0EDFF0C4B4FF005022C
:10109C001A70BB79002B09D0084B4FF004021A7060
:1010AC004FF001004FF0300102F068FD07F1080726
:1010BC00BD4680BDBC03002055534253B6030020EF
:1010CC0080B582B000AF0346FB71FB79012B0AD0CF
:1010DC00022B0FD0002B1BD14FF001004FF0100151
:1010EC0002F04CFD15E04FF002004FF4805102F07D
:1010FC007FFD0EE04FF001004FF0100102F03EFDBD
:10110C004FF002004FF4805102F072FD00BF00E07E
:10111C0000BF07F10807BD4680BD00BF80B500AF1A
:10112C00FFF7EEFB80BD00BF80B500AFFFF732FCD0
:10113C0080BD00BF80B500AF124B1B689AB2124B3A
:10114C001A80114B1B889BB203F400420F4B1B8877
:10115C0002EA0303002B01D002F038FA0A4B1B8879
:10116C009BB203F48062094B1B8802EA0303002B39
:10117C0006D0044B4FF6FF321A60054B5B6898475C
:10118C0080BD00BF445C00401004002048040020D7
:10119C00CC00002080B500AFFEF7E6FF064B1B68C5
:1011AC004FF000029A7200F0BBF902F041FF034BC2
:1011BC004FF000021A6080BD440400206C01002036
:1011CC0080B500AF454B4FF000029A72444B1B6840
:1011DC00444AD2795A724FF0000002F093FC4FF05F
:1011EC0000004FF4007102F0A1FC4FF000004FF032
:1011FC00200102F0C3FC4FF000004FF0180102F088
:10120C0011FE394B93F82C304FF00000194602F0C8
:10121C0087FE4FF000004FF0580102F0DFFD4FF059
:10122C00000002F04BFD4FF0000002F01BFD4FF0F0
:10123C0001004FF0000102F079FC4FF001004FF07B
:10124C00980102F0CBFD4FF001004FF0200102F0AD
:10125C0095FC4FF001004FF0000102F0C9FC4FF07B
:10126C0002004FF0000102F061FC4FF002004FF061
:10127C00D80102F0D7FD1C4B93F82C304FF0020034
:10128C00194602F04DFE4FF002004FF4405102F0AF
:10129C00AFFC4FF002004FF0000102F06FFC124B5C
:1012AC0093F82C304FF00000194602F039FE4FF045
:1012BC00000002F0D7FC4FF0000002F03FF90B4B9E
:1012CC004FF001021A600A4B0A4A1A600A4B4FF09F
:1012DC0000021A70FEF738FF80BD00BF2404002006
:1012EC00440400206C410008CC0000206C0100205C
:1012FC009403002055534243B603002080B400AF42
:10130C00BD4680BC704700BF80B400AFBD4680BCFA
:10131C00704700BF80B584B000AF0346FB714FF03F
:10132C000003FB601C4B1B681B7803F07F03212B15
:10133C0017D1FB79FE2B14D1174B1B685B88002B44
:10134C000FD1154B1B689B88002B0AD1124B1B68C5
:10135C00DB88012B05D1114BFB60FB68002B03D004
:10136C0005E04FF0020311E04FF002030EE00A4BD0
:10137C001B68FA689A61084B1B684FF000025A828E
:10138C00FB684FF0000098474FF00003184607F138
:10139C001007BD4680BD00BF44040020F5140008B2
:1013AC0080B582B000AF0346FB71194B1B681B78EC
:1013BC0003F07F03212B23D1FB79FF2B20D1144B7E
:1013CC001B685B88002B1BD1114B1B689B88002B67
:1013DC0016D10F4B1B68DB88002B11D14FF001008D
:1013EC0002F0CAFC4FF0020002F094FC094B0A4ACE
:1013FC001A600A4B4FF000021A704FF0000301E024
:10140C004FF00203184607F10807BD4680BD00BF28
:10141C00440400209403002055534243B60300209B
:10142C0080B483B000AF02460B46FA71BB71BB7936
:10143C00002B02D04FF0020307E0FB79002B02D007
:10144C004FF0020301E04FF00003184607F10C07C0
:10145C00BD4680BC704700BF80B582B000AF03466C
:10146C00FB80FB881846044901F06CFB03461846C8
:10147C0007F10807BD4680BDFC00002080B582B096
:10148C0000AF0346FB80FB881846044901F05AFB69
:10149C000346184607F10807BD4680BD040100202D
:1014AC0080B584B000AF0346FB800D4B1B68DB7826
:1014BC00FB73FB7B052B02D94FF000030AE0FB7B8F
:1014CC004FEAC302074BD318FA881046194601F0AD
:1014DC0039FB0346184607F11007BD4680BD00BF17
:1014EC00440400200C01002080B483B000AF0346FC
:1014FC00FB80FB88002B07D1074B1B684FF00102C8
:10150C001A824FF0000300E0044B184607F10C0759
:10151C00BD4680BC704700BF440400206801002019
:10152C0080B582B000AF4FF00100FEF713FE4FF014
:10153C000103FB800E4BFA881A600E4B4FF0000231
:10154C001A800B4B0B4A12881A600B4B4FF000029F
:10155C001A60084B4FF4E0521A80054B054A12886A
:10156C001A604FF00003184607F10807BD4680BD0E
:10157C00405C004048040020445C004080B584B0CE
:10158C0000AF0346FB71144B1B7C03F00103DBB271
:10159C00002B05D0114BFB604FF005037B8112E053
:1015AC00FB79002B02D10E4BFB6001E00D4BFB6075
:1015BC00094BDB7C242B03D8074BDB7C7B8102E0C3
:1015CC004FF024037B817B89F8681946FFF71EFDD9
:1015DC0007F11007BD4680BD940300205801002080
:1015EC00000000202400002080B582B000AF03462C
:1015FC00FB71FB791846FEF7C7FE0346002B13D090
:10160C002B4B5B7B18464FF002014FF03A0200F077
:10161C0013F94FF001004FF00101FFF721FD4FF0DE
:10162C000000FFF74DFD3FE0FA79224B53F82230D2
:10163C004FEA1363DAB2204B1A71FA791D4B53F847
:10164C0022304FEA1343DAB21B4B5A71FA79194B19
:10165C0053F822304FEA1323DAB2174B9A71FA7906
:10166C00144B53F82230DAB2134BDA71FA79134B6C
:10167C0053F822304FEA1343DAB20F4B5A72FA790D
:10168C000E4B53F822304FEA1323DAB20A4B9A72FC
:10169C00FA790A4B53F82230DAB2074BDA72064861
:1016AC004FF00C01FFF7B2FC07F10807BD4680BDF7
:1016BC009403002084010020680000207C0100209D
:1016CC0080B582B000AF0346FB71FB791846FEF77C
:1016DC005BFE0346002B13D0344B5B7B18464FF05C
:1016EC0002014FF03A0200F0A7F84FF001004FF062
:1016FC000101FFF7B5FC4FF00000FFF7E1FC51E0F2
:10170C00FA792B4B53F8223003F1FF334FEA136372
:10171C00DAB2284B1A70FA79254B53F8223003F1C0
:10172C00FF334FEA1343DAB2224B5A70FA79204B4B
:10173C0053F8223003F1FF334FEA1323DAB21D4B77
:10174C009A70FA791A4B53F82230DBB203F1FF335B
:10175C00DAB2184BDA70FA79174B53F822304FEA99
:10176C001363DAB2134B1A71FA79134B53F8223014
:10177C004FEA1343DAB20F4B5A71FA790E4B53F806
:10178C0022304FEA1323DAB20A4B9A71FA790A4BD8
:10179C0053F82230DAB2074BDA7106484FF00801E1
:1017AC00FFF734FC07F10807BD4680BD9403002009
:1017BC0084010020600100207C01002080B582B0F3
:1017CC0000AF0346FB7104484FF00401FFF71EFC09
:1017DC0007F10807BD4680BD4800002080B582B0E7
:1017EC0000AF0346FB7104484FF00801FFF70EFCF5
:1017FC0007F10807BD4680BD4C00002080B584B0C1
:10180C0000AF0346FB710A4BDB7C122B03D8084B51
:10181C00DB7CFB7302E04FF01203FB73FB7B9BB290
:10182C0004481946FFF7F2FB07F11007BD4680BDCF
:10183C00940300205400002080B483B000AF134602
:10184C000246FA710A46BA717B71054BBA799A70E5
:10185C00034B7A791A7307F10C07BD4680BC7047AD
:10186C005400002080B582B000AF0346FB714FF0EE
:10187C0000004FF00101FFF7F3FB07F10807BD462D
:10188C0080BD00BF80B584B000AF0346B9607A60FC
:10189C00FB73224B1B78002B30D1214B5B7B184602
:1018AC004FF02801BA687B6800F040F90346002B22
:1018BC002FD01B4B1B7BDBB25BB2002B0ADA174B16
:1018CC004FF002021A70FB7B1846B9687A68FEF773
:1018DC00B3FD1FE04FF00200FFF7F2FB104B5B7BF8
:1018EC0018464FF005014FF02402FFF7A5FF4FF00B
:1018FC0001004FF00101FFF7B3FB0BE0074B1B7826
:10190C00022B07D1FB7B1846B9687A68FEF794FD69
:10191C0000E000BF07F11007BD4680BDB6030020F4
:10192C009403002080B584B000AF0346B9607A60A0
:10193C00FB73224B1B78002B30D1214B5B7B184661
:10194C004FF02A01BA687B6800F0F0F80346002BD0
:10195C002FD01B4B1B7BDBB25BB2002B0ADB174B74
:10196C004FF001021A704FF002004FF4405102F098
:10197C003FF91FE04FF00000FFF7A2FB104B5B7B21
:10198C0018464FF005014FF02402FFF755FF4FF0BA
:10199C0001004FF00001FFF763FB0BE0074B1B78D6
:1019AC00012B07D1FB7B1846B9687A68FEF7F6FD68
:1019BC0000E000BF07F11007BD4680BDB603002054
:1019CC009403002080B582B000AF0346FB71144B2A
:1019DC009B68002B0CD1124B1B7C03F00403002BD7
:1019EC0006D14FF000004FF00101FFF739FB12E078
:1019FC004FF00200FFF764FB094B5B7B18464FF07E
:101A0C0005014FF02402FFF717FF4FF001004FF0D4
:101A1C000001FFF725FB07F10807BD4680BD00BF9D
:101A2C009403002080B582B000AF0346FB71FB79B4
:101A3C001846FEF7A9FC0346002B13D00E4B5B7B1C
:101A4C0018464FF002014FF03A02FFF7F5FE4FF047
:101A5C0001004FF00101FFF703FB4FF00000FFF70F
:101A6C002FFB05E04FF000004FF00101FFF7F8FAF3
:101A7C0007F10807BD4680BD9403002080B582B0F5
:101A8C0000AF0346FB71FB791846FEF77DFC03465D
:101A9C00002B13D00B4B5B7B18464FF002014FF021
:101AAC003A02FFF7C9FE4FF001004FF00101FFF7BA
:101ABC00D7FA4FF00000FFF703FB00BF07F1080750
:101ACC00BD4680BD9403002080B582B000AF0346B4
:101ADC00FB71154B9B68002B04D14FF00000FFF7F6
:101AEC00EFFA0EE0104B1B7BDBB25BB2002B04DA7F
:101AFC004FF00000FFF7E4FA03E04FF00200FFF7AD
:101B0C00DFFA094B5B7B18464FF005014FF02002C2
:101B1C00FFF792FE4FF001004FF00001FFF7A0FA23
:101B2C0007F10807BD4680BD9403002080B584B042
:101B3C0000AFBA607B600346FB730B46BB73BA689D
:101B4C007B68D218F97B284B53F821309A421BD969
:101B5C00BB7B2A2B03D14FF00200FFF7B1FA4FF0F9
:101B6C000000FFF7ADFAFB7B18464FF005014FF074
:101B7C002102FFF761FE4FF001004FF00001FFF76B
:101B8C006FFA4FF000032AE0184B9A68F97B184B58
:101B9C0053F82130796801FB03F39A421DD0BB7BCB
:101BAC002A2B04D14FF00200FFF78AFA03E04FF022
:101BBC000000FFF785FA0D4B5B7B18464FF00501D3
:101BCC004FF02402FFF738FE4FF001004FF00001F8
:101BDC00FFF746FA4FF0000301E04FF001031846FF
:101BEC0007F11007BD4680BD84010020940300203E
:101BFC007C01002080B489B000AF786039604FF070
:101C0C000003FB614FF000033B614FF00003BB612D
:101C1C004FF00003FB604FF000037B614FF00003BB
:101C2C00BB603B68DB7803F00F03FB613B68DB7840
:101C3C0003F01003002B05D03B689B78FA6942EA4D
:101C4C000303FB613B681B8803F0FF03002B51D09F
:101C5C007B681B687B614FF00003BB6144E0BB6990
:101C6C004FF0010202FA03F3FB603B681B881A4633
:101C7C00FB6802EA03033B613A69FB689A422FD185
:101C8C00BB694FEA8303FB60FB684FF00F0202FA5B
:101C9C0003F3BB60BB686FEA03037A6902EA0303D0
:101CAC007B61FB68FA6902FA03F37A6942EA03037F
:101CBC007B613B68DB78282B07D1BB694FF00102B5
:101CCC0002FA03F27B685A610AE03B68DB78482B26
:101CDC0006D1BB694FF0010202FA03F27B681A616C
:101CEC00BB6903F10103BB61BB69072BB7D97B68E7
:101CFC007A691A603B681B88FF2B56D97B685B6836
:101D0C007B614FF00003BB6149E0BB6903F1080341
:101D1C004FF0010202FA03F3FB603B681B881A4682
:101D2C00FB6802EA03033B613A69FB689A4232D1D1
:101D3C00BB694FEA8303FB60FB684FF00F0202FAAA
:101D4C0003F3BB60BB686FEA03037A6902EA03031F
:101D5C007B61FB68FA6902FA03F37A6942EA0303CE
:101D6C007B613B68DB78282B08D1BB6903F1080346
:101D7C004FF0010202FA03F27B685A613B68DB7890
:101D8C00482B08D1BB6903F108034FF0010202FA9A
:101D9C0003F27B681A61BB6903F10103BB61BB6988
:101DAC00072BB2D97B687A695A6007F12407BD46C4
:101DBC0080BC704780B485B000AF78600B467B80E8
:101DCC004FF00003FB737B689A687B8802EA03037D
:101DDC00002B03D04FF00103FB7302E04FF0000324
:101DEC00FB73FB7B184607F11407BD4680BC70479C
:101DFC0080B483B000AF78600B467B807A887B68B8
:101E0C001A6107F10C07BD4680BC704780B483B0E3
:101E1C0000AF78600B467B807A887B685A6107F14B
:101E2C000C07BD4680BC704780B483B000AF7860AF
:101E3C000B46FB70FB78002B07D00B4B0A4A9169C1
:101E4C007A6841EA02029A6108E0074B064A9169F6
:101E5C007A686FEA020201EA02029A6107F10C0742
:101E6C00BD4680BC704700BF0010024080B483B0F8
:101E7C0000AF78600B467B807B687A889A8107F18B
:101E8C000C07BD4680BC704780B483B000AF78604F
:101E9C007B689B899BB2184607F10C07BD4680BC3A
:101EAC00704700BF80B485B000AF78600B467B8074
:101EBC004FF00003FB737B681B899AB27B8802EAA4
:101ECC0003039BB2002B03D04FF00103FB7302E022
:101EDC004FF00003FB73FB7B184607F11407BD465C
:101EEC0080BC704780B586B000AFF860B96013460F
:101EFC00FB804FF000037B614FF0FF03FB74234822
:101F0C004FF48051FFF782FF4FF01100B9684FF08A
:101F1C00FF0200F033FA4FF0000000F0A7FA03467E
:101F2C00002B23D14FF0FE0000F0A0FA0346002B4B
:101F3C001CD14FF000037B610DE000F0DBFA03468F
:101F4C001A46FB681A70FB6803F10103FB607B699E
:101F5C0003F101037B61FA887B699A42EDD800F0AA
:101F6C00C9FA00F0C7FA4FF00003FB7407484FF4AE
:101F7C008051FFF73DFF4FF0FF0000F09BFAFB7C18
:101F8C00184607F11807BD4680BD00BF000C014084
:101F9C0080B586B000AFF860B9601346FB804FF097
:101FAC0000037B614FF0FF03FB7425484FF4805115
:101FBC00FFF72CFF4FF01800B9684FF0FF0200F04C
:101FCC00DDF94FF0000000F051FA0346002B28D148
:101FDC004FF0FF0000F06EFA4FF0FE0000F06AFACE
:101FEC004FF000037B610CE0FB681B78184600F097
:101FFC0061FAFB6803F10103FB607B6903F10103E8
:10200C007B61FA887B699A42EED800F073FA00F093
:10201C0071FA00F0EFF90346052B02D14FF00003E3
:10202C00FB7407484FF48051FFF7E2FE4FF0FF00BE
:10203C0000F040FAFB7C184607F11807BD4680BD3E
:10204C00000C014080B588B000AF78604FF0000301
:10205C00FB614FF0FF03FB760F484FF48051FFF705
:10206C00D5FE4FF009004FF000014FF0FF0200F0D9
:10207C0085F94FF0000000F0F9F90346002B28D148
:10208C004FF0FE0000F0F2F90346002B16D14FF092
:10209C000003FB610FE000BF000C014000F02AFAC6
:1020AC0003461A4607F10801FB69CB181A70FB6945
:1020BC0003F10103FB61FB690F2BEFD94FF0FF001C
:1020CC0000F0F8F94FF0FF0000F0F4F94FF00003C6
:1020DC00FB768E484FF48051FFF78AFE4FF0FF00DD
:1020EC0000F0E8F93B7A4FEA9313DAB27B681A7086
:1020FC003B7A03F03C034FEAA303DAB27B685A70D5
:10210C003B7A03F00303DAB27B689A707A7A7B68C5
:10211C00DA70BA7A7B681A71FA7A7B685A713B7BEF
:10212C004FEA03139AB27B68DA807B68DB889AB239
:10213C007B7B4FEA1313DBB242EA03039AB27B6850
:10214C00DA807B7B03F00F03DAB27B681A72BB7BFD
:10215C004FEAD313DAB27B685A72BB7B03F04003AD
:10216C004FEAA313DAB27B689A72BB7B03F02003AD
:10217C004FEA6313DAB27B68DA72BB7B03F01003AD
:10218C004FEA2313DAB27B681A737B684FF00002B4
:10219C005A73BB7B03F003034FEA83231A467B6815
:1021AC001A617B681A69FB7B4FEA83031A437B68CD
:1021BC001A617B681A693B7C4FEA9313DBB21A43B2
:1021CC007B681A613B7C03F038034FEAE303DAB215
:1021DC007B681A753B7C03F00703DAB27B685A758F
:1021EC007B7C4FEA5313DAB27B689A757B7C03F0E5
:1021FC001C034FEAA303DAB27B68DA757B7C03F02D
:10220C000303DBB24FEA4303DAB27B681A767B68CE
:10221C001B7EDAB2BB7C4FEAD313DBB242EA030378
:10222C00DAB27B681A76BB7C03F040034FEAA31347
:10223C00DAB27B685A76BB7C03F03F03DBB24FEA21
:10224C004303DAB27B689A767B689B7EDAB2FB7CBE
:10225C004FEAD313DBB242EA0303DAB27B689A7615
:10226C00FB7C03F07F03DAB27B68DA763B7D4FEAC6
:10227C00D313DAB27B681A773B7D03F060034FEA25
:10228C006313DAB27B685A773B7D03F01C034FEA89
:10229C00A303DAB27B689A773B7D03F00303DBB2CE
:1022AC004FEA8303DAB27B68DA777B68DB7FDAB2DA
:1022BC007B7D4FEA9313DBB242EA0303DAB27B680D
:1022CC00DA777B7D03F020034FEA6313DAB27B6885
:1022DC0083F820207B684FF0000283F821207B7D5F
:1022EC0003F00103DAB27B6883F82220BB7D4FEA4E
:1022FC00D313DAB27B6883F82320BB7D03F0400351
:10230C004FEAA313DAB27B6802E000BF000C014075
:10231C0083F82420BB7D03F020034FEA6313DAB269
:10232C007B6883F82520BB7D03F010034FEA231351
:10233C00DAB27B6883F82620BB7D03F00C034FEAEE
:10234C00A303DAB27B6883F82720BB7D03F0030379
:10235C00DAB27B6883F82820FB7D4FEA5303DAB2AC
:10236C007B6883F829207B684FF0010283F82A20D0
:10237C00FB7E184607F12007BD4680BD80B588B0AE
:10238C0000AFB96013460246FA73FB714FF00003BD
:10239C00FB61FB7B43F04003DBB23B75BB684FEA50
:1023AC001363DBB27B75BB684FEA1343DBB2BB75BF
:1023BC00BB684FEA1323DBB2FB75BB68DBB23B7621
:1023CC00FB797B764FF00003FB610BE007F1140205
:1023DC00FB69D3181B78184600F06CF8FB6903F105
:1023EC000103FB61FB69052BF0D907F12007BD4602
:1023FC0080BD00BF80B582B000AF4FF000037B60A2
:10240C0025E000F077F80346FB70FB7803F01F0320
:10241C00FB70FB780B2B07D00D2B08D0052B09D1AB
:10242C004FF00503BB7009E04FF00B0319E04FF0C0
:10243C000D0316E04FF0FF03BB7000BFBB78052BFC
:10244C0001D100BF07E07B6803F101037B607B686F
:10245C00402BD6D900BF00F04DF80346002BFAD024
:10246C00FB78184607F10807BD4680BD80B584B0DF
:10247C0000AF0346FB7140F6FF73FB6003E0FB68A3
:10248C0003F1FF33FB6000F035F80346FA799A420A
:10249C0002D0FB68002BF2D1FB68002B02D14FF06D
:1024AC00FF0301E04FF00003184607F11007BD468B
:1024BC0080BD00BF80B582B000AF0346FB71FB79D5
:1024CC009BB20B481946FFF7D1FC00BF08484FF0F0
:1024DC000101FFF7E7FC0346002BF7D00448FFF798
:1024EC00D3FC0346DBB2184607F10807BD4680BD96
:1024FC000038004080B582B000AF4FF00003FB7194
:10250C000C484FF0FF01FFF7B1FC00BF09484FF03A
:10251C000101FFF7C7FC0346002BF7D00548FFF776
:10252C00B3FC0346FB71FB79184607F10807BD465F
:10253C0080BD00BF0038004080B582B000AF0346BC
:10254C00FB80FB88002B07D10A4B1B684FF0010264
:10255C001A824FF0000307E0074B1B681B68984773
:10256C00044B1B6803F10A03184607F10807BD4624
:10257C0080BD00BF440400204004002080B500AFA3
:10258C00104B1B68DA78104B5B789A4216D80D4BBF
:10259C001B689B78002B11D10A4B1B689B88002B66
:1025AC000CD1084B1B68074A1268D2789A72074BF9
:1025BC001B685B6898474FF0000301E04FF0020383
:1025CC00184680BD44040020C800002040040020B0
:1025DC0080B582B000AF0346FB80FB88002B07D18F
:1025EC000A4B1B684FF001021A824FF0000307E000
:1025FC00074B1B689B689847044B1B6803F10C0343
:10260C00184607F10807BD4680BD00BF44040020F2
:10261C004004002080B582B000AF204B1B689B6942
:10262C001F4A126851791E4A1268D2780846114620
:10263C0098470346FB711A4B1B689B7A002B25D0DD
:10264C00FB79002B09D1164B1B681B79002B04D18D
:10265C00134B1B689B78002B02D04FF0020317E042
:10266C00FB79002B12D10F4B1B68DB6898470C4B86
:10267C001B680B4A12685279DA72094B1B68084ABC
:10268C001268D2781A734FF0000301E04FF0020386
:10269C00184607F10807BD4680BD00BF1C0400208A
:1026AC00440400204004002080B584B000AF0346F1
:1026BC00FB80FB88002B07D1494B1B684FF00202B3
:1026CC001A824FF0000386E0464B4FF000021A804E
:1026DC00434B1B681B7803F07F03002B2CD1404B22
:1026EC001B685B7AFB73FB7B03F02003002B07D08A
:1026FC003C4B1B7843F00203DAB23A4B1A7006E0FB
:10270C00384B1B7823F00203DAB2364B1A70FB7B82
:10271C0003F04003002B07D0324B1B7843F001032E
:10272C00DAB2304B1A7051E02E4B1B7823F00103B8
:10273C00DAB22C4B1A7049E0294B1B681B7803F05A
:10274C007F03012B01D1274B45E0254B1B681B78E0
:10275C0003F07F03022B36D1214B1B685B79BB73D3
:10276C00BB7B03F00F037B73BB7B5BB2002B14DAD8
:10277C007B7B4FEA830303F1804303F5B8431B686B
:10278C009BB203F03003102B20D1164B1B7843F077
:10279C000103DAB2134B1A7018E07B7B4FEA830308
:1027AC0003F1804303F5B8431B689BB203F4405319
:1027BC00B3F5805F0AD10B4B1B7843F00103DAB2FF
:1027CC00084B1A7002E04FF0000304E0064B1B6844
:1027DC001B699847034B184607F11007BD4680BD8F
:1027EC0044040020140400204004002090B587B05D
:1027FC0000AF784B1B681B7803F07F033B613B6990
:10280C00002B0BD1734B1B68724A1268527A22F060
:10281C002002D2B25A724FF00003D5E03B69022B72
:10282C0040F0D0806B4B1B685B88002B04D1694B4C
:10283C001B681B79002B02D04FF00203C4E0664BDF
:10284C00FB60644B1B685B79BB60BB6823F0800347
:10285C007B607B683B605F4B1B685B79DBB25BB278
:10286C00002B0CDA3B684FEA830303F1804303F53A
:10287C00B8431B689BB203F030037B610BE03B68F1
:10288C004FEA830303F1804303F5B8431B689BB203
:10289C0003F440537B61FB681B781A467B689A42B1
:1028AC0007D97B69002B04D04A4B1B689B7A002B01
:1028BC0002D14FF0020387E0BB6803F08003002BCA
:1028CC0019D03B684FEA830303F1804303F5B84307
:1028DC001B689BB203F03003102B6CD13B68DBB24E
:1028EC00184601F049FA3B68DBB218464FF030014C
:1028FC0001F044F95FE03B684FEA830303F1804346
:10290C0003F5B8431B689BB203F44053B3F5805FE7
:10291C0051D13B68002B29D13B68DAB22F4B93F88D
:10292C002C301046194601F0FBFA3B684FEA830342
:10293C0003F1804303F5B8431B689BB223F4804337
:10294C0023F070039CB284F480539CB284F4005343
:10295C009CB23B684FEA830303F1804303F5B84311
:10296C001F4A44EA020292B21A6024E03B68DBB2CE
:10297C00184601F0CFF93B684FEA830303F180431B
:10298C0003F5B8431B689BB223F4804323F0700318
:10299C009CB284F480539CB284F400539CB23B6888
:1029AC004FEA830303F1804303F5B8430C4A44EA2E
:1029BC00020292B21A600B4B1B685B6998474FF08E
:1029CC00000301E04FF00203184607F11C07BD4657
:1029DC0090BD00BF44040020C8000020CC000020A3
:1029EC008080FFFF4004002090B585B000AF454BC0
:1029FC001B685B79BB60BB6823F080037B607B68E2
:102A0C003B60404B1B685B79DBB25BB2002B0CDA92
:102A1C003B684FEA830303F1804303F5B8431B681B
:102A2C009BB203F03003FB600BE03B684FEA83037F
:102A3C0003F1804303F5B8431B689BB203F4405386
:102A4C00FB60314B1B781A463B689A420CD92D4BD4
:102A5C001B685B88002B07D1FB68002B04D0294B2B
:102A6C001B689B7A002B02D14FF0020345E0BB6838
:102A7C0003F08003002B1DD03B684FEA830303F166
:102A8C00804303F5B8431B689BB223F4E04323F067
:102A9C0040039CB284F010039CB23B684FEA830362
:102AAC0003F1804303F5B843184A44EA020292B298
:102ABC001A601CE03B684FEA830303F1804303F583
:102ACC00B8431B689BB223F4804323F070039CB281
:102ADC0084F480539CB23B684FEA830303F1804338
:102AEC0003F5B843094A44EA020292B21A60084B51
:102AFC001B689B6998474FF00003184607F11407B1
:102B0C00BD4690BD44040020C80000208080FFFF1B
:102B1C004004002080B500AF084B1B68074A1268C0
:102B2C00527A42F02002D2B25A72054B1B68DB6912
:102B3C0098474FF00003184680BD00BF44040020A6
:102B4C004004002080B485B000AF03463960FB80A0
:102B5C000E4B1B685B8AFB60FB88002B0BD10B4B6D
:102B6C001B683A689188FA6892B28A1A92B21A82F1
:102B7C004FF0000303E03B681A68FB68D318184653
:102B8C0007F11407BD4680BC704700BF4404002009
:102B9C0080B584B000AF404B1B6803F11003BB60E1
:102BAC00BB681B887B60BB689B68002B2FD07B6845
:102BBC00002B2CD0BB689B88FB60FA687B689A4220
:102BCC0001D97B68FB60BB689B68FA6892B21046BF
:102BDC0098473860BB681A88FB689BB2D31A9AB2C4
:102BEC00BB681A80BB685A88FB689BB2D3189AB230
:102BFC00BB685A804FF0000001F056F903461A46A4
:102C0C00FB689BB2386811461A4600F045FFBB685A
:102C1C001B88002B0DD0214B4FF440521A804FF0E3
:102C2C0000004FF0000101F05DF91D4B4FF0300238
:102C3C001A80BB681A88BB689B889A4205D3164BCE
:102C4C001B684FF003021A7221E0BB681B88002B33
:102C5C0005D0114B1B684FF005021A7217E0BB68C8
:102C6C001B88002B13D10C4B1B684FF006021A72F9
:102C7C000C4B1B689BB21A460B4BD3184FEA430301
:102C8C004FF000021A60064B4FF030021A8007F129
:102C9C001007BD4680BD00BF440400204A0400203C
:102CAC004C040020505C00400230002080B586B0FF
:102CBC0000AF424B1B6803F11003FB60FB681B88E1
:102CCC00BB603E4B1B681B7A7B61BB68002B25D11C
:102CDC007B69042B22D13A4B1B78012B16D1394B33
:102CEC001B689BB21A46384BD3184FEA43034FF07C
:102CFC0000021A60354B4FF030021A804FF004037B
:102D0C007B612F4B4FF000021A704DE04FF0070320
:102D1C007B612E4B4FF010021A8045E0FB689B88BC
:102D2C003B61BA683B699A4202D84FF0040301E058
:102D3C004FF002037B613A69BB689A4201D9BB68C8
:102D4C003B61FB689B683A6992B210469847786081
:102D5C004FF0000001F08AF803461A463B699BB21B
:102D6C00786811461A4600F051FE3B699BB24FF051
:102D7C000000194601F0B6F8FB681A883B699BB253
:102D8C00D31A9AB2FB681A80FB685A883B699BB2CB
:102D9C00D3189AB2FB685A800C4B4FF030021A8051
:102DAC000B4B4FF440521A80044B1B687A69D2B219
:102DBC001A7207F11807BD4680BD00BF44040020FD
:102DCC0070010020505C0040023000204C040020B8
:102DDC004A04002080B584B000AF4FF00203FB73AF
:102DEC00634B1B685B787B60614B1B681B7803F043
:102DFC007F03002B5BD17B68092B04D1FFF7BEFB53
:102E0C000346FB737EE07B68052B1DD1584B1B687A
:102E1C00DB78DBB25BB2002B0EDB554B1B689B786F
:102E2C00002B09D1524B1B689B88002B04D1504BB3
:102E3C001B689B7A002B03D04FF00803BB608DE01E
:102E4C004FF00003FB735DE07B68032B12D1484B02
:102E5C001B68DB78012B09D1454B1B689B88002B29
:102E6C0004D1FFF757FE0346FB734BE04FF0020310
:102E7C00FB7347E07B68012B43D13D4B1B68DB7830
:102E8C00012B10D13A4B1B689B88002B0BD1384B74
:102E9C001B685B7A03F02003002B04D0FFF7A6FC21
:102EAC000346FB732EE04FF00203FB732AE0304B1A
:102EBC001B681B7803F07F03012B07D17B680B2B5E
:102ECC0020D1FFF7A7FB0346FB731BE0284B1B68C5
:102EDC001B7803F07F03022B0FD17B68012B04D1ED
:102EEC00FFF784FC0346FB730CE07B68032B09D1D2
:102EFC00FFF77AFD0346FB7304E04FF00203FB730C
:102F0C0000E000BFFB7B002B0FD01A4B1B685B69EA
:102F1C007A68D2B2104698470346FB73FB7B032BAF
:102F2C0003D14FF00903BB6018E0FB7B002B03D0EF
:102F3C004FF00803BB6011E04FF00603BB600E4B73
:102F4C001B689BB21A460D4BD3184FEA43034FF044
:102F5C0000021A600A4B4FF030021A80044B1B68B7
:102F6C00BA68D2B21A7207F11007BD4680BD00BF15
:102F7C00440400201C040020505C0040023000205F
:102F8C004C04002080B58AB000AF874B1B685B787F
:102F9C00BB614FF000037B624FF000037B61BB69A8
:102FAC00062B24D1804B1B681B7803F07F03002B6E
:102FBC0040F0E4807C4B1B689B78FB74FB7C012B02
:102FCC0004D17A4B1B68DB697B62D7E0FB7C022B5C
:102FDC0004D1764B1B681B6A7B62CFE0FB7C032B16
:102FEC0040F0CC80714B1B685B6A7B62C6E0BB69AE
:102FFC00002B7DD16C4B1B685B88002B78D16A4B06
:10300C001B68DB88022B73D1674B1B681B79002B69
:10301C006ED1654B1B681B7803F07F03002B07D127
:10302C00614B1B689B88002B02D1614B7B62A5E036
:10303C005D4B1B681B7803F07F03012B16D15B4B98
:10304C001B689B69584A1268527910464FF0000170
:10305C0098470346002B40F08680534B1B689B7AA5
:10306C00002B00F08280524B7B6287E04E4B1B683A
:10307C001B7803F07F03022B79D14B4B1B685B79D8
:10308C0003F00F03FB60484B1B685B7903F0700384
:10309C00BB60454B1B685B79DBB25BB2002B0CDA77
:1030AC00FB684FEA830303F1804303F5B8431B68C5
:1030BC009BB203F03003FB610BE0FB684FEA830328
:1030CC0003F1804303F5B8431B689BB203F44053F0
:1030DC00FB61384B1B781A46FB689A4249D9BB688E
:1030EC00002B48D1FB69002B47D0314B7B6245E06C
:1030FC00BB69082B09D12C4B1B681B7803F07F0391
:10310C00002B3BD12C4B7B6238E0BB690A2B35D1B1
:10311C00254B1B681B7803F07F03012B2ED1224B10
:10312C001B689B7A002B29D01F4B1B685B88002BDC
:10313C0024D11D4B1B681B79002B1FD11A4B1B680C
:10314C00DB88012B1AD1194B1B689B69164A126834
:10315C00527910464FF0000198470346002B0DD1D1
:10316C00164B7B620AE000BF08E000BF06E000BF20
:10317C0004E000BF02E000BF00E000BF7B6A002B50
:10318C001ED0094B1B687A6992B25A82064B1B6897
:10319C007A6A9A617B6A4FF0000098474FF00003FF
:1031AC0087F8233021E000BF440400201C040020D9
:1031BC00B5260008C800002045250008DD250008BC
:1031CC00444B1B681B69444A126852781046984756
:1031DC00034687F8233097F82330032B05D13E4B59
:1031EC001B684FF009021A726FE03B4B1B681A8A7E
:1031FC004FF6FF739A4205D1374B1B684FF009020B
:10320C001A7262E097F82330022B04D0324B1B6801
:10321C001B8A002B05D1304B1B684FF008021A7229
:10322C0053E02D4B1B681B78DBB25BB2002B42DAF0
:10323C00294B1B68DB887B60274B1B681B8A1A4653
:10324C007B689A4205D9244B1B687A6892B21A8221
:10325C0027E0214B1B681A8A1F4B1B68DB889A429C
:10326C001FD21D4B1B681A8A1A4B1B6893F82C3003
:10327C009A4204D2194B4FF000021A7011E0164B0F
:10328C001B681B8A134A126892F82C2093FBF2F1EC
:10329C0002FB01F29B1A002B03D1104B4FF00102E1
:1032AC001A700D4B1B680B4A126892F82C209A82EC
:1032BC00FFF7FCFC09E0084B1B684FF003021A7285
:1032CC00074B4FF440521A8000BF07F12807BD4648
:1032DC0080BD00BF1C0400204404002070010020AD
:1032EC004A04002090B583B000AF4FF00103FB807F
:1032FC00354B1B689BB21A46344BD3184FEA430329
:10330C001B689BB203F1005303F540534FEA430390
:10331C003B602F4B1B681B7A092B3ED02C4B1A6839
:10332C003B681978117003F101033B60284B1A6854
:10333C003B681978517003F101033B603A68FB88D4
:10334C004FEA4303D3183B60214B1C683B681A8837
:10335C0003F102033B60104600F04EFE034663800F
:10336C003A68FB884FEA4303D3183B60184B1C6840
:10337C003B681A8803F102033B60104600F03CFEE8
:10338C000346A3803A68FB884FEA4303D3183B609B
:10339C000F4B1B683A681288DA800D4B1B684FF094
:1033AC0001021A720A4B1B68DB88002B02D1FFF753
:1033BC0011FD01E0FFF7E6FD00F096F80346184614
:1033CC0007F10C07BD4690BD505C00400430002056
:1033DC004404002080B582B000AF214B1B681B7ADF
:1033EC007B607B68022B02D07B68042B06D1FFF735
:1033FC005DFC1B4B1B681B7A7B6023E07B68062BF8
:10340C001DD1174B1B685B78052B10D1144B1B6817
:10341C001B7803F07F03002B09D1114B1B68DB7861
:10342C00184600F08BF80F4B1B681B6A98470E4B25
:10343C001B689B6898474FF008037B6002E04FF0D5
:10344C0008037B60064B1B687A68D2B21A7200F0D4
:10345C004BF80346184607F10807BD4680BD00BF70
:10346C0044040020400400201C04002080B582B0DD
:10347C0000AF1B4B1B681B7A7B607B68022B02D056
:10348C007B68042B03D14FF008037B601AE07B6848
:10349C00032B02D07B68052B06D1FFF779FB104B71
:1034AC001B681B7A7B600DE07B68072B07D10D4BEB
:1034BC001B68DB6898474FF008037B6002E04FF015
:1034CC0008037B60064B1B687A68D2B21A7200F054
:1034DC000BF80346184607F10807BD4680BD00BF30
:1034EC00440400201C04002080B500AF0F4B93F85F
:1034FC002C304FF00000194600F012FD0C4B1B68ED
:10350C001B7A082B07D10B4B4FF480521A800A4BB5
:10351C004FF010021A80064B1B681B7A092B14BF44
:10352C0000230123DBB2184680BD00BFCC00002075
:10353C00440400204A0400204C04002080B485B0D0
:10354C0000AF0346FB711C4B1B78BB604FF00003B4
:10355C00FB6022E0FB68DBB24FEA830303F180439C
:10356C0003F5B843FA68D2B24FEA820202F1804204
:10357C0002F5B842126892B2114640F60F7201EA97
:10358C00020242F4004242F08002F968C9B20A43D6
:10359C001A60FB6803F10103FB60FA68BB689A428E
:1035AC00D8D3064BFA7962F07F02D2B21A6007F1D7
:1035BC001407BD4680BC7047C80000204C5C00401E
:1035CC0080B400AFBD4680BC704700BF90B583B0DF
:1035DC0000AF4FF00003FB8079E18B4B1B889BB253
:1035EC00DBB203F00F03DAB2884B1A70874B1B78EF
:1035FC00002B40F01581864B1B689AB2854B1A80C4
:10360C00844B1B889BB203F030039AB2824B1A8016
:10361C00804B1B889BB203F440539AB27D4B1A80AB
:10362C007B4B1B689BB24BF6BF7403EA040484F417
:10363C00005484F02004764AA1B2784B41EA03038B
:10364C009BB21360704B1B889BB203F01003002BD2
:10365C0042D16F4A6E4B1B689BB2194648F60F73EA
:10366C0001EA03031360FFF7B5FE694B1B689BB2BD
:10367C004BF6BF7403EA0404664B1B889BB203F43D
:10368C0080539BB2002B01D084F48054614B1B8877
:10369C009BB203F400539BB2002B01D084F4005472
:1036AC005D4B1B889BB203F010039BB2002B01D027
:1036BC0084F01004584B1B889BB203F020039BB280
:1036CC00002B01D084F02004514AA1B2534B41EAA3
:1036DC0003039BB2136007E14D4B1B689BB2FB804D
:1036EC00FB889BB203F40063002B42D0484A484B42
:1036FC001B689BB2194640F68F7301EA03031360F3
:10370C00FFF7F0FD424B1B689BB24BF6BF7403EA0C
:10371C000404404B1B889BB203F480539BB2002BD8
:10372C0001D084F480543B4B1B889BB203F40053B0
:10373C009BB2002B01D084F40054374B1B889BB2F6
:10374C0003F010039BB2002B01D084F01004324B19
:10375C001B889BB203F020039BB2002B01D084F09A
:10376C0020042B4AA1B22D4B41EA03039BB21360F8
:10377C00BAE0FB889BB29BB21BB2002B80F2A780F5
:10378C00234A234B1B689BB2194640F68F7301EA00
:10379C0003031360FFF76AFE1D4B1B689BB24BF6CD
:1037AC00BF7403EA04041B4B1B889BB203F48053C5
:1037BC009BB2002B01D084F48054164B1B889BB217
:1037CC0003F400539BB2002B01D084F40054124B31
:1037DC001B889BB203F010039BB2002B01D084F02A
:1037EC0010040D4B1B889BB203F020039BB2002BE3
:1037FC0001D084F02004064AA1B2084B41EA03032D
:10380C009BB2136070E000BF100400202004002065
:10381C00005C00404A0400204C0400208080FFFF24
:10382C00334B1B784FEA830303F1804303F5B84312
:10383C001B689BB2FB80FB889BB29BB21BB2002B1C
:10384C001FDA2B4B1B784FEA830303F1804303F5FC
:10385C00B843274A12784FEA820202F1804202F5FD
:10386C00B842126892B2114640F68F7201EA020217
:10387C001A601F4B1B7803F1FF321E4B53F822309A
:10388C009847FB889BB203F08003002B1FD0184B8A
:10389C001B784FEA830303F1804303F5B843144AC2
:1038AC0012784FEA820202F1804202F5B8421268A5
:1038BC0092B2114648F60F7201EA02021A600C4BE2
:1038CC001B7803F1FF320C4B53F8223098470B4B0B
:1038DC001B689AB20A4B1A80094B1B889BB29BB28D
:1038EC001BB2002BFFF679AE07F10C07BD4690BD5D
:1038FC0020040020AC00002090000020445C00401C
:10390C001004002080B582B000AF4FF000037B6044
:10391C0062E0394B47F6FF721A60384B1B889BB23A
:10392C00DBB203F00F03DAB2354B1A70344B1B7851
:10393C004FEA830303F1804303F5B8431B689BB242
:10394C007B607B6803F40043002B20D02C4B1B784E
:10395C004FEA830303F1804303F5B843284A1278F6
:10396C004FEA820202F1804202F5B842126892B22A
:10397C00114640F68F7201EA02021A60204B1B7846
:10398C0003F1FF321F4B53F82230984724E07B6839
:10399C0003F08003002B1FD0194B1B784FEA8303D5
:1039AC0003F1804303F5B843154A12784FEA8202BB
:1039BC0002F1804202F5B842126892B2114648F602
:1039CC000F7201EA02021A600D4B1B7803F1FF32F1
:1039DC000D4B53F822309847074B1B689AB2074B94
:1039EC001A80064B1B889BB29BB21BB2002B90DB40
:1039FC0007F10807BD4680BD445C00401004002060
:103A0C0020040020AC0000209000002080B489B07D
:103A1C0000AF786013460A467A803B803B8803F1FE
:103A2C0001034FEA63037B617B8803F1005303F5C9
:103A3C0040534FEA4303BB617B69FB6123E07B6826
:103A4C001B783B617B6803F101037B607B681B780F
:103A5C004FEA03231A463B6942EA0303FB60FB6807
:103A6C009AB2BB691A80BB6903F10203BB61BB69E3
:103A7C0003F10203BB617B6803F101037B60FB690B
:103A8C0003F1FF33FB61FB69002BD8D107F124074D
:103A9C00BD4680BC704700BF80B487B000AF786073
:103AAC0013460A467A803B803B8803F101034FEAB8
:103ABC006303FB607B8803F1005303F540534FEA2B
:103ACC0043033B61FB687B6114E07B683A691268D5
:103ADC0092B21A807B6803F101037B603B6903F1AE
:103AEC0004033B617B6803F101037B607B6903F199
:103AFC00FF337B617B69002BE7D107F11C07BD46C7
:103B0C0080BC704780B483B000AF0346FB80064A8C
:103B1C00F9884FF6F87301EA0303136007F10C07F9
:103B2C00BD4680BC704700BF505C004080B483B081
:103B3C0000AF02460B46FA71BB80FB794FEA830358
:103B4C0003F1804303F5B843FA794FEA820202F19C
:103B5C00804202F5B842126892B222F4EC4222F092
:103B6C00700291B2BA8841EA020292B292B21A6021
:103B7C0007F10C07BD4680BC704700BF90B482B003
:103B8C0000AF02460B46FA71BB80FB794FEA830308
:103B9C0003F1804303F5B8431B689BB223F4E04365
:103BAC0023F040039CB2BB8803F010039BB2002BA4
:103BBC0002D084F010039CB2BB8803F020039BB2AC
:103BCC00002B02D084F020039CB2FB794FEA8303D4
:103BDC0003F1804303F5B843044A44EA020292B26B
:103BEC001A6007F10807BD4690BC70478080FFFF44
:103BFC0090B482B000AF02460B46FA71BB80FB79E1
:103C0C004FEA830303F1804303F5B8431B689BB26F
:103C1C0023F4804323F070039CB2BB8803F48053DD
:103C2C009BB2002B02D084F480539CB2BB8803F46B
:103C3C0000539BB2002B02D084F400539CB2FB794E
:103C4C004FEA830303F1804303F5B843044A44EA83
:103C5C00020292B21A6007F10807BD4690BC704789
:103C6C008080FFFF90B482B000AF0346FB71FB79FC
:103C7C004FEA830303F1804303F5B8431B689BB2FF
:103C8C0023F4804323F070039CB284F480539CB2E1
:103C9C0084F400539CB2FB794FEA830303F1804315
:103CAC0003F5B843044A44EA020292B21A6007F1DF
:103CBC000807BD4690BC70478080FFFF80B483B07E
:103CCC0000AF0346FB71FB794FEA830303F180429B
:103CDC0002F5B842FB794FEA830303F1804303F505
:103CEC00B8431B689BB223F4F8734FEA03534FEAB3
:103CFC0013539BB243F07F4343F47F0343F40043DD
:103D0C0043F080039BB29BB2136007F10C07BD46D6
:103D1C0080BC704780B483B000AF0346FB71FB7965
:103D2C004FEA830303F1804303F5B8431B689BB24E
:103D3C0003F48043002B19D0FB794FEA830303F182
:103D4C00804303F5B843FA794FEA820202F18042CC
:103D5C0002F5B842126892B2114640F60F7201EAAF
:103D6C00020242F4404242F080021A6007F10C0752
:103D7C00BD4680BC704700BF80B483B000AF034623
:103D8C00FB71FB794FEA830303F1804303F5B843DE
:103D9C001B689BB203F04003002B19D0FB794FEA50
:103DAC00830303F1804303F5B843FA794FEA8202A7
:103DBC0002F1804202F5B842126892B2114640F606
:103DCC000F7201EA020242F4004242F0C0021A6091
:103DDC0007F10C07BD4680BC704700BF80B483B0B0
:103DEC0000AF02460B46FA71BB800D4B1B689BB2B1
:103DFC001A46FB794FEAC303D31803F1005303F5BA
:103E0C0040534FEA4303BA884FEA520292B24FEA48
:103E1C0042021A6007F10C07BD4680BC704700BF18
:103E2C00505C004080B483B000AF02460B46FA7180
:103E3C00BB800C4B1B689BB21A46FB794FEAC30341
:103E4C00D218094BD3184FEA4303BA884FEA5202EF
:103E5C0092B24FEA42021A6007F10C07BD4680BCD1
:103E6C00704700BF505C00400430002080B483B029
:103E7C0000AF0346FB710B4B1B689BB21A46FB79D8
:103E8C004FEAC303D31803F1005303F540534FEA31
:103E9C0043031B689BB2184607F10C07BD4680BC58
:103EAC00704700BF505C004080B483B000AF034645
:103EBC00FB710A4B1B689BB21A46FB794FEAC30392
:103ECC00D218074BD3184FEA43031B689BB2184612
:103EDC0007F10C07BD4680BC704700BF505C00402A
:103EEC000430002080B483B000AF02460B46FA7158
:103EFC00BB80094B1B689BB21A46FB794FEAC30384
:103F0C00D218064BD3184FEA4303BA881A6007F14C
:103F1C000C07BD4680BC7047505C0040023000204E
:103F2C0080B485B000AF02460B46FA71BB801F4BC4
:103F3C001B689BB21A46FB794FEAC303D2181C4B81
:103F4C00D3184FEA4303BB60BB883E2B15D9BB8803
:103F5C004FEA5313FB81BB8803F01F03002B03D1E3
:103F6C00FB8903F1FF33FB81FB894FEA832343F485
:103F7C0000431A46BB681A6013E0BB884FEA530330
:103F8C00FB81BB8803F00103DBB2002B03D0FB8960
:103F9C0003F10103FB81FB894FEA83231A46BB68BB
:103FAC001A6007F11407BD4680BC7047505C004096
:103FBC000630002080B483B000AF0346FB710C4B7D
:103FCC001B689BB21A46FB794FEAC303D218094B04
:103FDC00D3184FEA43031B689BB24FEA83534FEA53
:103FEC0093539BB2184607F10C07BD4680BC704733
:103FFC00505C00400630002080B485B000AF034612
:10400C00FB80FB88FB73FB884FEA13239BB29AB2AD
:10401C00FB7B4FEA03239BB242EA03039BB2BB81B7
:10402C00BB89184607F11407BD4680BC704700BF1A
:10403C0080B400AF084B4FF000021A60074B4FF4EE
:10404C0004421A80064B054A12881A604FF000038E
:10405C001846BD4680BC7047445C004048040020B4
:10406C00405C004080B584B000AF0346B9607A6014
:10407C00FB73FB7B03F07F03DBB21846FFF7F6FE06
:10408C0003461A467B689BB2B86811461A46FFF77E
:10409C00BDFCFB7B03F07F03DAB27B689BB210465E
:1040AC001946FFF71FFF4FF00003184607F11007E2
:1040BC00BD4680BD80B584B000AF03463960FB714E
:1040CC004FF00003FB60FB7903F07F03DBB2184673
:1040DC00FFF770FF0346FB60FB7903F07F03DBB255
:1040EC001846FFF7E1FE03461A46FB689BB2386898
:1040FC0011461A46FFF7D0FCFB68184607F110076B
:10410C00BD4680BD002103E00A4B5B58435004318F
:10411C0009480A4B42189A42F6D3094A02E0002396
:10412C0042F8043B074B9A42F9D3FCF72BFBFCF704
:10413C0093F87047784C00080000002034010020F0
:10414C003401002050040020FEE7000012010002A0
:10415C00000000408304205700020102030100000C
:10416C0009022000010100C0320904000002080607
:10417C0050040705810240000007050202400000C0
:10418C00040309042603530054004D006900630026
:10419C0072006F0065006C006500630074007200B3
:1041AC006F006E006900630073000000260353006B
:1041BC0054004D003300320020004D0061007300AC
:1041CC0073002000530074006F00720061006700E0
:1041DC006500000010035300540020004D006100E6
:1041EC0073007300F8B500BFF8BC08BC9E4670475E
:0C41FC00F8B500BFF8BC08BC9E46704738
:044C70002101000816
:044C74000D01000826
:104C7800008002022000000053544D2020202020F4
:104C8800534420466C617368204469736B2020206C
:104C9800312E3020008002022000000053544D20A5
:104CA800202020204E414E4420466C6173682044E9
:104CB80069736B20312E30200300000000060000CD
:104CC80000000000700000000000000A0000000062
:104CD80000000000000000000000000800000000C4
:104CE800020000001A03530054004D003300320044
:104CF800310030000000000000000000000000004B
:104D080029110008CD350008CD350008CD3500083B
:104D1800CD350008CD350008CD350008CD35000863
:104D280035110008CD350008CD350008CD3500080F
:104D3800CD350008CD35000803010000A111000899
:104D4800CD110008091300081513000821130008E5
:104D5800AD1300082D140008651400088914000814
:104D6800AD14000800000000400000005841000891
:104D7800120000006C410008200000008C4100086F
:104D8800040000009041000826000000B841000817
:104D980026000000740000201A000000E04100080E
:044DA80010000000F7
:04000005080041119D
:00000001FF
