:020000040800F2
:100000000028002019240008D9040008DB04000897
:10001000DD040008DF040008E1040008000000001F
:10002000000000000000000000000000E3040008E1
:10003000E504000800000000E7040008E9040008E7
:100040005D2400085D2400085D2400085D2400088C
:100050005D2400085D2400085D2400085D2400087C
:100060005D2400085D2400085D2400085D2400086C
:100070005D2400085D2400085D2400085D2400085C
:100080005D2400085D2400085D240008EB040008DE
:10009000EF0400085D2400085D2400085D240008CA
:1000A0005D2400085D2400085D2400085D2400082C
:1000B0005D2400085D2400085D2400085D2400081C
:1000C0005D2400085D2400085D2400085D2400080C
:1000D0005D2400085D2400085D2400085D240008FC
:1000E0005D2400085D2400085D2400080000000075
:1000F0000000000000000000000000000000000000
:0C01000000000000000000005FF808F1A3
:10010C0040F25413C2F200031A780AB90120187095
:10011C00704700BF40F25410C2F2000008B50368EB
:10012C002BB140F20003C0F2000303B1984708BDA5
:10013C0010B500230CE0040F092C01D8303400E07A
:10014C0037340C70013300244C700001DBB20231E7
:10015C009342F0D110BD012010B500F0A3FF4FF475
:10016C0000000121BDE8104000F0AEBF13B54FF404
:10017C00C06000F009FF0124142301A88DF804309D
:10018C008DF805408DF806408DF8074000F006FF0D
:10019C0013238DF8043001A8133B8DF805408DF81E
:1001AC0006308DF8074000F0F9FE1CBD7047704713
:1001BC007047704770477047094A0A4B10B51B6867
:1001CC0014685068C0180AD008220749FFF7B0FF1E
:1001DC00064920460422BDE81040FFF7A9BF10BD18
:1001EC00ECF7FF1FE8F7FF1F7400002084000020CD
:1001FC00002000F017B8FFF7FBBF000008B5FFF7B1
:10020C00FAFFFFF7A8FFFFF7D1FFFFF7AFFF01F0F1
:10021C005FFE034B1B68052BFBD1FFF7CAFFFEE704
:10022C008801002010B5044628B901F093F8034B5F
:10023C001860204610BD012010BD00BF58010020E1
:10024C0010B5044638B910461A4601F08DF9034B27
:10025C001860204610BD012010BD00BF58010020C1
:10026C0010B5044638B910461A4601F0B5F9034BDF
:10027C001860204610BD012010BD00BF58010020A1
:10028C0000B58DB0F0B901A801F08EF89DF81C00F6
:10029C009DF80C2001239340059944BF03F5FE7390
:1002AC0003330131821C11FA02F25B125343074AE9
:1002BC004FF400711360064A5B021160054A00207E
:1002CC00136000E001200DB000BD00BFA0010020B4
:1002DC0098010020900100202DE9F0470646344893
:1002EC00344C0378824653B9334B344853F8263098
:1002FC00594353432360012301608AF800309AF874
:10030C000030012B40D12E4DDFF8B0902B68DFF878
:10031C00BC809BB9284FD9F8001037F82630294AF1
:10032C003046FFF79DFF81202649402202F048F815
:10033C0057F82630403B2B6040230DE0D8F80030B6
:10034C0020498120C918402202F03AF82B68403B22
:10035C002B60D8F80030403301204021C8F8003021
:10036C0001F0DAFF0120302101F013FFD9F8003041
:10037C004033C9F800302368403B2360124B9A6825
:10038C00403A9A60FFF713FF236873B90C4A0321B4
:10039C0013600E4A8AF800301360084A13600C4A46
:1003AC001170BDE8F047FFF703BFBDE8F08700BF51
:1003BC0074010020640100209801002068010020D5
:1003CC005C010020B0010020D8030020A80100200F
:1003DC00D20300202DE9F041314D324C2E682378A8
:1003EC00403653B9304B314F53F8203059435343B7
:1003FC0039602F490B60012323702378012B3BD1EB
:10040C002C4A013B136011460BE02B4FD2F800E055
:10041C0013F807C0294F01330EF807C017680137CE
:10042C0017602F681E4AB742EFD30B60244E1F4B48
:10043C0037881968791819601D4BD3F800E0C7EBA1
:10044C000E071F60184B53F82030B7FBF3FE03FB6D
:10045C001E772FB91760C91A184A9BB2FFF7F0FE26
:10046C00184B3288996802208A1A9A604FF44051CE
:10047C0001F0ABFEFFF79BFE0D4B1B681BB1124B43
:10048C001B78042B0AD10026304601212E6000F087
:10049C00C3F82670BDE8F041FFF78ABEBDE8F081D5
:1004AC0060010020740100209801002070010020E0
:1004BC006C010020AC010020EC030020B0010020F6
:1004CC00D0030020D8030020D20300207047FEE7A1
:1004DC00FEE7FEE7FEE7704770477047704701F094
:1004EC00D9BD00F02DBA00003A4B82B01A6842F028
:1004FC0001021A605968384A01EA02025A601A6805
:10050C0022F0847222F480321A601A6822F480225B
:10051C001A605A6822F4FE025A604FF41F029A6065
:10052C000022019200921A6842F480321A60294B20
:10053C001A6802F400320092019A01320192009A78
:10054C001AB9019AB2F5A06FF1D11B6813F40033FC
:10055C0018BF01230093009B012B34D11F4B1A6849
:10056C0042F010021A601A6822F003021A601A682C
:10057C0042F001021A60174B5A685A605A685A6066
:10058C005A6842F480625A605A6822F47C125A60AB
:10059C005A6842F488125A601A6842F080721A60E3
:1005AC000C4B1A6812F0007FFAD05A6822F0030242
:1005BC005A605A6842F002025A60064B5B6803F0BC
:1005CC000C03082BF9D1064B4FF000629A6002B075
:1005DC00704700BF001002400000FFF800200240EE
:1005EC0000ED00E0034610B50C462246194681206A
:1005FC0001F0E6FE0120302101F0CBFD044B03227B
:10060C001A70044B9A68141B00229C601A7310BD5C
:10061C00D2030020D803002010B50B4B0C460B491D
:10062C000D220B600873812001F0CAFE084B0522D5
:10063C001A703CB1013A012030211A70BDE810400B
:10064C0001F0A7BD10BD00BF55534253D803002085
:10065C00D203002010B5124A1378023B032B1ED88C
:10066C00DFE803F0051202020023137010E00D4BBB
:10067C00DA7B282A13D1587B0B4B19680B4B1A6861
:10068C00BDE8104000F04ABC00200121FFF7C4FF78
:10069C0002204FF44051BDE8104001F096BD10BD52
:1006AC00D2030020B0030020D4030020E803002074
:1006BC00012810B5044609D002D3022813D107E053
:1006CC0001201021BDE8104001F063BD022004E0C0
:1006DC000120102101F05DFD20464FF48051BDE852
:1006EC00104001F072BD10BD594B70B51A88002333
:1006FC0003E05849595CE95401339342564DF8D301
:10070C00564B69681F2A5960A96899600CD0022061
:10071C00FFF7CEFF0024687B05211A222C6000F025
:10072C00B1FA01202146C6E0EB7B282B01D02A2B05
:10073C0011D1A97C6A7C090441EA02612A7D11432A
:10074C00EA7C41EA0221464A1160EA7DA97D42EA2F
:10075C000121444A11602968434A3F4C914240F0C0
:10076C00A080424A607B1268904203D8A27B0AB1F7
:10077C00102A06D90220FFF79BFF687B0521242253
:10078C0095E0252B53D01CD8122B3CD00BD8042B26
:10079C007AD004D8002B4ED0032B7DD12FE0082B20
:1007AC0076D00A2B29E01B2B31D004D8152B6FD017
:1007BC001A2B71D12FE01E2B29D0232B33D01D2BBC
:1007CC001BE0882B64D00CD82F2B59D004D8282BA5
:1007DC0035D02A2B60D14BE0552B59D05A2B5BD1FD
:1007EC001DE09E2B54D003D88A2B51D08F2B04E0C4
:1007FC00AA2B4DD0AF2B4BD0A82B4DD148E0BDE848
:10080C00704000F033BABDE8704000F007BABDE8A4
:10081C00704000F0A9BABDE8704000F01BBABDE80A
:10082C00704000F01DBABDE8704000F069BABDE838
:10083C00704000F02DBABDE8704000F0B5BA084B1E
:10084C001968084B1A68BDE8704000F067BB00BF20
:10085C00D0030020EC030020B0030020D8030020BC
:10086C00D4030020E80300205553424384010020A8
:10087C00134B1968134B1A68BDE8704000F016BB97
:10088C00BDE8704000F074BABDE8704000F0A6BA44
:10089C00BDE8704000F0B8BA0220FFF709FF687B92
:1008AC0003E00220FFF704FF607B0521202200F00B
:1008BC00E9F901200021BDE87040FFF7ADBE00BF93
:1008CC00D4030020E803002070B5154C0220154914
:1008DC00E57B01F089FD144B1880144B187810B18E
:1008EC0001280FD103E0BDE87040FFF7FDBE2A2DB3
:1008FC0009D10F4B607B19680E4B1A68BDE870402C
:10090C0000F0D4BA0220FFF7D3FE607B052124222D
:10091C0000F0B8F902200021BDE87040FFF77CBE62
:10092C00B0030020EC030020D0030020D2030020F1
:10093C00D4030020E8030020FFF78CBEFFF7C4BFF0
:10094C0038B50F4B1A680F4B1A800F4A198810884C
:10095C001D4600EA010111F4004F144601D001F0CC
:10096C00D3FA2B88228802EA030313F4806F06D093
:10097C00034B4FF6FF321A60044B5B68984738BD47
:10098C00445C00402C04002060040020CC000020BB
:10099C00014B04221A607047880100207047704791
:1009AC0021B9002814BF0220002070470220704794
:1009BC0020B9034B01221B681A827047014870470B
:1009CC005C0400208401002010B50D4B1B681A78C4
:1009DC0002F07F02212A0FD1FE280DD15C885CB970
:1009EC005A68B2F5803F09D1064A5C829A6120466A
:1009FC00FFF7DEFF204610BD022010BD022010BD07
:100A0C005C040020BD090008054B1B68DB78052B36
:100A1C0004D8044901EBC30100F0F6BF0020704775
:100A2C005C04002028010020014900F0EDBF00BF4C
:100A3C00C4000020014900F0E7BF00BF20010020E6
:100A4C0010B50F4B1B681A7802F07F02212A12D1C5
:100A5C00FF2810D15A8872B95C6874B9FE3801F05D
:100A6C0006FC022001F0EFFB064B074A20461A60F9
:100A7C00064B1C7010BD022010BD022010BD00BF23
:100A8C005C040020B003002055534243D2030020E5
:100A9C0008B5084B1B689B7A5BB1074B05221A60A3
:100AAC00012001F0E4FB022001F0CDFB034B0022FE
:100ABC001A7008BD5C04002088010020D2030020BD
:100ACC00044B1A68044B9A4202D00220FFF7F0BD87
:100ADC00704700BFB003002055534243324B70B5F2
:100AEC0000249C72314A324BD2791B6820465A72D0
:100AFC0001F038FB20464FF4007101F03DFB2D4D09
:100B0C002046202101F045FB2046182101F0D6FBA0
:100B1C00204695F82C1001F00DFC5821204601F0D0
:100B2C00BBFB204601F07FFB204601F06AFB012055
:100B3C00214601F021FB0120982101F0ADFB0120A1
:100B4C00202101F026FB0120214601F03EFB022072
:100B5C00214601F011FB0220D82101F0AFFB02204D
:100B6C0095F82C1001F0E6FB02204FF4405101F0F7
:100B7C002CFB0220214601F00CFB95F82C10204692
:100B8C0001F0D8FB204601F03CFB204601F04CF96B
:100B9C00094B01221A60094A094B1A60094B1C7057
:100BAC00BDE87040FFF706BB3C040020622400083F
:100BBC005C040020CC0000208801002055534243E7
:100BCC00B0030020D203002010B5FFF7F5FA054B57
:100BDC0000241B689C7200F009F801F0E1FB024B49
:100BEC001C6010BD5C0400208801002008B50120A9
:100BFC00FFF7E1FA064B01221A60064A002006496B
:100C0C00186010604FF4E0520A801A6008BD00BFF3
:100C1C00405C0040445C004060040020094B1A7C9E
:100C2C0012F0010F0AD10849084A002814BF0846DF
:100C3C001046D97C242928BF242101E00448052131
:100C4C00FFF7D0BCB00300202A0000204E0000208B
:100C5C007D01002001480421FFF7C4BC08000020DE
:100C6C0001480821FFF7BEBC00000020034B0448DC
:100C7C00D97C122928BF1221FFF7B4BCB003002085
:100C8C000C000020014B99701A7370470C00002067
:100C9C0010B50446FFF7F4FA70B1154B0221587BDE
:100CAC003A22FFF7EFFF01200146FFF7B5FC0020C9
:100CBC00BDE81040FFF7FCBC0E4B0F4853F8243036
:100CCC000821013B1A0E02701A0C4270C3701A0AEA
:100CDC000A4B827053F824301A0E02711A0C4271AE
:100CEC001A0A8271C371BDE81040FFF77BBC00BFCC
:100CFC00B0030020A0010020750100209801002005
:100D0C0010B50446FFF7BCFA70B1134B0221587BA7
:100D1C003A22FFF7B7FF01200146FFF77DFC0020C8
:100D2C00BDE81040FFF7C4BC0C4B0D4853F8243001
:100D3C000C211A0E02711A0C4271C3711A0A094B5A
:100D4C00827153F824301A0C42721A0A8272C372DE
:100D5C00BDE81040FFF746BCB0030020A001002006
:100D6C001E0000209801002000200121FFF754BC38
:100D7C000C4B10B59A681C462AB9187C10F004006C
:100D8C0001D1012109E00220FFF792FC607B0521D3
:100D9C002422FFF777FF01200021BDE81040FFF768
:100DAC003BBC00BFB003002010B5FFF769FA70B16F
:100DBC00094B0221587B3A22FFF764FF01200146C0
:100DCC00FFF72AFC0020BDE81040FFF771BC0121A1
:100DDC00BDE81040FFF720BCB003002010B5FFF7B2
:100DEC004FFA70B1074B0221587B3A22FFF74AFFAA
:100DFC0001200146FFF710FC0020BDE81040FFF772
:100E0C0057BC10BDB003002010B50B4CA06830B11E
:100E1C0094F90C30002B01DA002000E00220FFF7DF
:100E2C0047FC607B05212022FFF72CFF01200021CD
:100E3C00BDE81040FFF7F0BBB003002010B504462E
:100E4C0017489A1850F8240082420BD92A2902D14B
:100E5C000220FFF72DFC0020FFF72AFC204605217D
:100E6C00212212E00F48104A50F824001446434344
:100E7C009068984211D02A2901D1022000E000206C
:100E8C00FFF716FC607B05212422FFF7FBFE0120F7
:100E9C000021FFF7C1FB002010BD012010BD00BFD9
:100EAC00A001002098010020B00300202DE9F041A2
:100EBC00184E0F4634781346002C22D1164D2A2199
:100ECC00687B3A46FFF7BAFF002820D095F90C3022
:100EDC00002B08DB012302204FF440513370BDE896
:100EEC00F04101F072B92046FFF7E2FB687B052167
:100EFC002422FFF7C7FE01202146BDE8F041FFF791
:100F0C008BBB012C03D1BDE8F041FFF763BABDE800
:100F1C00F08100BFD2030020B00300202DE9F04186
:100F2C00174F80463B780E461546002B20D1154CAA
:100F3C002821607B32462B46FFF780FF00281DD00E
:100F4C0094F90C30002B05DA02233B7040463146F5
:100F5C002A460FE00220FFF7ABFB607B0521242221
:100F6C00FFF790FE01200146BDE8F041FFF754BBAE
:100F7C00022B03D1BDE8F041FFF7AEB9BDE8F0811B
:100F8C00D2030020B003002040F0BE60024B40F4BE
:100F9C002020D860704700BF00ED00E0C37810B58A
:100FAC00E3B1144B4178DB688478DB4303F4E063F2
:100FBC001B0AC3F1040291400F22DA4022400A437B
:100FCC000D4B01781201CB1883F800230378012212
:100FDC00590903F01F0312FA03F307E00378012207
:100FEC00590903F01F0312FA03F32031024A42F8A5
:100FFC00213010BD00ED00E000E100E0CB78F0B551
:10100C0013F0100F03F00F020E881CBF8B781A43DD
:10101C0016F0FF0F1DD00468002301279F4007EA3C
:10102C000605BD4211D19F004FF00F0C0CFA07FCC6
:10103C0012FA07F724EA0C043C43CF78282F01D18D
:10104C00456102E0482F08BF05610133082BE4D14C
:10105C0004600E88FF2E1FD94468002303F1080595
:10106C000127AF4007EA0605BD4211D19F004FF0A2
:10107C000F0C0CFA07FC12FA07F724EA0C043C4399
:10108C00CF78282F01D1456102E0482F08BF0561B8
:10109C000133082BE2D14460F0BD0161704741611E
:1010AC0070470000014B1860704700BFD8004242E7
:1010BC00044B11B19A69104302E09A6922EA0000CC
:1010CC009861704700100240044B11B1DA6910436B
:1010DC0002E0DA6922EA0000D86170470010024091
:1010EC000B8810B54C88028844EA03038C8802F400
:1010FC0041522343CC8823430C8923434C892343FB
:10110C008C892343CC89234342EA03030380838BDA
:10111C0023F400631B041B0C83830B8A038210BD16
:10112C0021B103889BB243F0400304E0038823F011
:10113C0040031B041B0C038070478181704780891E
:10114C0080B27047038919420CBF00200120704700
:10115C0010B5542086B00121FFF7AAFF01214FF4EE
:10116C008050FFF7A5FF032320228DF8163005A928
:10117C0015332848ADF814208DF817308024FFF76C
:10118C003DFF05A92348ADF81440FFF737FF402376
:10119C00ADF8143005A904231E488DF81730FFF75D
:1011AC002DFF4FF48052102305A91B48ADF81420D5
:1011BC008DF81730FFF722FF482305A91748ADF823
:1011CC0014408DF81730FFF719FF4FF4827200238B
:1011DC00ADF802200222ADF80030ADF80430ADF8C5
:1011EC0006207F3C4FF40072ADF80C30ADF80E3099
:1011FC00694607230A48ADF80840ADF80A20ADF857
:10120C001030FFF76DFF06482146FFF789FF06B047
:10121C0010BD00BF00080140001001400018014043
:10122C000030014010B504460A480221FFF78AFF3E
:10123C000028F9D007482146FFF77FFF0548012118
:10124C00FFF780FF0028F9D00248FFF778FFC0B203
:10125C0010BD00BF0030014013B50B0E8DF80130EE
:10126C000B0C40F040008DF802300B0A8DF800009A
:10127C008DF803308DF804108DF8052000241DF82E
:10128C0004000134FFF7CEFF062CF8D11CBD000082
:10129C0008B50A480221FFF755FF0028F9D0074886
:1012AC00FF21FFF74AFF05480121FFF74BFF0028FC
:1012BC00F9D00248FFF743FFC0B208BD003001402F
:1012CC0038B5054640F6FF7400E0013CFFF7E0FF3F
:1012DC00A84203D0002CF8D1FF2038BD002C0CBF45
:1012EC00FF20002038BD000010B519484FF4805184
:1012FC00FFF7D5FE002001469522FFF7ADFF012038
:10130C00FFF7DEFF08BB4FF480511148FFF7C5FE15
:10131C00FF20FFF787FF0E484FF48051FFF7BFFE09
:10132C0001200021FF22FFF797FF0020FFF7C8FFE5
:10133C0004460028E7D106484FF48051FFF7ADFE74
:10134C00FF20FFF76FFF204610BDFF2010BD00BF30
:10135C000010014010B5FFF7FBFE07484FF4805119
:10136C00FFF79BFE0A24FF20FFF75CFF013CFAD13C
:10137C00BDE81040FFF7B8BF0010014038B541255B
:10138C00FFF786FF00F01F040B2C07D00D2C05D0A7
:10139C00052C05D1FFF77CFF0028FBD0204638BD7B
:1013AC00013DEDD1F6E7000030B54FF4805185B02A
:1013BC0004466C48FFF773FE09200021FF22FFF75B
:1013CC004BFF0020FFF77CFF98B9FE30FFF778FF4A
:1013DC0038B90546FFF75CFF0DF805000135102DF7
:1013EC00F8D1FF20FFF71EFFFF20FFF71BFF0025A2
:1013FC0000E0FF254FF480515A48FFF74EFEFF20C6
:10140C00FFF710FF9DF800309DF807109A09227025
:10141C0003F03C02920803F003036270A3709DF882
:10142C0001302846E3709DF8023023719DF803309B
:10143C0063719DF804301B01E380E2889DF8053050
:10144C0092B242EA131203F00F03E28023729DF86A
:10145C000630DA096272C3F38012A272C3F340122F
:10146C00E272C3F3001203F0030322739B02002207
:10147C0062732361236943EA8103236121699DF827
:10148C00083041EA9311216103F03801C90803F0D7
:10149C000703217563759DF809305909A17503F08F
:1014AC001C0103F0030389085B00E1752376217EA0
:1014BC009DF80A3041EAD3112176C3F3801103F071
:1014CC003F035B006176A376A17E9DF80B3041EA69
:1014DC00D31103F07F03A176E3769DF80C30D90984
:1014EC00217703F060014909617703F01C0103F0D7
:1014FC00030389089B00A177E377E17F9DF80D300A
:10150C0041EA9311E177C3F3401103F0010384F82E
:10151C00201084F8212084F822309DF80E30DA094E
:10152C0084F82320C3F3801284F82420C3F34012E0
:10153C0084F82520C3F3001284F8262003F00C0253
:10154C00920803F0030384F8272084F828309DF8D0
:10155C000F305B0884F82930012384F82A3005B059
:10156C0030BD00BF0010014070B50E4604464FF46C
:10157C00805118481546FFF792FD31461820FF227E
:10158C00FFF76AFE0020FFF79BFE0646B8B9FF2066
:10159C00FFF748FEFE20FFF745FE03E0A05DFFF7D6
:1015AC0041FE0136AE42F9D3FFF772FEFFF770FE33
:1015BC00FFF7E4FE052814BFFF24002400E0FF24FD
:1015CC004FF480510348FFF768FDFF20FFF72AFE18
:1015DC00204670BD0010014070B50E4604464FF415
:1015EC00805115481546FFF75AFD11203146FF2250
:1015FC00FFF732FE0020FFF763FE88B9FE30FFF7DD
:10160C005FFE68B9064603E0FFF742FEA0550136BF
:10161C00AE42F9D3FFF73CFE0024FFF739FE00E0A1
:10162C00FF244FF480510448FFF737FDFF20FFF7EC
:10163C00F9FD204670BD00BF0010014010B5064CEE
:10164C0018B9236801221A8210BD044B1B681B6851
:10165C00984720680A3010BD5C0400205804002014
:10166C0010B5064C18B9236801221A8210BD044B20
:10167C001B689B68984720680C3010BD5C040020E8
:10168C005804002008B5264B18B91B6802221A8290
:10169C0008BD2448002202801A68117811F07F01DD
:1016AC0013D1527A017812F0200F14BF41F00201CD
:1016BC0021F00201017012F0400F027814BF42F0C9
:1016CC00010222F00102027022E0012927D0022936
:1016DC0024D1527902F00F0312F0800F4FEA8303EA
:1016EC0008D003F1804303F5B8431B6803F03003C3
:1016FC00102B08E003F1804303F5B8431B6803F497
:10170C004053B3F5805F03D1037843F001030370BA
:10171C00054B1B681B699847024808BD002008BD93
:10172C005C0400202E04002058040020234A2DE9DC
:10173C00F84314689046238A267A214FA3B9042EC5
:10174C0012D120490A78012A0AD11F4A10681F4A6F
:10175C0080B282185200136030223A800B7027E05E
:10176C0010233B80072623E0A58AAB428CBF0226C0
:10177C0004269D4228BF1D462846A36998478146EA
:10178C00002000F0ADFD2A460146484600F0C2FCA0
:10179C002946002000F0C0FD238A30225B1B2382E7
:1017AC00638A3A80ED180A4B4FF4405265821A80D6
:1017BC00D8F800301E72BDE8F88300BF5C0400202E
:1017CC00640400208C010020505C0040023000209A
:1017DC006204002010B50B4B0B491B684978DA7872
:1017EC0091420AD3997841B99C8844B99A72074BB3
:1017FC001B685B689847204610BD022010BD022074
:10180C0010BD00BF5C0400205001002058040020D3
:10181C0038B50F4C0F4B22681B6850799B69D178F7
:10182C00984723689A7A7AB170B91A7962B99D7817
:10183C0065B9094B1B68DB689847236828465A79B9
:10184C00DA72DA781A7338BD022038BD022038BD3E
:10185C005C040020340400205804002010B5364BE2
:10186C001B68187810F07F0004D15A7A22F02002FD
:10187C005A7210BD02285AD15A88002A5AD11A79A4
:10188C00002A57D15A792D4C22F08000810001F1A9
:10189C00804101F5B8410968247812F0800F14BF1B
:1018AC0001F0300101F44051A04240D200293ED059
:1018BC009B7A002B3DD012F0800F4FEA800411D0A0
:1018CC0004F1804404F5B844236803F03003102B72
:1018DC0027D1C4B2204600F0CAFC2046302100F0CB
:1018EC0058FC1EE004F1804404F5B844236803F46A
:1018FC004053B3F5805F14D128B9114B93F82C10D9
:10190C0000F018FD01E000F09EFC22684BF68F738E
:10191C0002EA030383F4405343F4004343F080038F
:10192C002360084B1B685B699847002010BD0220A0
:10193C0010BD022010BD00BF5C040020500100202F
:10194C00CC0000205804002010B5234B234C196800
:10195C0024784A7922F08003980000F1804000F549
:10196C00B840006812F0800F14BF00F0300000F493
:10197C004050A3422BD24C884CBB40B3897A41B324
:10198C0012F0800F4FEA83030BD003F1804303F571
:10199C00B843196848F6BF7201EA020282F01002DD
:1019AC000AE003F1804303F5B84319684BF68F72D4
:1019BC0001EA020282F4805242F4004242F08002B8
:1019CC001A60074B1B689B699847002010BD0220CA
:1019DC0010BD022010BD00BF5C040020500100208F
:1019EC005804002008B5064B1B685A7A42F02002B6
:1019FC005A72044B1B68DB699847002008BD00BF76
:101A0C005C04002058040020054B1A68538A18B94E
:101A1C008988CB1A138270470868C018704700BFBA
:101A2C005C04002008B50C4B002093F82C1000F03F
:101A3C0081FC0A4B1B68187A082806D1084B4FF416
:101A4C0080521A80074B10221A80A0F109035842C9
:101A5C0040EB030008BD00BFCC0000205C0400205C
:101A6C0062040020640400202DE9F0412C4D2C6808
:101A7C00237A022B4DD0042B4BD0032B01D0052BFA
:101A8C0041D1A369228AABB1A2B1A68A964228BFE2
:101A9C00164630469847238A07469B1B2382638A47
:101AAC000020F318638200F029FC324601463846C8
:101ABC0000F047FB238A53B11A4B4FF440520020DD
:101ACC001A80014600F028FC174B30221A80238A1A
:101ADC00A28A9A4202D82B68032202E01BB12B681F
:101AEC0005221A720CE02A68062111720F4A11683D
:101AFC000F4A89B28A18520013600B4B30221A809D
:101B0C002B681B7A06E0072B03D10A4B1B68DB689A
:101B1C00984708232A681372BDE8F041FFF782BF8B
:101B2C005C0400206204002064040020505C00402F
:101B3C000230002034040020884BF7B51A68884C1A
:101B4C00884B92B2D31826685B001F68337A092B36
:101B5C001AD0BFB207F1005707F540577F003D463A
:101B6C0015F8013B33707B780A377370B5F80300B6
:101B7C0000F010FC7080B5F80700266800F00AFC35
:101B8C00B08023687F88DF80226801231372D3889A
:101B9C005578002B5CD1137813F07F032AD1092DD3
:101BAC0002D1FFF717FE37E0052D0DD192F9033066
:101BBC00002B49DB9378002B46D19388002B43D123
:101BCC00937A002B31D03FE0032D07D1D378012B32
:101BDC0023D193880BBBFFF705FF1DE0012D1CD112
:101BEC00D378012B19D19388BBB9537A13F0200FFA
:101BFC0013D00AE0012B04D10B2D0ED1FFF708FEF8
:101C0C000AE0022B09D1012D02D1FFF727FE03E0D8
:101C1C00032D02D1FFF798FE38B1534B28461B68B1
:101C2C005B69984703280DD070B94C4B30211A686A
:101C3C004E4B92B2D3185B0000221A604C4B1980A9
:101C4C00062302E0092300E0082322681372DEE079
:101C5C00062D16D1137813F07F0F40F093809278F5
:101C6C00414B012A02D11B68DB696DE0022A02D1CB
:101C7C001B681B6A68E0032A40F084801B685B6A5F
:101C8C0062E0002D3AD1518800297BD1536823F4AE
:101C9C007F43B3F5003F75D1137813F07F0303D165
:101CAC009388002B4CD06DE0012B0CD12E4B50792E
:101CBC001B689B699847002864D1294B1B689B7A49
:101CCC00002B3DD15EE0022B5CD15379294803F007
:101CDC000F018A0002F1804202F5B84212680078C6
:101CEC0013F0800F14BF02F0300202F44052814214
:101CFC0048D213F0700F45D112BB43E0082D04D12C
:101D0C00137813F07F0F1DD03CE00A2D3AD11378D5
:101D1C0003F07F03012B35D1937A002B32D05188FD
:101D2C0000292FD1536823F47F43B3F5803F29D189
:101D3C000D4B50791B689B69984718BB0E4B04E000
:101D4C000E4B02E00E4B00E0E3B122680021518201
:101D5C0093610020984700201FE000BF505C0040BA
:101D6C005C040020043000203404002002300020E9
:101D7C0064040020500100206D1600089116000824
:101D8C0049160008244B22681B6850781B69984739
:101D9C00032802D1214B1B6805E023684FF6FF7125
:101DAC001A8A8A4201D1092203E0022800D012B912
:101DBC0008221A722BE093F90010002921DAD88836
:101DCC00019001998A42144902D9019A1A8210E0B1
:101DDC0082420ED20B6893F82C309A4201D2002228
:101DEC0005E092FBF3F003FB102212B901320C4B0D
:101DFC001A700A68236892F82C209A82FFF796FCD6
:101E0C0005E003221A72074B4FF440521A8003B0BC
:101E1C00BDE8F040FFF706BE340400205C0400204F
:101E2C008C0100206204002070B50F4B1D7800233C
:101E3C0012E0DCB2A20002F1804202F5B842166850
:101E4C0044F4004440F60F7144F0800406EA0101AA
:101E5C0044EA010111600133AB42EAD3034B40F079
:101E6C008000186070BD00BF500100204C5C004029
:101E7C0010B5134C23681A7A022A01D0042A04D113
:101E8C00FFF754FC23681B7A14E0062A11D15A7808
:101E9C00052A0AD11A7812F07F0F06D1D878FFF7ED
:101EAC00C3FF084B1B681B6A9847074B1B689B6852
:101EBC009847082322681372BDE81040FFF7B2BDA3
:101ECC005C040020580400203404002070470000FB
:101EDC0008B5074A074B0849136002221A72074BD0
:101EEC00074A1360074A1B681160984708BD00BF7A
:101EFC005C0400203C040020FC000020CC000020EE
:101F0C00340400205804002073B50023ADF80630CB
:101F1C00A4E01388564C03F00F032370002B6DD1F3
:101F2C00544C554E2368554D3380338803F03003A1
:101F3C002B80338803F44053338021684BF6BF73F6
:101F4C0001EA030383F4005383F0200343F40043BA
:101F5C0043F080032360138813F0100F08D122681C
:101F6C0048F60F7302EA03032360FFF781FF1DE0BD
:101F7C002368ADF80630BDF8063013F4006F08D0B6
:101F8C00226840F68F7302EA03032360FFF7D4FD47
:101F9C000CE0BDF806301BB2002B5FDA226840F66D
:101FAC008F7302EA03032360FFF75EFD22684BF692
:101FBC00BF7302EA0303328802F4805292B20AB170
:101FCC0083F48053328802F4005292B20AB183F443
:101FDC0000532A8802F0100292B20AB183F0100367
:101FEC002A8802F0200292B20AB183F02003244A1C
:101FFC0043EA02021F4B92B21A6038E09B0003F1D5
:10200C00804303F5B8431A68ADF80620BDF80620E6
:10201C0012B2002A0BDA196840F68F7201EA02023A
:10202C001A602278174B013A53F822309847BDF8C2
:10203C00063013F0800F11D0237848F60F729B00F6
:10204C0003F1804303F5B843196801EA02021A60F0
:10205C0022780D4B013A53F8223098470B4B0C4A1F
:10206C001B68138013881BB2002BFFF652AF7CBD8C
:10207C0038040020005C004062040020640400204E
:10208C008080FFFFA80000208C000020445C0040F2
:10209C002C04002008B52AE047F6FF7111601B885C
:1020AC00174A03F00F0313709B0003F1804303F5F1
:1020BC00B843196889B211F4004F09D0186840F67A
:1020CC008F7100EA0101196012780E4B013A0BE096
:1020DC0011F0800F0BD0186848F60F7100EA01015F
:1020EC0019601278084B013A53F822309847074A86
:1020FC00074B11681980198809B20029CCDB08BD7F
:10210C0038040020A80000208C000020445C004013
:10211C002C04002001F10051013201F5405110B5A1
:10212C004900520808E010F8014C10F8023C013A42
:10213C0043EA042321F8043C02300431002AF2D192
:10214C0010BD01F10051013201F540514900520816
:10215C0004E051F8043B013A20F8023B002AF8D184
:10216C00704700004FF6F873024A00EA030313604D
:10217C00704700BF505C0040800000F1804000F5CB
:10218C00B840026848F68F1302EA03030B4303605E
:10219C007047800000F1804000F5B840026848F6B6
:1021AC00BF7302EA030301F0100292B20AB183F08A
:1021BC00100301F0200189B209B183F0200343F42C
:1021CC00004343F0800303607047800000F18040BF
:1021DC0000F5B84002684BF68F7302EA030301F472
:1021EC00805292B20AB183F4805301F4005189B247
:1021FC0009B183F4005343F4004343F080030360BC
:10220C007047800000F1804000F5B84002684BF642
:10221C008F7302EA030383F4405343F4004343F007
:10222C00800303607047800000F1804000F5B840E7
:10223C00026840F60F6302EA030343F4004343F0E1
:10224C00800303607047800000F1804000F5B840C7
:10225C00036813F4804F09D0026840F60F7302EA4A
:10226C00030343F4404343F0800303607047800052
:10227C0000F1804000F5B840036813F0400F09D01E
:10228C00026840F60F7302EA030343F4004343F081
:10229C00C003036070470000074B4FF6FE721B68CB
:1022AC0001EA02029BB203EBC00303F1005303F5F6
:1022BC0040535B001A607047505C0040064B074A65
:1022CC001B689BB203EBC0039A184FF6FE735200C7
:1022DC0001EA030313607047505C00400430002097
:1022EC00054B1B689BB203EBC00303F1005303F5D2
:1022FC0040535B0018887047505C0040044B054A03
:10230C001B689BB203EBC0039A18520010887047ED
:10231C00505C004004300020044B054A1B689BB203
:10232C0003EBC0039A18520011607047505C0040D8
:10233C00023000200D4B1A680D4B92B2D31803EBF0
:10234C00C0035B003E2909D94A0911F01F0F01D1C6
:10235C00013A92B2920242F4004205E04A0811F0AE
:10236C00010F18BF013292021A607047505C004096
:10237C0006300020054B064A1B689BB203EBC003DA
:10238C009A18520010688005800D7047505C004010
:10239C0006300020C3B2000A40EA03207047000058
:1023AC00044B0020044A18604FF404431380034A82
:1023BC0013607047445C004060040020405C0040A7
:1023CC0070B500F07F0528460E461446FFF788FFCF
:1023DC00A4B2014622463046FFF79CFE2846214611
:1023EC00FFF79AFF002070BD70B500F07F052846FE
:1023FC000E46FFF7BFFF04462846FFF77FFF224635
:10240C0001463046FFF79DFE204670BD002103E0DB
:10241C000A4B5B584350043109480A4B42189A4204
:10242C00F6D3094A02E0002342F8043B074B9A42D8
:10243C00F9D3FEF759F8FDF7E1FE7047482F000875
:10244C0000000020540100205401002068040020EA
:10245C00FEE70403090409022000010100C032094F
:10246C000400000208065004070581024000000722
:10247C000502024000002603530054004D003300B7
:10248C00320020004D0061007300730020005300E7
:10249C0074006F0072006100670065001201000299
:1024AC0000000040830420570002010203011003C6
:1024BC005300540020004D0061007300730026038C
:1024CC00530054004D006900630072006F006500FA
:1024DC006C0065006300740072006F006E00690090
:1024EC0063007300F8B500BFF8BC08BC9E4670478B
:0C24FC00F8B500BFF8BC08BC9E46704755
:042F40002101000863
:042F44000D01000873
:102F48000006000000000000030000007000000000
:102F58000000000A0000000000000000000000005F
:102F680000080000000002000000008002022000AB
:102F7800000053544D20202020204E414E4420462E
:102F88006C617368204469736B20312E3020008097
:102F980002022000000053544D20202020205344DA
:102FA80020466C617368204469736B202020312EA1
:102FB80030201A03530054004D0033003200310012
:102FC8003000000000000000000000004509000873
:102FD800D91E0008D91E0008D91E0008D91E0008ED
:102FE800D91E0008D91E0008D91E00084909000882
:102FF800D91E0008D91E0008D91E0008D91E0008CD
:10300800D91E00086224000820000000D50B000823
:10301800E90A0008A9090008AB090008D509000851
:103028004D0A0008AD090008410A0008350A0008E1
:10303800150A00080000000040000000D91E000822
:103048009D0A0008D91E0008D91E0008D91E0008CC
:10305800CD0A0008D91E0008D91E00089D090008DD
:10306800A8240008120000005E24000804000000E4
:10307800CA24000826000000822400082600000058
:10308800720000201A000000BA2400081000000096
:043098000301000030
:0400000508002419B2
:00000001FF
