:020000040800F2
:10500000002800202D8600084D7500084F75000807
:105010005175000853750008557500080000000020
:10502000000000000000000000000000F152000835
:105030005775000800000000115300084D53000888
:105040007186000871860008718600087186000864
:105050007186000871860008718600087186000854
:105060007186000871860008718600087186000844
:105070007186000871860008718600087186000834
:105080007186000871860008718600087186000824
:10509000797400087186000871860008718600081E
:1050A0007186000871860008718600087186000804
:1050B00071860008718600087186000871860008F4
:1050C00071860008718600087186000871860008E4
:1050D00071860008718600087186000871860008D4
:1050E00071860008718600087186000800000000C3
:1050F00000000000000000000000000000000000B0
:0C51000000000000000000005FF808F153
:10510C0040F2E803C2F200031A780AB901201870C1
:10511C00704700BF40F2E800C2F2000008B5036817
:10512C002BB140F20003C0F2000303B1984708BD55
:10513C00032A70B404460D4626D941EA000313F045
:10514C00030F13D020782B78984208BF294606D03D
:10515C001EE014F8010F11F8013F984218D1012AF2
:10516C0002F1FF32F5D1002070BC70470B460446AB
:10517C0051F8045B50F8046BAE4204D1043A044677
:10518C00032A0B46F2D81D461046002ADAD1EBE76B
:10519C00C01AE9E7032A2DE9F00109D82AB1002346
:1051AC00CC5CC45401339342FAD1BDE8F001704792
:1051BC000B468218014603E02478013301F8014BB9
:1051CC0011F0030F1C46F7D113F003055DD06E42AE
:1051DC00C5F1040CED009B594FEACC0C08E00434EB
:1051EC00A7593B4607FA0CF748EA070741F8047B36
:1051FC00571A23FA05F8032FF1DC03E014F8013BEE
:10520C0001F8013B8A42F9D8CFE753F8404C41F8FA
:10521C00404C53F83C4C41F83C4C53F8384C41F85A
:10522C00384C53F8344C41F8344C53F8304C41F86A
:10523C00304C53F82C4C41F82C4C53F8284C41F87A
:10524C00284C53F8244C41F8244C53F8204C41F88A
:10525C00204C53F81C4C41F81C4C53F8184C41F89A
:10526C00184C53F8144C41F8144C53F8104C41F8AA
:10527C00104C53F80C4C41F80C4C53F8084C41F8BA
:10528C00084C53F8044C41F8044C561A1D460C4675
:10529C00403340313F2EB8DC2B460FE053F8101C46
:1052AC0044F8101C53F80C1C44F80C1C53F8081C44
:1052BC0044F8081C53F8041C44F8041C161B214623
:1052CC001D46103410330F2EE8DC2B4602E0246808
:1052DC0041F8044B551A1C46032D03F10403F6DC6C
:1052EC0090E700BF064B19680868B0E8F00F80F330
:1052FC0009884FF0000080F311884EF00D0E7047B6
:10530C0050010020EFF309800C4B1A6820E9F00FD4
:10531C0010602DE908404FF0500080F3118802F026
:10532C002DF84FF0000080F31188BDE80840196893
:10533C000868B0E8F00F80F309887047500100202E
:10534C0008B5074B4FF080521A604FF0500080F3B5
:10535C00118801F0A5FF4FF0000080F3118808BD03
:10536C0004ED00E0014B1868704700BF9401002069
:10537C0010B500230CE0040F092C01D8303400E0E8
:10538C0037340C70013300244C700001DBB2023155
:10539C009342F0D110BD012010B502F0EDF94FF49D
:1053AC0000000121BDE8104002F0F8B907B54FF438
:1053BC00C06002F049F914238DF804300022133B2D
:1053CC0001A88DF805308DF806208DF8073002F015
:1053DC0045F90EBD704700001C4A70B51368B3F553
:1053EC00006F01D10023136019491368086819492B
:1053FC00834202D100230B7070BD174C8CBFC3F5D8
:10540C000060C3EB000020602468134E402C98B25F
:10541C0005D94033403C13603460402504E0E31868
:10542C0013600023A5B233600C4B012418180C70C8
:10543C002A46C02102F07AFF2046294603F08AF85A
:10544C002046BDE8704002F0E8BF00BFF00000202D
:10545C00EC000020E9000020F4000020990100205D
:10546C00094A0A4B10B51B6814685068C0180AD05A
:10547C0008220749FFF77CFF064920460422BDE8B5
:10548C001040FFF775BF10BDECF7FF1FE8F7FF1FCB
:10549C000200002012000020FFF79EBF70B5032011
:1054AC000C4903F0ABF885B275B1FFF75BFF002434
:1054BC000646224607493046091901F0DAFE013446
:1054CC00A3B2AB420246F5D30320BDE8704002F014
:1054DC00B6BF00BFAC090020074B1B68052B09D1D8
:1054EC00064B1A68511C052A196003D1053A1A603B
:1054FC00FFF772BF704700BF00010020F8000020CA
:10550C00174A38B51168174B174C19801988208821
:10551C001D4600EA010111F4007F08D04FF6FF533D
:10552C001360124B1A7801321A70FFF7D5FF2B88D3
:10553C00228802EA030313F4004F01D002F030FE7C
:10554C002B88228802EA030313F4806F06D0044BE5
:10555C004FF6FF321A60064B5B68984738BD00BFA8
:10556C00445C0040EC090020200A0020FC000020D4
:10557C005C000020034B9B7A13B1034B05221A608D
:10558C00704700BFFC09002000010020014B0422E1
:10559C001A60704700010020034B1A78202A01D1B1
:1055AC00203A1A70704700BFFD00002070470000C1
:1055BC00212808B508D1134B1B681B7803F07F0317
:1055CC00212B11D01F3808BD202817D10D4B0E4AA6
:1055DC001B681B7803F07F03212B0CBF13460023A1
:1055EC000A4A10700BB90BE0094B064A00211268ED
:1055FC000020936151829847002008BD022008BD0D
:10560C00022008BD1C0A002071560008FD00002075
:10561C0059560008084B1B681B7803F07F03212B9D
:10562C0006D1022806D0222814BF02200020704781
:10563C0002207047002070471C0A002021B9012865
:10564C008CBF0220002070470220704720B9034B0A
:10565C0008221B681A827047014870471C0A0020F8
:10566C00D800002020B9034B08221B681A8270470F
:10567C00014870471C0A0020D8000020054B1B680D
:10568C00DB78042B04D8044901EBC30102F008BBFE
:10569C00002070471C0A0020B8000020014902F0CD
:1056AC00FFBA00BF54000020014902F0F9BA00BF54
:1056BC00B0000020334B344A1B68D27910B500245B
:1056CC005A729C72DC72204602F058FE20464FF44F
:1056DC00007102F05DFE1021204602F066FE4021B2
:1056EC00204602F009FF8021204602F0F3FE2046FE
:1056FC0002F0B7FE254B204693F82C1002F038FF31
:10570C00204602F09CFE0120214602F041FE0120C1
:10571C00C02102F0DFFE0120202102F046FE012014
:10572C00214602F05EFE02204FF4C06102F030FE12
:10573C0002204FF4807102F0CDFE0220214602F0CF
:10574C0050FE0220202102F030FE0320214602F000
:10575C001FFE03204FF4887102F0CEFE032040217F
:10576C0002F006FF03204FF4405102F03AFE0320F2
:10577C00214602F01AFE204602F0A2FC044B012244
:10578C001A6010BD1C0A0020E08600085C00002096
:10579C000001002010B5FFF763FE054B00241B68C9
:1057AC009C7200F009F802F019FF024B1C6010BD4E
:1057BC001C0A00200001002008B50120FFF70AFE9A
:1057CC00064B01221A60064A002006491860106038
:1057DC004FF4E0520A801A6008BD00BF405C0040E4
:1057EC00445C0040200A002003E011F8013B00F863
:1057FC00013B013AF9D2704701E000F8011B013A74
:10580C00FBD2704708B560B1037853B1C3888B42A3
:10581C0009D1407801F016FB10F0010018BF0320ED
:10582C0008BD092008BD092008BD000010B50446BC
:10583C000A46407804F13001012301F00BFB80BBD8
:10584C0094F82E3294F82F2243EA0222174B12B20C
:10585C009A4228D194F8682094F86930120442EAEC
:10586C00036294F866301A4394F8673042EA0322D4
:10587C000F4B22F07F429A4216D094F8840094F891
:10588C008520000440EA026094F88220104394F8CA
:10589C00832040EA022020F07F40C01A18BF01206C
:1058AC0010BD032010BD022010BD00BF55AAFFFF84
:1058BC00464154002DE9F041036815461A78303AF8
:1058CC00092A07D85C783A2C04D102330360002AE9
:1058DC0040F06081BA4B1C680C60002C00F05D81BC
:1058EC00237873B1607801F0ADFA10F0010F08D194
:1058FC00002D00F0558110F0040018BF0A20BDE8FF
:10590C00F08100202070607001F008FA10F0010F97
:10591C0040F049811DB110F0040F40F04781002187
:10592C002046FFF783FF012817D194F8F231002BA2
:10593C0000F0428194F8F86194F8F931360446EAA3
:10594C00036694F8F63120461E4394F8F73146EA84
:10595C0003263146FFF76AFF00E00026032800F01B
:10596C002881002840F0288194F83C2094F83B30A2
:10597C0043EA0223B3F5007F40F01E8194F8470000
:10598C0094F8463053EA00200DD194F8560094F860
:10599C005730000440EA036094F85430184394F8EC
:1059AC00553040EA032094F84050E0616B1EDBB2A6
:1059BC00012BE57000F2008194F83D10A1700029D4
:1059CC0000F0FA804B1E0B4240F0F68094F8422017
:1059DC0094F8413043EA022212F00F0F228140F07A
:1059EC00EB8094F8447094F8433053EA07230DD1BC
:1059FC0094F8523094F853701B0443EA076394F8FC
:105A0C0050703B4394F8517043EA072394F83FC01D
:105A1C0094F83E7057EA0C2C00F0CE8005FB00F891
:105A2C000CEB12174744BB42C0F0C680DB1BB3FB28
:105A3C00F1F3002B00F0C08040F6F5718B4206D9D3
:105A4C004FF6F575AB428CBF0325022500E001250E
:105A5C000233BF1906EB0C01032DA361A76221626F
:105A6C0013D1002A40F0A88094F85E2094F85F10BF
:105A7C00120442EA016294F85C109B000A4394F809
:105A8C005D1042EA0122626210E0002A00F094806C
:105A9C00022D4FEA430218BFD218414418BF03F03D
:105AAC00010361620CBF134603EB520303F5FE7353
:105ABC000333B0EB532FC0F08D804FF0FF332361D5
:105ACC000133032DE3605AD1637194F8612094F88B
:105ADC006030607843EA0222B218626104F130014E
:105AEC00012301F0B7F9002849D194F82E3294F82B
:105AFC002F2243EA0222334B12B29A423FD194F83E
:105B0C00322094F83330120442EA036294F83030B5
:105B1C001A4394F8313042EA03222B4B9A422ED18D
:105B2C0094F8162294F81732120442EA036294F89D
:105B3C0014321A4394F8153242EA0322234B9A4248
:105B4C001DD194F81E3294F81F221B0443EA026301
:105B5C0094F81C22134394F81D2243EA0223E360B9
:105B6C0094F81A3294F81B221B0443EA026394F84B
:105B7C001822134394F8192243EA02232361144A8E
:105B8C0025701388002001331380E380E0622071BC
:105B9C00BDE8F0810B20BDE8F0810C20BDE8F08160
:105BAC002846BDE8F0810320BDE8F0810A20BDE85D
:105BBC00F0810120BDE8F0810D20BDE8F08100BF2F
:105BCC000801002055AAFFFF5252614172724161D7
:105BDC00040100200D20BDE8F08100BF2DE9F0414B
:105BEC00C56A04468D420E462AD00379E3B100F112
:105BFC003008414640782A46012301F071F910BB68
:105C0C00E269236A2071D3189D420DD2E77809E02E
:105C1C00E3696078ED1841462A46012301F060F9EA
:105C2C00013FFFB2012FF3D886B1607804F1300147
:105C3C003246012301F00EF958B9E662BDE8F08155
:105C4C000020BDE8F0810120BDE8F0813046BDE8C0
:105C5C00F0810120BDE8F08170B500210446FFF70A
:105C6C00BDFF054600284FD12378032B44D163791F
:105C7C00002B41D004F13006E062294630464FF447
:105C8C000072FFF7B9FD552384F82E32DB1884F827
:105C9C002F32583B84F8303084F831300F3384F88D
:105CAC00323084F817322369412284F8332084F887
:105CBC0016221A0A84F8183284F819221A0C1B0EB0
:105CCC0084F81B32E36884F81A221A0A722184F8C9
:105CDC001C3284F81D221A0C1B0E84F8141284F842
:105CEC00151284F81E2284F81F32607831466269DE
:105CFC00012301F0F5F86571002160780A4601F086
:105D0C0045F9003818BF012070BD83690239023B88
:105D1C00994204D28278836A02FB013070470020DA
:105D2C0070470129F8B504460D465AD98369994242
:105D3C0057D20378022B29D0032B38D0012B52D108
:105D4C0001EB5106016A01EB5621FFF747FF0028D2
:105D5C0049D1F305216ADB0D0136E318204601EB2E
:105D6C00562193F83070FFF739FF00283BD1F60528
:105D7C00F60DA61996F8300015F0010F47EA002031
:105D8C0001D00009F8BD0005000DF8BD016A01EB5A
:105D9C001521FFF723FF30BB2D06ED0D6319641998
:105DAC0093F8303094F8310043EA0020F8BD016AD2
:105DBC0001EBD511FFF712FFC0B96D06ED0D05F122
:105DCC003003E318D8789A7800065B7840EA0240F2
:105DDC00641940EA032094F83030184320F07040E6
:105DEC00F8BD0120F8BD4FF0FF30F8BD4FF0FF308B
:105DFC00F8BD70B50D46C18081680446012939D0C3
:105E0C0003689A69914235D271B91A78032A01D183
:105E1C00596A49B90022E2601A89AA422AD95B6AF6
:105E2C0003EB151323611AE09E7836010EE020680F
:105E3C00FFF777FFB0F1FF3F014619D0012819D9C0
:105E4C0023689B69984217D2AD1BADB2B542EED216
:105E5C00E1602068FFF759FF00EB15102061236803
:105E6C0005F00F0530336D015D196561002070BDC3
:105E7C00012070BD022070BD022070BD0129F8B553
:105E8C0004460D4616466ED9836999426DD2037845
:105E9C00022B3AD0032B47D0012B60D101EB5107D9
:105EAC00016A01EB5721FFF799FE002858D1FB0539
:105EBC00DB0D15F00105F2B206D0E11891F83010A7
:105ECC0001F00F0141EA0212E318216A83F8302035
:105EDC00013701232371204601EB5721FFF77EFE8A
:105EEC0000283DD1FF05FF0D0DB1360909E0E3197E
:105EFC0093F83030360A23F00F0306F00F0643EA0E
:105F0C000606E71987F830602AE0016A01EB1521D3
:105F1C00FFF764FE20BB2D06ED0D631983F830608E
:105F2C00360A83F831601BE0016A01EBD511FFF7EB
:105F3C0055FEA8B96D06ED0D05F13003E318DA78BE
:105F4C006519120602F0704242EA0606320A85F81A
:105F5C0030605A70320C360E9A70DE7000E00220FF
:105F6C0001232371F8BD0220F8BD0220F8BDF8B55D
:105F7C0005460E4631B9C7686FB183699F4228BF89
:105F8C00012709E0FFF7CDFE012839D9AB6998420A
:105F9C003BD3374600E001273C46AB6901349C42B9
:105FAC0002D3012F2ED9022428462146FFF7B9FE31
:105FBC0038B1B0F1FF3F28D0012826D0BC42ECD13B
:105FCC0020E0284621466FF07042FFF757FF88B952
:105FDC002EB1284631462246FFF750FF50B92B69A7
:105FEC00EC60B3F1FF3F0FD0013B2B6101236B71D0
:105FFC002046F8BD012814BF01204FF0FF30F8BD3A
:10600C000120F8BD0020F8BD2046F8BD2DE9F04177
:10601C00C68804460136B6B20F46002E6BD0036913
:10602C00002B68D016F00F0F5AD1C16801330361F1
:10603C00006819B90389B34252D85CE08378013BFC
:10604C0013EA16134CD1FFF76CFE0128054658D9FC
:10605C00B0F1FF3F58D0206883699D423AD3002F9E
:10606C0049D0E168FFF783FF0546002846D0012898
:10607C0047D0B0F1FF3F47D020680021FFF7AEFDBD
:10608C000746002840D12068394630304FF4007262
:10609C00FFF7B2FBD4F8008029464046FFF735FEE7
:1060AC00C8F82C000FE04FF0010883F8048020683A
:1060BC000021FFF793FD002829D123684744DA6AB1
:1060CC00FFB24244DA6223689A78BA42EBD8DA6AB1
:1060DC00D71BDF62E56020682946FFF716FE2061BA
:1060EC002368E68006F00F06303376019E19666150
:1060FC000020BDE8F0810420BDE8F0810720BDE858
:10610C00F0810220BDE8F0810120BDE8F08140461D
:10611C00BDE8F0812DE9F0410B7804462F2B01D01E
:10612C005C2B00D101310025A5600B781F2B06D804
:10613C0020462946FFF75DFE6561BDE8F0810B78CE
:10614C000E4601312F2BFAD05C2BF8D0A5692021FB
:10615C0028460B22FFF750FB00210F4608200A4669
:10616C00F35D0137202B3ED92F2B3ED05C2B3CD03E
:10617C002E2B01D081420AD3082840F092802E2B7E
:10618C0040F08F8092000146D2B20330E8E713F062
:10619C00800F06D0DFF818C1803B1CF8033042F0AA
:1061AC000302DFF810C11CF8018FB8F1000F02D008
:1061BC009845F8D175E0A3F1410C5FFA8CFCBCF169
:1061CC00190F02D842F002020AE0A3F1610C5FFA47
:1061DC008CFCBCF1190F03D8203B42F00102DBB25E
:1061EC006B540131BCE7042300E00023002958D094
:1061FC002978E52901D1E0392970082801D19200CC
:10620C00D2B202F00301012902F00C0208BF43F0E4
:10621C001003042A08BF43F00803EB722046002148
:10622C00FFF7E7FDE0B920682169FFF7D7FCB8B9A3
:10623C00626913789BB1D37A13F0080F0AD1A16964
:10624C00034601E00B2B0BD012F803C0CD5C0133DD
:10625C00AC45F7D020460021FFF7D8FEE2E704203A
:10626C00A369DB7A40B104281FD103F00403002B8F
:10627C0008BF0520BDE8F08113F0040F15D1636948
:10628C00DA7A12F0100F0FD0587D1A7DF11942EA0C
:10629C000022D87E9B7E43EA002343EA0243A3609C
:1062AC004DE70620BDE8F0810520BDE8F08100BF78
:1062BC0023870008A287000870B500210546FFF768
:1062CC0098FD0446E8B928682969FFF787FC04465D
:1062DC00B8B96B691B78E52B15D0A3B12846012101
:1062EC00FFF794FEEDE76E69214630462022FFF75A
:1062FC0083FA0B223046A969FFF776FA2B68012244
:10630C001A71204670BD28682969FFF767FC04469E
:10631C000028F6D1E7E7012970B504460E4623D9CB
:10632C00836999421AD31FE020463146FFF7F9FCE6
:10633C000546C0B1012817D0B0F1FF3F16D020465A
:10634C0031460022FFF79AFD88B92369B3F1FF3F6C
:10635C0003D001332361012363712E46A3699E424E
:10636C00E2D3002070BD70BD022070BD012070BD55
:10637C0048B9064A136803B1187009B100230B70B1
:10638C001160002070470B20704700BF08010020EF
:10639C002DE9F0418CB00023054602F01F040CA837
:1063AC0040F82C1D2B6002A904F01E02FFF782FAA4
:1063BC0009AB089318B902A80199FFF7ABFE079E29
:1063CC0010B9002E08BF062014F01C0F45D050B198
:1063DC00042802D102A8FFF76FFF079E00286ED198
:1063EC0044F0080406E0F37A13F0110F6ED114F0A8
:1063FC00040F67D114F0080F3BD001F039F8327D4F
:10640C00030A777DF373030CB0733374000E00230F
:10641C00F17E42EA0727B27EF37233777377B37754
:10642C00F377B376F37633757375707442EA0122A1
:10643C000298013352EA074703711AD03946D0F853
:10644C002C80FFF768FF002839D10298013FC76004
:10645C004146FFF7C3FB60B131E000282FD1F37A3E
:10646C0013F0100F30D114F0020F02D013F0010F03
:10647C002CD1029B14F0080FDA6A18BF44F02004E8
:10648C00AC71EA612E62327D717DF07E42EA0121AF
:10649C00B27E42EA002242EA01422A61B27FF17FD7
:1064AC00120442EA0162317F00200A43717F2B60A3
:1064BC00DB8842EA0122EA60A860A861AB800CB0DC
:1064CC00BDE8F0810820FAE70420F8E70720F6E79A
:1064DC002DE9F74F01931646019A0446002388468E
:1064EC0013600068A188FFF78DF90546002840F07D
:1064FC00A680A37913F0800F40F09E8013F0010F5B
:10650C0000F09C80E268A368C3EB02094E4538BFDB
:10651C00B1468CE0A368DA05D20D002A6ED1206852
:10652C0090F802B00BF1FF3B0BEA532B5FFA8BFB9D
:10653C00BBF1000F0BD10BB9206902E06169FFF7C9
:10654C00F0FB01280AD9B0F1FF3F50D06061D4F8BC
:10655C0000A061695046FFF7D8FB20B9A37963F01E
:10656C007F03A37168E05FEA592700EB0B0622D08A
:10657C009AF8023007EB0B029A4288BFCBEB030769
:10658C00FBB29AF801004146324600F063FCA37955
:10659C0070BB13F0400F0CD0A3699E1BBE4208D2F7
:1065AC00760208EB060004F124014FF40072FFF7A9
:1065BC001BF97F0231E0A269B2421ED0A37913F01D
:1065CC00400F0BD001239AF8010004F1240100F0D4
:1065DC0087FCA37960B923F04003A371214651F8DD
:1065EC00243B32465878012300F034FC28B1A379BF
:1065FC0063F07F03A371012521E0A661A36804F178
:10660C002401DB05DB0DC3F50077B94538BF4F46D8
:10661C004046C9183A46FFF7E7F8A368019ADB1918
:10662C00A3601368B844DB191360C7EB0909B9F10F
:10663C00000F7FF46FAF02E0022500E0072528462B
:10664C00BDE8FE8F2DE9F74F01931646019A0446DB
:10665C000023894613600068A188FFF7D3F805462C
:10666C00002840F0BF80A37913F0800F4DD113F0B8
:10667C00020F00F0B680E368DE4228BF0026A3E0DC
:10668C00A368DA05D20D002A40F08280206890F8C9
:10669C0002A00AF1FF3A0AEA532A5FFA8AFABAF11F
:1066AC00000F15D133B9216959B9FFF760FC0146C8
:1066BC00206103E06169FFF75AFC0146002900F0F4
:1066CC0086800129A3791DD0B1F1FF3F59D06161BA
:1066DC00A37913F0400F0DD0214651F8243BA26949
:1066EC005878012300F0FCFBA379002849D123F052
:1066FC004003A371D4F800B061695846FFF705FB5D
:10670C0028B9A37963F07F03A37102256AE0770AA5
:10671C0000EB0A0824D09BF8023007EB0A029A42DD
:10672C0088BFCAEB03079BF8010049464246FBB2FF
:10673C0000F0D6FB20BBA369C8EB0308B8450DD20B
:10674C004FEA482804F1240009EB08014FF40072C9
:10675C00FFF74AF8A37923F04003A3717F022AE0E4
:10676C00A369434512D0A268E3689A420ED29BF803
:10677C00010004F124014246012300F06BFB28B117
:10678C00A37963F07F03A37101252BE0C4F8188073
:10679C00A36804F12400DB05DB0DC3F50077BE42D2
:1067AC0038BF3746C01849463A46FFF71DF8A3795B
:1067BC0043F04003A371A368019ADB19A36013682B
:1067CC00B944DB191360F61B002E7FF459AFA36894
:1067DC00E268934288BFE360A37943F02003A3717E
:1067EC0000E007252846BDE8FE8F70B50446A18859
:1067FC000068FFF707F8002848D1A37913F0200FA1
:10680C0044D013F0400F0DD0214651F8243BA2691F
:10681C005878012300F064FB002836D1A37923F0CB
:10682C004003A3712068E169FFF7D8F900282DD146
:10683C00256AEB7A43F02003EB72E3682B77A3898C
:10684C001B0A6B77E389AB77E37BEB772369AB763A
:10685C00238A1B0AEB76638A2B75638A1B0A6B757A
:10686C0000F006FE030AA875EB75030C000E2B76E0
:10687C006876A379012223F02003A37123681A718F
:10688C002068BDE87040FFF7E7B9012070BD10B576
:10689C000446FFF7AAFF00B9206010BD2DE9F041B6
:1068AC0004460F460068A188FEF7ACFF0546002899
:1068BC0040F09F80A27912F0800F40F09980E3683D
:1068CC009F4204D902F00202002A08BF1F46002290
:1068DC00A368A260002F57D0206890F802804FEA7E
:1068EC0048287BB1013B791EB1FBF8F1B3FBF8F200
:1068FC00914207D3C8F1000202EA0303A360FF1A16
:10690C0061690BE0216941B9FFF731FB01280146B0
:10691C0032D0B0F1FF3F5AD020616161002935D0EF
:10692C001CE0A37913F0020F05D02068FFF71FFBC2
:10693C00014620B915E02068FFF7F3F90146B1F1E3
:10694C00FF3F44D0012917D923689B69994213D280
:10695C00A36861614344A360C8EB07074745E0D8CF
:10696C0000E04746A368FE05DB19F60DA36076B17F
:10697C002068FFF7CAF920B9A37963F07F03A371EC
:10698C0036E000EB572602E03E4600E00E46A368D8
:10699C00DB05DB0D13B3A26996421FD0A37913F06C
:1069AC00400F0BD0214651F8243B5878012300F0BE
:1069BC0097FAA37960B923F04003A371214651F8EB
:1069CC00243B32465878012300F044FA28B1A379CD
:1069DC0063F07F03A37101250BE0A661A368E26855
:1069EC00934206D9E360A37943F02003A37100E03E
:1069FC0002252846BDE8F081064A13889BB210B9DF
:106A0C0043F0380303E023F0380343F0080313800A
:106A1C00704700BF0038004010B5082088B0012135
:106A2C0000F0B0FE4FF48040012100F0B7FE0023CF
:106A3C0002E000BF059B01330593059A47F22F53E3
:106A4C009A42F6DD4FF48053ADF81830032410232E
:106A5C002C4806A98DF81B308DF81A4000F038FE32
:106A6C0028484FF4805100F082FE4AF20003ADF842
:106A7C00183018230DEB030122488DF81B308DF8CC
:106A8C001A4000F025FE4FF48043ADF818301D4835
:106A9C00482306A98DF81B3000F01AFE0023ADF830
:106AAC0000304FF48273ADF802300023ADF804309F
:106ABC00ADF80630ADF808304FF40073ADF80A307D
:106ACC003823ADF80C300023ADF80E300E480723F8
:106ADC006946ADF8103000F0B7FE0B48002100F00D
:106AEC00E5FE0948012100F0CFFE0748022100F025
:106AFC00EAFE0028F9D0044800F0D5FE8DF81F00FE
:106B0C0008B010BD000C014000380040014608B52B
:106B1C00064800F0C6FE0548012100F0D4FE00280E
:106B2C00F9D0024800F0BFFEC0B208BD00380040EA
:106B3C00FF20FFF7EBBF000010B5064C322323609B
:106B4C00FFF7F6FFFFF7F4FFFF2802D02368002BB6
:106B5C00F8D110BD1001002010B504484FF480513D
:106B6C0000F005FEBDE81040FFF7E2BF000C01404D
:106B7C0013B5154C237813F0010F08D14FF4805145
:106B8C00124800F0F6FDFFF7D7FFFFF7E5FF1048BE
:106B9C0000F028FE0E48002100F076FE4FF48040F5
:106BAC00002100F0FBFD4EF20003ADF80430074865
:106BBC00282301A98DF8073000F08AFD237843F0D3
:106BCC00010323701CBD00BFE2000020000C01403B
:106BDC000038004010F0800F38B504460D4607D041
:106BEC0077200021FFF7F6FF01283AD804F07F0444
:106BFC001C484FF4805100F0BAFD1A484FF48051F4
:106C0C0000F0B7FDFFF798FFFF2829D12046FFF7CA
:106C1C007DFF280EFFF77AFF280CC0B2FFF776FF36
:106C2C00280AC0B2FFF772FFE8B2FFF76FFF402CE3
:106C3C0004D0482C0CBF8720012000E09520FFF7E2
:106C4C0065FF4C2C01D1FFF773FF0A24FFF770FF8F
:106C5C0010F0800F05D0013CE4B2002CF6D138BD09
:106C6C00FF2038BD000C014070B5154E0A230446B8
:106C7C000D463360FFF75CFFFF2803D13068002816
:106C8C00F8D170BDFE2818D1FF20FFF73FFF207010
:106C9C00FF20FFF73BFF6070FF20FFF737FFA0706E
:106CAC00FF20FFF733FFE0700434043DECD1FFF715
:106CBC003FFFFFF73DFF012070BD002070BD00BFFE
:106CCC000C01002038B504460D46FFF735FFFF28B0
:106CDC0020D12846FFF71AFFFD2D1DD00025605D41
:106CEC00FFF714FF631958780235FFF70FFFB5F55E
:106CFC00007FF4D1FF20FFF709FFFF20FFF706FF0D
:106D0C00FFF716FF00F01F00A0F10503584240EBFF
:106D1C00030038BD002038BD012038BDF7B5002870
:106D2C0040F08880444B18781E4610F0020401D0C5
:106D3C00187880E0FFF770FE2046FFF75DFE0A240E
:106D4C00013CE4B2FFF7F4FE002CF9D140202146BF
:106D5C00FFF740FF01285CD1384D642347304FF4D6
:106D6C00D5712B60FFF736FF012831D1FFF7E0FE1C
:106D7C0001AB18550134042CF8D19DF80630012BC9
:106D8C0044D19DF80730AA2B40D12B6833B1E920B0
:106D9C004FF08041FFF71EFF0028F6D12C68002C25
:106DAC0037D07A200021FFF715FF00282ED104469A
:106DBC00FFF7BEFE01AB18550134042CF8D19DF839
:106DCC00044004F04004002C0CBF04240C2420E0EC
:106DDC00E9202146FFF7FEFE01288CBF0124022486
:106DEC008CBF4127E9272B682BB138460021FFF7D0
:106DFC00F1FE0028F7D12B6853B150204FF40071ED
:106E0C00FFF7E8FE002818BF002402E0002400E091
:106E1C001C460B4B1C70FFF79FFE3CB133780120D6
:106E2C0003F0FE033370FFF7E7FD01E0FFF7A0FE70
:106E3C00307800E00120FEBDE20000200C010020B3
:106E4C001401002010B9024B1878704701207047CC
:106E5C00E200002038B50C461D461146002836D1FC
:106E6C00002B34D01C4B1B7813F0010F31D11B4B72
:106E7C001B7813F0080F08BF5102012D0DD15120C2
:106E8C00FFF7A8FEE8B920464FF40071FFF7ECFEBF
:106E9C00D0F1010538BF002513E05220FFF79AFE10
:106EAC0078B920464FF40071FFF7DEFE28B1013DA2
:106EBC00EDB215B104F50074F3E74C200021FFF797
:106ECC0089FEFFF749FE281E18BF012038BD04209B
:106EDC0038BD032038BD00BFE200002014010020A3
:106EEC0070B50C4615461E46002844D1002B42D0E6
:106EFC00244B1A7812F0010F3FD11B7813F0040FBA
:106F0C003DD1214B1B7813F0080F08BF6D02012EE9
:106F1C000DD158202946FFF75DFE30BBFE212046DF
:106F2C00FFF7D0FED0F1010638BF00261DE013F0AC
:106F3C00060F03D0D7203146FFF74CFE59202946C7
:106F4C00FFF748FE88B92046FC21FFF7BBFE28B1AD
:106F5C00013EF6B216B104F50074F4E70020FD21F1
:106F6C00FFF7B0FE002808BF0126FFF7F5FD301E25
:106F7C0018BF012070BD042070BD032070BD02201D
:106F8C0070BD00BFE2000020140100207FB5144644
:106F9C000546002840F0FC80042910D11378012B01
:106FAC0007D003D3022B40F0F58005E0FFF7E0FD9E
:106FBC00F3E0FFF731FDF0E001235370EDE0784B87
:106FCC001B7813F0010F40F0E7800E2900F2DA80F5
:106FDC00DFE811F00F001B0057005B00D800D80051
:106FEC00D800D800D800D800AB00B000B200BA006E
:106FFC00C8006C484FF4805100F0BBFBFFF79CFDC0
:10700C00B0F1FF0518BF0125BFE049200021FFF7B3
:10701C00E1FD0546002840F0B78068461021FFF7D7
:10702C0023FE002800F0B0809DF800309B09012B56
:10703C009DF8083007D19DF809201B020132D318A6
:10704C009BB29B026FE09DF807209DF80510920003
:10705C0002EB93139DF80620013302F00302920217
:10706C009B189DF80A2001F00F0101EBD2119DF83D
:10707C000920023102F0030201EB4202093A93406B
:10708C0051E04FF40073138052E0474D297811F012
:10709C0004011BD0CD200021FFF79CFD002873D1EB
:1070AC00FFF746FD68461021FFF7DEFD00286BD088
:1070BC003025013DEDB2FFF73BFD002DF9D19DF8D8
:1070CC000A3010221B0912FA03F32CE04920FFF7B7
:1070DC0081FD0646002857D168461021FFF7C4FDF4
:1070EC00002851D02D789DF80A2015F002059DF846
:1070FC000B300DD09DF80D10DB09013302F03F026F
:10710C00890903EB420201398A40354622603CE092
:10711C00590902F07C029208013103F00303013299
:10712C0001EBC303534323602FE01F4B1B781370F9
:10713C0000252AE0492000E04A200021FFF74AFD03
:10714C0010BB2046102116E07A200021FFF742FDEB
:10715C00D0B90546FFF7ECFC60550135042DF9D18B
:10716C00043D12E0CD200021FFF734FD60B9FFF79C
:10717C00DFFC20464021FFF777FDD0F1010538BF39
:10718C00002502E0042500E00125FFF7E5FC04E002
:10719C00042502E00D4600E00325284604B070BD2E
:1071AC00E2000020000C01401401002038B5C36837
:1071BC00DC6804F11805284600F01FF8064829463B
:1071CC0000F00EF8054BE06A1B68DB6A984234BF8E
:1071DC000020012038BD00BF180100202C01002028
:1071EC0043685A688B604A605A68916059600368BA
:1071FC0041600133086103607047436882689A609C
:10720C008268536003695968814208BF5A60002242
:10721C0002611A68013A1A60704738B51346026C5D
:10722C00044632B9056805BB406800F0FBF86560A0
:10723C001BE063B98068FDF7ADFFA268236CD3181F
:10724C006268A360934210D32368A3600DE0C0680A
:10725C00FDF7A0FF236CE2685B422168D2188A42DA
:10726C00E26002D26268D318E360A36B0133A363BC
:10727C0038BD38B51546C36B826B04469A420CD2A6
:10728C000022FFF7CAFF45B9636A33B104F1240049
:10729C00FFF78CFF051E18BF0125284638BD0000DE
:1072AC00F8B52D4B1B68002B50D12C4D2B6801339E
:1072BC002B602B68EBB92A4B1A68126822B14FF07D
:1072CC00500080F31188FEE7264A19681068186090
:1072DC001160254A1168013111601A681168234A3E
:1072EC0011B94FF0FF3303E01B68DB68DB685B68A8
:1072FC0013601E4C2A6823689A422BD3184B1A68C9
:10730C00126812B94FF0FF3306E01B68DB68DE68C9
:10731C002A6873689A4201D22360F8BD371D38463B
:10732C00FFF76BFFB36A1BB106F11800FFF765FF9F
:10733C000F4AF36A11688B4288BF13600D4A142000
:10734C0000FB03203946FFF74BFFD7E70A4B1A68BF
:10735C0001321A60F8BD00BF38010020580100202E
:10736C00340100205C01002054010020E4000020C6
:10737C00600100203C0100203001002038B5234B77
:10738C001B681BB1224B01221A6038BD214C2268AC
:10739C00236812681B6B9A4204D820682168343128
:1073AC0000F0C6F823681C49186B1422194DFDF720
:1073BC00BFFE78B128682968343100F0B9F809E0CB
:1073CC001A6822B94FF0500080F31188FEE71A6852
:1073DC00013A1A60114B14251968114A6943515826
:1073EC000029EDD018684543531959680835496888
:1073FC005519A942596004BF49685960142303FB0D
:10740C0000225368DB68236038BD00BF38010020C0
:10741C006401002050010020B287000860010020A8
:10742C003C01002070B50446D0B1C26A836B9A420D
:10743C0016D0051D2846FFF7E0FEA36BC3F1010231
:10744C00A261084AE36211688B4288BF1360064A46
:10745C00142000FB03202946BDE87040FFF7C0BE96
:10746C0070BD00BF600100203C010020FEF748B851
:10747C00024B1868421C1A60704700BF680100205C
:10748C0010B54FF00060ADF59D6D4FF4A04100F0CC
:10749C0015F9FDF780FFFDF789FF00F065FE224B23
:1074AC000DF59A62043203F1080418685968083320
:1074BC00A34203C2F9D1186899889B791060918016
:1074CC0093710020FFF72AFC69460020FEF750FF5D
:1074DC008CA816491222FEF75BFF20BB8CA88F9953
:1074EC00FFF7DCF9F8B90DF59A610DF59C630431E1
:1074FC000F2204338CA8FFF7A5F88CA8FFF7C7F967
:10750C008CA80A490122FEF743FF60B90DF58A6188
:10751C000DF59C638CA8043180220433FEF7D8FF50
:10752C008CA8FFF7B4F9FEE7D2870008C6870008DD
:10753C0082B000238DF807309DF807300133F9E74E
:10754C007047FEE7FEE7FEE7FEE770473A4B82B076
:10755C001A6842F001021A605968384A01EA0202BC
:10756C005A601A6822F0847222F480321A601A6807
:10757C0022F480221A605A6822F4FE025A604FF4F8
:10758C001F029A600022019200921A6842F4803223
:10759C001A60294B1A6802F400320092019A0132E7
:1075AC000192009A1AB9019AB2F5A06FF1D11B6839
:1075BC0013F4003318BF01230093009B012B34D12B
:1075CC001F4B1A6842F010021A601A6822F003026C
:1075DC001A601A6842F001021A60174B5A685A6016
:1075EC005A685A605A6842F480625A605A6822F4A7
:1075FC007C125A605A6842F488125A601A6842F037
:10760C0080721A600C4B1A6812F0007FFAD05A681C
:10761C0022F003025A605A6842F002025A60064B8A
:10762C005B6803F00C03082BF9D1064B4FF000629A
:10763C009A6002B0704700BF001002400000FFF8D3
:10764C000020024000ED00E040F0BE60024B40F430
:10765C002020D860704700BF00ED00E0C37810B563
:10766C00E3B1144B4178DB688478DB4303F4E063CB
:10767C001B0AC3F1040291400F22DA4022400A4354
:10768C000D4B01781201CB1883F8002303780122EB
:10769C00590903F01F0312FA03F307E003780122E0
:1076AC00590903F01F0312FA03F32031024A42F87E
:1076BC00213010BD00ED00E000E100E021F0604160
:1076CC0021F07F01014B01439960704700ED00E010
:1076DC00CB78F0B513F0100F03F00F020E881CBF1F
:1076EC008B781A4316F0FF0F1DD004680023012776
:1076FC009F4007EA0605BD4211D19F004FF00F0CC9
:10770C000CFA07FC12FA07F724EA0C043C43CF7876
:10771C00282F01D1456102E0482F08BF05610133D4
:10772C00082BE4D104600E88FF2E1FD94468002377
:10773C0003F108050127AF4007EA0605BD4211D148
:10774C009F004FF00F0C0CFA07FC12FA07F724EA13
:10775C000C043C43CF78282F01D1456102E0482F1F
:10776C0008BF05610133082BE2D14460F0BD016113
:10777C007047416170470000014B1860704700BFB3
:10778C00D8004242044B11B19A69104302E09A6945
:10779C0022EA00009861704700100240044B11B1BE
:1077AC00DA69104302E0DA6922EA0000D861704716
:1077BC0000100240044B11B1DA68104302E0DA68A1
:1077CC0022EA0000D860704700100240044B11B14F
:1077DC001A69104302E01A6922EA00001861704726
:1077EC0000100240154B10B598420BD101214FF4FB
:1077FC008050FFF7DFFF4FF480500021BDE81040B0
:10780C00FFF7D8BF0E4B984207D14FF480400121AF
:10781C00FFF7DCFF4FF4804009E00A4B98420BD194
:10782C004FF400400121FFF7D1FF4FF4004000213D
:10783C00BDE81040FFF7CABF10BD00BF00300140CB
:10784C0000380040003C00400B8810B54C88028882
:10785C0044EA03038C8802F441522343CC8823432B
:10786C000C8923434C8923438C892343CC892343A0
:10787C0042EA03030380838B23F400631B041B0C79
:10788C0083830B8A038210BD21B103889BB243F022
:10789C00400304E0038823F040031B041B0C03800B
:1078AC00704781817047808980B2704721B103880D
:1078BC009BB243F4005304E0038823F400531B04ED
:1078CC001B0C03807047038919420CBF0020012058
:1078DC007047000010B5064C18B9236801221A82B3
:1078EC0010BD044B1B681B68984720680A3010BDFC
:1078FC001C0A0020180A002010B5064C18B9236881
:10790C0001221A8210BD044B1B689B6898472068A3
:10791C000C3010BD1C0A0020180A002008B5264B9C
:10792C0018B91B6802221A8208BD24480022028062
:10793C001A68117811F07F0113D1527A017812F084
:10794C00200F14BF41F0020121F00201017012F06E
:10795C00400F027814BF42F0010222F001020270C3
:10796C0022E0012927D0022924D1527902F00F03F9
:10797C0012F0800F4FEA830308D003F1804303F524
:10798C00B8431B6803F03003102B08E003F180436D
:10799C0003F5B8431B6803F44053B3F5805F03D180
:1079AC00037843F001030370054B1B681B69984770
:1079BC00024808BD002008BD1C0A0020EE0900206A
:1079CC00180A0020234A2DE9F84314689046238AAC
:1079DC00267A214FA3B9042E12D120490A78012A04
:1079EC000AD11F4A10681F4A80B2821852001360D5
:1079FC0030223A800B7027E010233B80072623E0CF
:107A0C00A58AAB428CBF022604269D4228BF1D4688
:107A1C002846A36998478146002000F07FFD2A463E
:107A2C000146484600F082FC2946002000F092FDF9
:107A3C00238A30225B1B2382638A3A80ED180A4B1F
:107A4C004FF4405265821A80D8F800301E72BDE89F
:107A5C00F88300BF1C0A0020240A00206C010020BF
:107A6C00505C004002300020220A002010B50B4B65
:107A7C000B491B684978DA7891420AD3997841B955
:107A8C009C8844B99A72074B1B685B6898472046E0
:107A9C0010BD022010BD022010BD00BF1C0A00202A
:107AAC00E0000020180A002038B50F4C0F4B22685C
:107ABC001B6850799B69D178984723689A7A7AB178
:107ACC0070B91A7962B99D7865B9094B1B68DB6886
:107ADC009847236828465A79DA72DA781A7338BDCF
:107AEC00022038BD022038BD1C0A0020F4090020F9
:107AFC00180A002010B5364B1B68187810F07F0060
:107B0C0004D15A7A22F020025A7210BD02285AD19E
:107B1C005A88002A5AD11A79002A57D15A792D4CF1
:107B2C0022F08000810001F1804101F5B841096823
:107B3C00247812F0800F14BF01F0300101F4405191
:107B4C00A04240D200293ED09B7A002B3DD012F0AF
:107B5C00800F4FEA800411D004F1804404F5B8443E
:107B6C00236803F03003102B27D1C4B2204600F059
:107B7C009CFC2046302100F018FC1EE004F18044EF
:107B8C0004F5B844236803F44053B3F5805F14D173
:107B9C0028B9114B93F82C1000F0EAFC01E000F02E
:107BAC0070FC22684BF68F7302EA030383F4405394
:107BBC0043F4004343F080032360084B1B685B696C
:107BCC009847002010BD022010BD022010BD00BF40
:107BDC001C0A0020E00000205C000020180A002095
:107BEC0010B5234B234C196824784A7922F0800372
:107BFC00980000F1804000F5B840006812F0800F4A
:107C0C0014BF00F0300000F44050A3422BD24C883B
:107C1C004CBB40B3897A41B312F0800F4FEA830317
:107C2C000BD003F1804303F5B843196848F6BF72D3
:107C3C0001EA020282F010020AE003F1804303F52C
:107C4C00B84319684BF68F7201EA020282F4805233
:107C5C0042F4004242F080021A60074B1B689B6999
:107C6C009847002010BD022010BD022010BD00BF9F
:107C7C001C0A0020E0000020180A002008B5064B62
:107C8C001B685A7A42F020025A72044B1B68DB695B
:107C9C009847002008BD00BF1C0A0020180A0020CD
:107CAC00054B1A68538A18B98988CB1A1382704706
:107CBC000868C018704700BF1C0A002008B50C4BA0
:107CCC00002093F82C1000F053FC0A4B1B68187A18
:107CDC00082806D1084B4FF480521A80074B10220B
:107CEC001A80A0F10903584240EB030008BD00BF05
:107CFC005C0000201C0A0020220A0020240A00201C
:107D0C002DE9F0412C4D2C68237A022B4DD0042BFD
:107D1C004BD0032B01D0052B41D1A369228AABB1E7
:107D2C00A2B1A68A964228BF164630469847238AA7
:107D3C0007469B1B2382638A0020F318638200F0A2
:107D4C00FBFB32460146384600F007FB238A53B151
:107D5C001A4B4FF4405200201A80014600F0FAFBF7
:107D6C00174B30221A80238AA28A9A4202D82B6897
:107D7C00032202E01BB12B6805221A720CE02A6860
:107D8C00062111720F4A11680F4A89B28A185200E3
:107D9C0013600B4B30221A802B681B7A06E0072BE2
:107DAC0003D10A4B1B68DB68984708232A681372B7
:107DBC00BDE8F041FFF782BF1C0A0020220A002018
:107DCC00240A0020505C004002300020F4090020FE
:107DDC00884BF7B51A68884C884B92B2D318266832
:107DEC005B001F68337A092B1AD0BFB207F100571A
:107DFC0007F540577F003D4615F8013B33707B7803
:107E0C000A377370B5F8030000F0E2FB7080B5F828
:107E1C000700266800F0DCFBB08023687F88DF80D9
:107E2C00226801231372D3885578002B5CD1137808
:107E3C0013F07F032AD1092D02D1FFF717FE37E08B
:107E4C00052D0DD192F90330002B49DB9378002BD3
:107E5C0046D19388002B43D1937A002B31D03FE04D
:107E6C00032D07D1D378012B23D193880BBBFFF7BC
:107E7C0005FF1DE0012D1CD1D378012B19D193885E
:107E8C00BBB9537A13F0200F13D00AE0012B04D1A5
:107E9C000B2D0ED1FFF708FE0AE0022B09D1012DA4
:107EAC0002D1FFF727FE03E0032D02D1FFF798FE66
:107EBC0038B1534B28461B685B69984703280DD093
:107ECC0070B94C4B30211A684E4B92B2D3185B00F0
:107EDC0000221A604C4B1980062302E0092300E0B3
:107EEC00082322681372DEE0062D16D1137813F0E6
:107EFC007F0F40F093809278414B012A02D11B688E
:107F0C00DB696DE0022A02D11B681B6A68E0032A58
:107F1C0040F084801B685B6A62E0002D3AD1518886
:107F2C0000297BD1536823F47F43B3F5003F75D10F
:107F3C00137813F07F0303D19388002B4CD06DE0A2
:107F4C00012B0CD12E4B50791B689B69984700284C
:107F5C0064D1294B1B689B7A002B3DD15EE0022B30
:107F6C005CD15379294803F00F018A0002F1804259
:107F7C0002F5B8421268007813F0800F14BF02F0BB
:107F8C00300202F44052814248D213F0700F45D1B6
:107F9C0012BB43E0082D04D1137813F07F0F1DD0D2
:107FAC003CE00A2D3AD1137803F07F03012B35D135
:107FBC00937A002B32D0518800292FD1536823F4A7
:107FCC007F43B3F5803F29D10D4B50791B689B69DA
:107FDC00984718BB0E4B04E00E4B02E00E4B00E032
:107FEC00E3B1226800215182936100209847002060
:107FFC001FE000BF505C00401C0A00200430002031
:10800C00F409002002300020240A0020E0000020A7
:10801C000579000829790008E1780008244B2268CA
:10802C001B6850781B699847032802D1214B1B68A9
:10803C0005E023684FF6FF711A8A8A4201D10922A2
:10804C0003E0022800D012B908221A722BE093F92F
:10805C000010002921DAD888019001998A4214492C
:10806C0002D9019A1A8210E082420ED20B6893F860
:10807C002C309A4201D2002205E092FBF3F003FB74
:10808C00102212B901320C4B1A700A68236892F84C
:10809C002C209A82FFF796FC05E003221A72074BFC
:1080AC004FF440521A8003B0BDE8F040FFF706BE13
:1080BC00F40900201C0A00206C010020220A002078
:1080CC0070B50F4B1D78002312E0DCB2A20002F158
:1080DC00804202F5B842166844F4004440F60F7131
:1080EC0044F0800406EA010144EA01011160013305
:1080FC00AB42EAD3034B40F08000186070BD00BF68
:10810C00E00000204C5C004010B5134C23681A7A38
:10811C00022A01D0042A04D1FFF754FC23681B7AED
:10812C0014E0062A11D15A78052A0AD11A7812F0CD
:10813C007F0F06D1D878FFF7C3FF084B1B681B6A6B
:10814C009847074B1B689B68984708232268137253
:10815C00BDE81040FFF7B2BD1C0A0020180A002031
:10816C00F40900207047000008B5074A074B08497E
:10817C00136002221A72074B074A1360074A1B68E6
:10818C001160984708BD00BF1C0A0020FC090020A4
:10819C008C0000205C000020F4090020180A00204C
:1081AC0073B50023ADF80630A4E01388564C03F0E9
:1081BC000F032370002B6DD1544C554E2368554D35
:1081CC003380338803F030032B80338803F440531F
:1081DC00338021684BF6BF7301EA030383F4005329
:1081EC0083F0200343F4004343F08003236013889F
:1081FC0013F0100F08D1226848F60F7302EA03033C
:10820C002360FFF781FF1DE02368ADF80630BDF851
:10821C00063013F4006F08D0226840F68F7302EA20
:10822C0003032360FFF7D4FD0CE0BDF806301BB24E
:10823C00002B5FDA226840F68F7302EA0303236097
:10824C00FFF75EFD22684BF6BF7302EA0303328828
:10825C0002F4805292B20AB183F48053328802F451
:10826C00005292B20AB183F400532A8802F0100231
:10827C0092B20AB183F010032A8802F0200292B263
:10828C000AB183F02003244A43EA02021F4B92B244
:10829C001A6038E09B0003F1804303F5B8431A6879
:1082AC00ADF80620BDF8062012B2002A0BDA1968C8
:1082BC0040F68F7201EA02021A602278174B013ADB
:1082CC0053F822309847BDF8063013F0800F11D0C8
:1082DC00237848F60F729B0003F1804303F5B843F3
:1082EC00196801EA02021A6022780D4B013A53F820
:1082FC00223098470B4B0C4A1B68138013881BB217
:10830C00002BFFF652AF7CBDF8090020005C00404A
:10831C00220A0020240A00208080FFFF3800002061
:10832C001C000020445C0040EC09002001F10051CD
:10833C00013201F5405110B54900520808E010F81F
:10834C00014C10F8023C013A43EA042321F8043CA6
:10835C0002300431002AF2D110BD01F1005101327A
:10836C0001F540514900520804E051F8043B013A30
:10837C0020F8023B002AF8D1704700004FF6F87342
:10838C00024A00EA03031360704700BF505C0040D0
:10839C00800000F1804000F5B840026848F68F1369
:1083AC0002EA03030B4303607047800000F1804036
:1083BC0000F5B840026848F6BF7302EA030301F007
:1083CC00100292B20AB183F0100301F0200189B2BD
:1083DC0009B183F0200343F4004343F080030360AE
:1083EC007047800000F1804000F5B84002684BF601
:1083FC008F7302EA030301F4805292B20AB183F440
:10840C00805301F4005189B209B183F4005343F451
:10841C00004343F0800303607047800000F180400C
:10842C0000F5B840026848F6BF7302EA030383F014
:10843C00300343F4004343F0800303607047800033
:10844C0000F1804000F5B84002684BF68F7302EAE9
:10845C00030383F4405343F4004343F0800303606D
:10846C007047800000F1804000F5B840026840F68B
:10847C000F6302EA030343F4004343F080030360F9
:10848C007047800000F1804000F5B840036813F499
:10849C00804F09D0026840F60F7302EA030343F4DD
:1084AC00404343F0800303607047800000F180403C
:1084BC0000F5B840036813F0400F09D0026840F68D
:1084CC000F7302EA030343F4004343F0C003036059
:1084DC0070470000074B4FF6FE721B6801EA020260
:1084EC009BB203EBC00303F1005303F540535B0055
:1084FC001A607047505C0040064B074A1B689BB2E1
:10850C0003EBC0039A184FF6FE73520001EA030303
:10851C0013607047505C004004300020054B1B6812
:10852C009BB203EBC00303F1005303F540535B0014
:10853C0018887047505C0040044B054A1B689BB27E
:10854C0003EBC0039A18520010887047505C00402F
:10855C0004300020044B054A1B689BB203EBC0039C
:10856C009A18520011607047505C00400230002095
:10857C000D4B1A680D4B92B2D31803EBC0035B0082
:10858C003E2909D94A0911F01F0F01D1013A92B2C3
:10859C00920242F4004205E04A0811F0010F18BFA4
:1085AC00013292021A607047505C00400630002085
:1085BC00054B064A1B689BB203EBC0039A1852008A
:1085CC0010688005800D7047505C0040063000201C
:1085DC00C3B2000A40EA032070470000044B00209D
:1085EC00044A18604FF406431380034A1360704723
:1085FC00445C0040200A0020405C004070B500F054
:10860C007F0528460E46FFF7D3FF04462846FFF7A2
:10861C0093FF224601463046FFF79FFE204670BD71
:10862C00002103E00A4B5B584350043109480A4BC4
:10863C0042189A42F6D3094A02E0002342F8043B5E
:10864C00074B9A42F9D3FEF781FFFEF719FF7047EB
:10865C00189B000800000020E8000020E800002023
:10866C00280A0020FEE72603530054004D00690041
:10867C00630072006F0065006C006500630074009D
:10868C0072006F006E00690063007300120100023B
:10869C00020000408304405700020102030104035E
:1086AC0009043203530054004D0033003200200003
:1086BC005600690072007400750061006C002000A7
:1086CC0043004F004D00200050006F0072007400FA
:1086DC002000200009024300020100C032090400FE
:1086EC000001020201000524001001052401000113
:1086FC00042402020524060001070582030800FF7A
:10870C0009040100020A00000007050302400000F2
:10871C0007058102400000808182828485868788DB
:10872C00898A8B8C8D8E8F80919293949596979845
:10873C00998A9B8C8D8E8FA0A2A2A3A4A5A6A7A874
:10874C00A9AAABACADAEAFB0B1B2B2A5B5B6B7A835
:10875C00B9AABBA3BDBDAFC0C1C2C3C4C5C6C7C83F
:10876C00C9CACBCCCDCECFD0D1D2D3D4D5D6D7D8F5
:10877C00D9DADBDCDDDEDFC0C1C2C3C4C5C6C7C805
:10878C00C9CACBCCCDCECFD0D1D2D3D4D5D6D7D8D5
:10879C00D9DADBDCDDDEDF222A2B2C3A3B3C3D3EFA
:1087AC003F5B5D7C7F00A5A5A5A5A5A5A5A5A5A559
:1087BC00A5A5A5A5A5A5A5A5A5A54D45535341477B
:1087CC00452E5458540066696C6520636F6E746551
:1087DC006E74210A00000000F8B500BFF8BC08BC9C
:1087EC009E467047F8B500BFF8BC08BC9E46704763
:049B100021510008D7
:049B14000D510008E7
:109B18001A03530054004D00330032003100300066
:109B2800000000000000000000000000A55400082C
:109B38007181000871810008718100087181000835
:109B48007181000871810008718100087181000825
:109B5800A95400087181000871810008718100080A
:109B680071810008E086000843000000A157000842
:109B7800C1560008A5550008B9550008BD5500088C
:109B88002156000849560008B5560008A95600088D
:109B9800895600080000000040000000718100089C
:109BA80081550008718100087181000871810008E1
:109BB80071810008718100087181000899550008B9
:109BC8009886000812000000AA8600080400000019
:109BD8007286000826000000AE86000832000000E9
:109BE800000000201A00000000C201000000080068
:089BF80004010100FFFFFFFF63
:040000050800862D3C
:00000001FF
