:020000040800F2
:1050000000280020BDA600083D860008498600084B
:1050100051860008598600086186000800000000DB
:105020000000000000000000000000007D540008A7
:1050300069860008000000005555000891550008D9
:1050400001A7000801A7000801A7000801A70008A0
:1050500001A7000801A7000801A7000801A7000890
:1050600001A7000801A7000801A7000801A7000880
:1050700001A7000801A7000801A7000801A7000870
:1050800001A7000801A7000801A7000801A7000860
:105090004985000801A7000801A7000801A700082A
:1050A00001A7000801A7000801A7000801A7000840
:1050B00001A7000801A7000801A7000801A7000830
:1050C00001A7000801A7000801A7000801A7000820
:1050D00001A7000801A7000801A7000801A7000810
:1050E00001A7000801A7000801A7000800000000B0
:1050F00000000000000000000000000000000000B0
:0C51000000000000000000005FF808F153
:10510C0040F2F003C2F200031A780AB901201870B9
:10511C00704700BF40F2EC00C2F2000008B5036813
:10512C002BB140F20003C0F2000303B1984708BD55
:10513C00032A70B404460D4626D941EA000313F045
:10514C00030F13D020782B78984208BF294606D03D
:10515C001EE014F8010F11F8013F984218D1012AF2
:10516C0002F1FF32F5D1002070BC70470B460446AB
:10517C0051F8045B50F8046BAE4204D1043A044677
:10518C00032A0B46F2D81D461046002ADAD1EBE76B
:10519C00C01AE9E7032A2DE9F00109D82AB1002346
:1051AC00CC5CC45401339342FAD1BDE8F001704792
:1051BC000B468218014603E02478013301F8014BB9
:1051CC0011F0030F1C46F7D113F003055DD06E42AE
:1051DC00C5F1040CED009B594FEACC0C08E00434EB
:1051EC00A7593B4607FA0CF748EA070741F8047B36
:1051FC00571A23FA05F8032FF1DC03E014F8013BEE
:10520C0001F8013B8A42F9D8CFE753F8404C41F8FA
:10521C00404C53F83C4C41F83C4C53F8384C41F85A
:10522C00384C53F8344C41F8344C53F8304C41F86A
:10523C00304C53F82C4C41F82C4C53F8284C41F87A
:10524C00284C53F8244C41F8244C53F8204C41F88A
:10525C00204C53F81C4C41F81C4C53F8184C41F89A
:10526C00184C53F8144C41F8144C53F8104C41F8AA
:10527C00104C53F80C4C41F80C4C53F8084C41F8BA
:10528C00084C53F8044C41F8044C561A1D460C4675
:10529C00403340313F2EB8DC2B460FE053F8101C46
:1052AC0044F8101C53F80C1C44F80C1C53F8081C44
:1052BC0044F8081C53F8041C44F8041C161B214623
:1052CC001D46103410330F2EE8DC2B4602E0246808
:1052DC0041F8044B551A1C46032D03F10403F6DC6C
:1052EC0090E700BF032AC9B270B408D82AB10346AC
:1052FC00121803F8011B9342FBD170BC7047821843
:10530C00044601E004F8011B14F0030FFAD14FF02E
:10531C00013303FB01F31FE044F8403C44F83C3CF0
:10532C0044F8383C44F8343C44F8303C44F82C3CC9
:10533C0044F8283C44F8243C44F8203C44F81C3CF9
:10534C0044F8183C44F8143C44F8103C44F80C3C29
:10535C0044F8083C44F8043C161B254640343F2EC8
:10536C00DADC2C4607E044F8103C44F80C3C44F8DA
:10537C00083C44F8043C161B254610340F2EF2DC76
:10538C0001E045F8043B541B032CFADC01E005F862
:10539C00011B9542FBD3B0E741EA000313F0030F66
:1053AC000B4670B414BF00240124032A94BF0024BC
:1053BC0004F001040546D4B9BAB10E782B46013A73
:1053CC0003F8016B56B1AC1C7AB111F8015F23469E
:1053DC00013A04F8015C0134002DF5D12AB19A1878
:1053EC00002103F8011B9342FBD170BC7047194696
:1053FC0053F8044BA4F1013626EA040616F0803F5C
:10540C00DAD1043A45F8044B032A1946EFD8D3E70E
:10541C0080B485B000AFF860B9607A60FB68A3F126
:10542C000403FB60FB684FF080721A60FB68A3F109
:10543C000403FB60BA68FB681A60FB68A3F1040301
:10544C00FB60FB684FF000021A60FB68A3F11403C9
:10545C00FB607A68FB681A60FB68A3F12003FB60B1
:10546C00FB68184607F11407BD4680BC704700BFA7
:10547C00064B19680868B0E8F00F80F309884FF004
:10548C00000080F311884EF00D0E7047B819002003
:10549C0003480068006880F3088862B600DF00BF2C
:1054AC0008ED00E080B500AF0B4B0B4A126842F4DC
:1054BC0070021A60084B084A126842F070421A6077
:1054CC0000F07AF8054B4FF000021A60FFF7E0FF8E
:1054DC004FF00003184680BD20ED00E000000020D6
:1054EC0080B400AF034B4FF080521A60BD4680BCB5
:1054FC00704700BF04ED00E080B400AF4FF05000E7
:10550C0080F31188044B1B6803F10102024B1A60F3
:10551C00BD4680BC704700BF0000002080B400AFC7
:10552C00084B1B6803F1FF32064B1A60054B1B68D6
:10553C00002B03D14FF0000080F31188BD4680BCD6
:10554C00704700BF00000020EFF309800C4B1A6875
:10555C0020E9F00F10602DE908404FF0500080F367
:10556C00118802F02FF94FF0000080F31188BDE88C
:10557C00084019680868B0E8F00F80F30988704794
:10558C00B819002080B582B000AF0A4B4FF08052A2
:10559C001A604FF000037B604FF0500080F31188CD
:1055AC0002F066F84FF0000080F3118807F108074D
:1055BC00BD4680BD04ED00E080B400AF044B054A4D
:1055CC001A60054B4FF007021A60BD4680BC70474D
:1055DC0014E000E0FFA50E0010E000E080B584B000
:1055EC0000AF78604FF00003FB607B6803F00703AB
:1055FC00002B05D07B6823F0070303F108037B60C5
:10560C0001F084FF134B1A687B68D21841F2FF73C8
:10561C009A4212D80F4B1A687B68D2180D4B1B6834
:10562C009A420AD90B4B1A680B4BD318FB60094BE7
:10563C001A687B68D218074B1A6001F075FFFB687B
:10564C00002B01D102F0D6FFFB68184607F11007BA
:10565C00BD4680BDF8180020F800002080B483B04F
:10566C0000AF786007F10C07BD4680BC704700BFE7
:10567C0080B582B000AF4FF008004FF0010103F08D
:10568C004BFA4FF44063BB804FF01003FB714FF0AB
:10569C000303BB7107F104030348194603F036F901
:1056AC0007F10807BD4680BD000C014080B582B0F3
:1056BC0000AF0346FB71FB79002B0CBF00230123C9
:1056CC00DBB205484FF480611A4603F0FFF907F18D
:1056DC000807BD4680BD00BF000C014080B582B0FC
:1056EC0000AF0346FB71FB79002B0CBF0023012399
:1056FC00DBB205484FF400611A4603F0E7F907F1F5
:10570C000807BD4680BD00BF000C014080B582B0CB
:10571C0000AF786039600F4B1B78002B05D1FFF779
:10572C00A7FF0C4B4FF0FF021A707B689B8E002B6F
:10573C0002D0722B0AD100BF4FF001004FF00001D4
:10574C0000F04EFE7B684FF072029A8607F1080754
:10575C00BD4680BDFC18002080B483B000AF03466A
:10576C00FB71044BFA791A7007F10C07BD4680BC2B
:10577C00704700BFFD18002080B582B000AF786084
:10578C0039605D4B1B78002B0DD15B4B4FF0FF024A
:10579C001A7000F0F1F80246584B1A6000F0E2F86B
:1057AC000246574B1A607B689B8E642B4DD0642B42
:1057BC0006DC562B1CD05A2B25D0002B09D097E099
:1057CC00662B76D0662B57DB672B00F08C808FE036
:1057DC0000BF4C4B4FF000021A704FF001004FF01D
:1057EC00000100F0FDFD7B684FF056029A867FE0C9
:1057FC004FF032004FF0000100F0F2FD7B684FF0EB
:10580C005A029A8674E0404B4FF061021A703E4B7C
:10581C004FF062025A703D4B3B4A1A60384B1A6883
:10582C003A4B1B68104619464FF0050201F0DCFBA1
:10583C000246374B1A60364B1B6813F1040F11D11B
:10584C007B684FF064029A8652E02D4B1A682F4BFE
:10585C001B68104619464FF0000201F0C5FB0246CA
:10586C002B4B1A602A4B1B6813F1050F08D17B6870
:10587C004FF065029A863BE0254B4FF001021A600F
:10588C001F4B1A68214B1B6803F101031046194684
:10589C004FF0050201F0A8FB02461D4B1A601C4B91
:1058AC001B6813F1040F13D17B684FF066029A86C4
:1058BC001EE0134B1A68154B1B6803F101031046CD
:1058CC0019464FF0000201F08FFB0246104B1A6094
:1058DC000F4B1B6813F1050F7FF47AAF7B684FF009
:1058EC0067029A8604E00A4B4FF001021A6070E7D7
:1058FC0007F10807BD4680BDFE18002000190020E6
:10590C0004190020FD180020081900200C19002093
:10591C001019002080B500AF4FF008004FF00101C6
:10592C004FF0000200F0F4FF0246074B1A604FF0F4
:10593C0008004FF001014FF0000200F0E9FF0246B1
:10594C00024B1A6080BD00BF081B0020041B002006
:10595C0080B400AF024B1B681846BD4680BC704734
:10596C00081B002080B400AF024B1B681846BD46D4
:10597C0080BC7047041B002080B400AF024B18465B
:10598C00BD4680BC704700BFF41A002080B582B0C1
:10599C0000AF78603960674B1B78002B0BD1654BDF
:1059AC004FF001021A70FFF7B5FF00F0D5F800F0C8
:1059BC00E1F804F03FF97B689B8EA62B20D0A62B38
:1059CC0002DC002B07D0B0E0A72B2ED0FE2B00F072
:1059DC009880AAE000BF584B1B68184657494FF0F7
:1059EC00000201F05FFB0246554B1A60544B1B68DA
:1059FC0013F1040F0FD17B684FF0A6029A8694E046
:105A0C004D4B1B6818464D494FF0000201F04AFB04
:105A1C0002464B4B1A604A4B1B6813F1050F08D119
:105A2C007B684FF0A7029A867FE0454B4FF001024E
:105A3C001A60434B1B68012B58D1424B1B78032B2C
:105A4C00C8D801A252F823F0655A0008915A0008F0
:105A5C00A35A0008DB5A00083B4B4FF032021A6085
:105A6C00364B1B78002B04D1364B4FF001021A70C9
:105A7C0007E0324B1B78012B03D1324B4FF0030262
:105A8C001A7032E02D4B1A78304B1A702D4B4FF0A8
:105A9C0002021A7029E02E4B1B781A462749087807
:105AAC002C49885403F10103DAB2294B1A70274BA5
:105ABC001B7803F1FF33DAB2244B1A70234B1B789B
:105ACC00002B03D11F4B4FF000021A700DE01B4B43
:105ADC001B781846FFF740FE1A4B4FF000021A7065
:105AEC001B4B4FF000021A7000BF74E74FF001001F
:105AFC004FF0000100F074FC7B684FF0FE029A86B8
:105B0C0013E0114B1B68002B06D00F4B1B6803F1E5
:105B1C00FF320D4B1A605EE70A4B4FF000021A7011
:105B2C000B4B4FF000021A7055E707F10807BD4602
:105B3C0080BD00BF14190020081B0020151900207F
:105B4C00181900201C1900202019002024190020ED
:105B5C0025190020F41A002080B500AF4FF0010089
:105B6C0002F0CCFF4FF400004FF0010102F0F6FF01
:105B7C0080BD00BF80B582B000AF4FF4407002F022
:105B8C0031FE4FF014033B714FF010037B714FF05B
:105B9C001003BB714FF00103FB7107F104031846AE
:105BAC0002F032FE07F10807BD4680BD80B483B019
:105BBC0000AF0346FB7107F10C07BD4680BC704774
:105BCC0080B584B000AFFFF7CDFEB8604FF0000396
:105BDC007B604FF00003FB7303E0FB7B03F10103DD
:105BEC00FB73FA7B184BD21807F10403B868114603
:105BFC001A4601F0F7FA0346012BEED0FB7B03F0BB
:105C0C000103DBB21846FFF751FDFB7B03F00203E7
:105C1C00DBB21846FFF762FDFB7B9BB20A484FF0E4
:105C2C00C0011A4604F0C4F9FB7B9BB24FF0010093
:105C3C00194604F055FC4FF0010004F0E5FA07F1A9
:105C4C001007BD4680BD00BF101B002080B483B080
:105C5C0000AF0346FB710C4B1B680C4AF979D1540D
:105C6C00094B1B6803F10102074B1A60064B1B68BA
:105C7C007F2B03D9044B4FF000021A6007F10C077D
:105C8C00BD4680BC704700BF28190020101B0020A7
:105C9C0080B584B000AF104B1B68FB600F4B1B68CA
:105CAC00BB600F4B1B687B60FA687B68D318FB608A
:105CBC00FB68002B0BD0F8680A494FF0080200F083
:105CCC0015F8B86808494FF0040200F00FF807F116
:105CDC001007BD4680BD00BFE8F7FF1FECF7FF1FA4
:105CEC00F0F7FF1F060000201600002080B487B0DC
:105CFC0000AFF860B9601346FB714FF00003FB7501
:105D0C004FF00003FB7531E0FB684FEA1373092B6E
:105D1C000DD8FB7D4FEA4303BA68D318FA684FEAF3
:105D2C001272D2B202F13002D2B21A700CE0FB7DC8
:105D3C004FEA4303BA68D318FA684FEA1272D2B228
:105D4C0002F13702D2B21A70FB684FEA0313FB6000
:105D5C00FB7D4FEA430303F10103BA68D3184FF0FC
:105D6C0000021A70FB7D03F10103FB75FA7DFB79D0
:105D7C009A42C9D307F11C07BD4680BC704700BFCF
:105D8C0080B500AFFFF71CFF80BD00BF80B584B0AD
:105D9C0000AF4FF00300154904F062FC0346FB8092
:105DAC00FB88002B1AD0FFF7D3FD38604FF00003AF
:105DBC00BB604FF00003FB810CE0FA890B4BD3184E
:105DCC0038681946BA6801F0E1F9B860FB8903F14B
:105DDC000103FB81FA89FB889A42EED34FF0030052
:105DEC0004F03EFA07F11007BD4680BDA01B002051
:105DFC0080B500AF0B4B1B68052B12D10A4B1B68EF
:105E0C00052B14BF00220122D2B203F10101064B73
:105E1C001960002A05D0044B4FF000021A60FFF7FE
:105E2C00CFFE80BD341900202C19002080B500AFA6
:105E3C001E4B1B689AB21E4B1A801D4B1B889BB2C3
:105E4C0003F400721B4B1B8802EA0303002B0DD0DA
:105E5C00164B4FF6FF521A60174B1B78DBB203F14F
:105E6C000103DAB2144B1A70FFF7C2FF104B1B88F8
:105E7C009BB203F400420F4B1B8802EA0303002B76
:105E8C0001D003F0F9FE0A4B1B889BB203F480622D
:105E9C00084B1B8802EA0303002B06D0034B4FF67A
:105EAC00FF321A60054B5B68984780BD445C00402C
:105EBC00E01B0020181C002030190020640000207A
:105ECC0080B500AFFFF7E4FE064B1B684FF00002F5
:105EDC009A7200F0E5F904F0A9FB034B4FF00002B5
:105EEC001A6080BD141C00203419002080B500AF4E
:105EFC00484B1B684FF000029A72464B1B68464A8F
:105F0C00D2795A72434B1B684FF00002DA724FF091
:105F1C00000004F0C9F84FF000004FF4007104F0D9
:105F2C00D7F84FF000004FF0100104F0F9F84FF0E3
:105F3C0000004FF0400104F073FA4FF000004FF0F6
:105F4C00800104F049FA4FF0000004F0B5F9334B2E
:105F5C0093F82C304FF00000194604F0DFFA4FF0A4
:105F6C00000004F07DF94FF001004FF0000104F047
:105F7C00AFF84FF001004FF0C00104F02DFA4FF0D4
:105F8C0001004FF0200104F0CBF84FF001004FF06E
:105F9C00000104F0FFF84FF002004FF4C06104F070
:105FAC0097F84FF002004FF4807104F015FA4FF09F
:105FBC0002004FF0000104F0EDF84FF002004FF03A
:105FCC00200104F0ADF84FF003004FF0000104F095
:105FDC007FF84FF003004FF4887104F021FA4FF072
:105FEC0003004FF0400104F099FA4FF003004FF416
:105FFC00405104F0CFF84FF003004FF0000104F0D3
:10600C008FF84FF0000003F0CDFD054B4FF001026F
:10601C001A6080BD141C002028A700086400002012
:10602C003419002080B483B000AF074B7B607B68D1
:10603C009B7A002B03D0054B4FF005021A6007F139
:10604C000C07BD4680BC7047F41B0020341900209F
:10605C0080B400AF034B4FF004021A60BD4680BC05
:10606C00704700BF3419002080B400AF054B1B787B
:10607C00202B03D1034B4FF000021A70BD4680BC9D
:10608C00704700BF3119002080B400AFBD4680BC02
:10609C00704700BF80B584B000AF0346FB714FF072
:1060AC000003FB60FB79212B09D11A4B1B681B7871
:1060BC0003F07F03212B12D1174BFB600FE0FB7910
:1060CC00202B0CD1134B1B681B7803F07F03212B67
:1060DC0001D1124BFB60124B4FF020021A70FB687F
:1060EC00002B02D14FF002030EE00A4B1B68FA683A
:1060FC009A61084B1B684FF000025A82FB684FF004
:10610C00000098474FF00003184607F11007BD46F2
:10611C0080BD00BF141C00203D62000875620008A1
:10612C003119002080B483B000AF0346FB710D4BD6
:10613C001B681B7803F07F03212B0BD1FB79022BFF
:10614C0002D14FF0000307E0FB79222B02D14FF074
:10615C00000301E04FF00203184607F10C07BD469F
:10616C0080BC7047141C002080B582B000AF034681
:10617C00FB80FB881846044903F018F803461846C0
:10618C0007F10807BD4680BDB800002080B582B07D
:10619C0000AF0346FB80FB881846044903F006F861
:1061AC000346184607F10807BD4680BDC000002015
:1061BC0080B584B000AF0346FB800D4B1B68DB78C9
:1061CC00FB73FB7B042B02D94FF000030AE0FB7B33
:1061DC004FEAC302074BD318FA881046194602F04F
:1061EC00E5FF0346184607F11007BD4680BD00BF0A
:1061FC00141C0020C800002080B483B000AF0246FD
:10620C000B46FA71BB71BB79002B02D04FF0020325
:10621C0007E0FB79012B02D94FF0020301E04FF0AC
:10622C000003184607F10C07BD4680BC704700BF41
:10623C0080B483B000AF0346FB80FB88002B07D1F2
:10624C00074B1B684FF008021A824FF0000300E066
:10625C00044B184607F10C07BD4680BC704700BFC5
:10626C00141C00205800002080B483B000AF0346FB
:10627C00FB80FB88002B07D1074B1B684FF00802F3
:10628C001A824FF0000300E0044B184607F10C078C
:10629C00BD4680BC704700BF141C00205800002075
:1062AC0080B582B000AF4FF00100FFF77FFC4FF0DC
:1062BC000103FB800E4BFA881A600E4B4FF0000264
:1062CC001A800B4B0B4A12881A600B4B4FF00002D2
:1062DC001A60084B4FF4E0521A80054B054A12889D
:1062EC001A604FF00003184607F10807BD4680BD41
:1062FC00405C0040181C0020445C004080B586B017
:10630C0000AFF860B9607A604FF03800FFF766F9BB
:10631C0003463B613B69002B52D02E4B1B68002B74
:10632C0004D12C4B3A691A6000F0CCF9BB68012BF4
:10633C0002D94FF00103BB603B694FF000029A8613
:10634C003B69BA68DA623B697A681A633B69FA6836
:10635C001A603B6903F10403184600F03FFA3B69ED
:10636C0003F11803184600F039FA3B693A691A61CF
:10637C003B693A695A62BB68C3F105023B699A6191
:10638C003B69DA6A144B1B689A4203D93B69DA6A97
:10639C00114B1A603B69DA6A13464FEA83039B1868
:1063AC004FEA83031A460D4BD2183B6903F10403E1
:1063BC001046194600F020FA4FF001037B6102E011
:1063CC004FF0FF337B617B69184607F11807BD4618
:1063DC0080BD00BFA4190020A81900203819002086
:1063EC0080B584B000AF786039601C4B1A687B684C
:1063FC00D318FB601A4B1B6803F10403184600F01A
:10640C005DFA174B1B68FA685A60144B1B68FA68E4
:10641C009A420AD2134B1A68114B1B6803F10403FE
:10642C001046194600F010FA09E00F4B1A680C4B95
:10643C001B6803F104031046194600F005FA3B688B
:10644C00002B07D0064B1B6803F11803386819465C
:10645C0000F0FAF907F11007BD4680BDAC19002019
:10646C00A41900208C1900208819002080B582B056
:10647C0000AF33E04FF0500080F311881B4BDB680A
:10648C00DB687B607B6803F11803184600F016FA92
:10649C004FF0000080F311887B6803F10403184669
:1064AC0000F00CFA7B68DA6A114B1B689A4203D92C
:1064BC007B68DA6A0E4B1A607B68DA6A13464FEA1D
:1064CC0083039B184FEA83031A460A4BD2187B6846
:1064DC0003F104031046194600F08EF9034B1B68B8
:1064EC00002BC7D107F10807BD4680BD90190020CD
:1064FC00A81900203819002080B582B000AF01F037
:10650C00A5F802463A4B1B68D21A3A4B1A6062E065
:10651C00394B1B6803F10102374B1A60354B1B6872
:10652C0003F1FF32334B1A60334B1B68002B4AD1FB
:10653C00324B1B687B60324B1A68304B1A60304B05
:10654C007A681A6040E02D4B1B68DB68DB683B60A7
:10655C003B685A68284B1B689A423BD84FF0500056
:10656C0080F311883B6803F10403184600F0A6F988
:10657C003B689B6A002B05D03B6803F11803184657
:10658C0000F09CF94FF0000080F311883B68DA6A48
:10659C001C4B1B689A4203D93B68DA6A194B1A6088
:1065AC003B68DA6A13464FEA83039B184FEA83036E
:1065BC001A46154BD2183B6803F1040310461946D2
:1065CC0000F01AF900E000BF0C4B1B681B68002B95
:1065DC00B9D100E000BF074B1B68002B98D1064BCC
:1065EC001A68034B1A6007F10807BD4680BD00BF4F
:1065FC00B0190020B4190020AC1900208819002013
:10660C008C190020A81900203819002080B582B000
:10661C0000AFFFF72BFFFFF76FFF09E0264B1B685E
:10662C00002B43D0244B1B6803F1FF32224B1A6022
:10663C00214B1A6813464FEA83039B184FEA8303D6
:10664C001A461E4BD3181B68002BE7D01A4B1A683E
:10665C0013464FEA83039B184FEA83031A46174BE2
:10666C00D3187B607B685B685A687B685A607B6870
:10667C005A687B6803F108039A4204D17B685B6813
:10668C005A687B685A607B685B68DB681A460C4BFF
:10669C001A600B4B1B681B68094A1168084A126880
:1066AC00126B08461146984700BF00E000BF07F187
:1066BC000807BD4680BD00BFA8190020381900206E
:1066CC00A419002080B582B000AF4FF000037B60AE
:1066DC0010E07A6813464FEA83039B184FEA830352
:1066EC001A460F4BD318184600F054F87B6803F188
:1066FC0001037B607B68012BEBD90A4800F04AF858
:10670C00094800F047F8094800F044F8084B054ADE
:10671C001A60084B044A1A6007F10807BD4680BD91
:10672C0038190020601900207419002090190020DD
:10673C00881900208C19002080B584B000AF7860D7
:10674C007B68DB68DB68BB60BB6803F11803184629
:10675C0000F0B4F8BB6803F118030C48194600F0BC
:10676C004BF8BB68DA6A0A4B1B68DB6A9A4203D3A4
:10677C004FF00103FB6002E04FF00003FB60FB688D
:10678C00184607F11007BD4680BD00BF90190020C8
:10679C00A419002080B483B000AF78607B6803F14B
:1067AC0008031A467B685A607B684FF0FF329A6088
:1067BC007B6803F108031A467B68DA607B6803F197
:1067CC0008031A467B681A617B684FF000021A6056
:1067DC0007F10C07BD4680BC704700BF80B483B086
:1067EC0000AF78607B684FF000021A6107F10C076C
:1067FC00BD4680BC704700BF80B485B000AF7860E8
:10680C0039607B685B68FB60FB685A683B685A6060
:10681C007B685A683B689A60FB685B683A689A6068
:10682C003A68FB685A603A687B685A603B687A68D9
:10683C001A617B681B6803F101027B681A6007F11F
:10684C001407BD4680BC704780B485B000AF78603B
:10685C0039603B681B68BB60BB68B3F1FF3F03D179
:10686C007B681B69FB600DE07B6803F10803FB6030
:10687C0002E0FB685B68FB60FB685B681A68BB68DE
:10688C009A42F6D9FB685A683B685A603B685B6869
:10689C003A689A603B68FA689A603A68FB685A6092
:1068AC003B687A681A617B681B6803F101027B689C
:1068BC001A6007F11407BD4680BC704780B485B0E0
:1068CC0000AF78607B685B687A6892689A607B68D6
:1068DC009B687A6852685A607B681B69FB60FB682E
:1068EC005A687B689A4203D17B689A68FB685A6045
:1068FC007B684FF000021A61FB681B6803F1FF32E2
:10690C00FB681A6007F11407BD4680BC704700BFD6
:10691C0080B588B000AFF860B9601346FB714FF0DA
:10692C000003FB61FB68002B56D04FF04C00FEF7C8
:10693C0055FE0346BB61BB69002B4DD0FB68BA68A2
:10694C0002FB03F303F101037B617869FEF746FE5A
:10695C0003461A46BB691A60BB691B68002B38D00A
:10696C00BB691A68FB68B96801FB03F3D218BB69F1
:10697C005A60BB694FF000029A63BB691A68BB6925
:10698C009A60BB691A68FB6803F1FF33B96801FBB5
:10699C0003F3D218BB69DA60BB69FA68DA63BB69C6
:1069AC00BA681A64BB694FF0FF325A64BB694FF086
:1069BC00FF329A64BB6903F110031846FFF7EAFE35
:1069CC00BB6903F124031846FFF7E4FEBB69FB61C6
:1069DC0002E0B869FEF742FEFB69002B04D14FF0D0
:1069EC00500080F31188FEE7FB69184607F1200779
:1069FC00BD4680BD80B588B000AFF860B9607A60E4
:106A0C003B604FF00003FB61FB68002B04D14FF09F
:106A1C00500080F31188FEE7BB68002B03D1FB68A4
:106A2C001B6C002B02D14FF0010301E04FF000036F
:106A3C00002B05D14FF0500080F31188FEE700BF0A
:106A4C00FEF75AFDFB689A6BFB68DB6B9A4218D217
:106A5C00F868B9683A6800F0BFF9FB685B6A002B0C
:106A6C000AD0FB6803F12403184600F09DFF03468F
:106A7C00012B01D1FEF734FDFEF750FD4FF0010361
:106A8C005DE07B68002B04D1FEF748FD4FF000035E
:106A9C0055E0FB69002B07D107F11403184600F0F1
:106AAC00E5FF4FF00103FB61FEF738FD00F02EFD12
:106ABC00FEF722FDFB685B6CB3F1FF3F03D1FB6873
:106ACC004FF000025A64FB689B6CB3F1FF3F03D19B
:106ADC00FB684FF000029A64FEF720FD07F11402E8
:106AEC0007F104031046194600F0DEFF0346002BA5
:106AFC001ED1F86800F060FA0346002B12D0FB6838
:106B0C0003F110027B681046194600F0E5FEF868A8
:106B1C0000F0ECF900F008FD0346002B8FD1FEF7D6
:106B2C00DFFC8DE7F86800F0E1F900F0FDFC87E789
:106B3C00F86800F0DBF900F0F7FC4FF000031846A2
:106B4C0007F12007BD4680BD80B586B000AFF86068
:106B5C00B9607A603B60FB68002B04D14FF05000A9
:106B6C0080F31188FEE77B68002B04D14FF05000B6
:106B7C0080F31188FEE7BB68002B03D1FB681B6C0C
:106B8C00002B02D14FF0010301E04FF00003002B6A
:106B9C0004D14FF0500080F31188FEE74FF0000352
:106BAC003B614FF0500080F31188FB689A6BFB68D7
:106BBC00DB6B9A4225D2F868B9683A6800F00CF998
:106BCC00FB689B6CB3F1FF3F11D1FB685B6A002B38
:106BDC0013D0FB6803F12403184600F0E5FE0346CE
:106BEC00002B0AD07B684FF001021A6005E0FB68AD
:106BFC009B6C03F10102FB689A644FF001037B610B
:106C0C0002E04FF000037B614FF0000080F311882D
:106C1C007B69184607F11807BD4680BD80B588B062
:106C2C0000AFF860B9607A603B604FF00003FB6125
:106C3C00FB68002B04D14FF0500080F31188FEE765
:106C4C00BB68002B03D1FB681B6C002B02D14FF0EF
:106C5C00010301E04FF00003002B05D14FF0500071
:106C6C0080F31188FEE700BFFEF746FCFB689B6BC8
:106C7C00002B40D0FB68DB68BB61F868B96800F09A
:106C8C000DF93B68002B1FD1FB689B6B03F1FF32A6
:106C9C00FB689A63FB681B68002B05D101F0BCF8FC
:106CAC0003461A46FB685A60FB681B69002B1DD013
:106CBC00FB6803F11003184600F076FE0346012B27
:106CCC0014D1FEF70DFC11E0FB68BA69DA60FB68C1
:106CDC005B6A002B0AD0FB6803F12403184600F012
:106CEC0063FE0346002B01D0FEF7FAFBFEF716FC01
:106CFC004FF001036BE07B68002B04D1FEF70EFC18
:106D0C004FF0000363E0FB69002B07D107F1100380
:106D1C00184600F0ABFE4FF00103FB61FEF7FEFBE3
:106D2C0000F0F4FBFEF7E8FBFB685B6CB3F1FF3F94
:106D3C0003D1FB684FF000025A64FB689B6CB3F103
:106D4C00FF3F03D1FB684FF000029A64FEF7E6FBAD
:106D5C0007F1100207F104031046194600F0A4FED7
:106D6C000346002B2CD1F86800F010F90346002BD9
:106D7C0020D0FB681B68002B08D1FEF7BDFBFB681D
:106D8C005B68184601F07AF8FEF7C8FBFB6803F164
:106D9C0024027B681046194600F09EFDF86800F04E
:106DAC00A5F800F0C1FB0346002B7FF45CAFFEF7A7
:106DBC0097FB59E7F86800F099F800F0B5FB53E73A
:106DCC00F86800F093F800F0AFFB4FF000031846A2
:106DDC0007F12007BD4680BD80B584B000AFF860D8
:106DEC00B9607A60FB681B6C002B0DD1FB681B68CB
:106DFC00002B48D1FB685B68184601F0A1F8FB68D2
:106E0C004FF000025A603EE07B68002B1AD1FB6801
:106E1C009A68FB681B6C1046B9681A46FEF7BAF9FB
:106E2C00FB689A68FB681B6CD218FB689A60FB685D
:106E3C009A68FB685B689A4225D3FB681A68FB6802
:106E4C009A6020E0FB68DA68FB681B6C1046B96836
:106E5C001A46FEF79FF9FB68DA68FB681B6CC3F1F6
:106E6C000003D218FB68DA60FB68DA68FB681B6801
:106E7C009A4208D2FB685A68FB681B6CC3F100038A
:106E8C00D218FB68DA60FB689B6B03F10102FB68AC
:106E9C009A6307F11007BD4680BD00BF80B582B074
:106EAC0000AF786039607B681B68002B19D07B6859
:106EBC00DA687B681B6CD2187B68DA607B68DA68EE
:106ECC007B685B689A4203D37B681A687B68DA60DC
:106EDC007B68DA687B681B6C386811461A46FEF7CB
:106EEC0059F907F10807BD4680BD00BF80B582B0D7
:106EFC0000AF7860FEF700FB14E07B685B6A002B48
:106F0C0015D07B6803F12403184600F04DFD0346B1
:106F1C00002B01D000F022FE7B689B6C03F1FF324A
:106F2C007B689A647B689B6C002BE6DC00E000BFFE
:106F3C007B684FF0FF329A64FEF7F0FAFEF7DCFA4A
:106F4C0014E07B681B69002B15D07B6803F11003E0
:106F5C00184600F029FD0346002B01D000F0FEFD81
:106F6C007B685B6C03F1FF327B685A647B685B6CFB
:106F7C00002BE6DC00E000BF7B684FF0FF325A6468
:106F8C00FEF7CCFA07F10807BD4680BD80B584B08A
:106F9C0000AF7860FEF7B0FA7B689B6B002B14BFD8
:106FAC0000230123FB60FEF7B9FAFB68184607F1D2
:106FBC001007BD4680BD00BF80B584B000AF7860BF
:106FCC00FEF79AFA7B689A6B7B68DB6B9A4214BF6C
:106FDC0000230123FB60FEF7A1FAFB68184607F1BA
:106FEC001007BD4680BD00BF80B586B000AFF8600D
:106FFC00B9607A604FF0500080F31188F868FFF7A1
:10700C00DBFF0346002B17D07B68002B0DD0FB68F1
:10701C0003F1100378681946FFF7E2F94FF000000E
:10702C0080F311886FF0030336E04FF0000080F31B
:10703C0011884FF000032FE04FF0000080F311880F
:10704C004FF0500080F31188FB689A6BFB68DB6B88
:10705C009A4219D2F868B9684FF00002FFF7BCFEEB
:10706C004FF001037B61FB685B6A002B0FD0FB6860
:10707C0003F124031846FFF75FFB0346002B06D0F1
:10708C006FF004037B6102E04FF000037B614FF073
:10709C00000080F311887B69184607F11807BD467C
:1070AC0080BD00BF80B586B000AFF860B9607A6073
:1070BC004FF0500080F31188FB689B6B002B17D1AD
:1070CC007B68002B0DD0FB6803F12403786819460C
:1070DC00FFF786F94FF0000080F311886FF003037F
:1070EC004EE04FF0000080F311884FF0000347E0B2
:1070FC004FF0000080F311884FF0500080F311889E
:10710C00FB689B6B002B33D0FB68DA68FB681B6C4D
:10711C00D218FB68DA60FB68DA68FB685B689A4235
:10712C0003D3FB681A68FB68DA60FB689B6B03F19E
:10713C00FF32FB689A63FB68DA68FB681B6CB86803
:10714C0011461A46FEF726F84FF001037B61FB68E7
:10715C001B69002B0FD0FB6803F110031846FFF7D7
:10716C00EBFA0346002B06D06FF004037B6102E0C0
:10717C004FF000037B614FF0000080F311887B69B6
:10718C00184607F11807BD4680BD00BF80B584B016
:10719C0000AFF860B9607A60FB689A6BFB68DB6BD8
:1071AC009A4218D2F868B9684FF00002FFF714FE43
:1071BC007B68002B0FD1FB685B6A002B0BD0FB6844
:1071CC0003F124031846FFF7B7FA0346002B02D04D
:1071DC004FF0010300E07B68184607F11007BD462D
:1071EC0080BD00BF80B586B000AFF860B9607A6032
:1071FC00FB689B6B002B38D0FB68DA68FB681B6C58
:10720C00D218FB68DA60FB68DA68FB685B689A4244
:10721C0003D3FB681A68FB68DA60FB689B6B03F1AD
:10722C00FF32FB689A63FB68DA68FB681B6CB86812
:10723C0011461A46FDF7AEFF7B681B68002B10D178
:10724C00FB681B69002B0CD0FB6803F1100318467C
:10725C00FFF772FA0346002B03D07B684FF0010254
:10726C001A604FF001037B6102E04FF000037B6179
:10727C007B69184607F11807BD4680BD80B582B002
:10728C0000AF78603960FEF737F97B685B6CB3F15F
:10729C00FF3F03D17B684FF000025A647B689B6C04
:1072AC00B3F1FF3F03D17B684FF000029A64FEF705
:1072BC0035F97B689B6B002B06D17B6803F12403AB
:1072CC001846396800F044FB7868FFF70FFE07F1A9
:1072DC000807BD4680BD00BF80B58AB002AFF8601C
:1072EC00B9603B601346FB80FB68002B04D14FF068
:1072FC00500080F31188FEE7BB6A042B04D94FF0D1
:10730C00500080F31188FEE7FB881846396B00F0BB
:10731C0039FDB861BB69002B00F08E80BB691A6B1C
:10732C00FB8803F1FF334FEA8303D3187B617B693E
:10733C0023F007037B617B6903F00703002B04D068
:10734C004FF0500080F31188FEE7FB880093B8697A
:10735C00B968BA6A7B6B00F01FFC7869F9683A6807
:10736C00FEF756F803461A46BB691A60BB691B68E0
:10737C0003F00703002B04D04FF0500080F311886A
:10738C00FEE7FB6A002B02D0FB6ABA691A60FEF7B3
:10739C00B3F8354B1B6803F10102334B1A60334BC6
:1073AC001B68002B09D1314BBA691A602E4B1B6834
:1073BC00012B0FD100F02EFC0CE02D4B1B68002B89
:1073CC0008D12A4B1B68DA6ABB6A9A4202D8274B4F
:1073DC00BA691A60BB69DA6A264B1B689A4203D9F0
:1073EC00BB69DA6A234B1A60234B1B6803F1010259
:1073FC00214B1A60BB69DA6A204B1B689A4203D98D
:10740C00BB69DA6A1D4B1A60BB69DA6A13464FEA2C
:10741C0083039B184FEA83031A46194BD218BB6996
:10742C0003F1040310461946FFF7E6F94FF0010388
:10743C00FB61FEF773F802E04FF0FF33FB61FB6971
:10744C00012B0BD10A4B1B68002B07D0074B1B6879
:10745C00DA6ABB6A9A4201D2FEF742F8FB69184617
:10746C0007F12007BD4680BD901A0020B8190020F6
:10747C00A01A0020981A0020B41A00209C1A002090
:10748C00BC19002080B586B004AF1C4B4FF0000235
:10749C0000924FF0000201924FF0000202924FF066
:1074AC0000020392164819464FF046024FF00003B3
:1074BC00FFF712FF78607B68012B02D100F084FD8E
:1074CC0078607B68012B0DD14FF0500080F3118850
:1074DC000C4B4FF001021A600B4B4FF000021A607C
:1074EC00FDF7E0FF7B68002B04D14FF0500080F3D8
:1074FC001188FEE707F10807BD4680BD04A7000808
:10750C00817B0008A01A0020941A002080B400AFE0
:10751C00044B1B6803F10102024B1A60BD4680BC90
:10752C00704700BFA41A002090B583B000AF4FF095
:10753C0000037B603D4B1B68002B04D14FF05000C7
:10754C0080F31188FEE7FDF7D7FF384B1B6803F17A
:10755C00FF32364B1A60354B1B68002B5ED1344B17
:10756C001B68002B5AD04FF000033B602EE0314BD0
:10757C00DB68DB681C4604F118031846FFF79EF91C
:10758C0004F104031846FFF799F9E26A2A4B1B68C9
:10759C009A4202D9E26A284B1A60E26A13464FEA11
:1075AC0083039B184FEA83031A46244BD21804F129
:1075BC00040310461946FFF71FF9E26A204B1B68BB
:1075CC00DB6A9A4202D34FF001033B60194B1B68F4
:1075DC00002BCCD11B4B1B68002B0FD007E000F00D
:1075EC0047F8184B1B6803F1FF32164B1A60154B0A
:1075FC001B68002BF3D14FF001033B603B68012B60
:10760C0003D0114B1B68012B08D14FF001037B6099
:10761C000D4B4FF000021A60FDF762FFFDF77EFF85
:10762C007B68184607F10C07BD4690BDA41A0020D4
:10763C00901A0020501A00209C1A0020BC1900201F
:10764C00B8190020A81A0020AC1A002080B582B00E
:10765C0000AFFDF751FF054B1B687B60FDF75EFF2C
:10766C007B68184607F10807BD4680BD941A0020B8
:10767C0080B584B000AF4A4B1B68002B40F085806E
:10768C00484B1B6803F10102464B1A60454B1B68C3
:10769C00002B2CD1444B1B681B68002B04D04FF0E3
:1076AC00500080F31188FEE73F4B1B68FB603F4B9B
:1076BC001A683D4B1A603D4BFA681A603C4B1B68CC
:1076CC0003F101023A4B1A60374B1B681B68002B05
:1076DC0004D1384B4FF0FF321A6008E0324B1B6874
:1076EC00DB68DB68BB60BB685A68324B1A602D4B99
:1076FC001A68304B1B689A424DD32B4B1B681B6886
:10770C00002B04D12B4B4FF0FF321A6043E0264B79
:10771C001B68DB68DB68BB60BB685B687B60214B0C
:10772C001A687B689A4203D2224B7A681A6032E05C
:10773C00BB6803F104031846FFF7C0F8BB689B6AEB
:10774C00002B05D0BB6803F118031846FFF7B6F8F9
:10775C00BB68DA6A184B1B689A4203D9BB68DA6AB1
:10776C00154B1A60BB68DA6A13464FEA83039B1801
:10777C004FEA83031A46114BD218BB6803F104037A
:10778C0010461946FFF738F8B7E70D4B1B6803F1A5
:10779C0001020B4B1A6007F11007BD4680BD00BFFC
:1077AC00A41A0020941A0020481A00204C1A002019
:1077BC00B01A0020E80000209C1A0020BC19002000
:1077CC00A81A002080B582B000AF3D4B1B68002B7F
:1077DC0004D03C4B4FF001021A606CE03A4B1B6832
:1077EC001A68394B1B681B6B9A420AD8364B1B68BC
:1077FC001A46354B1B6803F134031046194600F04A
:10780C0007FF314B1B681B6B184630494FF01402B5
:10781C00FDF78EFC0346002B1BD02B4B1B681A4626
:10782C00294B1B6803F134031046194600F0F0FE97
:10783C0010E0274B1B68002B04D14FF0500080F355
:10784C001188FEE7224B1B6803F1FF32204B1A60B4
:10785C0000E000BF1E4B1A6813464FEA83039B18C7
:10786C004FEA83031A461B4BD3181B68002BE0D03E
:10787C00174B1A6813464FEA83039B184FEA83038E
:10788C001A46144BD3187B607B685B685A687B681C
:10789C005A607B685A687B6803F108039A4204D1EA
:1078AC007B685B685A687B685A607B685B68DB68DE
:1078BC001A46054B1A6007F10807BD4680BD00BF8C
:1078CC00A41A0020AC1A0020B8190020CCA700087C
:1078DC009C1A0020BC19002080B584B000AF7860E1
:1078EC0039607B68002B04D14FF0500080F3118875
:1078FC00FEE7144B1B6803F1180378681946FEF772
:10790C00A3FF104B1B6803F104031846FEF7D6FFC8
:10791C003B68B3F1FF3F08D10A4B1B6803F104032A
:10792C0009481946FEF768FF07E0084B1A683B68E0
:10793C00D318FB60F86800F0EDF907F11007BD46AD
:10794C0080BD00BFB81900207C1A0020941A0020BA
:10795C0080B584B000AF786039607B68002B04D1AF
:10796C004FF0500080F31188FEE70D4B1B6803F1BC
:10797C00180378681946FEF73FFF094B1B6803F1A3
:10798C0004031846FEF79AFF064B1A683B68D31897
:10799C00FB60F86800F0BEF907F11007BD4680BD2A
:1079AC00B8190020941A002080B584B000AF78601C
:1079BC007B68DB68DB68BB60BB68002B04D14FF0D5
:1079CC00500080F31188FEE7BB6803F118031846DA
:1079DC00FEF774FF204B1B68002B22D1BB6803F110
:1079EC0004031846FEF76AFFBB68DA6A1B4B1B6878
:1079FC009A4203D9BB68DA6A184B1A60BB68DA6A18
:107A0C0013464FEA83039B184FEA83031A46144B21
:107A1C00D218BB6803F1040310461946FEF7ECFEBE
:107A2C0006E0BB6803F118030E481946FEF7E4FEA6
:107A3C00BB68DA6A0C4B1B68DB6A9A4203D34FF0C3
:107A4C000103FB6002E04FF00003FB60FB6818468B
:107A5C0007F11007BD4680BDA41A00209C1A002017
:107A6C00BC190020501A0020B819002080B483B033
:107A7C0000AF78607B68002B04D14FF0500080F38E
:107A8C001188FEE7064B1A687B681A60054B1A686A
:107A9C007B685A6007F10C07BD4680BC704700BF7D
:107AAC00B01A0020941A002080B584B000AF786022
:107ABC0039607B68002B04D14FF0500080F31188A3
:107ACC00FEE73B68002B04D14FF0500080F3118887
:107ADC00FEE7FDF711FD3B681B68B3F1FF3F03D1D7
:107AEC004FF00003FB602CE07B681A68194B1B6895
:107AFC009A4209D07B685A68174B1B689A4203D884
:107B0C004FF00103FB601CE0134B1A687B685B6849
:107B1C00D21A3B681B689A4210D23B681A687B6881
:107B2C0059680D4B1B68CB1AD2183B681A607868E1
:107B3C00FFF79CFF4FF00003FB6002E04FF00103E6
:107B4C00FB60FDF7EBFCFB68184607F11007BD4620
:107B5C0080BD00BFB01A0020941A002080B400AF82
:107B6C00034B4FF001021A60BD4680BC704700BF4A
:107B7C00AC1A002080B582B000AF786000F08EF8AF
:107B8C00044B1B68012B01D9FDF7AAFC00F02CFD5E
:107B9C00F4E700BFBC19002080B584B000AFF860DA
:107BAC00B9607A603B60FB6803F134031A46BB682A
:107BBC00104619464FF00602FDF7EEFBFB684FF03E
:107BCC00000283F839207B68042B02D94FF00403A0
:107BDC007B60FB687A68DA62FB687A68DA63FB6858
:107BEC0003F104031846FEF7F9FDFB6803F11803D3
:107BFC001846FEF7F3FDFB68FA681A617B68C3F15F
:107C0C000502FB689A61FB68FA685A6207F1100773
:107C1C00BD4680BD80B582B000AF4FF000037B60E5
:107C2C0010E07A6813464FEA83039B184FEA8303EC
:107C3C001A46124BD3181846FEF7ACFD7B6803F1BD
:107C4C0001037B607B68042BEBD90D48FEF7A2FD8A
:107C5C000C48FEF79FFD0C48FEF79CFD0B48FEF709
:107C6C0099FD0B48FEF796FD0A4B054A1A600A4B24
:107C7C00044A1A6007F10807BD4680BDBC190020F4
:107C8C00201A0020341A0020501A0020641A0020F8
:107C9C007C1A0020481A00204C1A002080B582B0B3
:107CAC0000AF194B1B68002B2AD0FFF72FFC174B8A
:107CBC001B68002B14BF002301237B60FFF734FCEF
:107CCC007B68002B1CD1FDF717FC104BDB68DB68C5
:107CDC003B603B6803F104031846FEF7EFFD0C4BC9
:107CEC001B6803F1FF320A4B1A60074B1B6803F148
:107CFC00FF32054B1A60FDF711FC386800F07CF878
:107D0C0007F10807BD4680BD781A0020641A0020D0
:107D1C00901A002080B582B000AF7860144B1B68BD
:107D2C007A685A60134B1B687A689A420AD2124BD3
:107D3C001A680F4B1B6803F1040310461946FEF733
:107D4C0083FD11E00D4B1A68094B1B6803F104030A
:107D5C0010461946FEF778FD094B1B687A689A4263
:107D6C0002D2074B7A681A6007F10807BD4680BD3E
:107D7C00B8190020941A00204C1A0020481A002030
:107D8C00E800002080B584B000AF03463960FB806A
:107D9C004FF04000FDF722FC0346FB60FB68002B14
:107DAC0023D03B68002B07D1FB884FEA830318468E
:107DBC00FDF714FC034600E03B68FA681363FB68AC
:107DCC001B6B002B06D1F868FDF748FC4FF0000345
:107DDC00FB600AE0FB681A6BFB884FEA83031046D2
:107DEC004FF0A5011A46FDF77DFAFB68184607F11E
:107DFC001007BD4680BD00BF80B582B000AF786073
:107E0C007B681B6B1846FDF729FC7868FDF726FC90
:107E1C0007F10807BD4680BD80B483B000AF054BA9
:107E2C001B687B607B68184607F10C07BD4680BC5D
:107E3C00704700BFB819002080B483B000AF0D4B61
:107E4C001B68002B03D14FF000037B600AE00A4B48
:107E5C001B68002B03D14FF001037B6002E04FF055
:107E6C0002037B607B68184607F10C07BD4680BC9B
:107E7C00704700BFA01A0020A41A002080B584B05F
:107E8C0000AF78607B68FB607B68002B04D14FF0FF
:107E9C00500080F31188FEE7FB68DA6A254B1B68FB
:107EAC00DB6A9A4242D2234B1B68DB6AC3F10502A0
:107EBC00FB689A61FB685969FB68DA6A13464FEAFA
:107ECC0083039B184FEA83031A461B4BD318994222
:107EDC0027D1FB6803F104031846FEF7EFFC154BA2
:107EEC001B68DA6AFB68DA62FB68DA6A134B1B6898
:107EFC009A4203D9FB68DA6A104B1A60FB68DA6A9B
:107F0C0013464FEA83039B184FEA83031A460A4B26
:107F1C00D218FB6803F1040310461946FEF76CFCFB
:107F2C0004E0044B1B68DA6AFB68DA6207F110079D
:107F3C00BD4680BDB8190020BC1900209C1A002039
:107F4C0080B584B000AF78607B68FB607B68002BE9
:107F5C0031D0FB68DA6AFB68DB6B9A422BD0FB688A
:107F6C0003F104031846FEF7A9FCFB68DA6BFB6807
:107F7C00DA62FB68DB6AC3F10502FB689A61FB6895
:107F8C00DA6A0F4B1B689A4203D9FB68DA6A0C4B0E
:107F9C001A60FB68DA6A13464FEA83039B184FEAB0
:107FAC0083031A46074BD218FB6803F104031046EF
:107FBC001946FEF721FC07F11007BD4680BD00BF36
:107FCC009C1A0020BC19002080B586B004AF4FF07D
:107FDC0000037B6000F086FA134B1B68002B15D056
:107FEC00124B4FF0030200924FF0000201924FF03F
:107FFC00000202924FF0000203920D4819464FF016
:10800C0046024FF00003FFF767F978607B68002B9E
:10801C0004D14FF0500080F31188FEE77B681846BE
:10802C0007F10807BD4680BDE81A00200CA7000820
:10803C005981000880B588B000AFF860B9607A60EB
:10804C003B604FF00003FB611F4B1B68002B34D0CF
:10805C00BB683B617B687B61FB68BB613B68002B49
:10806C001FD1FFF7E9FE0346012B0CD1164B1A6802
:10807C0007F1100310461946BA6A4FF00003FEF7D9
:10808C00B9FCF86119E0104B1A6807F1100310469F
:10809C0019464FF000024FF00003FEF7ABFCF861FD
:1080AC000BE0094B1A6807F11003104619463A68A1
:1080BC004FF00003FEF748FDF861FB69184607F125
:1080CC002007BD4680BD00BFE81A002080B586B0F1
:1080DC0002AF786039601C4B1B68DB68DB68FB60A7
:1080EC00FB6803F104031846FEF7E8FBFB68DB6949
:1080FC00012B20D1FB689A697B68D318F868194664
:10810C003A687B6800F0B8F80346012B13D14FF0A6
:10811C0000030093F8684FF000017A684FF00003F9
:10812C00FFF788FFB860BB68002B04D14FF05000FC
:10813C0080F31188FEE7FB685B6AF868984707F1E3
:10814C001007BD4680BD00BFE01A002080B584B08A
:10815C0000AF786007F10803184600F043F8F860A8
:10816C00BB68F868194600F003F800F0CDF8F1E7A9
:10817C0080B584B000AF78603960FFF7C7F907F1BC
:10818C000803184600F052F8F860BB68002B1ED1AB
:10819C003B68002B0AD17A68FB689A4206D8FFF735
:1081AC00C3F97868F968FFF791FF14E00C4B1A6873
:1081BC007968FB68CB1A10461946FFF75FF8FFF792
:1081CC00B3F90346002B05D1FDF78AF903E0FFF75D
:1081DC00ABF900E000BF07F11007BD4680BD00BF42
:1081EC00E81A002080B485B000AF78600E4B1B6895
:1081FC001B68002B14BF002201227B681A607B686D
:10820C001B68002B05D1084B1B68DB681B68FB60E7
:10821C0002E04FF00003FB60FB68184607F11407FF
:10822C00BD4680BC704700BFE01A002080B584B00A
:10823C0000AF7860FFF70AFAF8600E4B1B68FA681B
:10824C009A4209D20B4B1B68184600F0E9F87B6880
:10825C004FF001021A6003E07B684FF000021A60D5
:10826C00044BFA681A60FB68184607F11007BD4604
:10827C0080BD00BFEC1A002080B586B000AFF8605E
:10828C00B9607A603B604FF000037B61FB68BA68B1
:10829C005A60FB68FA681A61BA687B689A4214D80B
:1082AC007A683B68D21AFB689B699A4203D34FF0F9
:1082BC0001037B611EE0124B1A68FB6803F1040397
:1082CC0010461946FEF7C0FA14E07A683B689A42E9
:1082DC0007D2BA683B689A4203D34FF001037B6123
:1082EC0008E0084B1A68FB6803F1040310461946B2
:1082FC00FEF7AAFA7B69184607F11807BD4680BD40
:10830C00E41A0020E01A002080B58AB002AF07F111
:10831C0004031846FFF78AFFF8616CE03B69BB6108
:10832C00BB69002B09D0BB695B69002B05D0BB690D
:10833C0003F104031846FEF7C1FABB68032B53D8AC
:10834C0001A252F823F000BF65830008F5830008F2
:10835C00BF830008ED830008FA68BB699B69D218DB
:10836C00FB68B8691146FA69FFF786FF0346012BD3
:10837C003CD1BB695B6AB8699847BB69DB69012B67
:10838C0036D1FA68BB699B69D3184FF00002009292
:10839C00B8694FF000011A464FF00003FFF74AFE90
:1083AC0078617B69002B25D14FF0500080F3118848
:1083BC00FEE7FA68BB699A61BB699B69002B04D123
:1083CC004FF0500080F31188FEE7BB699A69FB6996
:1083DC00D318B8691946FA69FB69FFF74DFF0AE033
:1083EC00B869FDF73BF906E000BF04E000BF02E00E
:1083FC0000BF00E000BF094B1A6807F108031046E4
:10840C0019464FF000024FF00003FEF707FC03463D
:10841C00002B83D107F12007BD4680BDE81A002050
:10842C0080B58AB002AF786044E02C4B1B68DB68E7
:10843C001B68FB61294B1B68DB68DB68BB61BB6994
:10844C0003F104031846FEF739FABB695B6AB86995
:10845C009847BB69DB69012B2CD1BB699A69FB6915
:10846C00D3187B617A69FB699A420FD9BB697A6927
:10847C005A60BB69BA691A61184B1A68BB6903F177
:10848C00040310461946FEF7DFF913E04FF0000322
:10849C000093B8694FF00001FA694FF00003FFF741
:1084AC00C9FD38613B69002B04D14FF0500080F3BB
:1084BC001188FEE7094B1B681B68002BB5D1074BD5
:1084CC001B68FB60064B1A68044B1A60044BFA6875
:1084DC001A6007F12007BD4680BD00BFE01A0020DE
:1084EC00E41A002080B500AFFDF706F80E4B1B68B0
:1084FC00002B16D10D48FEF74DF90D48FEF74AF941
:10850C000C4B0A4A1A600C4B094A1A604FF00500D2
:10851C004FF00C014FF00002FEF7FAF90246024B45
:10852C001A60FCF7FBFF80BDE81A0020B81A002087
:10853C00CC1A0020E01A0020E41A002080B500AF0D
:10854C00FDF774FC80BD00BF80B582B000AF4FF06A
:10855C0000604FF4A04100F0C3F91F484FF0010137
:10856C004FF00002FDF7CAFE78601C484FF0010185
:10857C004FF00002FDF7C2FE786019484FF0010180
:10858C004FF00002FDF7BAFE7860FEF77BFF4FF06C
:10859C006100FDF75BFB4FF06200FDF757FB4FF0FE
:1085AC006100FDF753FB4FF06200FDF74FFB4FF0FE
:1085BC000D00FDF74BFB4FF00A00FDF747FB4FF0AA
:1085CC0000033B6003E03B6803F101033B603A6846
:1085DC00044B9A42F7DDDAE719570008995900085D
:1085EC00855700089F86010080B500AFFEF70EF896
:1085FC00FCE700BF80B483B000AF4FF00003FB7109
:10860C00FB79DBB203F10103DBB2FB71F8E700BFCE
:10861C0080B485B000AF786039604FF00003FB7315
:10862C00FB7BDBB203F10103DBB2FB73F8E700BFAA
:10863C0080B400AFBD4680BC704700BF80B400AFB3
:10864C00FEE700BF80B400AFFEE700BF80B400AF10
:10865C00FEE700BF80B400AFFEE700BF80B400AF00
:10866C00BD4680BC704700BF80B500AF154B154AA6
:10867C00126842F001021A60124A124B5968124BEE
:10868C0001EA030353600F4A0E4B1B6823F08473FB
:10869C0023F4803313600B4B0A4A126822F48022B5
:1086AC001A60084B074A526822F4FE025A60054BC6
:1086BC004FF41F029A6000F00BF8044B4FF000626D
:1086CC009A6080BD001002400000FFF800ED00E051
:1086DC0080B500AF00F002F880BD00BF80B483B05D
:1086EC0000AF4FF000037B604FF000033B603B4B4F
:1086FC003A4A126842F480321A60384B1B6803F411
:10870C0000333B607B6803F101037B603B68002B0B
:10871C0003D17B68B3F5A06FEFD1304B1B6803F42A
:10872C000033002B03D04FF001033B6002E04FF00D
:10873C0000033B603B68012B4BD1294B284A126844
:10874C0042F010021A60264B254A126822F00302EE
:10875C001A60234B224A126842F001021A601F4B26
:10876C001E4A52685A601D4B1C4A52685A601B4B79
:10877C001A4A526842F480625A60184B174A52687F
:10878C0022F47C125A60154B144A526842F4881237
:10879C005A60124B114A126842F080721A6000BF84
:1087AC000E4B1B6803F00073002BF9D00B4B0B4ADC
:1087BC00526822F003025A60084B084A526842F091
:1087CC0002025A6000BF054B5B6803F00C03082BD8
:1087DC00F9D107F10C07BD4680BC70470010024070
:1087EC000020024080B483B000AF7860054A7B68FB
:1087FC0043F0BE6343F42023D36007F10C07BD465E
:10880C0080BC704700ED00E080B487B000AF7860AA
:10881C004FF000037B614FF000033B614FF00F03FF
:10882C00FB607B68DB78002B3FD02B4BDB686FEA5F
:10883C00030303F4E0634FEA13237B617B69C3F109
:10884C0004033B617B69FA6822FA03F3FB607B68E3
:10885C005B781A463B6902FA03F37B617B689B7871
:10886C001A46FB6802EA03037A6942EA03037B6156
:10887C007B694FEA03137B6118497B681B787A6923
:10888C00D2B2CB1883F80023144B7A6812784FEAD3
:10889C005212D2B27968097801F01F014FF0010031
:1088AC0000FA01F143F8221011E00C4B7A681278AF
:1088BC004FEA5212D2B27968097801F01F014FF0D9
:1088CC00010000FA01F102F1200243F8221007F135
:1088DC001C07BD4680BC704700ED00E000E100E0E5
:1088EC0080B483B000AF78603960074A3B6823F0EE
:1088FC00604323F07F0379680B43936007F10C0707
:10890C00BD4680BC704700BF00ED00E080B489B06C
:10891C0000AF786039604FF00003FB614FF000034B
:10892C003B614FF00003BB614FF00003FB604FF065
:10893C0000037B614FF00003BB603B68DB7803F006
:10894C000F03FB613B68DB7803F01003002B05D0B1
:10895C003B689B78FA6942EA0303FB613B681B881E
:10896C0003F0FF03002B51D07B681B687B614FF039
:10897C000003BB6144E0BB694FF0010202FA03F350
:10898C00FB603B681B881A46FB6802EA03033B61E9
:10899C003A69FB689A422FD1BB694FEA8303FB60AB
:1089AC00FB684FF00F0202FA03F3BB60BB686FEA7F
:1089BC0003037A6902EA03037B61FB68FA6902FA32
:1089CC0003F37A6942EA03037B613B68DB78282B6B
:1089DC0007D1BB694FF0010202FA03F27B685A61BE
:1089EC000AE03B68DB78482B06D1BB694FF00102EB
:1089FC0002FA03F27B681A61BB6903F10103BB61E4
:108A0C00BB69072BB7D97B687A691A603B681B88EE
:108A1C00FF2B56D97B685B687B614FF00003BB6111
:108A2C0049E0BB6903F108034FF0010202FA03F3BA
:108A3C00FB603B681B881A46FB6802EA03033B6138
:108A4C003A69FB689A4232D1BB694FEA8303FB60F7
:108A5C00FB684FF00F0202FA03F3BB60BB686FEACE
:108A6C0003037A6902EA03037B61FB68FA6902FA81
:108A7C0003F37A6942EA03037B613B68DB78282BBA
:108A8C0008D1BB6903F108034FF0010202FA03F2AB
:108A9C007B685A613B68DB78482B08D1BB6903F1D2
:108AAC0008034FF0010202FA03F27B681A61BB69FA
:108ABC0003F10103BB61BB69072BB2D97B687A69EF
:108ACC005A6007F12407BD4680BC704780B483B060
:108ADC0000AF786013460A467A807B707B78002B57
:108AEC0003D07A887B681A6102E07A887B685A61C5
:108AFC0007F10C07BD4680BC704700BF80B483B043
:108B0C0000AF7860034B7A681A6007F10C07BD461A
:108B1C0080BC7047D800424280B483B000AF78600C
:108B2C000B46FB70FB78002B07D00B4B0A4A916964
:108B3C007A6841EA02029A6108E0074B064A916999
:108B4C007A686FEA020201EA02029A6107F10C07E5
:108B5C00BD4680BC704700BF0010024080B483B09B
:108B6C0000AF78600B46FB70FB78002B07D00B4BEB
:108B7C000A4AD1697A6841EA0202DA6108E0074BD5
:108B8C00064AD1697A686FEA020201EA0202DA61E6
:108B9C0007F10C07BD4680BC704700BF00100240B7
:108BAC0080B582B000AF0346FB80FB88002B07D159
:108BBC000A4B1B684FF001021A824FF0000307E0CA
:108BCC00074B1B681B689847044B1B6803F10A038F
:108BDC00184607F10807BD4680BD00BF141C0020D5
:108BEC00101C002080B500AF104B1B68DA78104BBE
:108BFC005B789A4216D80D4B1B689B78002B11D1D1
:108C0C000A4B1B689B88002B0CD1084B1B68074A2E
:108C1C001268D2789A72074B1B685B6898474FF0C2
:108C2C00000301E04FF00203184680BD141C002025
:108C3C0060000020101C002080B582B000AF0346FD
:108C4C00FB80FB88002B07D10A4B1B684FF00102FD
:108C5C001A824FF0000307E0074B1B689B6898478C
:108C6C00044B1B6803F10C03184607F10807BD46BB
:108C7C0080BD00BF141C0020101C002080B582B0E9
:108C8C0000AF204B1B689B691F4A126851791E4A22
:108C9C001268D2780846114698470346FB711A4B66
:108CAC001B689B7A002B25D0FB79002B09D1164B26
:108CBC001B681B79002B04D1134B1B689B78002B72
:108CCC0002D04FF0020317E0FB79002B12D10F4BAF
:108CDC001B68DB6898470C4B1B680B4A126852796F
:108CEC00DA72094B1B68084A1268D2781A734FF073
:108CFC00000301E04FF00203184607F10807BD46D8
:108D0C0080BD00BFEC1B0020141C0020101C002098
:108D1C0080B584B000AF0346FB80FB88002B07D1E5
:108D2C00494B1B684FF002021A824FF0000386E099
:108D3C00464B4FF000021A80434B1B681B7803F024
:108D4C007F03002B2CD1404B1B685B7AFB73FB7BA6
:108D5C0003F02003002B07D03C4B1B7843F002039D
:108D6C00DAB23A4B1A7006E0384B1B7823F0020348
:108D7C00DAB2364B1A70FB7B03F04003002B07D0A2
:108D8C00324B1B7843F00103DAB2304B1A7051E0CE
:108D9C002E4B1B7823F00103DAB22C4B1A7049E0EE
:108DAC00294B1B681B7803F07F03012B01D1274B48
:108DBC0045E0254B1B681B7803F07F03022B36D153
:108DCC00214B1B685B79BB73BB7B03F00F037B737D
:108DDC00BB7B5BB2002B14DA7B7B4FEA830303F182
:108DEC00804303F5B8431B689BB203F03003102B90
:108DFC0020D1164B1B7843F00103DAB2134B1A70D7
:108E0C0018E07B7B4FEA830303F1804303F5B843FF
:108E1C001B689BB203F44053B3F5805F0AD10B4B34
:108E2C001B7843F00103DAB2084B1A7002E04FF0E2
:108E3C00000304E0064B1B681B699847034B18465C
:108E4C0007F11007BD4680BD141C0020E41B002058
:108E5C00101C002090B587B000AF784B1B681B78B6
:108E6C0003F07F033B613B69002B0BD1734B1B68F9
:108E7C00724A1268527A22F02002D2B25A724FF021
:108E8C000003D5E03B69022B40F0D0806B4B1B6894
:108E9C005B88002B04D1694B1B681B79002B02D01B
:108EAC004FF00203C4E0664BFB60644B1B685B79BC
:108EBC00BB60BB6823F080037B607B683B605F4BCF
:108ECC001B685B79DBB25BB2002B0CDA3B684FEAB8
:108EDC00830303F1804303F5B8431B689BB203F093
:108EEC0030037B610BE03B684FEA830303F1804363
:108EFC0003F5B8431B689BB203F440537B61FB68DA
:108F0C001B781A467B689A4207D97B69002B04D0E0
:108F1C004A4B1B689B7A002B02D14FF0020387E06F
:108F2C00BB6803F08003002B19D03B684FEA830326
:108F3C0003F1804303F5B8431B689BB203F0300385
:108F4C00102B6CD13B68DBB2184601F013FA3B686E
:108F5C00DBB218464FF0300101F0E2F85FE03B68FD
:108F6C004FEA830303F1804303F5B8431B689BB2BC
:108F7C0003F44053B3F5805F51D13B68002B29D1EA
:108F8C003B68DAB22F4B93F82C301046194601F09F
:108F9C00C5FA3B684FEA830303F1804303F5B843FA
:108FAC001B689BB223F4804323F070039CB284F4BF
:108FBC0080539CB284F400539CB23B684FEA830309
:108FCC0003F1804303F5B8431F4A44EA020292B20C
:108FDC001A6024E03B68DBB2184601F099F93B6853
:108FEC004FEA830303F1804303F5B8431B689BB23C
:108FFC0023F4804323F070039CB284F480539CB21E
:10900C0084F400539CB23B684FEA830303F1804322
:10901C0003F5B8430C4A44EA020292B21A600B4BB5
:10902C001B685B6998474FF0000301E04FF00203A7
:10903C00184607F11C07BD4690BD00BF141C00204C
:10904C0060000020640000208080FFFF101C0020C6
:10905C0090B585B000AF454B1B685B79BB60BB68B6
:10906C0023F080037B607B683B60404B1B685B7923
:10907C00DBB25BB2002B0CDA3B684FEA830303F1E3
:10908C00804303F5B8431B689BB203F03003FB60CD
:10909C000BE03B684FEA830303F1804303F5B843CD
:1090AC001B689BB203F44053FB60314B1B781A4690
:1090BC003B689A420CD92D4B1B685B88002B07D15F
:1090CC00FB68002B04D0294B1B689B7A002B02D128
:1090DC004FF0020345E0BB6803F08003002B1DD06A
:1090EC003B684FEA830303F1804303F5B8431B68E5
:1090FC009BB223F4E04323F040039CB284F01003B2
:10910C009CB23B684FEA830303F1804303F5B843F9
:10911C00184A44EA020292B21A601CE03B684FEA19
:10912C00830303F1804303F5B8431B689BB223F41C
:10913C00804323F070039CB284F480539CB23B6850
:10914C004FEA830303F1804303F5B843094A44EA29
:10915C00020292B21A60084B1B689B6998474FF049
:10916C000003184607F11407BD4690BD141C0020DF
:10917C00600000208080FFFF101C002080B500AF35
:10918C00084B1B68074A1268527A42F02002D2B28E
:10919C005A72054B1B68DB6998474FF00003184661
:1091AC0080BD00BF141C0020101C002080B485B0B2
:1091BC0000AF03463960FB800E4B1B685B8AFB607B
:1091CC00FB88002B0BD10B4B1B683A689188FA6813
:1091DC0092B28A1A92B21A824FF0000303E03B68F3
:1091EC001A68FB68D318184607F11407BD4680BCF3
:1091FC00704700BF141C002080B584B000AF404BFA
:10920C001B6803F11003BB60BB681B887B60BB68E9
:10921C009B68002B2FD07B68002B2CD0BB689B88C5
:10922C00FB60FA687B689A4201D97B68FB60BB687B
:10923C009B68FA6892B2104698473860BB681A88E7
:10924C00FB689BB2D31A9AB2BB681A80BB685A8867
:10925C00FB689BB2D3189AB2BB685A804FF00000DF
:10926C0001F020F903461A46FB689BB23868114698
:10927C001A4600F0E3FEBB681B88002B0DD0214B77
:10928C004FF440521A804FF000004FF0000101F0F3
:10929C0027F91D4B4FF030021A80BB681A88BB6847
:1092AC009B889A4205D3164B1B684FF003021A7227
:1092BC0021E0BB681B88002B05D0114B1B684FF0BD
:1092CC0005021A7217E0BB681B88002B13D10C4BDC
:1092DC001B684FF006021A720C4B1B689BB21A46A5
:1092EC000B4BD3184FEA43034FF000021A60064BA6
:1092FC004FF030021A8007F11007BD4680BD00BF49
:10930C00141C00201A1C00201C1C0020505C004067
:10931C000230002080B586B000AF424B1B6803F1D1
:10932C001003FB60FB681B88BB603E4B1B681B7A01
:10933C007B61BB68002B25D17B69042B22D13A4B76
:10934C001B78012B16D1394B1B689BB21A46384B34
:10935C00D3184FEA43034FF000021A60354B4FF01D
:10936C0030021A804FF004037B612F4B4FF0000248
:10937C001A704DE04FF007037B612E4B4FF010023B
:10938C001A8045E0FB689B883B61BA683B699A424E
:10939C0002D84FF0040301E04FF002037B613A69FD
:1093AC00BB689A4201D9BB683B61FB689B683A6910
:1093BC0092B21046984778604FF0000001F054F8D4
:1093CC0003461A463B699BB2786811461A4600F070
:1093DC00EFFD3B699BB24FF00000194601F080F89D
:1093EC00FB681A883B699BB2D31A9AB2FB681A8045
:1093FC00FB685A883B699BB2D3189AB2FB685A80B7
:10940C000C4B4FF030021A800B4B4FF440521A8029
:10941C00044B1B687A69D2B21A7207F11807BD4661
:10942C0080BD00BF141C0020F01A0020505C0040CE
:10943C00023000201C1C00201A1C002080B584B0B7
:10944C0000AF4FF00203FB73634B1B685B787B60D0
:10945C00614B1B681B7803F07F03002B5BD17B688F
:10946C00092B04D1FFF7BEFB0346FB737EE07B6840
:10947C00052B1DD1584B1B68DB78DBB25BB2002B84
:10948C000EDB554B1B689B78002B09D1524B1B688C
:10949C009B88002B04D1504B1B689B7A002B03D06C
:1094AC004FF00803BB608DE04FF00003FB735DE0F1
:1094BC007B68032B12D1484B1B68DB78012B09D13D
:1094CC00454B1B689B88002B04D1FFF757FE0346C6
:1094DC00FB734BE04FF00203FB7347E07B68012BFF
:1094EC0043D13D4B1B68DB78012B10D13A4B1B68E9
:1094FC009B88002B0BD1384B1B685B7A03F0200345
:10950C00002B04D0FFF7A6FC0346FB732EE04FF0B4
:10951C000203FB732AE0304B1B681B7803F07F03BC
:10952C00012B07D17B680B2B20D1FFF7A7FB034640
:10953C00FB731BE0284B1B681B7803F07F03022B8B
:10954C000FD17B68012B04D1FFF784FC0346FB731E
:10955C000CE07B68032B09D1FFF77AFD0346FB7304
:10956C0004E04FF00203FB7300E000BFFB7B002B19
:10957C000FD01A4B1B685B697A68D2B210469847B9
:10958C000346FB73FB7B032B03D14FF00903BB603A
:10959C0018E0FB7B002B03D04FF00803BB6011E0FD
:1095AC004FF00603BB600E4B1B689BB21A460D4B6B
:1095BC00D3184FEA43034FF000021A600A4B4FF0E6
:1095CC0030021A80044B1B68BA68D2B21A7207F1C7
:1095DC001007BD4680BD00BF141C0020EC1B0020F2
:1095EC00505C0040023000201C1C002080B58AB06A
:1095FC0000AF874B1B685B78BB614FF000037B624D
:10960C004FF000037B61BB69062B24D1804B1B6898
:10961C001B7803F07F03002B40F0E4807C4B1B682D
:10962C009B78FB74FB7C012B04D17A4B1B68DB69A8
:10963C007B62D7E0FB7C022B04D1764B1B681B6A48
:10964C007B62CFE0FB7C032B40F0CC80714B1B6822
:10965C005B6A7B62C6E0BB69002B7DD16C4B1B68DF
:10966C005B88002B78D16A4B1B68DB88022B73D18B
:10967C00674B1B681B79002B6ED1654B1B681B78E5
:10968C0003F07F03002B07D1614B1B689B88002BD9
:10969C0002D1614B7B62A5E05D4B1B681B7803F02C
:1096AC007F03012B16D15B4B1B689B69584A1268D0
:1096BC00527910464FF0000198470346002B40F0BA
:1096CC008680534B1B689B7A002B00F08280524B98
:1096DC007B6287E04E4B1B681B7803F07F03022BE9
:1096EC0079D14B4B1B685B7903F00F03FB60484B44
:1096FC001B685B7903F07003BB60454B1B685B799F
:10970C00DBB25BB2002B0CDAFB684FEA830303F18C
:10971C00804303F5B8431B689BB203F03003FB6135
:10972C000BE0FB684FEA830303F1804303F5B84376
:10973C001B689BB203F44053FB61384B1B781A46F1
:10974C00FB689A4249D9BB68002B48D1FB69002BB6
:10975C0047D0314B7B6245E0BB69082B09D12C4BC0
:10976C001B681B7803F07F03002B3BD12C4B7B62D7
:10977C0038E0BB690A2B35D1254B1B681B7803F0ED
:10978C007F03012B2ED1224B1B689B7A002B29D0F7
:10979C001F4B1B685B88002B24D11D4B1B681B794E
:1097AC00002B1FD11A4B1B68DB88012B1AD1194BCC
:1097BC001B689B69164A1268527910464FF00001DB
:1097CC0098470346002B0DD1164B7B620AE000BF75
:1097DC0008E000BF06E000BF04E000BF02E000BFED
:1097EC0000E000BF7B6A002B1ED0094B1B687A6916
:1097FC0092B25A82064B1B687A6A9A617B6A4FF066
:10980C00000098474FF0000387F8233021E000BF99
:10981C00141C0020EC1B00201D8D00086000002093
:10982C00AD8B0008458C0008444B1B681B69444AEF
:10983C001268527810469847034687F8233097F8F9
:10984C002330032B05D13E4B1B684FF009021A72D3
:10985C006FE03B4B1B681A8A4FF6FF739A4205D197
:10986C00374B1B684FF009021A7262E097F82330ED
:10987C00022B04D0324B1B681B8A002B05D1304BBA
:10988C001B684FF008021A7253E02D4B1B681B78B3
:10989C00DBB25BB2002B42DA294B1B68DB887B60A6
:1098AC00274B1B681B8A1A467B689A4205D9244BA6
:1098BC001B687A6892B21A8227E0214B1B681A8ABD
:1098CC001F4B1B68DB889A421FD21D4B1B681A8AE0
:1098DC001A4B1B6893F82C309A4204D2194B4FF058
:1098EC0000021A7011E0164B1B681B8A134A12688F
:1098FC0092F82C2093FBF2F102FB01F29B1A002B45
:10990C0003D1104B4FF001021A700D4B1B680B4A20
:10991C00126892F82C209A82FFF7FCFC09E0084BA5
:10992C001B684FF003021A72074B4FF440521A8017
:10993C0000BF07F12807BD4680BD00BFEC1B00200F
:10994C00141C0020F01A00201A1C002090B583B0C3
:10995C0000AF4FF00103FB80354B1B689BB21A46DE
:10996C00344BD3184FEA43031B689BB203F10053EB
:10997C0003F540534FEA43033B602F4B1B681B7AA4
:10998C00092B3ED02C4B1A683B681978117003F1E7
:10999C0001033B60284B1A683B681978517003F13E
:1099AC0001033B603A68FB884FEA4303D3183B60E2
:1099BC00214B1C683B681A8803F102033B6010467C
:1099CC0000F018FE034663803A68FB884FEA4303B5
:1099DC00D3183B60184B1C683B681A8803F10203D0
:1099EC003B60104600F006FE0346A3803A68FB88F5
:1099FC004FEA4303D3183B600F4B1B683A6812883D
:109A0C00DA800D4B1B684FF001021A720A4B1B686F
:109A1C00DB88002B02D1FFF711FD01E0FFF7E6FD1B
:109A2C0000F096F80346184607F10C07BD4690BDAA
:109A3C00505C004004300020141C002080B582B023
:109A4C0000AF214B1B681B7A7B607B68022B02D01A
:109A5C007B68042B06D1FFF75DFC1B4B1B681B7A44
:109A6C007B6023E07B68062B1DD1174B1B685B7852
:109A7C00052B10D1144B1B681B7803F07F03002BB4
:109A8C0009D1114B1B68DB78184600F08BF80F4B93
:109A9C001B681B6A98470E4B1B689B6898474FF0D6
:109AAC0008037B6002E04FF008037B60064B1B68E9
:109ABC007A68D2B21A7200F04BF80346184607F1D6
:109ACC000807BD4680BD00BF141C0020101C0020E0
:109ADC00EC1B002080B582B000AF1B4B1B681B7ABF
:109AEC007B607B68022B02D07B68042B03D14FF088
:109AFC0008037B601AE07B68032B02D07B68052B84
:109B0C0006D1FFF779FB104B1B681B7A7B600DE0CD
:109B1C007B68072B07D10D4B1B68DB6898474FF010
:109B2C0008037B6002E04FF008037B60064B1B6868
:109B3C007A68D2B21A7200F00BF80346184607F195
:109B4C000807BD4680BD00BF141C0020EC1B002084
:109B5C0080B500AF0F4B93F82C304FF00000194636
:109B6C0000F0DCFC0C4B1B681B7A082B07D10B4B51
:109B7C004FF480521A800A4B4FF010021A80064B99
:109B8C001B681B7A092B14BF00230123DBB2184678
:109B9C0080BD00BF64000020141C00201A1C002093
:109BAC001C1C002080B485B000AF0346FB711C4B1D
:109BBC001B78BB604FF00003FB6022E0FB68DBB25C
:109BCC004FEA830303F1804303F5B843FA68D2B23A
:109BDC004FEA820202F1804202F5B842126892B258
:109BEC00114640F60F7201EA020242F4004242F0C2
:109BFC008002F968C9B20A431A60FB6803F10103D9
:109C0C00FB60FA68BB689A42D8D3064BFA7962F0CB
:109C1C007F02D2B21A6007F11407BD4680BC7047B0
:109C2C00600000204C5C004080B400AFBD4680BC9E
:109C3C00704700BF80B500AF094B0A4A1A60084B49
:109C4C001B684FF002021A72074B084A1A60084B45
:109C5C00084A1A60044B1B681B68984780BD00BFFC
:109C6C00141C0020F41B0020EC1B002064000020BE
:109C7C00101C00209400002090B583B000AF4FF072
:109C8C000003FB8079E18B4B1B889BB2DBB203F0AA
:109C9C000F03DAB2884B1A70874B1B78002B40F0FD
:109CAC001581864B1B689AB2854B1A80844B1B8896
:109CBC009BB203F030039AB2824B1A80804B1B8804
:109CCC009BB203F440539AB27D4B1A807B4B1B68BA
:109CDC009BB24BF6BF7403EA040484F4005484F082
:109CEC002004764AA1B2784B41EA03039BB213607D
:109CFC00704B1B889BB203F01003002B42D16F4AB0
:109D0C006E4B1B689BB2194648F60F7301EA0303AE
:109D1C001360FFF793FE694B1B689BB24BF6BF7445
:109D2C0003EA0404664B1B889BB203F480539BB27A
:109D3C00002B01D084F48054614B1B889BB203F43C
:109D4C0000539BB2002B01D084F400545D4B1B8854
:109D5C009BB203F010039BB2002B01D084F01004D3
:109D6C00584B1B889BB203F020039BB2002B01D0F5
:109D7C0084F02004514AA1B2534B41EA03039BB235
:109D8C00136007E14D4B1B689BB2FB80FB889BB2B9
:109D9C0003F40063002B42D0484A484B1B689BB22B
:109DAC00194640F68F7301EA03031360FFF7CEFDEB
:109DBC00424B1B689BB24BF6BF7403EA0404404B46
:109DCC001B889BB203F480539BB2002B01D084F40C
:109DDC0080543B4B1B889BB203F400539BB2002B6B
:109DEC0001D084F40054374B1B889BB203F0100352
:109DFC009BB2002B01D084F01004324B1B889BB219
:109E0C0003F020039BB2002B01D084F020042B4ADA
:109E1C00A1B22D4B41EA03039BB21360BAE0FB885D
:109E2C009BB29BB21BB2002B80F2A780234A234B20
:109E3C001B689BB2194640F68F7301EA030313604B
:109E4C00FFF748FE1D4B1B689BB24BF6BF7403EA31
:109E5C0004041B4B1B889BB203F480539BB2002B56
:109E6C0001D084F48054164B1B889BB203F400532E
:109E7C009BB2002B01D084F40054124B1B889BB274
:109E8C0003F010039BB2002B01D084F010040D4B97
:109E9C001B889BB203F020039BB2002B01D084F0F3
:109EAC002004064AA1B2084B41EA03039BB213609B
:109EBC0070E000BFE01B0020F01B0020005C0040A5
:109ECC001A1C00201C1C00208080FFFF334B1B78C9
:109EDC004FEA830303F1804303F5B8431B689BB23D
:109EEC00FB80FB889BB29BB21BB2002B1FDA2B4B67
:109EFC001B784FEA830303F1804303F5B843274AE9
:109F0C0012784FEA820202F1804202F5B8421268DE
:109F1C0092B2114640F68F7201EA02021A601F4B90
:109F2C001B7803F1FF321E4B53F822309847FB8805
:109F3C009BB203F08003002B1FD0184B1B784FEA09
:109F4C00830303F1804303F5B843144A12784FEAB4
:109F5C00820202F1804202F5B842126892B21146B6
:109F6C0048F60F7201EA02021A600C4B1B7803F1DF
:109F7C00FF320C4B53F8223098470B4B1B689AB2AC
:109F8C000A4B1A80094B1B889BB29BB21BB2002B4D
:109F9C00FFF679AE07F10C07BD4690BDF01B002013
:109FAC003C00002020000020445C0040E01B00200E
:109FBC0080B489B000AF786013460A467A803B8043
:109FCC003B8803F101034FEA63037B617B8803F158
:109FDC00005303F540534FEA4303BB617B69FB61BC
:109FEC0023E07B681B783B617B6803F101037B609A
:109FFC007B681B784FEA03231A463B6942EA03034A
:10A00C00FB60FB689AB2BB691A80BB6903F102035F
:10A01C00BB61BB6903F10203BB617B6803F1010304
:10A02C007B60FB6903F1FF33FB61FB69002BD8D12B
:10A03C0007F12407BD4680BC704700BF80B487B0D1
:10A04C0000AF786013460A467A803B803B8803F168
:10A05C0001034FEA6303FB607B8803F1005303F5B4
:10A06C0040534FEA43033B61FB687B6114E07B6820
:10A07C003A69126892B21A807B6803F101037B6023
:10A08C003B6903F104033B617B6803F101037B60D3
:10A09C007B6903F1FF337B617B69002BE7D107F10F
:10A0AC001C07BD4680BC704780B483B000AF03462C
:10A0BC00FB80064AF9884FF6F87301EA0303136034
:10A0CC0007F10C07BD4680BC704700BF505C0040D8
:10A0DC0080B483B000AF02460B46FA71BB80FB79AB
:10A0EC004FEA830303F1804303F5B843FA794FEA4F
:10A0FC00820202F1804202F5B842126892B222F456
:10A10C00EC4222F0700291B2BA8841EA020292B299
:10A11C0092B21A6007F10C07BD4680BC704700BFB5
:10A12C0090B482B000AF02460B46FA71BB80FB794B
:10A13C004FEA830303F1804303F5B8431B689BB2DA
:10A14C0023F4E04323F040039CB2BB8803F01003DC
:10A15C009BB2002B02D084F010039CB2BB8803F09E
:10A16C0020039BB2002B02D084F020039CB2FB791D
:10A17C004FEA830303F1804303F5B843044A44EAEE
:10A18C00020292B21A6007F10807BD4690BC7047F4
:10A19C008080FFFF90B482B000AF02460B46FA718C
:10A1AC00BB80FB794FEA830303F1804303F5B8438B
:10A1BC001B689BB223F4804323F070039CB2BB88D2
:10A1CC0003F480539BB2002B02D084F480539CB2D6
:10A1DC00BB8803F400539BB2002B02D084F40053D1
:10A1EC009CB2FB794FEA830303F1804303F5B84338
:10A1FC00044A44EA020292B21A6007F10807BD460B
:10A20C0090BC70478080FFFF90B482B000AF0346D3
:10A21C00FB71FB794FEA830303F1804303F5B843E9
:10A22C001B689BB223F4E04323F040039CB284F000
:10A23C0010039CB284F020039CB2FB794FEA830399
:10A24C0003F1804303F5B843044A44EA020292B294
:10A25C001A6007F10807BD4690BC70478080FFFF6D
:10A26C0090B482B000AF0346FB71FB794FEA8303D5
:10A27C0003F1804303F5B8431B689BB223F480437E
:10A28C0023F070039CB284F480539CB284F400538A
:10A29C009CB2FB794FEA830303F1804303F5B84387
:10A2AC00044A44EA020292B21A6007F10807BD465A
:10A2BC0090BC70478080FFFF80B483B000AF034632
:10A2CC00FB71FB794FEA830303F1804202F5B8423C
:10A2DC00FB794FEA830303F1804303F5B8431B6812
:10A2EC009BB223F4F8734FEA03534FEA13539BB218
:10A2FC0043F07F4343F47F0343F4004343F0800374
:10A30C009BB29BB2136007F10C07BD4680BC704733
:10A31C0080B483B000AF0346FB71FB794FEA830333
:10A32C0003F1804303F5B8431B689BB203F48043ED
:10A33C00002B19D0FB794FEA830303F1804303F51B
:10A34C00B843FA794FEA820202F1804202F5B84230
:10A35C00126892B2114640F60F7201EA020242F400
:10A36C00404242F080021A6007F10C07BD4680BCE7
:10A37C00704700BF80B483B000AF0346FB71FB791C
:10A38C004FEA830303F1804303F5B8431B689BB288
:10A39C0003F04003002B19D0FB794FEA830303F140
:10A3AC00804303F5B843FA794FEA820202F1804206
:10A3BC0002F5B842126892B2114640F60F7201EAE9
:10A3CC00020242F4004242F0C0021A6007F10C078C
:10A3DC00BD4680BC704700BF80B483B000AF02465E
:10A3EC000B46FA71BB800D4B1B689BB21A46FB796E
:10A3FC004FEAC303D31803F1005303F540534FEA5C
:10A40C004303BA884FEA520292B24FEA42021A60F0
:10A41C0007F10C07BD4680BC704700BF505C004084
:10A42C0080B483B000AF02460B46FA71BB800C4B74
:10A43C001B689BB21A46FB794FEAC303D218094B2F
:10A44C00D3184FEA4303BA884FEA520292B24FEA4A
:10A45C0042021A6007F10C07BD4680BC704700BF72
:10A46C00505C00400430002080B483B000AF034641
:10A47C00FB710B4B1B689BB21A46FB794FEAC3036B
:10A48C00D31803F1005303F540534FEA43031B6801
:10A49C009BB2184607F10C07BD4680BC704700BF45
:10A4AC00505C004080B483B000AF0346FB710A4B94
:10A4BC001B689BB21A46FB794FEAC303D218074BB1
:10A4CC00D3184FEA43031B689BB2184607F10C07DD
:10A4DC00BD4680BC704700BF505C0040043000207B
:10A4EC0080B483B000AF02460B46FA71BB80094BB7
:10A4FC001B689BB21A46FB794FEAC303D218064B72
:10A50C00D3184FEA4303BA881A6007F10C07BD460B
:10A51C0080BC7047505C00400230002080B485B095
:10A52C0000AF02460B46FA71BB801F4B1B689BB2F7
:10A53C001A46FB794FEAC303D2181C4BD3184FEAC7
:10A54C004303BB60BB883E2B15D9BB884FEA531322
:10A55C00FB81BB8803F01F03002B03D1FB8903F1A4
:10A56C00FF33FB81FB894FEA832343F400431A46F4
:10A57C00BB681A6013E0BB884FEA5303FB81BB88AE
:10A58C0003F00103DBB2002B03D0FB8903F10103C1
:10A59C00FB81FB894FEA83231A46BB681A6007F1DB
:10A5AC001407BD4680BC7047505C0040063000204C
:10A5BC0080B483B000AF0346FB710C4B1B689BB29D
:10A5CC001A46FB794FEAC303D218094BD3184FEA4A
:10A5DC0043031B689BB24FEA83534FEA93539BB2DE
:10A5EC00184607F10C07BD4680BC7047505C004014
:10A5FC000630002080B485B000AF0346FB80FB889A
:10A60C00FB73FB884FEA13239BB29AB2FB7B4FEA96
:10A61C0003239BB242EA03039BB2BB81BB8918465E
:10A62C0007F11407BD4680BC704700BF80B400AF73
:10A63C00084B4FF000021A60074B4FF406421A8089
:10A64C00064B054A12881A604FF000031846BD46A7
:10A65C0080BC7047445C0040181C0020405C0040EB
:10A66C0080B584B000AF03463960FB714FF0000336
:10A67C00FB60FB7903F07F03DBB21846FFF798FF12
:10A68C000346FB60FB7903F07F03DBB21846FFF750
:10A69C0009FF03461A46FB689BB2386811461A46F6
:10A6AC00FFF7CCFCFB68184607F11007BD4680BDD0
:10A6BC00002103E00A4B5B584350043109480A4B14
:10A6CC0042189A42F6D3094A02E0002342F8043BAE
:10A6DC00074B9A42F9D3FDF7C7FFFDF735FF7047DB
:10A6EC0048BB000800000020EC000020F000002017
:10A6FC00201C0020FEE7000049444C4500000000EF
:10A70C00546D722053766300120100020200004067
:10A71C0083044057000201020301000009024300B8
:10A72C00020100C0320904000001020201000524EC
:10A73C000010010524010001042402020524060076
:10A74C0001070582030800FF09040100020A00004A
:10A75C0000070503024000000705810240000000CD
:10A76C00040309042603530054004D0069006300E0
:10A77C0072006F0065006C0065006300740072006D
:10A78C006F006E0069006300730000003203530019
:10A79C0054004D0033003200200056006900720056
:10A7AC007400750061006C00200043004F004D00E8
:10A7BC00200050006F007200740020002000000088
:10A7CC00A5A5A5A5A5A5A5A5A5A5A5A5A5A5A5A52D
:10A7DC00A5A5A5A5F8B500BFF8BC08BC9E4670475A
:0CA7EC00F8B500BFF8BC08BC9E467047E2
:04BB40002151000887
:04BB44000D51000897
:10BB4800AAAAAAAA1A03530054004D0033003200CF
:10BB5800310030000000000000000000000000007C
:10BB68008D5D0008359C0008359C0008359C000850
:10BB7800359C0008359C0008359C0008359C000859
:10BB8800359C0008995D0008359C0008359C000824
:10BB9800359C0008359C000800C201000000080020
:10BBA80004010000CD5E0008F95E00087560000819
:10BBB80095600008A160000831610008056200086E
:10BBC8007561000899610008BD6100080000000067
:10BBD80040000000359C000831600008359C0008D2
:10BBE800359C0008359C0008359C0008359C0008E9
:10BBF800359C00085D60000814A7000812000000CA
:10BC080028A70008430000006CA7000804000000F3
:10BC180070A700082600000098A70008320000005E
:0CBC2800040000201A000000FFFFFFFFD6
:040000050800A6BD8C
:00000001FF
