:020000040800F2
:105000000028002021AA00085983000865830008B1
:105010006D830008758300087D8300080000000090
:105020000000000000000000000000007D540008A7
:1050300085830008000000005555000891550008C0
:1050400065AA000865AA000865AA000865AA000804
:1050500065AA000865AA000865AA000865AA0008F4
:1050600065AA000865AA000865AA000865AA0008E4
:1050700065AA000865AA000865AA000865AA0008D4
:1050800065AA000865AA000865AA000865AA0008C4
:105090009982000865AA000865AA000865AA0008A8
:1050A00065AA000865AA000865AA000865AA0008A4
:1050B00065AA000865AA000865AA000865AA000894
:1050C00065AA000865AA000865AA000865AA000884
:1050D00065AA000865AA000865AA000865AA000874
:1050E00065AA000865AA000865AA0008000000007B
:1050F00000000000000000000000000000000000B0
:0C51000000000000000000005FF808F153
:10510C0040F20013C2F200031A780AB90120187099
:10511C00704700BF40F20010C2F2000008B50368EF
:10512C002BB140F20003C0F2000303B1984708BD55
:10513C00032A70B404460D4626D941EA000313F045
:10514C00030F13D020782B78984208BF294606D03D
:10515C001EE014F8010F11F8013F984218D1012AF2
:10516C0002F1FF32F5D1002070BC70470B460446AB
:10517C0051F8045B50F8046BAE4204D1043A044677
:10518C00032A0B46F2D81D461046002ADAD1EBE76B
:10519C00C01AE9E7032A2DE9F00109D82AB1002346
:1051AC00CC5CC45401339342FAD1BDE8F001704792
:1051BC000B468218014603E02478013301F8014BB9
:1051CC0011F0030F1C46F7D113F003055DD06E42AE
:1051DC00C5F1040CED009B594FEACC0C08E00434EB
:1051EC00A7593B4607FA0CF748EA070741F8047B36
:1051FC00571A23FA05F8032FF1DC03E014F8013BEE
:10520C0001F8013B8A42F9D8CFE753F8404C41F8FA
:10521C00404C53F83C4C41F83C4C53F8384C41F85A
:10522C00384C53F8344C41F8344C53F8304C41F86A
:10523C00304C53F82C4C41F82C4C53F8284C41F87A
:10524C00284C53F8244C41F8244C53F8204C41F88A
:10525C00204C53F81C4C41F81C4C53F8184C41F89A
:10526C00184C53F8144C41F8144C53F8104C41F8AA
:10527C00104C53F80C4C41F80C4C53F8084C41F8BA
:10528C00084C53F8044C41F8044C561A1D460C4675
:10529C00403340313F2EB8DC2B460FE053F8101C46
:1052AC0044F8101C53F80C1C44F80C1C53F8081C44
:1052BC0044F8081C53F8041C44F8041C161B214623
:1052CC001D46103410330F2EE8DC2B4602E0246808
:1052DC0041F8044B551A1C46032D03F10403F6DC6C
:1052EC0090E700BF032AC9B270B408D82AB10346AC
:1052FC00121803F8011B9342FBD170BC7047821843
:10530C00044601E004F8011B14F0030FFAD14FF02E
:10531C00013303FB01F31FE044F8403C44F83C3CF0
:10532C0044F8383C44F8343C44F8303C44F82C3CC9
:10533C0044F8283C44F8243C44F8203C44F81C3CF9
:10534C0044F8183C44F8143C44F8103C44F80C3C29
:10535C0044F8083C44F8043C161B254640343F2EC8
:10536C00DADC2C4607E044F8103C44F80C3C44F8DA
:10537C00083C44F8043C161B254610340F2EF2DC76
:10538C0001E045F8043B541B032CFADC01E005F862
:10539C00011B9542FBD3B0E741EA000313F0030F66
:1053AC000B4670B414BF00240124032A94BF0024BC
:1053BC0004F001040546D4B9BAB10E782B46013A73
:1053CC0003F8016B56B1AC1C7AB111F8015F23469E
:1053DC00013A04F8015C0134002DF5D12AB19A1878
:1053EC00002103F8011B9342FBD170BC7047194696
:1053FC0053F8044BA4F1013626EA040616F0803F5C
:10540C00DAD1043A45F8044B032A1946EFD8D3E70E
:10541C0080B485B000AFF860B9607A60FB68A3F126
:10542C000403FB60FB684FF080721A60FB68A3F109
:10543C000403FB60BA68FB681A60FB68A3F1040301
:10544C00FB60FB684FF000021A60FB68A3F11403C9
:10545C00FB607A68FB681A60FB68A3F12003FB60B1
:10546C00FB68184607F11407BD4680BC704700BFA7
:10547C00064B19680868B0E8F00F80F309884FF004
:10548C00000080F311884EF00D0E7047400600208E
:10549C0003480068006880F3088862B600DF00BF2C
:1054AC0008ED00E080B500AF0B4B0B4A126842F4DC
:1054BC0070021A60084B084A126842F070421A6077
:1054CC0000F07AF8054B4FF000021A60FFF7E0FF8E
:1054DC004FF00003184680BD20ED00E000000020D6
:1054EC0080B400AF034B4FF080521A60BD4680BCB5
:1054FC00704700BF04ED00E080B400AF4FF05000E7
:10550C0080F31188044B1B6803F10102024B1A60F3
:10551C00BD4680BC704700BF0000002080B400AFC7
:10552C00084B1B6803F1FF32064B1A60054B1B68D6
:10553C00002B03D14FF0000080F31188BD4680BCD6
:10554C00704700BF00000020EFF309800C4B1A6875
:10555C0020E9F00F10602DE908404FF0500080F367
:10556C00118802F0FBFC4FF0000080F31188BDE8BD
:10557C00084019680868B0E8F00F80F30988704794
:10558C004006002080B582B000AF0A4B4FF080522D
:10559C001A604FF000037B604FF0500080F31188CD
:1055AC0002F032FC4FF0000080F3118807F108077D
:1055BC00BD4680BD04ED00E080B400AF054B4BF65A
:1055CC007F321A60044B4FF007021A60BD4680BC54
:1055DC00704700BF14E000E010E000E080B584B03C
:1055EC0000AF78604FF00003FB607B6803F00703AB
:1055FC00002B05D07B6823F0070303F108037B60C5
:10560C0002F050FB134B1A687B68D21840F2FF3340
:10561C009A4212D80F4B1A687B68D2180D4B1B6834
:10562C009A420AD90B4B1A680B4BD318FB60094BE7
:10563C001A687B68D218074B1A6002F041FBFB68B2
:10564C00002B01D102F064FEFB68184607F110072D
:10565C00BD4680BD080500200801002080B483B041
:10566C0000AF786007F10C07BD4680BC704700BFE7
:10567C0080B483B000AF0346FB71044BFA791A7007
:10568C0007F10C07BD4680BC704700BF0C0500201D
:10569C0090B587B002AF786039607B689B8EEC2B3D
:1056AC0000F09181EC2B0DDC5C2B42D05C2B02DCEE
:1056BC00002B1DD041E2B22B00F0C780B32B00F0C1
:1056CC00DC803AE2F72B00F0D481F72B06DCED2BD3
:1056DC0000F09081F62B00F0B5812EE2B3F5857FBA
:1056EC0000F0FF8140F20B12934200F0148224E28E
:1056FC00884B1B78002B0DD1864B4FF0FF021A7094
:10570C0000F034FD0246844B1A6000F025FD024681
:10571C00824B1A60824B4FF000021A704FF001005E
:10572C004FF0000101F0DCFC7B684FF05C029A86C4
:10573C0003E27C4B4FF000021A70794B1B78012B63
:10574C000BD1794B40F2D2421A80774A774B1A60D0
:10575C00744B4FF002021A70A4E1714B1B78022BB0
:10576C000CD16D4B1B681A786B4B1B6803F1010352
:10577C001B781046194600F021FE93E1684B1B780C
:10578C00032B12D1644B1B681978634B1B6803F114
:10579C0001031A88604B1B6803F103031B7808464E
:1057AC0011461A4600F042FE7CE15D4B1B78042B3F
:1057BC0012D1594B1B681978574B1B6803F1010325
:1057CC001A88554B1B6803F103031B8808461146C6
:1057DC001A4600F04BFE65E1514B1B78052B11D19D
:1057EC004D4B1B681B78184600F068FE03461A46A2
:1057FC004D4B1A804C4A4D4B1A604A4B4FF00202EB
:10580C001A704FE1464B1B780A2B3BD1424B1B685D
:10581C001B78184600F07CFE0346FB733F4B1A685E
:10582C0007F10F03104619464FF0000201F0DCFFA0
:10583C0002463F4B1A603E4B1B6813F1040F11D10B
:10584C007B684FF0B2029A8677E1344B1A6807F105
:10585C000F03104619464FF0000201F0C5FF024637
:10586C00334B1A60324B1B6813F1050F40F01A8151
:10587C007B684FF0B3029A865FE12D4B4FF001022B
:10588C001A600FE1264B1B780B2B0CD1224B1B689B
:10589C001A78214B1B6803F101031B78104619463B
:1058AC0000F09AFEFEE01E4B1B780C2B14D11A4B09
:1058BC001B681878184B1B6803F101031978164BF9
:1058CC001B6803F102031A78134B1B6803F10303E3
:1058DC001B6800F013FFE5E0114B1B780D2B29D151
:1058EC000D4B1B6818780C4B1B6803F101031978DE
:1058FC00094B1B6803F102031A78074B1B6803F171
:10590C0003031B78044C246804F10404009400F095
:10591C0085FFC7E00D0500201005002014050020B0
:10592C000C050020180500201A0500201C0500207D
:10593C0020050020834B1B780E2B10D1824B1B684B
:10594C0003F101031A78814B1A707F4B1B681B788B
:10595C00184600F04BFF02467D4B1A60A2E0794BD3
:10596C001B780F2B0CD1784B1B681A78764B1B6865
:10597C0003F101031B681046194600F007FF91E084
:10598C00704B1B78102B3AD16F4B1B681B78184649
:10599C0000F084FF0346BB736E4B1A6807F10E03CD
:1059AC00104619464FF0000201F01EFF02466A4BEA
:1059BC001A60694B1B6813F1040F11D17B684FF00F
:1059CC00EC029A86B9E0634B1A6807F10E03104695
:1059DC0019464FF0000201F007FF02465E4B1A60B9
:1059EC005D4B1B6813F1050F5CD17B684FF0ED022A
:1059FC009A86A2E0584B4FF001021A6052E0514BCC
:105A0C001B78112B3AD1504B1B681B78184600F0B1
:105A1C0057FF03467B734F4B1A6807F10D03104673
:105A2C0019464FF0000201F0DFFE02464A4B1A60A5
:105A3C00494B1B6813F1040F11D17B684FF0F60230
:105A4C009A867AE0434B1A6807F10D031046194603
:105A5C004FF0000201F0C8FE02463F4B1A603E4B6D
:105A6C001B6813F1050F1DD17B684FF0F7029A8666
:105A7C0063E0394B4FF001021A6013E0314B1B7895
:105A8C00122B0FD1304B1B681B78184600F096FE7A
:105A9C0002462F4B1A602C4B1B6803F101031A783A
:105AAC002A4B1A702D4B4FF000021A703EE0294B16
:105ABC001A68274B1968294B1B78CB1810461946C6
:105ACC004FF0000201F090FE0246234B1A60224B6D
:105ADC001B6813F1040F14D17B684FF485729A86FE
:105AEC002BE01C4B1A681A4B19681C4B1B78CB18F3
:105AFC00104619464FF0000201F076FE0246164B96
:105B0C001A60154B1B6813F1050F08D17B6840F226
:105B1C000B129A8611E0104B4FF001021A600F4BDA
:105B2C001B7803F10103DAB20C4B1A700B4B1A7889
:105B3C00064B1B789A42BAD3DAE507F11407BD4637
:105B4C0090BD00BF0C05002010050020180500209A
:105B5C001C05002014050020200500202405002031
:105B6C0080B584B000AF786039607B689B8EB3F5EC
:105B7C00947F00F03A81B3F5947F0DDCB22B60D0AA
:105B8C00B22B02DC002B20D0B1E2D82B00F09D8090
:105B9C00FA2B00F0DB80AAE2B3F5C97F00F0078294
:105BAC00B3F5C97F08DCB3F5A47F00F06A81B3F5C7
:105BBC00B97F00F0BB819AE2B3F5DD7F00F0438240
:105BCC00B3F5FA7F40F0938200BF3B68DBB2184616
:105BDC0000F08AFCF860FB689B78002B00F0718267
:105BEC00FB681B78002B04D1FB685B78002B00F062
:105BFC006C82FB684FF00202DA70FB684FF0000217
:105C0C005A6124E0FB685B69FA681269934294BF9D
:105C1C0000220122D2B203F10101FB685961002A72
:105C2C0004D0FB684FF00302DA704EE24FF0010033
:105C3C004FF0000101F054FA7B684FF0B2029A86E3
:105C4C0055E23B68DBB2184600F04EFCF860FB688E
:105C5C005B6818464FF4003102F0E4FF0346002B5A
:105C6C00D0D1FB681B78002B00F01A81FB685B68B5
:105C7C0018464FF0010102F001FFFB684FF00402DF
:105C8C00DA70FB684FF000025A6124E0FB685B6934
:105C9C00FA681269934294BF00220122D2B203F136
:105CAC000101FB685961002A04D0FB684FF0050222
:105CBC00DA700AE24FF001004FF0000101F010FA27
:105CCC007B684FF0D8029A8611E23B68DBB218462B
:105CDC0000F00AFCF860FB685B6818468E4902F01D
:105CEC0069FF0346002BD1D0FB685A68FB685B7ACE
:105CFC00104619464FF0000202F03EFFFB684FF0D1
:105D0C000602DA70FB684FF000025A6124E0FB686F
:105D1C005B69FA681269934294BF00220122D2B2E5
:105D2C0003F10101FB685961002A04D0FB684FF0B4
:105D3C000702DA70C9E14FF001004FF0000101F0E9
:105D4C00CFF97B684FF0FA029A86D0E13B68DBB260
:105D5C00184600F0C9FBF860FB685B6818466F4991
:105D6C0002F028FF0346002BD1D06D4B4FF0000200
:105D7C001A7058E03B68DBB2184600F0B5FBF860CF
:105D8C00674B1B78FA68D3181B7EFB72FB685A684A
:105D9C00FB7A1046194602F0D1FEFB684FF0080260
:105DAC00DA70FB684FF000025A6124E0FB685B6913
:105DBC00FA681269934294BF00220122D2B203F115
:105DCC000101FB685961002A04D0FB684FF00902FD
:105DDC00DA707AE14FF001004FF0000101F080F928
:105DEC007B684FF494729A8681E13B68DBB218466B
:105DFC0000F07AFBF860FB685B681846494902F0D2
:105E0C00D9FE0346002BD1D0454B1B7803F101037F
:105E1C00DAB2FB6883F89820414B1B7803F101033D
:105E2C00DAB23F4B1A70FB681A783D4B1B789A42DA
:105E3C00A0D8FB684FF00A02DA70FB684FF0000242
:105E4C005A6124E0FB685B69FA681269934294BF5B
:105E5C0000220122D2B203F10101FB685961002A30
:105E6C0004D0FB684FF00B02DA702EE14FF001000A
:105E7C004FF0000101F034F97B684FF4A4729A865C
:105E8C0035E13B68DBB2184600F02EFBF860FB688E
:105E9C005B681846244902F0C5FE0346002BD1D09E
:105EAC00FB685B78002B00F00081FB685B68184690
:105EBC004FF0010102F022FEFB685B6818464FF0C0
:105ECC00010102F0DBFDFB684FF00C02DA70FB689D
:105EDC004FF000025A612FE0FB685B69FA681269A7
:105EEC00934294BF00220122D2B203F10101FB685C
:105EFC005961002A04D0FB684FF00D02DA70E4E01F
:105F0C004FF001004FF0000101F0EAF87B684FF40C
:105F1C00B9729A86EBE000BF010003008200070013
:105F2C002505002084000700040000103B68DBB24C
:105F3C00184600F0D9FAF860FB685B6818466E49A1
:105F4C0002F038FE0346002BC6D0FB685A68FB688B
:105F5C005B7A104619464FF0010202F00DFEFB6809
:105F6C004FF00E02DA70FB684FF000025A6124E029
:105F7C00FB685B69FA681269934294BF00220122A4
:105F8C00D2B203F10101FB685961002A04D0FB680D
:105F9C004FF00F02DA7098E04FF001004FF0000163
:105FAC0001F09EF87B684FF4C9729A869FE03B68BB
:105FBC00DBB2184600F098FAF860FB685B6818468C
:105FCC004E4902F0F7FD0346002BD1D04C4B4FF05D
:105FDC0000021A7063E04A4B1B781A46FB685B7828
:105FEC0003F1FF339A4206D1FB685B6818464FF009
:105FFC00000102F083FDFB684FF01002DA70FB68C1
:10600C004FF000025A6124E0FB685B69FA68126980
:10601C00934294BF00220122D2B203F10101FB682A
:10602C005961002A04D0FB684FF01102DA704CE081
:10603C004FF001004FF0000101F052F87B684FF473
:10604C00DD729A8653E03B68DBB2184600F04CFADE
:10605C00F860FB685B6818462A4902F0ABFD034602
:10606C00002BD1D0FB685B68184602F077FD034625
:10607C00BB72234B1B78FA68D318BA7A83F8582072
:10608C001F4B1B7803F10103DAB2FB6883F89920EC
:10609C001B4B1B7803F10103DAB2194B1A70FB6826
:1060AC005A78174B1B789A4295D8FB685B68184650
:1060BC004FF0010102F002FDFB684FF00002DA70B4
:1060CC0003E0FB684FF00002DA70FB684FF000024F
:1060DC001A70FB684FF000025A704FF001004FF03D
:1060EC00000100F0FDFF7B684FF4FA729A8607F10D
:1060FC001007BD4680BD00BF010003000200030075
:10610C00250500204000030080B500AF4FF0400093
:10611C004FF001014FF0000201F07AFA0246074BF2
:10612C001A604FF040004FF001014FF0000201F0F7
:10613C006FFA0246024B1A6080BD00BF2C0700208C
:10614C002807002080B400AF024B1B681846BD46E0
:10615C0080BC70472C07002080B400AF024B1B683A
:10616C001846BD4680BC70472807002080B400AF9D
:10617C00024B1846BD4680BC704700BF1807002074
:10618C0080B582B000AF786039606A4B1B78002B09
:10619C000BD1FFF7B9FF00F0A5FB00F0B1FB03F04A
:1061AC00FBFE644B4FF001021A707B689B8EB3F5BB
:1061BC00997F23D0B3F5997F02DC002B09D0B5E091
:1061CC0040F2331293422ED0B3F5CC7F40F0AE8028
:1061DC0000BF594B1B68184658494FF0000201F09C
:1061EC0061FB0246564B1A60554B1B6813F1040FAA
:1061FC000FD17B684FF499729A8697E04E4B1B68CF
:10620C0018464E494FF0000201F04CFB02464C4B35
:10621C001A604B4B1B6813F1050F08D17B6840F2D9
:10622C0033129A8682E0464B4FF001021A60444BBF
:10623C001B68012B57D1434B1B78032B67D801A24A
:10624C0052F823F0616200088D6200089F6200081A
:10625C00D76200083C4B4FF032021A60374B1B7868
:10626C00002B04D1374B4FF001021A7054E0334B22
:10627C001B78012B4DD1334B4FF003021A704BE0BE
:10628C002E4B1A78314B1A702E4B4FF002021A70AB
:10629C0042E02F4B1B781A46284908782D49885420
:1062AC0003F10103DAB22A4B1A70284B1B7803F165
:1062BC00FF33DAB2254B1A70244B1B78002B2AD1F2
:1062CC00204B4FF000021A7026E01C4B1B7818462E
:1062DC00FFF7CEF91B4B4FF000021A701C4B4FF01E
:1062EC0000021A7018E0184B1B68002B06D0164BD6
:1062FC001B6803F1FF32144B1A600DE0114B4FF089
:10630C0000021A70124B4FF000021A7004E000BF2A
:10631C0002E000BF00E000BF4FF001004FF00001B1
:10632C0000F0DEFE7B684FF4CC729A8607F108070A
:10633C00BD4680BD260500202C0700202705002027
:10634C00280500202C0500203005002034050020F5
:10635C00350500201807002080B485B000AF034637
:10636C00FB71FB79032B17D801A252F823F000BF65
:10637C008D63000893630008996300089F6300080D
:10638C000A4BFB600BE00A4BFB6008E0094BFB601F
:10639C0005E0094BFB6002E0044BFB6000BFFB68AF
:1063AC00184607F11407BD4680BC70470008014031
:1063BC00000C0140001001400014014080B584B075
:1063CC0000AF02460B46FA71BB71FB79032B1BD84D
:1063DC0001A252F823F000BFF5630008FD6300082A
:1063EC00056400080D6400084FF00403FB600FE027
:1063FC004FF00803FB600BE04FF01003FB6007E06D
:10640C004FF02003FB6003E04FF00403FB6000BF80
:10641C00BB79002B0CBF00230123DBB2F8681946B3
:10642C0002F00AFD07F11007BD4680BD80B584B0AF
:10643C0000AF13460246FA710A46BA80FB70BB885D
:10644C003B81FB78FB724FF00103BB72FB79184662
:10645C00FFF782FFF86007F10803F868194602F0AD
:10646C00E3F807F11007BD4680BD00BF80B584B0CE
:10647C0000AF13460246FA710A46BA807B80FB795C
:10648C001846FFF769FFF8607A88BB8802EA0303B5
:10649C009BB2F868194602F0B5F97B886FEA0303E2
:1064AC009AB2BB8802EA03039BB29BB2F868194606
:1064BC0002F0B6F907F11007BD4680BD80B584B077
:1064CC0000AF0346FB71FB791846FFF745FFF860F8
:1064DC00F86802F089F903467B817B89184607F13D
:1064EC001007BD4680BD00BF80B483B000AF03462B
:1064FC00FB71FB794FF09C0202FB03F2034BD318A8
:10650C00184607F10C07BD4680BC704730070020C9
:10651C0080B485B000AF0346FB71FB794FF09C0251
:10652C0002FB03F2054BD318FB60FB68DB781846C3
:10653C0007F11407BD4680BC704700BF3007002030
:10654C0080B485B000AF0346FB71FB794FF09C0221
:10655C0002FB03F21C4BD318FB60FB684FF00002EC
:10656C001A70FB684FF000025A70FB684FF0010282
:10657C009A70FB684FF00002DA70FB79002B01D1A6
:10658C00124B00E0124BFA685360FB684FF00002AC
:10659C001A72FB684FF000025A72FB680D4ADA60FF
:1065AC00FB684FF010021A61FB684FF0000283F891
:1065BC009820FB684FF0000283F8992007F114072C
:1065CC00BD4680BC704700BF30070020005400401F
:1065DC0000580040A086010080B58AB000AF02468A
:1065EC000B46FA71BB71FB794FF09C0202FB03F274
:1065FC00404BD3187B62FB79002B02D14FF4001374
:10660C0001E04FF480033B62FB79002B02D14FF089
:10661C00400301E04FF48063FB83FB79002B02D134
:10662C004FF0800301E04FF40063BB83BB79002B78
:10663C004AD0386A4FF0010102F020FC4FF00900FB
:10664C004FF0010102F0F8FBFA8BBB8B42EA03031B
:10665C009BB23B834FF00303BB764FF01C03FB76DE
:10666C0007F118032448194601F0DEFF7B6A5B68CA
:10667C00184602F0E3F84FF00003BB814FF480435F
:10668C00FB817B6A1B7A3B824FF480637B824FF4E5
:10669C008043BB827B6ADB68BB607B6A5B681846A5
:1066AC004FF0010102F0CAF97B6A5A6807F108033E
:1066BC001046194602F0EAF87B6A5B6818464FF000
:1066CC00010102F01BFA10E07B6A5B68184602F0CD
:1066DC00B5F87B6A5B6818464FF0000102F0AEF922
:1066EC00386A4FF0000102F0C9FB07F12807BD46DC
:1066FC0080BD00BF30070020000C014080B588B081
:10670C0000AF3B600346FB710B46BB7113467B71BC
:10671C00FB794FF09C0202FB03F21B4BD318FB617D
:10672C00FB69BA799A70FB697A791A72FB693A68D3
:10673C00DA60FB695B68184602F080F84FF00003E2
:10674C003B824FF480437B82FB691B7ABB824FF404
:10675C008063FB824FF480433B83FB69DB68FB6007
:10676C00FB695A6807F10C031046194602F08EF8C3
:10677C00FB695B6818464FF0010102F0BFF907F1A5
:10678C002007BD4680BD00BF3007002080B485B017
:10679C0000AF03463960FB71FB794FF09C0202FBA2
:1067AC0003F2054BD318FB60FB683A681A6107F1DA
:1067BC001407BD4680BC70473007002080B485B0FC
:1067CC0000AF0346FB71FB794FF09C0202FB03F216
:1067DC00054BD318FB60FB6803F11803184607F14F
:1067EC001407BD4680BC70473007002080B485B0CC
:1067FC0000AF0346FB71FB794FF09C0202FB03F2E6
:10680C00054BD318FB60FB6803F15803184607F1DE
:10681C001407BD4680BC70473007002080B586B099
:10682C0000AFF871B9717A713B71FB791846FFF7BB
:10683C005BFE3861FB791846FFF7C0FFF8604FF03C
:10684C000003FB750BE0FB7DFA68D318FA7D396AFF
:10685C008A1812781A70FB7D03F10103FB75FA7D1F
:10686C007B799A42EFD33B69BA795A723B697A7950
:10687C001A703B693A795A703B694FF00102DA7031
:10688C003B694FF0000283F898203B694FF00002FF
:10689C0083F8992007F11807BD4680BD80B584B0F8
:1068AC0000AF0346FB71FB791846FFF71DFEF8603D
:1068BC00FB6893F89830184607F11007BD4680BD69
:1068CC0080B584B000AF0346FB71FB791846FFF727
:1068DC000BFEF860FB6893F89930184607F1100727
:1068EC00BD4680BD80B500AF4FF0010002F0D8F975
:1068FC004FF400004FF0010102F0C0FA80BD00BF60
:10690C0080B582B000AF4FF4407001F0F9FD4FF04C
:10691C0014033B714FF010037B714FF01003BB71EC
:10692C004FF00103FB7107F10403184601F0FAFD67
:10693C0007F10807BD4680BD80B483B000AF0346A5
:10694C00FB7107F10C07BD4680BC704780B584B065
:10695C0000AF104B1B68FB600F4B1B68BB600F4BF1
:10696C001B687B60FA687B68D318FB60FB68002BA4
:10697C000BD0F8680A494FF0080200F015F8B86817
:10698C0008494FF0040200F00FF807F11007BD465C
:10699C0080BD00BFE8F7FF1FECF7FF1FF0F7FF1FEC
:1069AC00060000201600002080B487B000AFF8600D
:1069BC00B9601346FB714FF00003FB754FF00003F9
:1069CC00FB7531E0FB684FEA1373092B0DD8FB7D87
:1069DC004FEA4303BA68D318FA684FEA1272D2B27C
:1069EC0002F13002D2B21A700CE0FB7D4FEA430385
:1069FC00BA68D318FA684FEA1272D2B202F13702AF
:106A0C00D2B21A70FB684FEA0313FB60FB7D4FEAAE
:106A1C00430303F10103BA68D3184FF000021A7054
:106A2C00FB7D03F10103FB75FA7DFB799A42C9D317
:106A3C0007F11C07BD4680BC704700BF80B400AF97
:106A4C00BD4680BC704700BF80B584B000AF4FF02E
:106A5C000300154903F0B6FF0346FB80FB88002BAF
:106A6C001AD0FFF76FFB38604FF00003BB604FF09C
:106A7C000003FB810CE0FA890B4BD31838681946DC
:106A8C00BA6800F083FFB860FB8903F10103FB8156
:106A9C00FA89FB889A42EED34FF0030003F092FD83
:106AAC0007F11007BD4680BD7805002080B584B085
:106ABC0000AF1C4B1B68052B30D1FFF74DFBB860AA
:106ACC004FF000037B604FF00003FB7303E0FB7B94
:106ADC0003F10103FB73FA7B134BD21807F1040388
:106AEC00B86811461A4600F07DFF0346012BEED024
:106AFC00FB7B002B12D0FB7B9BB20B484FF0C001F1
:106B0C001A4603F007FCFB7B9BB24FF001001946C1
:106B1C0003F098FE4FF0010003F028FD07F1100779
:106B2C00BD4680BDBC0500203805002080B500AFF7
:106B3C001E4B1B689AB21E4B1A801D4B1B889BB2B6
:106B4C0003F400721B4B1B8802EA0303002B0DD0CD
:106B5C00164B4FF6FF521A60174B1B78DBB203F142
:106B6C000103DAB2144B1A70FFF7A0FF104B1B880D
:106B7C009BB203F400420F4B1B8802EA0303002B69
:106B8C0001D003F02BFA0A4B1B889BB203F48062F2
:106B9C00084B1B8802EA0303002B06D0034B4FF66D
:106BAC00FF321A60054B5B68984780BD445C00401F
:106BBC0068080020A0080020B80500206400002010
:106BCC0080B500AFFFF7C2FE064B1B684FF000020A
:106BDC009A7200F0E5F903F0DBFE034B4FF0000274
:106BEC001A6080BD9C080020BC05002080B500AF59
:106BFC00484B1B684FF000029A72464B1B68464A82
:106C0C00D2795A72434B1B684FF00002DA724FF084
:106C1C00000003F0FBFB4FF000004FF4007103F099
:106C2C0009FC4FF000004FF0100103F02BFC4FF06B
:106C3C0000004FF0400103F0A5FD4FF000004FF0B5
:106C4C00800103F07BFD4FF0000003F0E7FC334BB9
:106C5C0093F82C304FF00000194603F011FE4FF062
:106C6C00000003F0AFFC4FF001004FF0000103F007
:106C7C00E1FB4FF001004FF0C00103F05FFD4FF05E
:106C8C0001004FF0200103F0FDFB4FF001004FF02D
:106C9C00000103F031FC4FF002004FF4C06103F02F
:106CAC00C9FB4FF002004FF4807103F047FD4FF029
:106CBC0002004FF0000103F01FFC4FF002004FF0F8
:106CCC00200103F0DFFB4FF003004FF0000103F055
:106CDC00B1FB4FF003004FF4887103F053FD4FF0FC
:106CEC0003004FF0400103F0CBFD4FF003004FF4D5
:106CFC00405103F001FC4FF003004FF0000103F092
:106D0C00C1FB4FF0000003F0FFF8054B4FF0010200
:106D1C001A6080BD9C08002084AA00086400002032
:106D2C00BC05002080B483B000AF074B7B607B6850
:106D3C009B7A002B03D0054B4FF005021A6007F12C
:106D4C000C07BD4680BC70477C080020BC050020A9
:106D5C0080B400AF034B4FF004021A60BD4680BCF8
:106D6C00704700BFBC05002080B400AF054B1B78FA
:106D7C00202B03D1034B4FF000021A70BD4680BC90
:106D8C00704700BFB905002080B400AFBD4680BC81
:106D9C00704700BF80B584B000AF0346FB714FF065
:106DAC000003FB60FB79212B09D11A4B1B681B7864
:106DBC0003F07F03212B12D1174BFB600FE0FB7903
:106DCC00202B0CD1134B1B681B7803F07F03212B5A
:106DDC0001D1124BFB60124B4FF020021A70FB6872
:106DEC00002B02D14FF002030EE00A4B1B68FA682D
:106DFC009A61084B1B684FF000025A82FB684FF0F7
:106E0C00000098474FF00003184607F11007BD46E5
:106E1C0080BD00BF9C0800203D6F0008756F000806
:106E2C00B905002080B483B000AF0346FB710D4B55
:106E3C001B681B7803F07F03212B0BD1FB79022BF2
:106E4C0002D14FF0000307E0FB79222B02D14FF067
:106E5C00000301E04FF00203184607F10C07BD4692
:106E6C0080BC70479C08002080B582B000AF034600
:106E7C00FB80FB881846044902F04AFB034618467F
:106E8C0007F10807BD4680BDB800002080B582B070
:106E9C0000AF0346FB80FB881846044902F038FB20
:106EAC000346184607F10807BD4680BDC000002008
:106EBC0080B584B000AF0346FB800D4B1B68DB78BC
:106ECC00FB73FB7B042B02D94FF000030AE0FB7B26
:106EDC004FEAC302074BD318FA881046194602F042
:106EEC0017FB0346184607F11007BD4680BD00BFCF
:106EFC009C080020C800002080B483B000AF02467C
:106F0C000B46FA71BB71BB79002B02D04FF0020318
:106F1C0007E0FB79012B02D94FF0020301E04FF09F
:106F2C000003184607F10C07BD4680BC704700BF34
:106F3C0080B483B000AF0346FB80FB88002B07D1E5
:106F4C00074B1B684FF008021A824FF0000300E059
:106F5C00044B184607F10C07BD4680BC704700BFB8
:106F6C009C0800205800002080B483B000AF03467A
:106F7C00FB80FB88002B07D1074B1B684FF00802E6
:106F8C001A824FF0000300E0044B184607F10C077F
:106F9C00BD4680BC704700BF9C08002058000020F4
:106FAC0080B582B000AF4FF00100FFF7C5FC4FF089
:106FBC000103FB800E4BFA881A600E4B4FF0000257
:106FCC001A800B4B0B4A12881A600B4B4FF00002C5
:106FDC001A60084B4FF4E0521A80054B054A128890
:106FEC001A604FF00003184607F10807BD4680BD34
:106FFC00405C0040A0080020445C004080B586B096
:10700C0000AFF860B9607A604FF03800FEF7E6FA2E
:10701C0003463B613B69002B52D02E4B1B68002B67
:10702C0004D12C4B3A691A6000F0CCF9BB68012BE7
:10703C0002D94FF00103BB603B694FF000029A8606
:10704C003B69BA68DA623B697A681A633B69FA6829
:10705C001A603B6903F10403184600F03FFA3B69E0
:10706C0003F11803184600F039FA3B693A691A61C2
:10707C003B693A695A62BB68C3F105023B699A6184
:10708C003B69DA6A144B1B689A4203D93B69DA6A8A
:10709C00114B1A603B69DA6A13464FEA83039B185B
:1070AC004FEA83031A460D4BD2183B6903F10403D4
:1070BC001046194600F020FA4FF001037B6102E004
:1070CC004FF0FF337B617B69184607F11807BD460B
:1070DC0080BD00BF2C06002030060020C00500201B
:1070EC0080B584B000AF786039601C4B1A687B683F
:1070FC00D318FB601A4B1B6803F10403184600F00D
:10710C005DFA174B1B68FA685A60144B1B68FA68D7
:10711C009A420AD2134B1A68114B1B6803F10403F1
:10712C001046194600F010FA09E00F4B1A680C4B88
:10713C001B6803F104031046194600F005FA3B687E
:10714C00002B07D0064B1B6803F11803386819464F
:10715C0000F0FAF907F11007BD4680BD3406002097
:10716C002C060020140600201006002080B582B0EA
:10717C0000AF33E04FF0500080F311881B4BDB68FD
:10718C00DB687B607B6803F11803184600F016FA85
:10719C004FF0000080F311887B6803F1040318465C
:1071AC0000F00CFA7B68DA6A114B1B689A4203D91F
:1071BC007B68DA6A0E4B1A607B68DA6A13464FEA10
:1071CC0083039B184FEA83031A460A4BD2187B6839
:1071DC0003F104031046194600F08EF9034B1B68AB
:1071EC00002BC7D107F10807BD4680BD180600204B
:1071FC0030060020C005002080B582B000AF00F042
:10720C00F1FD02463A4B1B68D21A3A4B1A6062E007
:10721C00394B1B6803F10102374B1A60354B1B6865
:10722C0003F1FF32334B1A60334B1B68002B4AD1EE
:10723C00324B1B687B60324B1A68304B1A60304BF8
:10724C007A681A6040E02D4B1B68DB68DB683B609A
:10725C003B685A68284B1B689A423BD84FF0500049
:10726C0080F311883B6803F10403184600F0A6F97B
:10727C003B689B6A002B05D03B6803F1180318464A
:10728C0000F09CF94FF0000080F311883B68DA6A3B
:10729C001C4B1B689A4203D93B68DA6A194B1A607B
:1072AC003B68DA6A13464FEA83039B184FEA830361
:1072BC001A46154BD2183B6803F1040310461946C5
:1072CC0000F01AF900E000BF0C4B1B681B68002B88
:1072DC00B9D100E000BF074B1B68002B98D1064BBF
:1072EC001A68034B1A6007F10807BD4680BD00BF42
:1072FC00380600203C060020340600201006002032
:10730C001406002030060020C005002080B582B095
:10731C0000AFFFF72BFFFFF76FFF09E0264B1B6851
:10732C00002B43D0244B1B6803F1FF32224B1A6015
:10733C00214B1A6813464FEA83039B184FEA8303C9
:10734C001A461E4BD3181B68002BE7D01A4B1A6831
:10735C0013464FEA83039B184FEA83031A46174BD5
:10736C00D3187B607B685B685A687B685A607B6863
:10737C005A687B6803F108039A4204D17B685B6806
:10738C005A687B685A607B685B68DB681A460C4BF2
:10739C001A600B4B1B681B68094A1168084A126873
:1073AC00126B08461146984700BF00E000BF07F17A
:1073BC000807BD4680BD00BF30060020C005002078
:1073CC002C06002080B582B000AF4FF000037B602C
:1073DC0010E07A6813464FEA83039B184FEA830345
:1073EC001A460F4BD318184600F054F87B6803F17B
:1073FC0001037B607B68012BEBD90A4800F04AF84B
:10740C00094800F047F8094800F044F8084B054AD1
:10741C001A60084B044A1A6007F10807BD4680BD84
:10742C00C0050020E8050020FC05002018060020FF
:10743C00100600201406002080B584B000AF7860E0
:10744C007B68DB68DB68BB60BB6803F1180318461C
:10745C0000F0B4F8BB6803F118030C48194600F0AF
:10746C004BF8BB68DA6A0A4B1B68DB6A9A4203D397
:10747C004FF00103FB6002E04FF00003FB60FB6880
:10748C00184607F11007BD4680BD00BF1806002046
:10749C002C06002080B483B000AF78607B6803F1C9
:1074AC0008031A467B685A607B684FF0FF329A607B
:1074BC007B6803F108031A467B68DA607B6803F18A
:1074CC0008031A467B681A617B684FF000021A6049
:1074DC0007F10C07BD4680BC704700BF80B483B079
:1074EC0000AF78607B684FF000021A6107F10C075F
:1074FC00BD4680BC704700BF80B485B000AF7860DB
:10750C0039607B685B68FB60FB685A683B685A6053
:10751C007B685A683B689A60FB685B683A689A605B
:10752C003A68FB685A603A687B685A603B687A68CC
:10753C001A617B681B6803F101027B681A6007F112
:10754C001407BD4680BC704780B485B000AF78602E
:10755C0039603B681B68BB60BB68B3F1FF3F03D16C
:10756C007B681B69FB600DE07B6803F10803FB6023
:10757C0002E0FB685B68FB60FB685B681A68BB68D1
:10758C009A42F6D9FB685A683B685A603B685B685C
:10759C003A689A603B68FA689A603A68FB685A6085
:1075AC003B687A681A617B681B6803F101027B688F
:1075BC001A6007F11407BD4680BC704780B485B0D3
:1075CC0000AF78607B685B687A6892689A607B68C9
:1075DC009B687A6852685A607B681B69FB60FB6821
:1075EC005A687B689A4203D17B689A68FB685A6038
:1075FC007B684FF000021A61FB681B6803F1FF32D5
:10760C00FB681A6007F11407BD4680BC704700BFC9
:10761C0080B588B000AFF860B9601346FB714FF0CD
:10762C000003FB61FB68002B56D04FF04C00FDF7BC
:10763C00D5FF0346BB61BB69002B4DD0FB68BA6814
:10764C0002FB03F303F101037B617869FDF7C6FFCD
:10765C0003461A46BB691A60BB691B68002B38D0FD
:10766C00BB691A68FB68B96801FB03F3D218BB69E4
:10767C005A60BB694FF000029A63BB691A68BB6918
:10768C009A60BB691A68FB6803F1FF33B96801FBA8
:10769C0003F3D218BB69DA60BB69FA68DA63BB69B9
:1076AC00BA681A64BB694FF0FF325A64BB694FF079
:1076BC00FF329A64BB6903F110031846FFF7EAFE28
:1076CC00BB6903F124031846FFF7E4FEBB69FB61B9
:1076DC0002E0B869FDF7C2FFFB69002B04D14FF043
:1076EC00500080F31188FEE7FB69184607F120076C
:1076FC00BD4680BD80B584B000AFF860B9607A60DB
:10770C00FB681B6C002B0DD1FB681B68002B48D150
:10771C00FB685B68184600F075FDFB684FF00002D3
:10772C005A603EE07B68002B1AD1FB689A68FB68B4
:10773C001B6C1046B9681A46FDF72CFDFB689A685D
:10774C00FB681B6CD218FB689A60FB689A68FB6834
:10775C005B689A4225D3FB681A68FB689A6020E044
:10776C00FB68DA68FB681B6C1046B9681A46FDF7B3
:10777C0011FDFB68DA68FB681B6CC3F10003D218BF
:10778C00FB68DA60FB68DA68FB681B689A4208D20F
:10779C00FB685A68FB681B6CC3F10003D218FB68CA
:1077AC00DA60FB689B6B03F10102FB689A6307F1DB
:1077BC001007BD4680BD00BF80B584B000AF7860B7
:1077CC00FDF79AFE7B689A6B7B68DB6B9A4214BF61
:1077DC0000230123FB60FDF7A1FEFB68184607F1AF
:1077EC001007BD4680BD00BF80B586B000AFF86005
:1077FC00B9607A604FF0500080F31188F868FFF799
:10780C00DBFF0346002B17D07B68002B0DD0FB68E9
:10781C0003F1100378681946FFF762FC4FF0000083
:10782C0080F311886FF0030336E04FF0000080F313
:10783C0011884FF000032FE04FF0000080F3118807
:10784C004FF0500080F31188FB689A6BFB68DB6B80
:10785C009A4219D2F868B9684FF00002FFF74AFF54
:10786C004FF001037B61FB685B6A002B0FD0FB6858
:10787C0003F124031846FFF7DFFD0346002B06D067
:10788C006FF004037B6102E04FF000037B614FF06B
:10789C00000080F311887B69184607F11807BD4674
:1078AC0080BD00BF80B586B000AFF860B9607A606B
:1078BC004FF0500080F31188FB689B6B002B17D1A5
:1078CC007B68002B0DD0FB6803F124037868194604
:1078DC00FFF706FC4FF0000080F311886FF00303F4
:1078EC004EE04FF0000080F311884FF0000347E0AA
:1078FC004FF0000080F311884FF0500080F3118896
:10790C00FB689B6B002B33D0FB68DA68FB681B6C45
:10791C00D218FB68DA60FB68DA68FB685B689A422D
:10792C0003D3FB681A68FB68DA60FB689B6B03F196
:10793C00FF32FB689A63FB68DA68FB681B6CB868FB
:10794C0011461A46FDF726FC4FF001037B61FB68DC
:10795C001B69002B0FD0FB6803F110031846FFF7CF
:10796C006BFD0346002B06D06FF004037B6102E035
:10797C004FF000037B614FF0000080F311887B69AE
:10798C00184607F11807BD4680BD00BF80B584B00E
:10799C0000AFF860B9607A60FB689A6BFB68DB6BD0
:1079AC009A4218D2F868B9684FF00002FFF7A2FEAD
:1079BC007B68002B0FD1FB685B6A002B0BD0FB683C
:1079CC0003F124031846FFF737FD0346002B02D0C2
:1079DC004FF0010300E07B68184607F11007BD4625
:1079EC0080BD00BF80B586B000AFF860B9607A602A
:1079FC00FB689B6B002B38D0FB68DA68FB681B6C50
:107A0C00D218FB68DA60FB68DA68FB685B689A423C
:107A1C0003D3FB681A68FB68DA60FB689B6B03F1A5
:107A2C00FF32FB689A63FB68DA68FB681B6CB8680A
:107A3C0011461A46FDF7AEFB7B681B68002B10D174
:107A4C00FB681B69002B0CD0FB6803F11003184674
:107A5C00FFF7F2FC0346002B03D07B684FF00102CA
:107A6C001A604FF001037B6102E04FF000037B6171
:107A7C007B69184607F11807BD4680BD80B58AB0F2
:107A8C0002AFF860B9603B601346FB80FB68002BCB
:107A9C0004D14FF0500080F31188FEE7BB6A042B31
:107AAC0004D94FF0500080F31188FEE7FB8818468C
:107ABC00396B00F06DFBB861BB69002B00F08E8058
:107ACC00BB691A6BFB8803F1FF334FEA8303D318AE
:107ADC007B617B6923F007037B617B6903F0070300
:107AEC00002B04D04FF0500080F31188FEE7FB8888
:107AFC000093B869B968BA6A7B6B00F0CBFA786905
:107B0C00F9683A68FDF784FC03461A46BB691A60AB
:107B1C00BB691B6803F00703002B04D04FF0500027
:107B2C0080F31188FEE7FB6A002B02D0FB6ABA696E
:107B3C001A60FDF7E1FC354B1B6803F10102334B76
:107B4C001A60334B1B68002B09D1314BBA691A6090
:107B5C002E4B1B68012B0FD100F0DAFA0CE02D4BE9
:107B6C001B68002B08D12A4B1B68DA6ABB6A9A4245
:107B7C0002D8274BBA691A60BB69DA6A264B1B68B4
:107B8C009A4203D9BB69DA6A234B1A60234B1B68F0
:107B9C0003F10102214B1A60BB69DA6A204B1B68A6
:107BAC009A4203D9BB69DA6A1D4B1A60BB69DA6A5F
:107BBC0013464FEA83039B184FEA83031A46194B6B
:107BCC00D218BB6903F1040310461946FFF794FC65
:107BDC004FF00103FB61FDF7A1FC02E04FF0FF3316
:107BEC00FB61FB69012B0BD10A4B1B68002B07D0E7
:107BFC00074B1B68DA6ABB6A9A4201D2FDF770FC2C
:107C0C00FB69184607F12007BD4680BDEC06002035
:107C1C0040060020FC060020F4060020100700207F
:107C2C00F80600204406002080B586B004AF194B3E
:107C3C004FF0000200924FF0000201924FF0000250
:107C4C0002924FF000020392134819464FF046027D
:107C5C004FF00003FFF712FF78607B68012B0DD10A
:107C6C004FF0500080F311880C4B4FF001021A605A
:107C7C000B4B4FF000021A60FDF714FC7B68002BD5
:107C8C0004D14FF0500080F31188FEE707F108078C
:107C9C00BD4680BD68AA00087D800008FC06002057
:107CAC00F006002080B400AF044B1B6803F1010206
:107CBC00024B1A60BD4680BC704700BF0007002015
:107CCC0090B583B000AF4FF000037B603D4B1B6859
:107CDC00002B04D14FF0500080F31188FEE7FDF724
:107CEC000BFC384B1B6803F1FF32364B1A60354BDB
:107CFC001B68002B5ED1344B1B68002B5AD04FF005
:107D0C0000033B602EE0314BDB68DB681C4604F162
:107D1C0018031846FFF752FC04F104031846FFF74A
:107D2C004DFCE26A2A4B1B689A4202D9E26A284B44
:107D3C001A60E26A13464FEA83039B184FEA8303E7
:107D4C001A46244BD21804F1040310461946FFF7C7
:107D5C00D3FBE26A204B1B68DB6A9A4202D34FF0DA
:107D6C0001033B60194B1B68002BCCD11B4B1B68D0
:107D7C00002B0FD007E000F047F8184B1B6803F1FD
:107D8C00FF32164B1A60154B1B68002BF3D14FF0CA
:107D9C0001033B603B68012B03D0114B1B68012B8B
:107DAC0008D14FF001037B600D4B4FF000021A60BD
:107DBC00FDF796FBFDF7B2FB7B68184607F10C0745
:107DCC00BD4690BD00070020EC060020D806002020
:107DDC00F80600204406002040060020040700207E
:107DEC000807002080B582B000AFFDF785FB054B7E
:107DFC001B687B60FDF792FB7B68184607F1080750
:107E0C00BD4680BDF006002080B584B000AF4A4B63
:107E1C001B68002B40F08580484B1B6803F1010266
:107E2C00464B1A60454B1B68002B2CD1444B1B68EE
:107E3C001B68002B04D04FF0500080F31188FEE734
:107E4C003F4B1B68FB603F4B1A683D4B1A603D4B28
:107E5C00FA681A603C4B1B6803F101023A4B1A603A
:107E6C00374B1B681B68002B04D1384B4FF0FF328B
:107E7C001A6008E0324B1B68DB68DB68BB60BB68D0
:107E8C005A68324B1A602D4B1A68304B1B689A4259
:107E9C004DD32B4B1B681B68002B04D12B4B4FF085
:107EAC00FF321A6043E0264B1B68DB68DB68BB6063
:107EBC00BB685B687B60214B1A687B689A4203D273
:107ECC00224B7A681A6032E0BB6803F1040318464F
:107EDC00FFF774FBBB689B6A002B05D0BB6803F1F2
:107EEC0018031846FFF76AFBBB68DA6A184B1B6865
:107EFC009A4203D9BB68DA6A154B1A60BB68DA6A16
:107F0C0013464FEA83039B184FEA83031A46114B1F
:107F1C00D218BB6803F1040310461946FFF7ECFABC
:107F2C00B7E70D4B1B6803F101020B4B1A6007F10D
:107F3C001007BD4680BD00BF00070020F0060020E2
:107F4C00D0060020D40600200C070020E8000020FA
:107F5C00F8060020440600200407002080B582B0FB
:107F6C0000AF3D4B1B68002B04D03C4B4FF0010283
:107F7C001A606CE03A4B1B681A68394B1B681B6B18
:107F8C009A420AD8364B1B681A46354B1B6803F1CC
:107F9C0034031046194600F0C9F9314B1B681B6BB2
:107FAC00184630494FF01402FDF7C2F80346002B77
:107FBC001BD02B4B1B681A46294B1B6803F134034F
:107FCC001046194600F0B2F910E0274B1B68002B45
:107FDC0004D14FF0500080F31188FEE7224B1B6850
:107FEC0003F1FF32204B1A6000E000BF1E4B1A68F1
:107FFC0013464FEA83039B184FEA83031A461B4B25
:10800C00D3181B68002BE0D0174B1A6813464FEAA5
:10801C0083039B184FEA83031A46144BD3187B60D7
:10802C007B685B685A687B685A607B685A687B68B7
:10803C0003F108039A4204D17B685B685A687B6839
:10804C005A607B685B68DB681A46054B1A6007F15F
:10805C000807BD4680BD00BF0007002008070020B0
:10806C004006002028AB0008F8060020440600203B
:10807C0080B582B000AF786000F084F8044B1B68C8
:10808C00012B01D9FDF72CFA00F03CF9F4E700BF05
:10809C004406002080B584B000AFF860B9607A6007
:1080AC003B60FB6803F134031A46BB681046194663
:1080BC004FF00602FDF770F9FB684FF0000283F8F1
:1080CC0039207B68042B02D94FF004037B60FB68DA
:1080DC007A68DA62FB687A68DA63FB6803F1040396
:1080EC001846FFF7FBF9FB6803F118031846FFF776
:1080FC00F5F9FB68FA681A617B68C3F10502FB6845
:10810C009A61FB68FA685A6207F11007BD4680BD98
:10811C0080B582B000AF4FF000037B6010E07A684E
:10812C0013464FEA83039B184FEA83031A460F4BFF
:10813C00D3181846FFF7AEF97B6803F101037B6097
:10814C007B68042BEBD90A48FFF7A4F90948FFF721
:10815C00A1F90948FFF79EF9084B054A1A60084B2C
:10816C00044A1A6007F10807BD4680BD440600208A
:10817C00A8060020BC060020D8060020D00600204F
:10818C00D406002080B400AFBD4680BC704700BF51
:10819C0080B584B000AF03463960FB804FF04000DF
:1081AC00FDF71CFA0346FB60FB68002B23D03B68F1
:1081BC00002B07D1FB884FEA83031846FDF70EFA14
:1081CC00034600E03B68FA681363FB681B6B002BEB
:1081DC0006D1F868FDF742FA4FF00003FB600AE0A5
:1081EC00FB681A6BFB884FEA830310464FF0A5011E
:1081FC001A46FDF777F8FB68184607F11007BD46DD
:10820C0080BD00BF80B584B000AF78607B68FB6038
:10821C007B68002B31D0FB68DA6AFB68DB6B9A4217
:10822C002BD0FB6803F104031846FFF7C7F9FB6872
:10823C00DA6BFB68DA62FB68DB6AC3F10502FB6888
:10824C009A61FB68DA6A0F4B1B689A4203D9FB6888
:10825C00DA6A0C4B1A60FB68DA6A13464FEA83033E
:10826C009B184FEA83031A46074BD218FB6803F19D
:10827C00040310461946FFF73FF907F11007BD46F6
:10828C0080BD00BFF80600204406002080B500AF7A
:10829C00FEF74CFC80BD00BF80B582B000AF4FF044
:1082AC0000604FF4A04100F0A9F94FF00000FEF778
:1082BC0047F94FF00100FEF743F90F484FF0010169
:1082CC004FF00002FEF79AFE78600C484FF0010167
:1082DC004FF00002FEF792FE786009484FF0010162
:1082EC004FF00002FEF78AFE7860FFF79DFC07F165
:1082FC000807BD4680BD00BF8D6100089D56000873
:10830C006D5B000880B500AFFFF700F8FCE700BF1D
:10831C0080B483B000AF4FF00003FB71FB79DBB28C
:10832C0003F10103DBB2FB71F8E700BF80B485B049
:10833C0000AF786039604FF00003FB73FB7BDBB25E
:10834C0003F10103DBB2FB73F8E700BF80B400AFAD
:10835C00BD4680BC704700BF80B400AFFEE700BFD5
:10836C0080B400AFFEE700BF80B400AFFEE700BFF3
:10837C0080B400AFFEE700BF80B400AFBD4680BC48
:10838C00704700BF80B500AF154B154A126842F01C
:10839C0001021A60124A124B5968124B01EA03038C
:1083AC0053600F4A0E4B1B6823F0847323F4803305
:1083BC0013600B4B0A4A126822F480221A60084B95
:1083CC00074A526822F4FE025A60054B4FF41F0212
:1083DC009A6000F00BF8044B4FF000629A6080BD7D
:1083EC00001002400000FFF800ED00E080B500AF87
:1083FC0000F002F880BD00BF80B483B000AF4FF036
:10840C0000037B604FF000033B603B4B3A4A126821
:10841C0042F480321A60384B1B6803F400333B6023
:10842C007B6803F101037B603B68002B03D17B6805
:10843C00B3F5A06FEFD1304B1B6803F40033002B66
:10844C0003D04FF001033B6002E04FF000033B60B0
:10845C003B68012B4BD1294B284A126842F0100281
:10846C001A60264B254A126822F003021A60234B2D
:10847C00224A126842F001021A601F4B1E4A5268CF
:10848C005A601D4B1C4A52685A601B4B1A4A526860
:10849C0042F480625A60184B174A526822F47C12DC
:1084AC005A60154B144A526842F488125A60124BA7
:1084BC00114A126842F080721A6000BF0E4B1B68A2
:1084CC0003F00073002BF9D00B4B0B4A526822F0CF
:1084DC0003025A60084B084A526842F002025A6082
:1084EC0000BF054B5B6803F00C03082BF9D107F1B7
:1084FC000C07BD4680BC70470010024000200240B3
:10850C0080B483B000AF7860054A7B6843F0BE63EB
:10851C0043F42023D36007F10C07BD4680BC7047A1
:10852C0000ED00E080B487B000AF78604FF000033E
:10853C007B614FF000033B614FF00F03FB607B68E6
:10854C00DB78002B3FD02B4BDB686FEA030303F483
:10855C00E0634FEA13237B617B69C3F104033B6146
:10856C007B69FA6822FA03F3FB607B685B781A4636
:10857C003B6902FA03F37B617B689B781A46FB68C4
:10858C0002EA03037A6942EA03037B617B694FEADF
:10859C0003137B6118497B681B787A69D2B2CB18BC
:1085AC0083F80023144B7A6812784FEA5212D2B235
:1085BC007968097801F01F014FF0010000FA01F110
:1085CC0043F8221011E00C4B7A6812784FEA5212E1
:1085DC00D2B27968097801F01F014FF0010000FA5E
:1085EC0001F102F1200243F8221007F11C07BD46ED
:1085FC0080BC704700ED00E000E100E080B483B087
:10860C0000AF78603960074A3B6823F0604323F081
:10861C007F0379680B43936007F10C07BD4680BC60
:10862C00704700BF00ED00E080B489B000AF786007
:10863C0039604FF00003FB614FF000033B614FF0DA
:10864C000003BB614FF00003FB604FF000037B6144
:10865C004FF00003BB603B68DB7803F00F03FB615A
:10866C003B68DB7803F01003002B05D03B689B784C
:10867C00FA6942EA0303FB613B681B8803F0FF03C2
:10868C00002B51D07B681B687B614FF00003BB61F2
:10869C0044E0BB694FF0010202FA03F3FB603B6854
:1086AC001B881A46FB6802EA03033B613A69FB68C4
:1086BC009A422FD1BB694FEA8303FB60FB684FF0F2
:1086CC000F0202FA03F3BB60BB686FEA03037A691B
:1086DC0002EA03037B61FB68FA6902FA03F37A6925
:1086EC0042EA03037B613B68DB78282B07D1BB692B
:1086FC004FF0010202FA03F27B685A610AE03B6810
:10870C00DB78482B06D1BB694FF0010202FA03F269
:10871C007B681A61BB6903F10103BB61BB69072B61
:10872C00B7D97B687A691A603B681B88FF2B56D9CE
:10873C007B685B687B614FF00003BB6149E0BB6900
:10874C0003F108034FF0010202FA03F3FB603B68EC
:10875C001B881A46FB6802EA03033B613A69FB6813
:10876C009A4232D1BB694FEA8303FB60FB684FF03E
:10877C000F0202FA03F3BB60BB686FEA03037A696A
:10878C0002EA03037B61FB68FA6902FA03F37A6974
:10879C0042EA03037B613B68DB78282B08D1BB6979
:1087AC0003F108034FF0010202FA03F27B685A61ED
:1087BC003B68DB78482B08D1BB6903F108034FF009
:1087CC00010202FA03F27B681A61BB6903F101032F
:1087DC00BB61BB69072BB2D97B687A695A6007F118
:1087EC002407BD4680BC704780B483B000AF78606E
:1087FC007B689B689BB2184607F10C07BD4680BC92
:10880C00704700BF80B483B000AF78600B467B80AC
:10881C007A887B681A6107F10C07BD4680BC7047EB
:10882C0080B483B000AF78600B467B807A887B681D
:10883C005A6107F10C07BD4680BC704780B582B009
:10884C0000AF78607A68104B9A420CD14FF400104C
:10885C004FF0010100F034FB4FF400104FF0000119
:10886C0000F02EFB0BE04FF480004FF0010100F004
:10887C0027FB4FF480004FF0000100F021FB07F1C3
:10888C000807BD4680BD00BF0054004080B58AB0CB
:10889C0000AF786039604FF00003FB844FF00003A9
:1088AC007B844FF00403BB84604BFB617B689B882B
:1088BC00FB84FB8C23F03F03FB8407F10803184671
:1088CC0000F0FCF93B69FB61FA69594BA3FB0213FD
:1088DC004FEA93437B84FA8C7B8C42EA0303FB8440
:1088EC007B68FA8C9A807B681B889BB223F001030F
:1088FC009AB27B681A804FF00003FB843B681A68BD
:10890C004C4B9A4219D83B681B684FEA4303FA69EF
:10891C00B2FBF3F3BB84BB8C032B02D84FF00403E4
:10892C00BB84FA8CBB8C42EA0303FB847B8C03F183
:10893C0001039AB27B681A8449E03B68DA884BF6EB
:10894C00FF739A420AD13B681A6813464FEA4303F5
:10895C009B18FA69B2FBF3F3BB8410E03B681A680E
:10896C0013464FEA83039B184FEA83029B18FA695C
:10897C00B2FBF3F3BB84BB8C43F48043BB84BB8C52
:10898C004FEA03534FEA1353002B03D1BB8C43F034
:10899C000103BB84BA8CFB8C42EA03039BB26FEAE3
:1089AC0043436FEA5343FB847B8C4FF4967202FB78
:1089BC0003F3214A82FB03124FEAA2124FEAE3733C
:1089CC00D31A9BB203F101039AB27B681A847B68B9
:1089DC00FA8C9A837B681B889BB243F001039AB292
:1089EC007B681A807B681B88FB84FB8C23F4806378
:1089FC0023F00A03FB843B689A883B685B8942EA54
:108A0C0003039AB2FB8C42EA0303FB847B68FA8C67
:108A1C001A803B689A893B681B8942EA03039AB225
:108A2C007B681A8107F12807BD4680BD00127A00C9
:108A3C0083DE1B43A0860100D34D621080B483B04B
:108A4C0000AF78600B46FB70FB78002B08D07B687E
:108A5C001B889BB243F001039AB27B681A8007E033
:108A6C007B681B889BB223F001039AB27B681A8047
:108A7C0007F10C07BD4680BC704700BF80B483B0C3
:108A8C0000AF78600B46FB70FB78002B08D07B683E
:108A9C001B889BB243F480739AB27B681A8007E000
:108AAC007B681B889BB223F480739AB27B681A8014
:108ABC0007F10C07BD4680BC704700BF80B483B083
:108ACC0000AF78600B46FB70FB78002B08D07B68FE
:108ADC001B889BB243F400739AB27B681A8007E040
:108AEC007B681B889BB223F400739AB27B681A8054
:108AFC0007F10C07BD4680BC704700BF80B483B043
:108B0C0000AF78600B46FB70FB78002B08D07B68BD
:108B1C001B889BB243F480639AB27B681A8007E08F
:108B2C007B681B889BB223F480639AB27B681A80A3
:108B3C0007F10C07BD4680BC704700BF80B483B002
:108B4C0000AF78600B46FB70FB789AB27B681A8298
:108B5C0007F10C07BD4680BC704700BF80B483B0E2
:108B6C0000AF78607B681B8A9BB2DBB2184607F1BA
:108B7C000C07BD4680BC704780B483B000AF7860F2
:108B8C0013460A46FA70BB70BB78002B04D0FB78F6
:108B9C0043F00103FB7003E0FB7823F00103FB704F
:108BAC00FB789AB27B681A8207F10C07BD4680BC31
:108BBC00704700BF80B487B000AF786039604FF069
:108BCC0000033B614FF00003FB604FF00003BB6000
:108BDC004FF00003FB757B689B8A9BB2FB607B6844
:108BEC001B8B9BB2BB60BB684FEA0343BB60FA684C
:108BFC00BB6842EA030323F07F433B613A693B685D
:108C0C001A403B689A4203D14FF00103FB7502E016
:108C1C004FF00003FB75FB7D184607F11C07BD46A2
:108C2C0080BC704780B487B000AF786039604FF07B
:108C3C000003FB754FF000033B614FF00003FB603A
:108C4C007B68FB603B684FEA13733B613B6823F026
:108C5C007F433B603B69002B04D0FB6803F114039A
:108C6C00FB6007E03B684FEA13433B60FB6803F192
:108C7C001803FB60FB681A683B6802EA0303002BCD
:108C8C0003D04FF00103FB7502E04FF00003FB75BE
:108C9C00FB7D184607F11C07BD4680BC704700BF22
:108CAC0080B483B000AF7860034B7A681A6007F128
:108CBC000C07BD4680BC7047D800424280B487B0D8
:108CCC0000AF78604FF000037B614FF000033B6115
:108CDC004FF00003FB604FF00003BB60514B5B682F
:108CEC0003F00C037B617B69042B07D0082B09D0A4
:108CFC00002B35D17B684C4A1A6035E07B684A4AB8
:108D0C001A6031E0474B5B6803F470133B61454BD1
:108D1C005B6803F48033FB603B694FEA934303F1D8
:108D2C0002033B61FB68002B06D13B693F4A02FB07
:108D3C0003F27B681A6017E03A4B5B6803F400336C
:108D4C00002B06D03B69394A02FB03F27B681A60A0
:108D5C000AE03B69344A02FB03F27B681A6003E0C9
:108D6C007B68314A1A6000BF2E4B5B6803F0F0033E
:108D7C007B617B694FEA13137B612D4A7B69D318A6
:108D8C001B78DBB2BB607B681A68BB6822FA03F203
:108D9C007B685A60234B5B6803F4E0637B617B69FF
:108DAC004FEA13237B61224A7B69D3181B78DBB211
:108DBC00BB607B685A68BB6822FA03F27B689A60D6
:108DCC00184B5B6803F460537B617B694FEAD323D8
:108DDC007B61174A7B69D3181B78DBB2BB607B685D
:108DEC005A68BB6822FA03F27B68DA600D4B5B6849
:108DFC0003F440437B617B694FEA93337B610D4AFB
:108E0C007B69D3181B78DBB2BB607B68DA68BB6804
:108E1C00B2FBF3F27B681A6107F11C07BD4680BCFC
:108E2C00704700BF0010024000127A0000093D009C
:108E3C00EC000020FC00002080B483B000AF786010
:108E4C000B46FB70FB78002B07D00B4B0A4A916941
:108E5C007A6841EA02029A6108E0074B064A916976
:108E6C007A686FEA020201EA02029A6107F10C07C2
:108E7C00BD4680BC704700BF0010024080B483B078
:108E8C0000AF78600B46FB70FB78002B07D00B4BC8
:108E9C000A4AD1697A6841EA0202DA6108E0074BB2
:108EAC00064AD1697A686FEA020201EA0202DA61C3
:108EBC0007F10C07BD4680BC704700BF0010024094
:108ECC0080B483B000AF78600B46FB70FB78002B4E
:108EDC0007D00B4B0A4A11697A6841EA02021A61FF
:108EEC0008E0074B064A11697A686FEA020201EA48
:108EFC0002021A6107F10C07BD4680BC704700BF27
:108F0C000010024080B582B000AF0346FB80FB88A6
:108F1C00002B07D10A4B1B684FF001021A824FF04D
:108F2C00000307E0074B1B681B689847044B1B6842
:108F3C0003F10A03184607F10807BD4680BD00BFC0
:108F4C009C0800209808002080B500AF104B1B68CF
:108F5C00DA78104B5B789A4216D80D4B1B689B78CD
:108F6C00002B11D10A4B1B689B88002B0CD1084B92
:108F7C001B68074A1268D2789A72074B1B685B68A9
:108F8C0098474FF0000301E04FF00203184680BDF4
:108F9C009C080020600000209808002080B582B05A
:108FAC0000AF0346FB80FB88002B07D10A4B1B68E4
:108FBC004FF001021A824FF0000307E0074B1B68C9
:108FCC009B689847044B1B6803F10C03184607F188
:108FDC000807BD4680BD00BF9C08002098080020F3
:108FEC0080B582B000AF204B1B689B691F4A12688A
:108FFC0051791E4A1268D2780846114698470346A2
:10900C00FB711A4B1B689B7A002B25D0FB79002B2C
:10901C0009D1164B1B681B79002B04D1134B1B6811
:10902C009B78002B02D04FF0020317E0FB79002B4A
:10903C0012D10F4B1B68DB6898470C4B1B680B4A13
:10904C0012685279DA72094B1B68084A1268D27896
:10905C001A734FF0000301E04FF00203184607F1BA
:10906C000807BD4680BD00BF740800209C08002086
:10907C009808002080B584B000AF0346FB80FB88C5
:10908C00002B07D1494B1B684FF002021A824FF09C
:10909C00000386E0464B4FF000021A80434B1B68DE
:1090AC001B7803F07F03002B2CD1404B1B685B7AA1
:1090BC00FB73FB7B03F02003002B07D03C4B1B788E
:1090CC0043F00203DAB23A4B1A7006E0384B1B78C5
:1090DC0023F00203DAB2364B1A70FB7B03F0400329
:1090EC00002B07D0324B1B7843F00103DAB2304B24
:1090FC001A7051E02E4B1B7823F00103DAB22C4B83
:10910C001A7049E0294B1B681B7803F07F03012B75
:10911C0001D1274B45E0254B1B681B7803F07F03DF
:10912C00022B36D1214B1B685B79BB73BB7B03F0E5
:10913C000F037B73BB7B5BB2002B14DA7B7B4FEA98
:10914C00830303F1804303F5B8431B689BB203F020
:10915C003003102B20D1164B1B7843F00103DAB2ED
:10916C00134B1A7018E07B7B4FEA830303F18043A7
:10917C0003F5B8431B689BB203F44053B3F5805F0F
:10918C000AD10B4B1B7843F00103DAB2084B1A706F
:10919C0002E04FF0000304E0064B1B681B69984784
:1091AC00034B184607F11007BD4680BD9C080020F4
:1091BC006C0800209808002090B587B000AF784B61
:1091CC001B681B7803F07F033B613B69002B0BD1C1
:1091DC00734B1B68724A1268527A22F02002D2B288
:1091EC005A724FF00003D5E03B69022B40F0D0805F
:1091FC006B4B1B685B88002B04D1694B1B681B797C
:10920C00002B02D04FF00203C4E0664BFB60644BB2
:10921C001B685B79BB60BB6823F080037B607B6859
:10922C003B605F4B1B685B79DBB25BB2002B0CDAEB
:10923C003B684FEA830303F1804303F5B8431B6893
:10924C009BB203F030037B610BE03B684FEA830376
:10925C0003F1804303F5B8431B689BB203F44053FE
:10926C007B61FB681B781A467B689A4207D97B693D
:10927C00002B04D04A4B1B689B7A002B02D14FF079
:10928C00020387E0BB6803F08003002B19D03B6816
:10929C004FEA830303F1804303F5B8431B689BB289
:1092AC0003F03003102B6CD13B68DBB2184601F095
:1092BC0013FA3B68DBB218464FF0300101F0E2F8CC
:1092CC005FE03B684FEA830303F1804303F5B84347
:1092DC001B689BB203F44053B3F5805F51D13B68DC
:1092EC00002B29D13B68DAB22F4B93F82C30104667
:1092FC00194601F0C5FA3B684FEA830303F180433A
:10930C0003F5B8431B689BB223F4804323F070032E
:10931C009CB284F480539CB284F400539CB23B689E
:10932C004FEA830303F1804303F5B8431F4A44EA31
:10933C00020292B21A6024E03B68DBB2184601F0DC
:10934C0099F93B684FEA830303F1804303F5B84373
:10935C001B689BB223F4804323F070039CB284F40B
:10936C0080539CB284F400539CB23B684FEA830355
:10937C0003F1804303F5B8430C4A44EA020292B26B
:10938C001A600B4B1B685B6998474FF0000301E0B8
:10939C004FF00203184607F11C07BD4690BD00BFF5
:1093AC009C08002060000020640000208080FFFFEB
:1093BC009808002090B585B000AF454B1B685B79D1
:1093CC00BB60BB6823F080037B607B683B60404BD9
:1093DC001B685B79DBB25BB2002B0CDA3B684FEAA3
:1093EC00830303F1804303F5B8431B689BB203F07E
:1093FC003003FB600BE03B684FEA830303F18043CF
:10940C0003F5B8431B689BB203F44053FB60314B2C
:10941C001B781A463B689A420CD92D4B1B685B880B
:10942C00002B07D1FB68002B04D0294B1B689B7ABF
:10943C00002B02D14FF0020345E0BB6803F0800320
:10944C00002B1DD03B684FEA830303F1804303F5E7
:10945C00B8431B689BB223F4E04323F040039CB257
:10946C0084F010039CB23B684FEA830303F1804302
:10947C0003F5B843184A44EA020292B21A601CE09F
:10948C003B684FEA830303F1804303F5B8431B6841
:10949C009BB223F4804323F070039CB284F480537A
:1094AC009CB23B684FEA830303F1804303F5B84356
:1094BC00094A44EA020292B21A60084B1B689B6983
:1094CC0098474FF00003184607F11407BD4690BDAE
:1094DC009C080020600000208080FFFF980800207E
:1094EC0080B500AF084B1B68074A1268527A42F0ED
:1094FC002002D2B25A72054B1B68DB6998474FF0B9
:10950C000003184680BD00BF9C080020980800206E
:10951C0080B485B000AF03463960FB800E4B1B68EE
:10952C005B8AFB60FB88002B0BD10B4B1B683A68EA
:10953C009188FA6892B28A1A92B21A824FF000039A
:10954C0003E03B681A68FB68D318184607F1140748
:10955C00BD4680BC704700BF9C08002080B584B01D
:10956C0000AF404B1B6803F11003BB60BB681B884A
:10957C007B60BB689B68002B2FD07B68002B2CD0AA
:10958C00BB689B88FB60FA687B689A4201D97B6850
:10959C00FB60BB689B68FA6892B2104698473860CB
:1095AC00BB681A88FB689BB2D31A9AB2BB681A8044
:1095BC00BB685A88FB689BB2D3189AB2BB685A80B6
:1095CC004FF0000001F020F903461A46FB689BB2ED
:1095DC00386811461A4600F0E3FEBB681B88002B66
:1095EC000DD0214B4FF440521A804FF000004FF039
:1095FC00000101F027F91D4B4FF030021A80BB68B7
:10960C001A88BB689B889A4205D3164B1B684FF08F
:10961C0003021A7221E0BB681B88002B05D0114B8A
:10962C001B684FF005021A7217E0BB681B88002BF1
:10963C0013D10C4B1B684FF006021A720C4B1B68B3
:10964C009BB21A460B4BD3184FEA43034FF0000260
:10965C001A60064B4FF030021A8007F11007BD4616
:10966C0080BD00BF9C080020A2080020A408002098
:10967C00505C00400230002080B586B000AF424BF9
:10968C001B6803F11003FB60FB681B88BB603E4B3F
:10969C001B681B7A7B61BB68002B25D17B69042B73
:1096AC0022D13A4B1B78012B16D1394B1B689BB23C
:1096BC001A46384BD3184FEA43034FF000021A6096
:1096CC00354B4FF030021A804FF004037B612F4B67
:1096DC004FF000021A704DE04FF007037B612E4BE8
:1096EC004FF010021A8045E0FB689B883B61BA681A
:1096FC003B699A4202D84FF0040301E04FF0020399
:10970C007B613A69BB689A4201D9BB683B61FB68D3
:10971C009B683A6992B21046984778604FF0000007
:10972C0001F054F803461A463B699BB2786811461F
:10973C001A4600F0EFFD3B699BB24FF00000194652
:10974C0001F080F8FB681A883B699BB2D31A9AB275
:10975C00FB681A80FB685A883B699BB2D3189AB293
:10976C00FB685A800C4B4FF030021A800B4B4FF4B5
:10977C0040521A80044B1B687A69D2B21A7207F1F4
:10978C001807BD4680BD00BF9C08002014070020B0
:10979C00505C004002300020A4080020A2080020E9
:1097AC0080B584B000AF4FF00203FB73634B1B68B2
:1097BC005B787B60614B1B681B7803F07F03002B8D
:1097CC005BD17B68092B04D1FFF7BEFB0346FB730F
:1097DC007EE07B68052B1DD1584B1B68DB78DBB218
:1097EC005BB2002B0EDB554B1B689B78002B09D111
:1097FC00524B1B689B88002B04D1504B1B689B7AE7
:10980C00002B03D04FF00803BB608DE04FF000033A
:10981C00FB735DE07B68032B12D1484B1B68DB7834
:10982C00012B09D1454B1B689B88002B04D1FFF7FA
:10983C0057FE0346FB734BE04FF00203FB7347E00C
:10984C007B68012B43D13D4B1B68DB78012B10D17E
:10985C003A4B1B689B88002B0BD1384B1B685B7AEF
:10986C0003F02003002B04D0FFF7A6FC0346FB7388
:10987C002EE04FF00203FB732AE0304B1B681B7881
:10988C0003F07F03012B07D17B680B2B20D1FFF753
:10989C00A7FB0346FB731BE0284B1B681B7803F0EC
:1098AC007F03022B0FD17B68012B04D1FFF784FCC3
:1098BC000346FB730CE07B68032B09D1FFF77AFDA1
:1098CC000346FB7304E04FF00203FB7300E000BFA0
:1098DC00FB7B002B0FD01A4B1B685B697A68D2B2EA
:1098EC00104698470346FB73FB7B032B03D14FF0C9
:1098FC000903BB6018E0FB7B002B03D04FF008037F
:10990C00BB6011E04FF00603BB600E4B1B689BB2B3
:10991C001A460D4BD3184FEA43034FF000021A605E
:10992C000A4B4FF030021A80044B1B68BA68D2B253
:10993C001A7207F11007BD4680BD00BF9C080020BD
:10994C0074080020505C004002300020A408002065
:10995C0080B58AB000AF874B1B685B78BB614FF05A
:10996C0000037B624FF000037B61BB69062B24D1A3
:10997C00804B1B681B7803F07F03002B40F0E480C6
:10998C007C4B1B689B78FB74FB7C012B04D17A4BC2
:10999C001B68DB697B62D7E0FB7C022B04D1764B26
:1099AC001B681B6A7B62CFE0FB7C032B40F0CC80F6
:1099BC00714B1B685B6A7B62C6E0BB69002B7DD177
:1099CC006C4B1B685B88002B78D16A4B1B68DB885F
:1099DC00022B73D1674B1B681B79002B6ED1654B27
:1099EC001B681B7803F07F03002B07D1614B1B68AE
:1099FC009B88002B02D1614B7B62A5E05D4B1B6801
:109A0C001B7803F07F03012B16D15B4B1B689B6902
:109A1C00584A1268527910464FF000019847034695
:109A2C00002B40F08680534B1B689B7A002B00F078
:109A3C008280524B7B6287E04E4B1B681B7803F095
:109A4C007F03022B79D14B4B1B685B7903F00F031F
:109A5C00FB60484B1B685B7903F07003BB60454BA4
:109A6C001B685B79DBB25BB2002B0CDAFB684FEA4C
:109A7C00830303F1804303F5B8431B689BB203F0E7
:109A8C003003FB610BE0FB684FEA830303F1804377
:109A9C0003F5B8431B689BB203F44053FB61384B8E
:109AAC001B781A46FB689A4249D9BB68002B48D1EF
:109ABC00FB69002B47D0314B7B6245E0BB69082B1F
:109ACC0009D12C4B1B681B7803F07F03002B3BD177
:109ADC002C4B7B6238E0BB690A2B35D1254B1B68BC
:109AEC001B7803F07F03012B2ED1224B1B689B7A32
:109AFC00002B29D01F4B1B685B88002B24D11D4BDE
:109B0C001B681B79002B1FD11A4B1B68DB88012BA0
:109B1C001AD1194B1B689B69164A12685279104668
:109B2C004FF0000198470346002B0DD1164B7B627A
:109B3C000AE000BF08E000BF06E000BF04E000BF81
:109B4C0002E000BF00E000BF7B6A002B1ED0094B77
:109B5C001B687A6992B25A82064B1B687A6A9A61C0
:109B6C007B6A4FF0000098474FF0000387F82330D2
:109B7C0021E000BF9C0800207408002081900008A0
:109B8C0060000020118F0008A98F0008444B1B684F
:109B9C001B69444A1268527810469847034687F866
:109BAC00233097F82330032B05D13E4B1B684FF025
:109BBC0009021A726FE03B4B1B681A8A4FF6FF734F
:109BCC009A4205D1374B1B684FF009021A7262E0BA
:109BDC0097F82330022B04D0324B1B681B8A002BC6
:109BEC0005D1304B1B684FF008021A7253E02D4B15
:109BFC001B681B78DBB25BB2002B42DA294B1B686B
:109C0C00DB887B60274B1B681B8A1A467B689A4251
:109C1C0005D9244B1B687A6892B21A8227E0214B33
:109C2C001B681A8A1F4B1B68DB889A421FD21D4B7C
:109C3C001B681A8A1A4B1B6893F82C309A4204D270
:109C4C00194B4FF000021A7011E0164B1B681B8A5F
:109C5C00134A126892F82C2093FBF2F102FB01F2EA
:109C6C009B1A002B03D1104B4FF001021A700D4BB5
:109C7C001B680B4A126892F82C209A82FFF7FCFCA6
:109C8C0009E0084B1B684FF003021A72074B4FF4A4
:109C9C0040521A8000BF07F12807BD4680BD00BFA7
:109CAC00740800209C08002014070020A208002043
:109CBC0090B583B000AF4FF00103FB80354B1B68B0
:109CCC009BB21A46344BD3184FEA43031B689BB222
:109CDC0003F1005303F540534FEA43033B602F4B12
:109CEC001B681B7A092B3ED02C4B1A683B681978E1
:109CFC00117003F101033B60284B1A683B6819781B
:109D0C00517003F101033B603A68FB884FEA43034F
:109D1C00D3183B60214B1C683B681A8803F1020383
:109D2C003B60104600F018FE034663803A68FB88DF
:109D3C004FEA4303D3183B60184B1C683B681A88E6
:109D4C0003F102033B60104600F006FE0346A380BD
:109D5C003A68FB884FEA4303D3183B600F4B1B68F0
:109D6C003A681288DA800D4B1B684FF001021A72A8
:109D7C000A4B1B68DB88002B02D1FFF711FD01E0B9
:109D8C00FFF7E6FD00F096F80346184607F10C07BE
:109D9C00BD4690BD505C0040043000209C08002063
:109DAC0080B582B000AF214B1B681B7A7B607B684F
:109DBC00022B02D07B68042B06D1FFF75DFC1B4BFA
:109DCC001B681B7A7B6023E07B68062B1DD1174B2D
:109DDC001B685B78052B10D1144B1B681B7803F0A8
:109DEC007F03002B09D1114B1B68DB78184600F060
:109DFC008BF80F4B1B681B6A98470E4B1B689B68B4
:109E0C0098474FF008037B6002E04FF008037B603B
:109E1C00064B1B687A68D2B21A7200F04BF80346F4
:109E2C00184607F10807BD4680BD00BF9C080020FE
:109E3C00980800207408002080B582B000AF1B4B3E
:109E4C001B681B7A7B607B68022B02D07B68042B1F
:109E5C0003D14FF008037B601AE07B68032B02D020
:109E6C007B68052B06D1FFF779FB104B1B681B7A1F
:109E7C007B600DE07B68072B07D10D4B1B68DB6803
:109E8C0098474FF008037B6002E04FF008037B60BB
:109E9C00064B1B687A68D2B21A7200F00BF80346B4
:109EAC00184607F10807BD4680BD00BF9C0800207E
:109EBC007408002080B500AF0F4B93F82C304FF096
:109ECC000000194600F0DCFC0C4B1B681B7A082BBD
:109EDC0007D10B4B4FF480521A800A4B4FF01002F3
:109EEC001A80064B1B681B7A092B14BF0023012315
:109EFC00DBB2184680BD00BF640000209C08002027
:109F0C00A2080020A408002080B485B000AF03464E
:109F1C00FB711C4B1B78BB604FF00003FB6022E015
:109F2C00FB68DBB24FEA830303F1804303F5B843CC
:109F3C00FA68D2B24FEA820202F1804202F5B842CC
:109F4C00126892B2114640F60F7201EA020242F414
:109F5C00004242F08002F968C9B20A431A60FB68F9
:109F6C0003F10103FB60FA68BB689A42D8D3064B35
:109F7C00FA7962F07F02D2B21A6007F11407BD467B
:109F8C0080BC7047600000204C5C004080B400AF87
:109F9C00BD4680BC704700BF80B500AF094B0A4A74
:109FAC001A60084B1B684FF002021A72074B084AE2
:109FBC001A60084B084A1A60044B1B681B689847C8
:109FCC0080BD00BF9C0800207C0800207408002085
:109FDC0064000020980800209400002090B583B005
:109FEC0000AF4FF00003FB8079E18B4B1B889BB2D9
:109FFC00DBB203F00F03DAB2884B1A70874B1B7875
:10A00C00002B40F01581864B1B689AB2854B1A8049
:10A01C00844B1B889BB203F030039AB2824B1A809C
:10A02C00804B1B889BB203F440539AB27D4B1A8031
:10A03C007B4B1B689BB24BF6BF7403EA040484F49D
:10A04C00005484F02004764AA1B2784B41EA030311
:10A05C009BB21360704B1B889BB203F01003002B58
:10A06C0042D16F4A6E4B1B689BB2194648F60F7370
:10A07C0001EA03031360FFF793FE694B1B689BB265
:10A08C004BF6BF7403EA0404664B1B889BB203F4C3
:10A09C0080539BB2002B01D084F48054614B1B88FD
:10A0AC009BB203F400539BB2002B01D084F40054F8
:10A0BC005D4B1B889BB203F010039BB2002B01D0AD
:10A0CC0084F01004584B1B889BB203F020039BB206
:10A0DC00002B01D084F02004514AA1B2534B41EA29
:10A0EC0003039BB2136007E14D4B1B689BB2FB80D3
:10A0FC00FB889BB203F40063002B42D0484A484BC8
:10A10C001B689BB2194640F68F7301EA0303136078
:10A11C00FFF7CEFD424B1B689BB24BF6BF7403EAB4
:10A12C000404404B1B889BB203F480539BB2002B5E
:10A13C0001D084F480543B4B1B889BB203F4005336
:10A14C009BB2002B01D084F40054374B1B889BB27C
:10A15C0003F010039BB2002B01D084F01004324B9F
:10A16C001B889BB203F020039BB2002B01D084F020
:10A17C0020042B4AA1B22D4B41EA03039BB213607E
:10A18C00BAE0FB889BB29BB21BB2002B80F2A7807B
:10A19C00234A234B1B689BB2194640F68F7301EA86
:10A1AC0003031360FFF748FE1D4B1B689BB24BF675
:10A1BC00BF7403EA04041B4B1B889BB203F480534B
:10A1CC009BB2002B01D084F48054164B1B889BB29D
:10A1DC0003F400539BB2002B01D084F40054124BB7
:10A1EC001B889BB203F010039BB2002B01D084F0B0
:10A1FC0010040D4B1B889BB203F020039BB2002B69
:10A20C0001D084F02004064AA1B2084B41EA0303B2
:10A21C009BB2136070E000BF680800207808002033
:10A22C00005C0040A2080020A40800208080FFFFF2
:10A23C00334B1B784FEA830303F1804303F5B84398
:10A24C001B689BB2FB80FB889BB29BB21BB2002BA2
:10A25C001FDA2B4B1B784FEA830303F1804303F582
:10A26C00B843274A12784FEA820202F1804202F583
:10A27C00B842126892B2114640F68F7201EA02029D
:10A28C001A601F4B1B7803F1FF321E4B53F8223020
:10A29C009847FB889BB203F08003002B1FD0184B10
:10A2AC001B784FEA830303F1804303F5B843144A48
:10A2BC0012784FEA820202F1804202F5B84212682B
:10A2CC0092B2114648F60F7201EA02021A600C4B68
:10A2DC001B7803F1FF320C4B53F8223098470B4B91
:10A2EC001B689AB20A4B1A80094B1B889BB29BB213
:10A2FC001BB2002BFFF679AE07F10C07BD4690BDE3
:10A30C00780800203C00002020000020445C004025
:10A31C006808002080B489B000AF786013460A4604
:10A32C007A803B803B8803F101034FEA63037B6136
:10A33C007B8803F1005303F540534FEA4303BB61A1
:10A34C007B69FB6123E07B681B783B617B6803F1D5
:10A35C0001037B607B681B784FEA03231A463B6939
:10A36C0042EA0303FB60FB689AB2BB691A80BB69C3
:10A37C0003F10203BB61BB6903F10203BB617B68A0
:10A38C0003F101037B60FB6903F1FF33FB61FB69A4
:10A39C00002BD8D107F12407BD4680BC704700BF05
:10A3AC0080B487B000AF786013460A467A803B8051
:10A3BC003B8803F101034FEA6303FB607B8803F1E5
:10A3CC00005303F540534FEA43033B61FB687B6149
:10A3DC0014E07B683A69126892B21A807B6803F1C8
:10A3EC0001037B603B6903F104033B617B6803F170
:10A3FC0001037B607B6903F1FF337B617B69002B7D
:10A40C00E7D107F11C07BD4680BC704780B483B010
:10A41C0000AF0346FB80064AF9884FF6F87301EA51
:10A42C000303136007F10C07BD4680BC704700BFE7
:10A43C00505C004080B483B000AF02460B46FA710A
:10A44C00BB80FB794FEA830303F1804303F5B843E8
:10A45C00FA794FEA820202F1804202F5B8421268A0
:10A46C0092B222F4EC4222F0700291B2BA8841EA24
:10A47C00020292B292B21A6007F10C07BD4680BC80
:10A48C00704700BF90B482B000AF02460B46FA7121
:10A49C00BB80FB794FEA830303F1804303F5B84398
:10A4AC001B689BB223F4E04323F040039CB2BB88AF
:10A4BC0003F010039BB2002B02D084F010039CB26B
:10A4CC00BB8803F020039BB2002B02D084F0200346
:10A4DC009CB2FB794FEA830303F1804303F5B84345
:10A4EC00044A44EA020292B21A6007F10807BD4618
:10A4FC0090BC70478080FFFF90B482B000AF0246E2
:10A50C000B46FA71BB80FB794FEA830303F180435E
:10A51C0003F5B8431B689BB223F4804323F070030C
:10A52C009CB2BB8803F480539BB2002B02D084F402
:10A53C0080539CB2BB8803F400539BB2002B02D017
:10A54C0084F400539CB2FB794FEA830303F18043FC
:10A55C0003F5B843044A44EA020292B21A6007F1C6
:10A56C000807BD4690BC70478080FFFF90B482B056
:10A57C0000AF0346FB71FB794FEA830303F1804381
:10A58C0003F5B8431B689BB223F4E04323F040036C
:10A59C009CB284F010039CB284F020039CB2FB7933
:10A5AC004FEA830303F1804303F5B843044A44EABA
:10A5BC00020292B21A6007F10807BD4690BC7047C0
:10A5CC008080FFFF90B482B000AF0346FB71FB7933
:10A5DC004FEA830303F1804303F5B8431B689BB236
:10A5EC0023F4804323F070039CB284F480539CB218
:10A5FC0084F400539CB2FB794FEA830303F180434C
:10A60C0003F5B843044A44EA020292B21A6007F115
:10A61C000807BD4690BC70478080FFFF80B483B0B4
:10A62C0000AF0346FB71FB794FEA830303F18042D1
:10A63C0002F5B842FB794FEA830303F1804303F53B
:10A64C00B8431B689BB223F4F8734FEA03534FEAE9
:10A65C0013539BB243F07F4343F47F0343F4004313
:10A66C0043F080039BB29BB2136007F10C07BD460D
:10A67C0080BC704780B483B000AF0346FB71FB799C
:10A68C004FEA830303F1804303F5B8431B689BB285
:10A69C0003F48043002B19D0FB794FEA830303F1B9
:10A6AC00804303F5B843FA794FEA820202F1804203
:10A6BC0002F5B842126892B2114640F60F7201EAE6
:10A6CC00020242F4404242F080021A6007F10C0789
:10A6DC00BD4680BC704700BF80B483B000AF03465A
:10A6EC00FB71FB794FEA830303F1804303F5B84315
:10A6FC001B689BB203F04003002B19D0FB794FEA87
:10A70C00830303F1804303F5B843FA794FEA8202DD
:10A71C0002F1804202F5B842126892B2114640F63C
:10A72C000F7201EA020242F4004242F0C0021A60C7
:10A73C0007F10C07BD4680BC704700BF80B483B0E6
:10A74C0000AF02460B46FA71BB800D4B1B689BB2E7
:10A75C001A46FB794FEAC303D31803F1005303F5F0
:10A76C0040534FEA4303BA884FEA520292B24FEA7F
:10A77C0042021A6007F10C07BD4680BC704700BF4F
:10A78C00505C004080B483B000AF02460B46FA71B7
:10A79C00BB800C4B1B689BB21A46FB794FEAC30378
:10A7AC00D218094BD3184FEA4303BA884FEA520226
:10A7BC0092B24FEA42021A6007F10C07BD4680BC08
:10A7CC00704700BF505C00400430002080B483B060
:10A7DC0000AF0346FB710B4B1B689BB21A46FB790F
:10A7EC004FEAC303D31803F1005303F540534FEA68
:10A7FC0043031B689BB2184607F10C07BD4680BC8F
:10A80C00704700BF505C004080B483B000AF03467B
:10A81C00FB710A4B1B689BB21A46FB794FEAC303C8
:10A82C00D218074BD3184FEA43031B689BB2184648
:10A83C0007F10C07BD4680BC704700BF505C004060
:10A84C000430002080B483B000AF02460B46FA718E
:10A85C00BB80094B1B689BB21A46FB794FEAC303BA
:10A86C00D218064BD3184FEA4303BA881A6007F183
:10A87C000C07BD4680BC7047505C00400230002085
:10A88C0080B485B000AF02460B46FA71BB801F4BFB
:10A89C001B689BB21A46FB794FEAC303D2181C4BB8
:10A8AC00D3184FEA4303BB60BB883E2B15D9BB883A
:10A8BC004FEA5313FB81BB8803F01F03002B03D11A
:10A8CC00FB8903F1FF33FB81FB894FEA832343F4BC
:10A8DC0000431A46BB681A6013E0BB884FEA530367
:10A8EC00FB81BB8803F00103DBB2002B03D0FB8997
:10A8FC0003F10103FB81FB894FEA83231A46BB68F2
:10A90C001A6007F11407BD4680BC7047505C0040CC
:10A91C000630002080B483B000AF0346FB710C4BB3
:10A92C001B689BB21A46FB794FEAC303D218094B3A
:10A93C00D3184FEA43031B689BB24FEA83534FEA89
:10A94C0093539BB2184607F10C07BD4680BC704769
:10A95C00505C00400630002080B485B000AF034648
:10A96C00FB80FB88FB73FB884FEA13239BB29AB2E4
:10A97C00FB7B4FEA03239BB242EA03039BB2BB81EE
:10A98C00BB89184607F11407BD4680BC704700BF51
:10A99C0080B400AF084B4FF000021A60074B4FF425
:10A9AC0006421A80064B054A12881A604FF00003C3
:10A9BC001846BD4680BC7047445C0040A00800208F
:10A9CC00405C004080B584B000AF03463960FB7139
:10A9DC004FF00003FB60FB7903F07F03DBB21846FA
:10A9EC00FFF798FF0346FB60FB7903F07F03DBB2B4
:10A9FC001846FFF709FF03461A46FB689BB23868F6
:10AA0C0011461A46FFF7CCFCFB68184607F11007F5
:10AA1C00BD4680BD002103E00A4B5B584350043116
:10AA2C0009480A4B42189A42F6D3094A02E000231D
:10AA3C0042F8043B074B9A42F9D3FDF7A3FCFDF710
:10AA4C002BFC704734BF00080000002000010020E0
:10AA5C0000010020A8080020FEE7000049444C45F6
:10AA6C000000000012010002020000408304405765
:10AA7C00000201020301000009024300020100C0B0
:10AA8C003209040000010202010005240010010536
:10AA9C00240100010424020205240600010705829A
:10AAAC00030800FF09040100020A00000007050367
:10AABC000240000007058102400000000403090465
:10AACC002603530054004D006900630072006F00B0
