:020000040800F2
:1050000000280020D18A000899650008A5650008DD
:10501000AD650008B5650008BD650008000000002A
:10502000000000000000000000000000F152000835
:10503000C565000800000000115300084D5300082A
:10504000158B0008158B0008158B0008158B0008C0
:10505000158B0008158B0008158B0008158B0008B0
:10506000158B0008158B0008158B0008158B0008A0
:10507000158B0008158B0008158B0008158B000890
:10508000158B0008158B0008158B0008158B000880
:1050900021650008158B0008158B0008158B00088A
:1050A000158B0008158B0008158B0008158B000860
:1050B000158B0008158B0008158B0008AD580008EB
:1050C000BD580008E1580008F1580008158B000889
:1050D000158B0008158B0008158B0008158B000830
:1050E000158B0008158B0008158B000800000000C8
:1050F00000000000000000000000000000000000B0
:0C51000000000000000000005FF808F153
:10510C0040F2D803C2F200031A780AB901201870D1
:10511C00704700BF40F2D800C2F2000008B5036827
:10512C002BB140F20003C0F2000303B1984708BD55
:10513C00032A70B404460D4626D941EA000313F045
:10514C00030F13D020782B78984208BF294606D03D
:10515C001EE014F8010F11F8013F984218D1012AF2
:10516C0002F1FF32F5D1002070BC70470B460446AB
:10517C0051F8045B50F8046BAE4204D1043A044677
:10518C00032A0B46F2D81D461046002ADAD1EBE76B
:10519C00C01AE9E7032A2DE9F00109D82AB1002346
:1051AC00CC5CC45401339342FAD1BDE8F001704792
:1051BC000B468218014603E02478013301F8014BB9
:1051CC0011F0030F1C46F7D113F003055DD06E42AE
:1051DC00C5F1040CED009B594FEACC0C08E00434EB
:1051EC00A7593B4607FA0CF748EA070741F8047B36
:1051FC00571A23FA05F8032FF1DC03E014F8013BEE
:10520C0001F8013B8A42F9D8CFE753F8404C41F8FA
:10521C00404C53F83C4C41F83C4C53F8384C41F85A
:10522C00384C53F8344C41F8344C53F8304C41F86A
:10523C00304C53F82C4C41F82C4C53F8284C41F87A
:10524C00284C53F8244C41F8244C53F8204C41F88A
:10525C00204C53F81C4C41F81C4C53F8184C41F89A
:10526C00184C53F8144C41F8144C53F8104C41F8AA
:10527C00104C53F80C4C41F80C4C53F8084C41F8BA
:10528C00084C53F8044C41F8044C561A1D460C4675
:10529C00403340313F2EB8DC2B460FE053F8101C46
:1052AC0044F8101C53F80C1C44F80C1C53F8081C44
:1052BC0044F8081C53F8041C44F8041C161B214623
:1052CC001D46103410330F2EE8DC2B4602E0246808
:1052DC0041F8044B551A1C46032D03F10403F6DC6C
:1052EC0090E700BF064B19680868B0E8F00F80F330
:1052FC0009884FF0000080F311884EF00D0E7047B6
:10530C007C010020EFF309800C4B1A6820E9F00FA8
:10531C0010602DE908404FF0500080F3118801F027
:10532C002BF84FF0000080F31188BDE80840196895
:10533C000868B0E8F00F80F3098870477C01002002
:10534C0080B582B000AF0A4B4FF080521A604FF01C
:10535C0000037B604FF0500080F3118800F062FF77
:10536C004FF0000080F3118807F10807BD4680BD9F
:10537C0004ED00E080B400AF024B1B681846BD463C
:10538C0080BC70472002002080B400AF024B1B6829
:10539C001846BD4680BC70471C02002080B483B008
:1053AC0000AF0346FB71FB794FF09C0202FB03F24A
:1053BC00034BD318184607F10C07BD4680BC704749
:1053CC002402002080B485B000AF0346FB71FB794A
:1053DC004FF09C0202FB03F21E4BD318FB60FB68E0
:1053EC004FF000021A70FB684FF000025A70FB6815
:1053FC004FF001029A70FB684FF00002DA70FB79F3
:10540C00002B01D1144B00E0144BFA685360FB687D
:10541C004FF000021A72FB684FF000025A72FB68E0
:10542C000F4ADA60FB684FF010021A61FB684FF00C
:10543C00000283F89820FB684FF0000283F8992053
:10544C00FB684FF0000283F89A2007F11407BD4661
:10545C0080BC7047240200200054004000580040DB
:10546C00A086010080B58AB000AF02460B46FA71E7
:10547C00BB71FB794FF09C0202FB03F2404BD3183B
:10548C007B62FB79002B02D14FF4001301E04FF447
:10549C0080033B62FB79002B02D14FF0400301E00B
:1054AC004FF48063FB83FB79002B02D14FF0800318
:1054BC0001E04FF40063BB83BB79002B4AD0386A00
:1054CC004FF0010101F054FD4FF009004FF00101C4
:1054DC0001F02CFDFA8BBB8B42EA03039BB23B839E
:1054EC004FF00303BB764FF01C03FB7607F1180358
:1054FC002448194601F0B8F97B6A5B68184601F03C
:10550C0093FA4FF00003BB814FF48043FB817B6A1D
:10551C001B7A3B824FF480637B824FF48043BB82C7
:10552C007B6ADB68BB607B6A5B6818464FF00101E5
:10553C0001F07AFB7B6A5A6807F10803104619469A
:10554C0001F09AFA7B6A5B6818464FF0010101F092
:10555C008BFB10E07B6A5B68184601F065FA7B6A8E
:10556C005B6818464FF0000101F05EFB386A4FF0A3
:10557C00000101F0FDFC07F12807BD4680BD00BF0E
:10558C0024020020000C014080B588B000AF3B60C5
:10559C000346FB710B46BB7113467B71FB794FF0D5
:1055AC009C0202FB03F24B4BD318FB61FB69BA79EB
:1055BC009A70FB697A791A72FB693A68DA60FB694E
:1055CC005B68184601F030FA4FF000033B824FF451
:1055DC0080437B82FB691B7ABB824FF48063FB8226
:1055EC004FF480433B83FB69DB68FB60FB695A68C3
:1055FC0007F10C031046194601F03EFAFB695B6893
:10560C0018464FF0010101F02FFBFB695B6818464F
:10561C004FF400714FF0000201F046FBFB695B6830
:10562C0018464FF480614FF0000201F03DFBFB691E
:10563C005B6818464FF480714FF0000201F034FBA8
:10564C00FB699B78002B40D14FF4407001F078F847
:10565C004FF01F033B724FF009037B724FF00003B6
:10566C00BB724FF00103FB7207F10803184601F0FF
:10567C0079F84FF020033B7207F10803184601F04C
:10568C0071F8FB694FF0000283F89A20FB694FF028
:10569C000002DA70FB695B6818464FF400714FF03A
:1056AC00010201F001FBFB695B6818464FF4806155
:1056BC004FF0010201F0F8FAFB695B6818464FF4F1
:1056CC0080714FF0010201F0EFFA07F12007BD469F
:1056DC0080BD00BF24020020B0B586B000AF0346E9
:1056EC00FB71FB791846FFF759FE78617B695B68A3
:1056FC00184601F01DFB38613B69B3F1021F13D052
:10570C00B3F1021F06D8102B00F09080B3F5806F18
:10571C007CD0AAE05C4A934216D05C4A93424FD0AC
:10572C005B4A934232D0A0E07B694FF0000283F8D1
:10573C0099207B694FF01202DA707B695B6818461E
:10574C00544901F01DFB9AE07B694FF0000283F88D
:10575C0098207B694FF0000283F89A207B694FF008
:10576C001302DA707B6959687B6993F898301A4692
:10577C0078698218127E03F10103D8B27B6983F831
:10578C0098000846114601F0B5FA78E07B6993F869
:10579C00994025467B695B68184601F0BBFA0346C5
:1057AC001A467B695B1983F8582004F10103DAB2BD
:1057BC007B6983F899207B694FF01402DA705EE004
:1057CC007B6993F89A30002B58D17B6959687B69B7
:1057DC0093F898301A4678698218127E03F1010307
:1057EC00D8B27B6983F898000846114601F082FA1A
:1057FC007B6993F8983003F03F03DAB27B6983F846
:10580C0098207B694FF01502DA7038E07B694FF015
:10581C00010283F89A207B694FF01602DA707B69DB
:10582C005B6818461C4901F0ABFA28E07B694FF025
:10583C00010283F89A207B694FF01702DA707B69BA
:10584C005B681846154901F09BFA7B695B689B8A7B
:10585C009BB2FB607B695B687A695268128892B272
:10586C0042F0010292B21A8009E07B695B6818462B
:10587C006FF07F4101F084FA00BF00E000BF07F138
:10588C001807BD46B0BD00BF8200060084000600AC
:10589C004000020002000010000400101000001074
:1058AC0080B500AF4FF00000FFF716FF80BD00BFC2
:1058BC0080B582B000AF4FF00000FFF76FFD78604D
:1058CC007B685B68184601F033FA386007F108070B
:1058DC00BD4680BD80B500AF4FF00100FFF7FCFE68
:1058EC0080BD00BF80B400AFBD4680BC704700BF18
:1058FC0080B483B000AF0346FB7107F10C07BD46C3
:10590C0080BC704780B584B000AF104B1B68FB6047
:10591C000F4B1B68BB600F4B1B687B60FA687B6886
:10592C00D318FB60FB68002B0BD0F8680A494FF0CA
:10593C00080200F015F8B86808494FF0040200F0AE
:10594C000FF807F11007BD4680BD00BFE8F7FF1F39
:10595C00ECF7FF1FF0F7FF1F0200002012000020E1
:10596C0080B487B000AFF860B9601346FB714FF09C
:10597C000003FB754FF00003FB7531E0FB684FEA49
:10598C001373092B0DD8FB7D4FEA4303BA68D31868
:10599C00FA684FEA1272D2B202F13002D2B21A7025
:1059AC000CE0FB7D4FEA4303BA68D318FA684FEA60
:1059BC001272D2B202F13702D2B21A70FB684FEAFD
:1059CC000313FB60FB7D4FEA430303F10103BA6849
:1059DC00D3184FF000021A70FB7D03F10103FB7525
:1059EC00FA7DFB799A42C9D307F11C07BD4680BCEE
:1059FC00704700BF80B400AFBD4680BC704700BF8D
:105A0C0080B584B000AF4FF00300154903F032F8B5
:105A1C000346FB80FB88002B1AD0FFF7ABFC3860E9
:105A2C004FF00003BB604FF00003FB810CE0FA89E0
:105A3C000B4BD31838681946BA6800F07BFBB8607A
:105A4C00FB8903F10103FB81FA89FB889A42EED3AF
:105A5C004FF0030002F00EFE07F11007BD4680BDAB
:105A6C001C01002080B584B000AF1C4B1B68052BBB
:105A7C0030D1FFF789FCB8604FF000037B604FF02A
:105A8C000003FB7303E0FB7B03F10103FB73FA7B65
:105A9C00134BD21807F10403B86811461A4600F0EC
:105AAC0075FB0346012BEED0FB7B002B12D0FB7B4E
:105ABC009BB20B484FF0C0011A4602F083FCFB7BF3
:105ACC009BB24FF00100194602F014FF4FF0010099
:105ADC0002F0A4FD07F11007BD4680BD6001002057
:105AEC00DC00002080B500AF1E4B1B689AB21E4B29
:105AFC001A801D4B1B889BB203F400721B4B1B8836
:105B0C0002EA0303002B0DD0164B4FF6FF521A601E
:105B1C00174B1B78DBB203F10103DAB2144B1A708A
:105B2C00FFF7A0FF104B1B889BB203F400420F4BF6
:105B3C001B8802EA0303002B01D002F0A7FA0A4BE0
:105B4C001B889BB203F48062084B1B8802EA030398
:105B5C00002B06D0034B4FF6FF321A60054B5B68E7
:105B6C00984780BD445C00405C03002094030020F7
:105B7C005C0100206000002080B500AFFFF7C2FE82
:105B8C00064B1B684FF000029A7200F0C3F902F04A
:105B9C0057FF034B4FF000021A6080BD90030020AA
:105BAC006001002080B500AF484B1B684FF000022D
:105BBC009A72464B1B68464AD2795A72434B1B6801
:105BCC004FF00002DA724FF0000002F077FC4FF059
:105BDC0000004FF4007102F085FC4FF000004FF014
:105BEC00100102F0A7FC4FF000004FF0400102F052
:105BFC0021FE4FF000004FF0800102F0F7FD4FF056
:105C0C00000002F063FD334B93F82C304FF0000092
:105C1C00194602F08DFE4FF0000002F02BFD4FF004
:105C2C0001004FF0000102F05DFC4FF001004FF05D
:105C3C00C00102F0DBFD4FF001004FF0200102F03B
:105C4C0079FC4FF001004FF0000102F0ADFC4FF079
:105C5C0002004FF4C06102F045FC4FF002004FF41B
:105C6C00807102F0C3FD4FF002004FF0000102F012
:105C7C009BFC4FF002004FF0200102F05BFC4FF058
:105C8C0003004FF0000102F02DFC4FF003004FF425
:105C9C00887102F0CFFD4FF003004FF0400102F08D
:105CAC0047FE4FF003004FF4405102F07DFC4FF0E3
:105CBC0003004FF0000102F03DFC4FF0000002F039
:105CCC009DF9054B4FF001021A6080BD9003002036
:105CDC002C8B0008600000206001002080B400AF15
:105CEC00054B1B78202B03D1034B4FF000021A708D
:105CFC00BD4680BC704700BF5D01002080B400AF82
:105D0C00BD4680BC704700BF80B584B000AF034671
:105D1C00FB714FF00003FB60FB79212B09D11A4B6F
:105D2C001B681B7803F07F03212B12D1174BFB60F0
:105D3C000FE0FB79202B0CD1134B1B681B7803F065
:105D4C007F03212B01D1124BFB60124B4FF0200231
:105D5C001A70FB68002B02D14FF002030EE00A4BC5
:105D6C001B68FA689A61084B1B684FF000025A8254
:105D7C00FB684FF0000098474FF00003184607F1FE
:105D8C001007BD4680BD00BF90030020B15E000827
:105D9C00E95E00085D01002080B483B000AF0346CB
:105DAC00FB710D4B1B681B7803F07F03212B0BD170
:105DBC00FB79022B02D14FF0000307E0FB79222B79
:105DCC0002D14FF0000301E04FF00203184607F137
:105DDC000C07BD4680BC70479003002080B582B094
:105DEC0000AF0346FB80FB881846044901F00AFC0F
:105DFC000346184607F10807BD4680BD90000020F9
:105E0C0080B582B000AF0346FB80FB88184604497E
:105E1C0001F0F8FB0346184607F10807BD4680BDA4
:105E2C009800002080B584B000AF0346FB800D4B7A
:105E3C001B68DB78FB73FB7B042B02D94FF0000350
:105E4C000AE0FB7B4FEAC302074BD318FA881046D3
:105E5C00194601F0D7FB0346184607F11007BD465B
:105E6C0080BD00BF90030020A000002080B483B050
:105E7C0000AF02460B46FA71BB71BB79002B02D006
:105E8C004FF0020307E0FB79012B02D94FF002031C
:105E9C0001E04FF00003184607F10C07BD4680BC2B
:105EAC00704700BF80B483B000AF0346FB80FB8813
:105EBC00002B07D1074B1B684FF008021A824FF0DA
:105ECC00000300E0044B184607F10C07BD4680BCEC
:105EDC00704700BF900300205400002080B483B0B2
:105EEC0000AF0346FB80FB88002B07D1074B1B68D8
:105EFC004FF008021A824FF0000300E0044B1846E2
:105F0C0007F10C07BD4680BC704700BF9003002012
:105F1C005400002080B582B000AF4FF00100FFF7B5
:105F2C00E7FC4FF00103FB800E4BFA881A600E4B16
:105F3C004FF000021A800B4B0B4A12881A600B4B65
:105F4C004FF000021A60084B4FF4E0521A80054BD8
:105F5C00054A12881A604FF00003184607F108072B
:105F6C00BD4680BD405C004094030020445C004072
:105F7C0080B584B000AF78607B68DB68DB68BB60A1
:105F8C00BB6803F11803184600F048F8BB6803F12E
:105F9C0018030C48194600F019F8BB68DA6A0A4B6A
:105FAC001B68DB6A9A4203D34FF00103FB6002E0EB
:105FBC004FF00003FB60FB68184607F11007BD4665
:105FCC0080BD00BF640100207801002080B485B042
:105FDC0000AF786039607B685B68FB60FB685A686F
:105FEC003B685A607B685A683B689A60FB685B68E0
:105FFC003A689A603A68FB685A603A687B685A60FB
:10600C003B687A681A617B681B6803F101027B6844
:10601C001A6007F11407BD4680BC704780B485B088
:10602C0000AF78607B685B687A6892689A607B687E
:10603C009B687A6852685A607B681B69FB60FB68D6
:10604C005A687B689A4203D17B689A68FB685A60ED
:10605C007B684FF000021A61FB681B6803F1FF328A
:10606C00FB681A6007F11407BD4680BC704700BF7F
:10607C0080B584B000AFF860B9607A60FB681B6CC7
:10608C00002B0DD1FB681B68002B48D1FB685B68AB
:10609C00184600F0FBF9FB684FF000025A603EE036
:1060AC007B68002B1AD1FB689A68FB681B6C104646
:1060BC00B9681A46FFF76EF8FB689A68FB681B6CA8
:1060CC00D218FB689A60FB689A68FB685B689A4216
:1060DC0025D3FB681A68FB689A6020E0FB68DA68D5
:1060EC00FB681B6C1046B9681A46FFF753F8FB683F
:1060FC00DA68FB681B6CC3F10003D218FB68DA602A
:10610C00FB68DA68FB681B689A4208D2FB685A681D
:10611C00FB681B6CC3F10003D218FB68DA60FB68E8
:10612C009B6B03F10102FB689A6307F11007BD46F4
:10613C0080BD00BF80B584B000AFF860B9607A60F4
:10614C00FB689A6BFB68DB6B9A4218D2F868B968EB
:10615C004FF00002FFF78CFF7B68002B0FD1FB6820
:10616C005B6A002B0BD0FB6803F124031846FFF786
:10617C00FFFE0346002B02D04FF0010300E07B68CA
:10618C00184607F11007BD4680BD00BF80B586B02C
:10619C0000AFF860B9607A60FB689B6B002B38D05D
:1061AC00FB68DA68FB681B6CD218FB68DA60FB686A
:1061BC00DA68FB685B689A4203D3FB681A68FB6871
:1061CC00DA60FB689B6B03F1FF32FB689A63FB6838
:1061DC00DA68FB681B6CB86811461A46FEF7DAFFE2
:1061EC007B681B68002B10D1FB681B69002B0CD043
:1061FC00FB6803F110031846FFF7BAFE0346002BA9
:10620C0003D07B684FF001021A604FF001037B61F1
:10621C0002E04FF000037B617B69184607F1180719
:10622C00BD4680BD80B584B000AF4A4B1B68002BC7
:10623C0040F08580484B1B6803F10102464B1A6005
:10624C00454B1B68002B2CD1444B1B681B68002B47
:10625C0004D04FF0500080F31188FEE73F4B1B68D1
:10626C00FB603F4B1A683D4B1A603D4BFA681A6055
:10627C003C4B1B6803F101023A4B1A60374B1B680D
:10628C001B68002B04D1384B4FF0FF321A6008E02A
:10629C00324B1B68DB68DB68BB60BB685A68324BEF
:1062AC001A602D4B1A68304B1B689A424DD32B4BFE
:1062BC001B681B68002B04D12B4B4FF0FF321A606C
:1062CC0043E0264B1B68DB68DB68BB60BB685B6824
:1062DC007B60214B1A687B689A4203D2224B7A6806
:1062EC001A6032E0BB6803F104031846FFF796FE10
:1062FC00BB689B6A002B05D0BB6803F118031846DA
:10630C00FFF78CFEBB68DA6A184B1B689A4203D9FC
:10631C00BB68DA6A154B1A60BB68DA6A13464FEA37
:10632C0083039B184FEA83031A46114BD218BB68A0
:10633C0003F1040310461946FFF748FEB7E70D4B6F
:10634C001B6803F101020B4B1A6007F11007BD46E5
:10635C0080BD00BFF4010020EC010020E40100200E
:10636C00E801002000020020C0000020F001002005
:10637C0080010020F801002080B582B000AF3D4BB9
:10638C001B68002B04D03C4B4FF001021A606CE0F0
:10639C003A4B1B681A68394B1B681B6B9A420AD81C
:1063AC00364B1B681A46354B1B6803F134031046F9
:1063BC00194600F0DBF8314B1B681B6B1846304953
:1063CC004FF01402FEF7B4FE0346002B1BD02B4BF0
:1063DC001B681A46294B1B6803F1340310461946F7
:1063EC0000F0C4F810E0274B1B68002B04D14FF0D1
:1063FC00500080F31188FEE7224B1B6803F1FF323B
:10640C00204B1A6000E000BF1E4B1A6813464FEA7F
:10641C0083039B184FEA83031A461B4BD3181B6844
:10642C00002BE0D0174B1A6813464FEA83039B18D6
:10643C004FEA83031A46144BD3187B607B685B6866
:10644C005A687B685A607B685A687B6803F108035A
:10645C009A4204D17B685B685A687B685A607B6897
:10646C005B68DB681A46054B1A6007F10807BD46E6
:10647C0080BD00BFF4010020FC0100207C01002045
:10648C00D08B0008F00100208001002080B584B082
:10649C0000AF78607B68FB607B68002B31D0FB68B9
:1064AC00DA6AFB68DB6B9A422BD0FB6803F10403BE
:1064BC001846FFF7B3FDFB68DA6BFB68DA62FB6822
:1064CC00DB6AC3F10502FB689A61FB68DA6A0F4B61
:1064DC001B689A4203D9FB68DA6A0C4B1A60FB689A
:1064EC00DA6A13464FEA83039B184FEA83031A4672
:1064FC00074BD218FB6803F1040310461946FFF74B
:10650C0065FD07F11007BD4680BD00BFF0010020FE
:10651C008001002080B500AFFFF7E4FA80BD00BF1A
:10652C0080B500AF4FF000604FF4A04100F086F949
:10653C004FF00000FEF746FF4FF000004FF0010156
:10654C00FEF790FF4FF000004FF000014FF07B0280
:10655C0042F21073FFF718F8034B1B6803F10102AA
:10656C00014B1A60F8E700BF0402002080B485B02C
:10657C0000AF786039604FF00003FB73FB7BDBB23C
:10658C0003F10103DBB2FB73F8E700BF80B400AF8B
:10659C00BD4680BC704700BF80B400AFFEE700BFB3
:1065AC0080B400AFFEE700BF80B400AFFEE700BFD1
:1065BC0080B400AFFEE700BF80B400AFBD4680BC26
:1065CC00704700BF80B500AF154B154A126842F0FA
:1065DC0001021A60124A124B5968124B01EA03036A
:1065EC0053600F4A0E4B1B6823F0847323F48033E3
:1065FC0013600B4B0A4A126822F480221A60084B73
:10660C00074A526822F4FE025A60054B4FF41F02EF
:10661C009A6000F00BF8044B4FF000629A6080BD5A
:10662C00001002400000FFF800ED00E080B500AF64
:10663C0000F002F880BD00BF80B483B000AF4FF013
:10664C0000037B604FF000033B603B4B3A4A1268FF
:10665C0042F480321A60384B1B6803F400333B6001
:10666C007B6803F101037B603B68002B03D17B68E3
:10667C00B3F5A06FEFD1304B1B6803F40033002B44
:10668C0003D04FF001033B6002E04FF000033B608E
:10669C003B68012B4BD1294B284A126842F010025F
:1066AC001A60264B254A126822F003021A60234B0B
:1066BC00224A126842F001021A601F4B1E4A5268AD
:1066CC005A601D4B1C4A52685A601B4B1A4A52683E
:1066DC0042F480625A60184B174A526822F47C12BA
:1066EC005A60154B144A526842F488125A60124B85
:1066FC00114A126842F080721A6000BF0E4B1B6880
:10670C0003F00073002BF9D00B4B0B4A526822F0AC
:10671C0003025A60084B084A526842F002025A605F
:10672C0000BF054B5B6803F00C03082BF9D107F194
:10673C000C07BD4680BC7047001002400020024090
:10674C0080B483B000AF7860054A7B6843F0BE63C9
:10675C0043F42023D36007F10C07BD4680BC70477F
:10676C0000ED00E080B487B000AF78604FF000031C
:10677C007B614FF000033B614FF00F03FB607B68C4
:10678C00DB78002B3FD02B4BDB686FEA030303F461
:10679C00E0634FEA13237B617B69C3F104033B6124
:1067AC007B69FA6822FA03F3FB607B685B781A4614
:1067BC003B6902FA03F37B617B689B781A46FB68A2
:1067CC0002EA03037A6942EA03037B617B694FEABD
:1067DC0003137B6118497B681B787A69D2B2CB189A
:1067EC0083F80023144B7A6812784FEA5212D2B213
:1067FC007968097801F01F014FF0010000FA01F1EE
:10680C0043F8221011E00C4B7A6812784FEA5212BE
:10681C00D2B27968097801F01F014FF0010000FA3B
:10682C0001F102F1200243F8221007F11C07BD46CA
:10683C0080BC704700ED00E000E100E080B483B064
:10684C0000AF78603960074A3B6823F0604323F05F
:10685C007F0379680B43936007F10C07BD4680BC3E
:10686C00704700BF00ED00E080B489B000AF7860E5
:10687C0039604FF00003FB614FF000033B614FF0B8
:10688C000003BB614FF00003FB604FF000037B6122
:10689C004FF00003BB603B68DB7803F00F03FB6138
:1068AC003B68DB7803F01003002B05D03B689B782A
:1068BC00FA6942EA0303FB613B681B8803F0FF03A0
:1068CC00002B51D07B681B687B614FF00003BB61D0
:1068DC0044E0BB694FF0010202FA03F3FB603B6832
:1068EC001B881A46FB6802EA03033B613A69FB68A2
:1068FC009A422FD1BB694FEA8303FB60FB684FF0D0
:10690C000F0202FA03F3BB60BB686FEA03037A69F8
:10691C0002EA03037B61FB68FA6902FA03F37A6902
:10692C0042EA03037B613B68DB78282B07D1BB6908
:10693C004FF0010202FA03F27B685A610AE03B68ED
:10694C00DB78482B06D1BB694FF0010202FA03F247
:10695C007B681A61BB6903F10103BB61BB69072B3F
:10696C00B7D97B687A691A603B681B88FF2B56D9AC
:10697C007B685B687B614FF00003BB6149E0BB69DE
:10698C0003F108034FF0010202FA03F3FB603B68CA
:10699C001B881A46FB6802EA03033B613A69FB68F1
:1069AC009A4232D1BB694FEA8303FB60FB684FF01C
:1069BC000F0202FA03F3BB60BB686FEA03037A6948
:1069CC0002EA03037B61FB68FA6902FA03F37A6952
:1069DC0042EA03037B613B68DB78282B08D1BB6957
:1069EC0003F108034FF0010202FA03F27B685A61CB
:1069FC003B68DB78482B08D1BB6903F108034FF0E7
:106A0C00010202FA03F27B681A61BB6903F101030C
:106A1C00BB61BB69072BB2D97B687A695A6007F1F5
:106A2C002407BD4680BC704780B582B000AF78604B
:106A3C007A68104B9A420CD14FF400104FF00101C0
:106A4C0000F0B8FA4FF400104FF0000100F0B2FA69
:106A5C000BE04FF480004FF0010100F0ABFA4FF463
:106A6C0080004FF0000100F0A5FA07F10807BD46C1
:106A7C0080BD00BF0054004080B58AB000AF786084
:106A8C0039604FF00003FB844FF000037B844FF020
:106A9C000403BB84604BFB617B689B88FB84FB8C91
:106AAC0023F03F03FB8407F10803184600F080F93C
:106ABC003B69FB61FA69594BA3FB02134FEA934301
:106ACC007B84FA8C7B8C42EA0303FB847B68FA8C14
:106ADC009A807B681B889BB223F001039AB27B6877
:106AEC001A804FF00003FB843B681A684C4B9A42A7
:106AFC0019D83B681B684FEA4303FA69B2FBF3F3FE
:106B0C00BB84BB8C032B02D84FF00403BB84FA8CE0
:106B1C00BB8C42EA0303FB847B8C03F101039AB226
:106B2C007B681A8449E03B68DA884BF6FF739A421B
:106B3C000AD13B681A6813464FEA43039B18FA695B
:106B4C00B2FBF3F3BB8410E03B681A6813464FEAC0
:106B5C0083039B184FEA83029B18FA69B2FBF3F389
:106B6C00BB84BB8C43F48043BB84BB8C4FEA035384
:106B7C004FEA1353002B03D1BB8C43F00103BB84AE
:106B8C00BA8CFB8C42EA03039BB26FEA43436FEA75
:106B9C005343FB847B8C4FF4967202FB03F3214A24
:106BAC0082FB03124FEAA2124FEAE373D31A9BB291
:106BBC0003F101039AB27B681A847B68FA8C9A837E
:106BCC007B681B889BB243F001039AB27B681A80E6
:106BDC007B681B88FB84FB8C23F4806323F00A0303
:106BEC00FB843B689A883B685B8942EA03039AB250
:106BFC00FB8C42EA0303FB847B68FA8C1A803B68AB
:106C0C009A893B681B8942EA03039AB27B681A8112
:106C1C0007F12807BD4680BD00127A0083DE1B43B6
:106C2C00A0860100D34D621080B483B000AF7860B1
:106C3C000B46FB70FB78002B08D07B681B889BB243
:106C4C0043F001039AB27B681A8007E07B681B88CB
:106C5C009BB223F001039AB27B681A8007F10C07F0
:106C6C00BD4680BC704700BF80B483B000AF786075
:106C7C000B46FB70FB78002B08D07B681B889BB203
:106C8C0043F480639AB27B681A8007E07B681B88A8
:106C9C009BB223F480639AB27B681A8007F10C07CD
:106CAC00BD4680BC704700BF80B483B000AF786035
:106CBC0013460A467A807B707B78002B09D07B6860
:106CCC009B889AB27B8842EA03039AB27B689A80CB
:106CDC000BE07B689B889AB27B886FEA03039BB2BC
:106CEC0002EA03039AB27B689A8007F10C07BD464F
:106CFC0080BC704780B483B000AF78600B46FB70EB
:106D0C00FB789AB27B681A8207F10C07BD4680BCEF
:106D1C00704700BF80B483B000AF78607B681B8A7B
:106D2C009BB2DBB2184607F10C07BD4680BC70471E
:106D3C0080B487B000AF78604FF000037B614FF0F8
:106D4C0000033B614FF00003FB607B689B8A9BB2A6
:106D5C003B617B681B8B9BB2FB60FB684FEA034378
:106D6C00FB603A69FB6842EA030323F07F437B61D3
:106D7C007B69184607F11C07BD4680BC704700BFF5
:106D8C0080B485B000AF786039604FF00003FB60D1
:106D9C003B6823F07F43FB60FB689BB26FEA030305
:106DAC009AB27B689A8207F11407BD4680BC704783
:106DBC0080B487B000AF78604FF000037B614FF078
:106DCC0000033B614FF00003FB604FF00003BB601E
:106DDC00514B5B6803F00C037B617B69042B07D080
:106DEC00082B09D0002B35D17B684C4A1A6035E052
:106DFC007B684A4A1A6031E0474B5B6803F47013B6
:106E0C003B61454B5B6803F48033FB603B694FEAA5
:106E1C00934303F102033B61FB68002B06D13B69F2
:106E2C003F4A02FB03F27B681A6017E03A4B5B683F
:106E3C0003F40033002B06D03B69394A02FB03F202
:106E4C007B681A600AE03B69344A02FB03F27B68F8
:106E5C001A6003E07B68314A1A6000BF2E4B5B68F6
:106E6C0003F0F0037B617B694FEA13137B612D4ABE
:106E7C007B69D3181B78DBB2BB607B681A68BB6874
:106E8C0022FA03F27B685A60234B5B6803F4E063DD
:106E9C007B617B694FEA13237B61224A7B69D318A0
:106EAC001B78DBB2BB607B685A68BB6822FA03F2C2
:106EBC007B689A60184B5B6803F460537B617B6959
:106ECC004FEAD3237B61174A7B69D3181B78DBB25B
:106EDC00BB607B685A68BB6822FA03F27B68DA6095
:106EEC000D4B5B6803F440437B617B694FEA933342
:106EFC007B610D4A7B69D3181B78DBB2BB607B6866
:106F0C00DA68BB68B2FBF3F27B681A6107F11C0705
:106F1C00BD4680BC704700BF0010024000127A00D2
:106F2C0000093D00C4000020D400002080B483B0D0
:106F3C0000AF78600B46FB70FB78002B07D00B4B37
:106F4C000A4A91697A6841EA02029A6108E0074BA1
:106F5C00064A91697A686FEA020201EA02029A61B2
:106F6C0007F10C07BD4680BC704700BF0010024003
:106F7C0080B483B000AF78600B46FB70FB78002BBD
:106F8C0007D00B4B0A4AD1697A6841EA0202DA61EE
:106F9C0008E0074B064AD1697A686FEA020201EAF7
:106FAC000202DA6107F10C07BD4680BC704700BFD6
:106FBC000010024080B483B000AF78600B46FB70C9
:106FCC00FB78002B07D00B4B0A4A11697A6841EA0F
:106FDC0002021A6108E0074B064A11697A686FEAE7
:106FEC00020201EA02021A6107F10C07BD4680BCDD
:106FFC00704700BF0010024080B582B000AF03465E
:10700C00FB80FB88002B07D10A4B1B684FF0010259
:10701C001A824FF0000307E0074B1B681B68984768
:10702C00044B1B6803F10A03184607F10807BD4619
:10703C0080BD00BF900300208C03002080B500AF02
:10704C00104B1B68DA78104B5B789A4216D80D4BB4
:10705C001B689B78002B11D10A4B1B689B88002B5B
:10706C000CD1084B1B68074A1268D2789A72074BEE
:10707C001B685B6898474FF0000301E04FF0020378
:10708C00184680BD900300205C0000208C0300207B
:10709C0080B582B000AF0346FB80FB88002B07D184
:1070AC000A4B1B684FF001021A824FF0000307E0F5
:1070BC00074B1B689B689847044B1B6803F10C0338
:1070CC00184607F10807BD4680BD00BF900300209D
:1070DC008C03002080B582B000AF204B1B689B69ED
:1070EC001F4A126851791E4A1268D2780846114616
:1070FC0098470346FB711A4B1B689B7A002B25D0D3
:10710C00FB79002B09D1164B1B681B79002B04D182
:10711C00134B1B689B78002B02D04FF0020317E037
:10712C00FB79002B12D10F4B1B68DB6898470C4B7B
:10713C001B680B4A12685279DA72094B1B68084AB1
:10714C001268D2781A734FF0000301E04FF002037B
:10715C00184607F10807BD4680BD00BF6803002034
:10716C00900300208C03002080B584B000AF034650
:10717C00FB80FB88002B07D1494B1B684FF00202A8
:10718C001A824FF0000386E0464B4FF000021A8043
:10719C00434B1B681B7803F07F03002B2CD1404B17
:1071AC001B685B7AFB73FB7B03F02003002B07D07F
:1071BC003C4B1B7843F00203DAB23A4B1A7006E0F0
:1071CC00384B1B7823F00203DAB2364B1A70FB7B78
:1071DC0003F04003002B07D0324B1B7843F0010324
:1071EC00DAB2304B1A7051E02E4B1B7823F00103AE
:1071FC00DAB22C4B1A7049E0294B1B681B7803F050
:10720C007F03012B01D1274B45E0254B1B681B78D5
:10721C0003F07F03022B36D1214B1B685B79BB73C8
:10722C00BB7B03F00F037B73BB7B5BB2002B14DACD
:10723C007B7B4FEA830303F1804303F5B8431B6860
:10724C009BB203F03003102B20D1164B1B7843F06C
:10725C000103DAB2134B1A7018E07B7B4FEA8303FD
:10726C0003F1804303F5B8431B689BB203F440530E
:10727C00B3F5805F0AD10B4B1B7843F00103DAB2F4
:10728C00084B1A7002E04FF0000304E0064B1B6839
:10729C001B699847034B184607F11007BD4680BD84
:1072AC0090030020600300208C03002090B587B071
:1072BC0000AF784B1B681B7803F07F033B613B6985
:1072CC00002B0BD1734B1B68724A1268527A22F056
:1072DC002002D2B25A724FF00003D5E03B69022B68
:1072EC0040F0D0806B4B1B685B88002B04D1694B42
:1072FC001B681B79002B02D04FF00203C4E0664BD5
:10730C00FB60644B1B685B79BB60BB6823F080033C
:10731C007B607B683B605F4B1B685B79DBB25BB26D
:10732C00002B0CDA3B684FEA830303F1804303F52F
:10733C00B8431B689BB203F030037B610BE03B68E6
:10734C004FEA830303F1804303F5B8431B689BB2F8
:10735C0003F440537B61FB681B781A467B689A42A6
:10736C0007D97B69002B04D04A4B1B689B7A002BF6
:10737C0002D14FF0020387E0BB6803F08003002BBF
:10738C0019D03B684FEA830303F1804303F5B843FC
:10739C001B689BB203F03003102B6CD13B68DBB243
:1073AC00184601F0F1F93B68DBB218464FF030019A
:1073BC0001F0C0F85FE03B684FEA830303F18043C0
:1073CC0003F5B8431B689BB203F44053B3F5805FDD
:1073DC0051D13B68002B29D13B68DAB22F4B93F883
:1073EC002C301046194601F0A3FA3B684FEA830390
:1073FC0003F1804303F5B8431B689BB223F480432D
:10740C0023F070039CB284F480539CB284F4005338
:10741C009CB23B684FEA830303F1804303F5B84306
:10742C001F4A44EA020292B21A6024E03B68DBB2C3
:10743C00184601F077F93B684FEA830303F1804368
:10744C0003F5B8431B689BB223F4804323F070030D
:10745C009CB284F480539CB284F400539CB23B687D
:10746C004FEA830303F1804303F5B8430C4A44EA23
:10747C00020292B21A600B4B1B685B6998474FF083
:10748C00000301E04FF00203184607F11C07BD464C
:10749C0090BD00BF900300205C0000206000002025
:1074AC008080FFFF8C03002090B585B000AF454B6A
:1074BC001B685B79BB60BB6823F080037B607B68D7
:1074CC003B60404B1B685B79DBB25BB2002B0CDA88
:1074DC003B684FEA830303F1804303F5B8431B6811
:1074EC009BB203F03003FB600BE03B684FEA830375
:1074FC0003F1804303F5B8431B689BB203F440537C
:10750C00FB60314B1B781A463B689A420CD92D4BC9
:10751C001B685B88002B07D1FB68002B04D0294B20
:10752C001B689B7A002B02D14FF0020345E0BB682D
:10753C0003F08003002B1DD03B684FEA830303F15B
:10754C00804303F5B8431B689BB223F4E04323F05C
:10755C0040039CB284F010039CB23B684FEA830357
:10756C0003F1804303F5B843184A44EA020292B28D
:10757C001A601CE03B684FEA830303F1804303F578
:10758C00B8431B689BB223F4804323F070039CB276
:10759C0084F480539CB23B684FEA830303F180432D
:1075AC0003F5B843094A44EA020292B21A60084B46
:1075BC001B689B6998474FF00003184607F11407A6
:1075CC00BD4690BD900300205C0000208080FFFF32
:1075DC008C03002080B500AF084B1B68074A12686B
:1075EC00527A42F02002D2B25A72054B1B68DB6908
:1075FC0098474FF00003184680BD00BF9003002051
:10760C008C03002080B485B000AF03463960FB804A
:10761C000E4B1B685B8AFB60FB88002B0BD10B4B62
:10762C001B683A689188FA6892B28A1A92B21A82E6
:10763C004FF0000303E03B681A68FB68D318184648
:10764C0007F11407BD4680BC704700BF90030020B3
:10765C0080B584B000AF404B1B6803F11003BB60D6
:10766C00BB681B887B60BB689B68002B2FD07B683A
:10767C00002B2CD0BB689B88FB60FA687B689A4215
:10768C0001D97B68FB60BB689B68FA6892B21046B4
:10769C0098473860BB681A88FB689BB2D31A9AB2B9
:1076AC00BB681A80BB685A88FB689BB2D3189AB225
:1076BC00BB685A804FF0000001F0FEF803461A46F2
:1076CC00FB689BB2386811461A4600F0C1FEBB68D5
:1076DC001B88002B0DD0214B4FF440521A804FF0D9
:1076EC0000004FF0000101F005F91D4B4FF0300286
:1076FC001A80BB681A88BB689B889A4205D3164BC4
:10770C001B684FF003021A7221E0BB681B88002B28
:10771C0005D0114B1B684FF005021A7217E0BB68BD
:10772C001B88002B13D10C4B1B684FF006021A72EE
:10773C000C4B1B689BB21A460B4BD3184FEA4303F6
:10774C004FF000021A60064B4FF030021A8007F11E
:10775C001007BD4680BD00BF90030020960300209B
:10776C0098030020505C00400230002080B586B0A9
:10777C0000AF424B1B6803F11003FB60FB681B88D6
:10778C00BB603E4B1B681B7A7B61BB68002B25D111
:10779C007B69042B22D13A4B1B78012B16D1394B28
:1077AC001B689BB21A46384BD3184FEA43034FF071
:1077BC0000021A60354B4FF030021A804FF0040370
:1077CC007B612F4B4FF000021A704DE04FF0070316
:1077DC007B612E4B4FF010021A8045E0FB689B88B2
:1077EC003B61BA683B699A4202D84FF0040301E04E
:1077FC004FF002037B613A69BB689A4201D9BB68BE
:10780C003B61FB689B683A6992B210469847786076
:10781C004FF0000001F032F803461A463B699BB268
:10782C00786811461A4600F0CDFD3B699BB24FF0CB
:10783C000000194601F05EF8FB681A883B699BB2A0
:10784C00D31A9AB2FB681A80FB685A883B699BB2C0
:10785C00D3189AB2FB685A800C4B4FF030021A8046
:10786C000B4B4FF440521A80044B1B687A69D2B20E
:10787C001A7207F11807BD4680BD00BF90030020A7
:10788C0008020020505C00400230002098030020C9
:10789C009603002080B584B000AF4FF00203FB7359
:1078AC00634B1B685B787B60614B1B681B7803F038
:1078BC007F03002B5BD17B68092B04D1FFF7BEFB48
:1078CC000346FB737EE07B68052B1DD1584B1B6870
:1078DC00DB78DBB25BB2002B0EDB554B1B689B7865
:1078EC00002B09D1524B1B689B88002B04D1504BA9
:1078FC001B689B7A002B03D04FF00803BB608DE014
:10790C004FF00003FB735DE07B68032B12D1484BF7
:10791C001B68DB78012B09D1454B1B689B88002B1E
:10792C0004D1FFF757FE0346FB734BE04FF0020305
:10793C00FB7347E07B68012B43D13D4B1B68DB7825
:10794C00012B10D13A4B1B689B88002B0BD1384B69
:10795C001B685B7A03F02003002B04D0FFF7A6FC16
:10796C000346FB732EE04FF00203FB732AE0304B0F
:10797C001B681B7803F07F03012B07D17B680B2B53
:10798C0020D1FFF7A7FB0346FB731BE0284B1B68BA
:10799C001B7803F07F03022B0FD17B68012B04D1E2
:1079AC00FFF784FC0346FB730CE07B68032B09D1C7
:1079BC00FFF77AFD0346FB7304E04FF00203FB7301
:1079CC0000E000BFFB7B002B0FD01A4B1B685B69E0
:1079DC007A68D2B2104698470346FB73FB7B032BA5
:1079EC0003D14FF00903BB6018E0FB7B002B03D0E5
:1079FC004FF00803BB6011E04FF00603BB600E4B69
:107A0C001B689BB21A460D4BD3184FEA43034FF039
:107A1C0000021A600A4B4FF030021A80044B1B68AC
:107A2C00BA68D2B21A7207F11007BD4680BD00BF0A
:107A3C009003002068030020505C004002300020BE
:107A4C009803002080B58AB000AF874B1B685B7829
:107A5C00BB614FF000037B624FF000037B61BB699D
:107A6C00062B24D1804B1B681B7803F07F03002B63
:107A7C0040F0E4807C4B1B689B78FB74FB7C012BF7
:107A8C0004D17A4B1B68DB697B62D7E0FB7C022B51
:107A9C0004D1764B1B681B6A7B62CFE0FB7C032B0B
:107AAC0040F0CC80714B1B685B6A7B62C6E0BB69A3
:107ABC00002B7DD16C4B1B685B88002B78D16A4BFB
:107ACC001B68DB88022B73D1674B1B681B79002B5F
:107ADC006ED1654B1B681B7803F07F03002B07D11D
:107AEC00614B1B689B88002B02D1614B7B62A5E02C
:107AFC005D4B1B681B7803F07F03012B16D15B4B8E
:107B0C001B689B69584A1268527910464FF0000165
:107B1C0098470346002B40F08680534B1B689B7A9A
:107B2C00002B00F08280524B7B6287E04E4B1B682F
:107B3C001B7803F07F03022B79D14B4B1B685B79CD
:107B4C0003F00F03FB60484B1B685B7903F0700379
:107B5C00BB60454B1B685B79DBB25BB2002B0CDA6C
:107B6C00FB684FEA830303F1804303F5B8431B68BA
:107B7C009BB203F03003FB610BE0FB684FEA83031D
:107B8C0003F1804303F5B8431B689BB203F44053E5
:107B9C00FB61384B1B781A46FB689A4249D9BB6883
:107BAC00002B48D1FB69002B47D0314B7B6245E061
:107BBC00BB69082B09D12C4B1B681B7803F07F0386
:107BCC00002B3BD12C4B7B6238E0BB690A2B35D1A7
:107BDC00254B1B681B7803F07F03012B2ED1224B06
:107BEC001B689B7A002B29D01F4B1B685B88002BD2
:107BFC0024D11D4B1B681B79002B1FD11A4B1B6802
:107C0C00DB88012B1AD1194B1B689B69164A126829
:107C1C00527910464FF0000198470346002B0DD1C6
:107C2C00164B7B620AE000BF08E000BF06E000BF15
:107C3C0004E000BF02E000BF00E000BF7B6A002B45
:107C4C001ED0094B1B687A6992B25A82064B1B688C
:107C5C007A6A9A617B6A4FF0000098474FF00003F4
:107C6C0087F8233021E000BF900300206803002038
:107C7C00757100085C000020057000089D700008FC
:107C8C00444B1B681B69444A12685278104698474B
:107C9C00034687F8233097F82330032B05D13E4B4E
:107CAC001B684FF009021A726FE03B4B1B681A8A73
:107CBC004FF6FF739A4205D1374B1B684FF0090200
:107CCC001A7262E097F82330022B04D0324B1B68F7
:107CDC001B8A002B05D1304B1B684FF008021A721F
:107CEC0053E02D4B1B681B78DBB25BB2002B42DAE6
:107CFC00294B1B68DB887B60274B1B681B8A1A4649
:107D0C007B689A4205D9244B1B687A6892B21A8216
:107D1C0027E0214B1B681A8A1F4B1B68DB889A4291
:107D2C001FD21D4B1B681A8A1A4B1B6893F82C30F8
:107D3C009A4204D2194B4FF000021A7011E0164B04
:107D4C001B681B8A134A126892F82C2093FBF2F1E1
:107D5C0002FB01F29B1A002B03D1104B4FF00102D6
:107D6C001A700D4B1B680B4A126892F82C209A82E1
:107D7C00FFF7FCFC09E0084B1B684FF003021A727A
:107D8C00074B4FF440521A8000BF07F12807BD463D
:107D9C0080BD00BF68030020900300200802002073
:107DAC009603002090B583B000AF4FF00103FB8029
:107DBC00354B1B689BB21A46344BD3184FEA43031E
:107DCC001B689BB203F1005303F540534FEA430386
:107DDC003B602F4B1B681B7A092B3ED02C4B1A682F
:107DEC003B681978117003F101033B60284B1A684A
:107DFC003B681978517003F101033B603A68FB88CA
:107E0C004FEA4303D3183B60214B1C683B681A882C
:107E1C0003F102033B60104600F0F6FD034663805D
:107E2C003A68FB884FEA4303D3183B60184B1C6835
:107E3C003B681A8803F102033B60104600F0E4FD36
:107E4C000346A3803A68FB884FEA4303D3183B6090
:107E5C000F4B1B683A681288DA800D4B1B684FF089
:107E6C0001021A720A4B1B68DB88002B02D1FFF748
:107E7C0011FD01E0FFF7E6FD00F096F80346184609
:107E8C0007F10C07BD4690BD505C0040043000204B
:107E9C009003002080B582B000AF214B1B681B7A89
:107EAC007B607B68022B02D07B68042B06D1FFF72A
:107EBC005DFC1B4B1B681B7A7B6023E07B68062BED
:107ECC001DD1174B1B685B78052B10D1144B1B680D
:107EDC001B7803F07F03002B09D1114B1B68DB7857
:107EEC00184600F08BF80F4B1B681B6A98470E4B1B
:107EFC001B689B6898474FF008037B6002E04FF0CB
:107F0C0008037B60064B1B687A68D2B21A7200F0C9
:107F1C004BF80346184607F10807BD4680BD00BF65
:107F2C00900300208C0300206803002080B582B0F1
:107F3C0000AF1B4B1B681B7A7B607B68022B02D04B
:107F4C007B68042B03D14FF008037B601AE07B683D
:107F5C00032B02D07B68052B06D1FFF779FB104B66
:107F6C001B681B7A7B600DE07B68072B07D10D4BE0
:107F7C001B68DB6898474FF008037B6002E04FF00A
:107F8C0008037B60064B1B687A68D2B21A7200F049
:107F9C000BF80346184607F10807BD4680BD00BF25
:107FAC00900300206803002080B500AF0F4B93F8BE
:107FBC002C304FF00000194600F0BAFC0C4B1B683B
:107FCC001B7A082B07D10B4B4FF480521A800A4BAB
:107FDC004FF010021A80064B1B681B7A092B14BF3A
:107FEC0000230123DBB2184680BD00BF60000020D7
:107FFC0090030020960300209803002080B485B0E5
:10800C0000AF0346FB711C4B1B78BB604FF00003A9
:10801C00FB6022E0FB68DBB24FEA830303F1804391
:10802C0003F5B843FA68D2B24FEA820202F18042F9
:10803C0002F5B842126892B2114640F60F7201EA8C
:10804C00020242F4004242F08002F968C9B20A43CB
:10805C001A60FB6803F10103FB60FA68BB689A4283
:10806C00D8D3064BFA7962F07F02D2B21A6007F1CC
:10807C001407BD4680BC70475C0000204C5C00407F
:10808C0080B400AFBD4680BC704700BF90B583B0D4
:10809C0000AF4FF00003FB8079E18B4B1B889BB248
:1080AC00DBB203F00F03DAB2884B1A70874B1B78E4
:1080BC00002B40F01581864B1B689AB2854B1A80B9
:1080CC00844B1B889BB203F030039AB2824B1A800C
:1080DC00804B1B889BB203F440539AB27D4B1A80A1
:1080EC007B4B1B689BB24BF6BF7403EA040484F40D
:1080FC00005484F02004764AA1B2784B41EA030381
:10810C009BB21360704B1B889BB203F01003002BC7
:10811C0042D16F4A6E4B1B689BB2194648F60F73DF
:10812C0001EA03031360FFF7B5FE694B1B689BB2B2
:10813C004BF6BF7403EA0404664B1B889BB203F432
:10814C0080539BB2002B01D084F48054614B1B886C
:10815C009BB203F400539BB2002B01D084F4005467
:10816C005D4B1B889BB203F010039BB2002B01D01C
:10817C0084F01004584B1B889BB203F020039BB275
:10818C00002B01D084F02004514AA1B2534B41EA98
:10819C0003039BB2136007E14D4B1B689BB2FB8042
:1081AC00FB889BB203F40063002B42D0484A484B37
:1081BC001B689BB2194640F68F7301EA03031360E8
:1081CC00FFF7F0FD424B1B689BB24BF6BF7403EA02
:1081DC000404404B1B889BB203F480539BB2002BCE
:1081EC0001D084F480543B4B1B889BB203F40053A6
:1081FC009BB2002B01D084F40054374B1B889BB2EC
:10820C0003F010039BB2002B01D084F01004324B0E
:10821C001B889BB203F020039BB2002B01D084F08F
:10822C0020042B4AA1B22D4B41EA03039BB21360ED
:10823C00BAE0FB889BB29BB21BB2002B80F2A780EA
:10824C00234A234B1B689BB2194640F68F7301EAF5
:10825C0003031360FFF76AFE1D4B1B689BB24BF6C2
:10826C00BF7403EA04041B4B1B889BB203F48053BA
:10827C009BB2002B01D084F48054164B1B889BB20C
:10828C0003F400539BB2002B01D084F40054124B26
:10829C001B889BB203F010039BB2002B01D084F01F
:1082AC0010040D4B1B889BB203F020039BB2002BD8
:1082BC0001D084F02004064AA1B2084B41EA030322
:1082CC009BB2136070E000BF5C0300206C030020C5
:1082DC00005C004096030020980300208080FFFF84
:1082EC00334B1B784FEA830303F1804303F5B84308
:1082FC001B689BB2FB80FB889BB29BB21BB2002B12
:10830C001FDA2B4B1B784FEA830303F1804303F5F1
:10831C00B843274A12784FEA820202F1804202F5F2
:10832C00B842126892B2114640F68F7201EA02020C
:10833C001A601F4B1B7803F1FF321E4B53F822308F
:10834C009847FB889BB203F08003002B1FD0184B7F
:10835C001B784FEA830303F1804303F5B843144AB7
:10836C0012784FEA820202F1804202F5B84212689A
:10837C0092B2114648F60F7201EA02021A600C4BD7
:10838C001B7803F1FF320C4B53F8223098470B4B00
:10839C001B689AB20A4B1A80094B1B889BB29BB282
:1083AC001BB2002BFFF679AE07F10C07BD4690BD52
:1083BC006C030020380000201C000020445C0040AE
:1083CC005C03002080B489B000AF786013460A4685
:1083DC007A803B803B8803F101034FEA63037B61A6
:1083EC007B8803F1005303F540534FEA4303BB6111
:1083FC007B69FB6123E07B681B783B617B6803F145
:10840C0001037B607B681B784FEA03231A463B69A8
:10841C0042EA0303FB60FB689AB2BB691A80BB6932
:10842C0003F10203BB61BB6903F10203BB617B680F
:10843C0003F101037B60FB6903F1FF33FB61FB6913
:10844C00002BD8D107F12407BD4680BC704700BF74
:10845C0080B487B000AF786013460A467A803B80C0
:10846C003B8803F101034FEA6303FB607B8803F154
:10847C00005303F540534FEA43033B61FB687B61B8
:10848C0014E07B683A69126892B21A807B6803F137
:10849C0001037B603B6903F104033B617B6803F1DF
:1084AC0001037B607B6903F1FF337B617B69002BEC
:1084BC00E7D107F11C07BD4680BC704780B483B080
:1084CC0000AF0346FB80064AF9884FF6F87301EAC1
:1084DC000303136007F10C07BD4680BC704700BF57
:1084EC00505C004080B483B000AF02460B46FA717A
:1084FC00BB80FB794FEA830303F1804303F5B84358
:10850C00FA794FEA820202F1804202F5B84212680F
:10851C0092B222F4EC4222F0700291B2BA8841EA93
:10852C00020292B292B21A6007F10C07BD4680BCEF
:10853C00704700BF90B482B000AF02460B46FA7190
:10854C00BB80FB794FEA830303F1804303F5B84307
:10855C001B689BB223F4E04323F040039CB2BB881E
:10856C0003F010039BB2002B02D084F010039CB2DA
:10857C00BB8803F020039BB2002B02D084F02003B5
:10858C009CB2FB794FEA830303F1804303F5B843B4
:10859C00044A44EA020292B21A6007F10807BD4687
:1085AC0090BC70478080FFFF90B482B000AF024651
:1085BC000B46FA71BB80FB794FEA830303F18043CE
:1085CC0003F5B8431B689BB223F4804323F070037C
:1085DC009CB2BB8803F480539BB2002B02D084F472
:1085EC0080539CB2BB8803F400539BB2002B02D087
:1085FC0084F400539CB2FB794FEA830303F180436C
:10860C0003F5B843044A44EA020292B21A6007F135
:10861C000807BD4690BC70478080FFFF90B482B0C5
:10862C0000AF0346FB71FB794FEA830303F18043F0
:10863C0003F5B8431B689BB223F4E04323F04003DB
:10864C009CB284F010039CB284F020039CB2FB79A2
:10865C004FEA830303F1804303F5B843044A44EA29
:10866C00020292B21A6007F10807BD4690BC70472F
:10867C008080FFFF90B482B000AF0346FB71FB79A2
:10868C004FEA830303F1804303F5B8431B689BB2A5
:10869C0023F4804323F070039CB284F480539CB287
:1086AC0084F400539CB2FB794FEA830303F18043BB
:1086BC0003F5B843044A44EA020292B21A6007F185
:1086CC000807BD4690BC70478080FFFF80B483B024
:1086DC0000AF0346FB71FB794FEA830303F1804241
:1086EC0002F5B842FB794FEA830303F1804303F5AB
:1086FC00B8431B689BB223F4F8734FEA03534FEA59
:10870C0013539BB243F07F4343F47F0343F4004382
:10871C0043F080039BB29BB2136007F10C07BD467C
:10872C0080BC704780B483B000AF0346FB71FB790B
:10873C004FEA830303F1804303F5B8431B689BB2F4
:10874C0003F48043002B19D0FB794FEA830303F128
:10875C00804303F5B843FA794FEA820202F1804272
:10876C0002F5B842126892B2114640F60F7201EA55
:10877C00020242F4404242F080021A6007F10C07F8
:10878C00BD4680BC704700BF80B483B000AF0346C9
:10879C00FB71FB794FEA830303F1804303F5B84384
:1087AC001B689BB203F04003002B19D0FB794FEAF6
:1087BC00830303F1804303F5B843FA794FEA82024D
:1087CC0002F1804202F5B842126892B2114640F6AC
:1087DC000F7201EA020242F4004242F0C0021A6037
:1087EC0007F10C07BD4680BC704700BF80B483B056
:1087FC0000AF02460B46FA71BB800D4B1B689BB257
:10880C001A46FB794FEAC303D31803F1005303F55F
:10881C0040534FEA4303BA884FEA520292B24FEAEE
:10882C0042021A6007F10C07BD4680BC704700BFBE
:10883C00505C004080B483B000AF02460B46FA7126
:10884C00BB800C4B1B689BB21A46FB794FEAC303E7
:10885C00D218094BD3184FEA4303BA884FEA520295
:10886C0092B24FEA42021A6007F10C07BD4680BC77
:10887C00704700BF505C00400430002080B483B0CF
:10888C0000AF0346FB710B4B1B689BB21A46FB797E
:10889C004FEAC303D31803F1005303F540534FEAD7
:1088AC0043031B689BB2184607F10C07BD4680BCFE
:1088BC00704700BF505C004080B483B000AF0346EB
:1088CC00FB710A4B1B689BB21A46FB794FEAC30338
:1088DC00D218074BD3184FEA43031B689BB21846B8
:1088EC0007F10C07BD4680BC704700BF505C0040D0
:1088FC000430002080B483B000AF02460B46FA71FE
:10890C00BB80094B1B689BB21A46FB794FEAC30329
:10891C00D218064BD3184FEA4303BA881A6007F1F2
:10892C000C07BD4680BC7047505C004002300020F4
:10893C0080B485B000AF02460B46FA71BB801F4B6A
:10894C001B689BB21A46FB794FEAC303D2181C4B27
:10895C00D3184FEA4303BB60BB883E2B15D9BB88A9
:10896C004FEA5313FB81BB8803F01F03002B03D189
:10897C00FB8903F1FF33FB81FB894FEA832343F42B
:10898C0000431A46BB681A6013E0BB884FEA5303D6
:10899C00FB81BB8803F00103DBB2002B03D0FB8906
:1089AC0003F10103FB81FB894FEA83231A46BB6861
:1089BC001A6007F11407BD4680BC7047505C00403C
:1089CC000630002080B483B000AF0346FB710C4B23
:1089DC001B689BB21A46FB794FEAC303D218094BAA
:1089EC00D3184FEA43031B689BB24FEA83534FEAF9
:1089FC0093539BB2184607F10C07BD4680BC7047D9
:108A0C00505C00400630002080B485B000AF0346B7
:108A1C00FB80FB88FB73FB884FEA13239BB29AB253
:108A2C00FB7B4FEA03239BB242EA03039BB2BB815D
:108A3C00BB89184607F11407BD4680BC704700BFC0
:108A4C0080B400AF084B4FF000021A60074B4FF494
:108A5C0006421A80064B054A12881A604FF0000332
:108A6C001846BD4680BC7047445C0040940300200F
:108A7C00405C004080B584B000AF03463960FB71A8
:108A8C004FF00003FB60FB7903F07F03DBB2184669
:108A9C00FFF798FF0346FB60FB7903F07F03DBB223
:108AAC001846FFF709FF03461A46FB689BB2386865
:108ABC0011461A46FFF7CCFCFB68184607F1100765
:108ACC00BD4680BD002103E00A4B5B584350043186
:108ADC0009480A4B42189A42F6D3094A02E000238D
:108AEC0042F8043B074B9A42F9D3FDF76BFDFDF7B7
:108AFC0017FD704710A0000800000020D8000020CF
:108B0C00D80000209C030020FEE7000012010002A8
:108B1C0002000040830440570002010203010000E0
:108B2C0009024300020100C03209040000010202E4
:108B3C000100052400100105240100010424020297
:108B4C000524060001070582030800FF0904010043
:108B5C00020A00000007050302400000070581021D
:108B6C0040000000040309042603530054004D0088
:108B7C006900630072006F0065006C0065006300A3
:108B8C00740072006F006E006900630073000000D7
:108B9C003203530054004D003300320020005600C5
:108BAC00690072007400750061006C0020004300C5
:108BBC004F004D00200050006F0072007400200028
:108BCC0020000000A5A5A5A5A5A5A5A5A5A5A5A5BD
:108BDC00A5A5A5A5A5A5A5A5F8B500BFF8BC08BC7D
:108BEC009E467047F8B500BFF8BC08BC9E4670475F
:04A0080021510008DA
:04A00C000D510008EA
:10A010001A03530054004D00330032003100300069
:10A02000000000000000000000000000015A0008CD
:10A030008D8000088D8000088D8000088D800008CC
:10A040008D8000088D8000088D8000088D800008BC
:10A050000D5A00088D8000088D8000088D80000852
:10A060008D80000800C2010000000800040100000B
:10A07000855B0008B15B0008E95C0008095D000829
:10A08000155D0008A55D0008795E0008E95D00081F
:10A090000D5E0008315E0008000000004000000076
:10A0A000188B0008120000002C8B000843000000F1
:10A0B000708B000804000000748B0008260000006C
:10A0C0009C8B000832000000000000201A000000F5
:10A0D000FFFFFFFF00000000010203040102030470
:08A0E000060708090204060846
:0400000508008AD194
:00000001FF
