:020000040800F2
:1050000000280020C1B60008A1930008AD93000855
:10501000B5930008BD930008C59300080000000088
:10502000000000000000000000000000A151000886
:10503000CD93000800000000C1510008FD51000898
:1050400005B7000805B7000805B7000805B7000850
:1050500005B7000805B7000805B7000805B7000840
:1050600005B7000805B7000805B7000805B7000830
:1050700005B7000805B7000805B7000805B7000820
:1050800005B7000805B7000805B7000805B7000810
:105090005592000805B7000805B7000805B70008D5
:1050A00005B7000805B7000805B7000805B70008F0
:1050B00005B7000805B7000805B7000805B70008E0
:1050C00005B7000805B7000805B7000805B70008D0
:1050D00005B7000805B7000805B7000805B70008C0
:1050E00005B7000805B7000805B700080000000074
:1050F00000000000000000000000000000000000B0
:0C51000000000000000000005FF808F153
:10510C0040F2EC03C2F200031A780AB901201870BD
:10511C00704700BF40F2EC00C2F2000008B5036813
:10512C002BB140F20003C0F2000303B1984708BD55
:10513C00032A70B404460D4626D941EA000313F045
:10514C00030F13D020782B78984208BF294606D03D
:10515C001EE014F8010F11F8013F984218D1012AF2
:10516C0002F1FF32F5D1002070BC70470B460446AB
:10517C0051F8045B50F8046BAE4204D1043A044677
:10518C00032A0B46F2D81D461046002ADAD1EBE76B
:10519C00C01AE9E7064B19680868B0E8F00F80F30D
:1051AC0009884FF0000080F311884EF00D0E704707
:1051BC0020010020EFF309800C4B1A6820E9F00F56
:1051CC0010602DE908404FF0500080F3118803F077
:1051DC00B1FF4FF0000080F31188BDE8084019685A
:1051EC000868B0E8F00F80F30988704720010020B0
:1051FC0080B582B000AF0A4B4FF080521A604FF06E
:10520C0000037B604FF0500080F3118803F0E8FE40
:10521C004FF0000080F3118807F10807BD4680BDF0
:10522C0004ED00E080B500AF4FF0010004F01CFB72
:10523C004FF400004FF0010104F046FB80BD00BFAD
:10524C0080B582B000AF4FF4C06004F07DF94FF030
:10525C0014033B714FF001037B714FF00003BB71E2
:10526C004FF00103FB7107F10403184604F07EF9BB
:10527C0007F10807BD4680BD80B483B000AF03467C
:10528C00FB7107F10C07BD4680BC704780B582B03E
:10529C0000AF364B1B68B3F5006F03D1334B4FF0A7
:1052AC0000021A60314B1A68314B1B689A4204D1C8
:1052BC00304B4FF000021A7053E02C4B1A682C4BF9
:1052CC001B689A4206D9294B1B68C3F500622A4B0E
:1052DC001A6006E0264B1A68244B1B68D21A264B20
:1052EC001A60254B1B68402B12D9204B1B68FB8086
:1052FC004FF04003BB801D4B1B6803F140021B4B5E
:10530C001A601D4B1B68A3F140021B4B1A6010E086
:10531C00164B1B68FB80184B1B68BB80134B1A6821
:10532C00154B1B68D218114B1A60134B4FF000022F
:10533C001A60104B4FF001021A70FA880F4BD218FA
:10534C00BB8810464FF0C0011A4605F033FEBB88EF
:10535C004FF00100194606F0C5F84FF0010005F0BA
:10536C0055FF07F10807BD4680BD00BFF4000020C3
:10537C00F0000020FC000020F8000020B401002008
:10538C0080B584B000AF104B1B68FB600F4B1B68E3
:10539C00BB600F4B1B687B60FA687B68D318FB60A3
:1053AC00FB68002B0BD0F8680A494FF0080200F09C
:1053BC0015F8B86808494FF0040200F00FF807F12F
:1053CC001007BD4680BD00BFE8F7FF1FECF7FF1FBD
:1053DC00F0F7FF1F020000201200002080B487B0FD
:1053EC0000AFF860B9601346FB714FF00003FB751A
:1053FC004FF00003FB7531E0FB684FEA1373092B88
:10540C000DD8FB7D4FEA4303BA68D318FA684FEA0C
:10541C001272D2B202F13002D2B21A700CE0FB7DE1
:10542C004FEA4303BA68D318FA684FEA1272D2B241
:10543C0002F13702D2B21A70FB684FEA0313FB6019
:10544C00FB7D4FEA430303F10103BA68D3184FF015
:10545C0000021A70FB7D03F10103FB75FA7DFB79E9
:10546C009A42C9D307F11C07BD4680BC704700BFE8
:10547C0080B483B000AF0346FB7107F10C07BD4647
:10548C0080BC704780B500AFFFF700FF80BD00BF48
:10549C0080B582B000AF4FF003000F4906F0E2F880
:1054AC000346BB804FF00003FB8009E0FB880A4AEF
:1054BC00D35C1846FFF7DCFFFB8803F10103FB808C
:1054CC00FA88BB889A42F1D34FF0030005F0CAFE6C
:1054DC0007F10807BD4680BDC409002080B500AFA8
:1054EC000B4B1B68052B12D10A4B1B68052B14BFE9
:1054FC0000220122D2B203F10101064B1960002AED
:10550C0005D0044B4FF000021A60FFF7BFFE80BDC0
:10551C00080100200001002080B500AF1E4B1B6865
:10552C009AB21E4B1A801D4B1B889BB203F400725F
:10553C001B4B1B8802EA0303002B0DD0164B4FF6B6
:10554C00FF521A60174B1B78DBB203F10103DAB27E
:10555C00144B1A70FFF7C2FF104B1B889BB203F45D
:10556C0000420F4B1B8802EA0303002B01D005F00D
:10557C0085FB0A4B1B889BB203F48062084B1B888B
:10558C0002EA0303002B06D0034B4FF6FF321A60DE
:10559C00054B5B68984780BD445C0040040A0020C2
:1055AC003C0A0020040100206000002080B500AF00
:1055BC00FFF7E6FE064B1B684FF000029A7200F0F4
:1055CC00E5F906F035F8034B4FF000021A6080BD88
:1055DC00380A00200801002080B500AF484B1B683A
:1055EC004FF000029A72464B1B68464AD2795A72A7
:1055FC00434B1B684FF00002DA724FF0000005F0CD
:10560C0055FD4FF000004FF4007105F063FD4FF0B5
:10561C0000004FF0100105F085FD4FF000004FF039
:10562C00400105F0FFFE4FF000004FF0800105F047
:10563C00D5FE4FF0000005F041FE334B93F82C30B3
:10564C004FF00000194605F06BFF4FF0000005F01D
:10565C0009FE4FF001004FF0000105F03BFD4FF04B
:10566C0001004FF0C00105F0B9FE4FF001004FF002
:10567C00200105F057FD4FF001004FF0000105F03F
:10568C008BFD4FF002004FF4C06105F023FD4FF08D
:10569C0002004FF4807105F0A1FE4FF002004FF0B4
:1056AC00000105F079FD4FF002004FF0200105F0EC
:1056BC0039FD4FF003004FF0000105F00BFD4FF0EA
:1056CC0003004FF4887105F0ADFE4FF003004FF06E
:1056DC00400105F025FF4FF003004FF4405105F059
:1056EC005BFD4FF003004FF0000105F01BFD4FF088
:1056FC00000005F059FA054B4FF001021A6080BD0D
:10570C00380A002054B7000860000020080100206F
:10571C0080B483B000AF074B7B607B689B7A002B17
:10572C0003D0054B4FF005021A6007F10C07BD467C
:10573C0080BC7047180A00200801002080B400AF1C
:10574C00034B4FF004021A60BD4680BC704700BF8B
:10575C000801002080B400AF054B1B78202B03D12F
:10576C00034B4FF000021A70BD4680BC704700BF5F
:10577C000501002080B400AFBD4680BC704700BF5F
:10578C0080B584B000AF0346FB714FF00003FB60A3
:10579C00FB79212B09D11A4B1B681B7803F07F0373
:1057AC00212B12D1174BFB600FE0FB79202B0CD176
:1057BC00134B1B681B7803F07F03212B01D1124B79
:1057CC00FB60124B4FF020021A70FB68002B02D1C9
:1057DC004FF002030EE00A4B1B68FA689A61084B03
:1057EC001B684FF000025A82FB684FF0000098478C
:1057FC004FF00003184607F11007BD4680BD00BFEF
:10580C00380A0020295900086159000805010020B8
:10581C0080B483B000AF0346FB710D4B1B681B7843
:10582C0003F07F03212B0BD1FB79022B02D14FF01C
:10583C00000307E0FB79222B02D14FF0000301E0BB
:10584C004FF00203184607F10C07BD4680BC7047A9
:10585C00380A002080B582B000AF0346FB80FB887D
:10586C001846044904F0A4FC0346184607F108073F
:10587C00BD4680BDB400002080B582B000AF0346A9
:10588C00FB80FB881846044904F092FC034618463A
:10589C0007F10807BD4680BDBC00002080B584B070
:1058AC0000AF0346FB800D4B1B68DB78FB73FB7B67
:1058BC00042B02D94FF000030AE0FB7B4FEAC30232
:1058CC00074BD318FA881046194604F071FC0346AE
:1058DC00184607F11007BD4680BD00BF380A0020EE
:1058EC00C400002080B483B000AF02460B46FA71AE
:1058FC00BB71BB79002B02D04FF0020307E0FB79A0
:10590C00012B02D94FF0020301E04FF000031846BF
:10591C0007F10C07BD4680BC704700BF80B483B054
:10592C0000AF0346FB80FB88002B07D1074B1B689D
:10593C004FF008021A824FF0000300E0044B1846A7
:10594C0007F10C07BD4680BC704700BF380A002029
:10595C005400002080B483B000AF0346FB80FB886A
:10596C00002B07D1074B1B684FF008021A824FF02F
:10597C00000300E0044B184607F10C07BD4680BC41
:10598C00704700BF380A00205400002080B582B058
:10599C0000AF4FF00100FFF76FFC4FF00103FB80ED
:1059AC000E4BFA881A600E4B4FF000021A800B4B0C
:1059BC000B4A12881A600B4B4FF000021A60084B0E
:1059CC004FF4E0521A80054B054A12881A604FF0CA
:1059DC000003184607F10807BD4680BD405C004037
:1059EC003C0A0020445C004080B487B000AFF860F3
:1059FC00B9607A60FB687B61BB683B610BE03B691B
:105A0C001A787B691A707B6903F101037B613B692E
:105A1C0003F101033B617B68002B0CBF00230123C6
:105A2C00DBB27A6802F1FF327A60002BE7D107F122
:105A3C001C07BD4680BC704780B487B000AFF860CF
:105A4C00B9607A60FB687B6107E0BB68DAB27B699E
:105A5C001A707B6903F101037B617B68002B0CBF1F
:105A6C0000230123DBB27A6802F1FF327A60002B4B
:105A7C00EBD107F11C07BD4680BC704780B489B0E0
:105A8C0000AFF860B9607A60FB68FB61BB68BB6112
:105A9C004FF000037B6100BF7B68002B0CBF002321
:105AAC000123DBB27A6802F1FF327A60002B16D048
:105ABC00FB691B781A46BB691B78D31A7B617B691F
:105ACC00002B14BF00230123DBB2FA6902F101029F
:105ADC00FA61BA6902F10102BA61002BDCD17B696F
:105AEC00184607F12407BD4680BC704780B483B0CC
:105AFC0000AF7860396003E07B6803F101037B60E1
:105B0C007B681B78002B05D07B681B781A463B689A
:105B1C009A42F1D17B681B78184607F10C07BD46F9
:105B2C0080BC704780B584B000AF786039607B680A
:105B3C00DB6AFB60FA683B689A4255D07B681B793C
:105B4C00002B39D07B685A787B6803F13003104600
:105B5C001946FA684FF0010302F03CFF0346002B94
:105B6C0002D04FF0010341E07B684FF000021A7144
:105B7C007B681A6A7B68DB69D218FB689A421BD96E
:105B8C007B68DB78FB7214E07B68DB69FA68D318FE
:105B9C00FB607B685A787B6803F13003104619462A
:105BAC00FA684FF0010302F015FFFB7A03F1FF33A3
:105BBC00FB72FB7A012BE7D83B68002B14D07B6877
:105BCC005A787B6803F13003104619463A684FF057
:105BDC00010302F08DFE0346002B02D04FF00103AF
:105BEC0004E07B683A68DA624FF00003184607F16C
:105BFC001007BD4680BD00BF80B584B000AF786093
:105C0C0078684FF00001FFF78DFF0346FB73FB7BB9
:105C1C00002B40F0D2807B681B78032B40F0BE80B9
:105C2C007B685B79002B00F0B9807B684FF0000239
:105C3C00DA627B6803F1300318464FF000014FF431
:105C4C000072FFF7F9FE7B6803F50A7303F1060394
:105C5C004FF055021A707B6803F50A7303F10703C2
:105C6C004FF0AA021A707B684FF0520283F8302072
:105C7C007B6803F131034FF052021A707B6803F119
:105C8C0032034FF061021A707B6803F133034FF05B
:105C9C0041021A707B6803F505734FF072021A709B
:105CAC007B6803F5047303F105034FF072021A705D
:105CBC007B6803F5047303F106034FF041021A707D
:105CCC007B6803F5047303F107034FF061021A704C
:105CDC007B6803F506737A681269D2B21A707B6816
:105CEC0003F5067303F101037A68126992B24FEA65
:105CFC00122292B2D2B21A707B6803F5067303F1CA
:105D0C0002037A6812694FEA1242D2B21A707B68A7
:105D1C0003F5067303F103037A6812694FEA126202
:105D2C00D2B21A707B6803F507737A68D268D2B264
:105D3C001A707B6803F5067303F105037A68D26861
:105D4C0092B24FEA122292B2D2B21A707B6803F569
:105D5C00067303F106037A68D2684FEA1242D2B294
:105D6C001A707B6803F5067303F107037A68D2682F
:105D7C004FEA1262D2B21A707B6859787B6803F1D1
:105D8C0030027B685B69084611461A464FF00103E6
:105D9C0002F020FE7B684FF000025A717B685B7842
:105DAC0018464FF000014FF0000202F0A1FE03462E
:105DBC00002B02D04FF00103FB73FB7B184607F15D
:105DCC001007BD4680BD00BF80B483B000AF7860C3
:105DDC0039603B68A3F102033B607B689B69A3F1CC
:105DEC0002023B689A4202D84FF0000307E07B683E
:105DFC009B783A6802FB03F27B689B6AD3181846BF
:105E0C0007F10C07BD4680BC704700BF80B586B05B
:105E1C0000AF786039603B68012B04D97B689A69C4
:105E2C003B689A4202D84FF00103BCE07B681B78B8
:105E3C00022B54D0032B79D0012B40F0B2803B685D
:105E4C007B617B694FEA53037A69D3187B617B686A
:105E5C001A6A7B694FEA5323D31878681946FFF7FF
:105E6C0061FE0346002B40F095807B694FEAC353DB
:105E7C004FEAD3537A68D31893F830303B617B697F
:105E8C0003F101037B617B681A6A7B694FEA532338
:105E9C00D31878681946FFF745FE0346002B7BD1D3
:105EAC007B694FEAC3534FEAD3537A68D31893F8FC
:105EBC0030304FEA03233A6942EA03033B613B6803
:105ECC0003F00103DBB2002B03D03B694FEA131341
:105EDC0004E03B694FEA03534FEA135363E07B68DA
:105EEC001A6A3B684FEA1323D31878681946FFF7F0
:105EFC0019FE0346002B51D17B6803F130023B683D
:105F0C004FEA43034FEAC3534FEAD353D318FB6012
:105F1C00FB6803F101031B784FEA03239AB2FB6879
:105F2C001B7842EA03039BB29BB23CE07B681A6A83
:105F3C003B684FEAD313D31878681946FFF7F2FD84
:105F4C000346002B2CD17B6803F130023B684FEAEF
:105F5C0083034FEAC3534FEAD353D318FB60FB6858
:105F6C0003F103031B784FEA0362FB6803F102039E
:105F7C001B784FEA03431A43FB6803F101031B78B8
:105F8C004FEA03231A43FB681B7842EA030323F00E
:105F9C00704308E000BF04E000BF02E000BF00E077
:105FAC0000BF4FF0FF33184607F11807BD4680BD00
:105FBC0080B588B000AFF860B9607A60BB68012B1F
:105FCC0004D9FB689A69BB689A4203D84FF0020364
:105FDC00FB7718E1FB681B78022B00F08380032B06
:105FEC0000F0AA80012B40F0FF80BB68BB61BB694D
:105FFC004FEA5303BA69D318BB61FB681A6ABB69D1
:10600C004FEA5323D318F8681946FFF78BFD034664
:10601C00FB77FB7F002B40F0EB80FB6803F1300239
:10602C00BB694FEAC3534FEAD353D3187B61BB68A8
:10603C0003F00103DBB2002B0FD07B691B78DBB2C2
:10604C0003F00F03DAB27B68DBB24FEA0313DBB267
:10605C0042EA0303DBB2DBB201E07B68DBB27A69B4
:10606C001370BB6903F10103BB61FB684FF00102C4
:10607C001A71FB681A6ABB694FEA5323D318F86884
:10608C001946FFF74FFD0346FB77FB7F002B40F0D3
:10609C00B180FB6803F13002BB694FEAC3534FEA8E
:1060AC00D353D3187B61BB6803F00103DBB2002B25
:1060BC0004D07B684FEA1313DBB210E07B691B78CA
:1060CC00DBB223F00F03DAB27B684FEA1323DBB2A7
:1060DC0003F00F03DBB242EA0303DBB2DBB27A69F3
:1060EC0013708CE0FB681A6ABB684FEA1323D31851
:1060FC00F8681946FFF716FD0346FB77FB7F002B6C
:10610C007AD1FB6803F13002BB684FEA43034FEAD4
:10611C00C3534FEAD353D3187B617B68DAB27B69E4
:10612C001A707B6903F101037A6892B24FEA12226A
:10613C0092B2D2B21A7062E0FB681A6ABB684FEA7C
:10614C00D313D318F8681946FFF7ECFC0346FB771A
:10615C00FB7F002B52D1FB6803F13002BB684FEA86
:10616C0083034FEAC3534FEAD353D3187B617B6944
:10617C0003F103031B784FEA03627B6903F102030B
:10618C001B784FEA03431A437B6903F101031B7825
:10619C004FEA03231A437B691B7842EA030303F09B
:1061AC0070437A6842EA03037B607B68DAB27B69EE
:1061BC001A707B6903F101037A6892B24FEA1222DA
:1061CC0092B2D2B21A707B6903F102037A684FEA79
:1061DC001242D2B21A707B6903F103037A684FEA58
:1061EC001262D2B21A700AE04FF00203FB7706E09B
:1061FC0000BF04E000BF02E000BF00E000BFFB688E
:10620C004FF001021A71FB7F184607F12007BD46BB
:10621C0080BD00BF80B584B000AF786039603B684A
:10622C00012B04D97B689A693B689A4203D84FF0DA
:10623C000203FB733FE04FF00003FB7332E078681E
:10624C003968FFF7E3FDB860BB68002B30D0BB6842
:10625C00012B03D14FF00203FB732CE0BB68B3F1AD
:10626C00FF3F03D14FF00103FB7324E078683968DA
:10627C004FF00002FFF79CFE0346FB73FB7B002BE9
:10628C0018D17B681B69B3F1FF3F09D07B681B6990
:10629C0003F101027B681A617B684FF001025A71AD
:1062AC00BB683B607B689A693B689A42C7D802E03E
:1062BC0000BF00E000BFFB7B184607F11007BD468E
:1062CC0080BD00BF80B586B000AF786039603B6898
:1062DC00002B0ED17B68DB683B613B69002B04D043
:1062EC007B689A693B699A4217D84FF001033B616E
:1062FC0013E078683968FFF789FDB860BB68012B3B
:10630C0002D84FF001036DE07B689A69BB689A4232
:10631C0001D9BB6866E03B683B613B697B6100E08F
:10632C0000BF7B6903F101037B617B689A697B6920
:10633C009A4209D84FF002037B617A693B699A4211
:10634C0002D94FF000034DE078687969FFF75EFDE4
:10635C00B860BB68002B0BD1786879696FF070421C
:10636C00FFF726FE0346FB73FB7B002B10D019E0D6
:10637C00BB68B3F1FF3F02D0BB68012B01D1BB68F6
:10638C0030E07A693B699A42CAD14FF0000329E0A8
:10639C003B68002B06D0786839687A69FFF708FEED
:1063AC000346FB73FB7B002B12D17B687A69DA60A6
:1063BC007B681B69B3F1FF3F13D07B681B6903F14A
:1063CC00FF327B681A617B684FF001025A7108E05A
:1063DC00FB7B012B02D14FF0FF3301E04FF00103A7
:1063EC007B617B69184607F11807BD4680BD00BF6D
:1063FC0080B584B000AF78600B467B807B687A8870
:10640C00DA807B689B68FB60FB68012B05D07B689E
:10641C001B689A69FB689A4202D84FF002036DE040
:10642C00FB68002B08D17B681B681B78032B03D1FE
:10643C007B681B685B6AFB60FB68002B16D17B6872
:10644C00FA68DA607B681B681B897A889A4202D3E7
:10645C004FF0020352E07B681B685A6A7B884FEA54
:10646C0013139BB2D2187B681A6139E07B681B68E6
:10647C009B784FEA03137B811DE07B681B681846F1
:10648C00F968FFF7C3FCF860FB68B3F1FF3F02D17A
:10649C004FF0010332E0FB68012B05D97B681B68C8
:1064AC009A69FB689A4202D84FF0020326E07A8878
:1064BC007B89D31A7B807A887B899A42DDD27B6870
:1064CC00FA68DA607B681B681846F968FFF77CFC91
:1064DC0002467B884FEA13139BB2D2187B681A6171
:1064EC007B681B6803F130027B8803F00F034FEAD3
:1064FC004313D2187B685A614FF00003184607F11A
:10650C001007BD4680BD00BF90B585B000AF786068
:10651C0039607B68DB8803F101033B813B89002BED
:10652C0003D07B681B69002B02D14FF00403D4E02D
:10653C003B8903F00F039BB2002B40F0BD807B68BE
:10654C001B6903F101027B681A617B68DB68002B15
:10655C0009D17B681B681B893A899A42C0F0AC80D0
:10656C004FF00403B9E03B894FEA13139BB21A4670
:10657C007B681B689B7803F1FF3302EA0303002B53
:10658C0040F09A807B681A687B68DB681046194675
:10659C00FFF73CFCF860FB68012B02D84FF00203BC
:1065AC009BE0FB68B3F1FF3F02D14FF0010394E095
:1065BC007B681B689A69FB689A4271D83B68002B10
:1065CC0002D14FF0040388E07B681A687B68DB68B3
:1065DC0010461946FFF776FEF860FB68002B02D1D7
:1065EC004FF0070379E0FB68012B02D14FF0020357
:1065FC0073E0FB68B3F1FF3F02D14FF001036CE095
:10660C007B681B6818464FF00001FFF78BFA0346B6
:10661C00002B02D04FF001035FE07B681B6803F195
:10662C00300318464FF000014FF40072FFF704FAE4
:10663C007B681C687B681B681846F968FFF7C4FB0D
:10664C000346E3624FF00003FB721BE07B681B68A0
:10665C004FF001021A717B681B6818464FF000015D
:10666C00FFF760FA0346002B02D04FF0010334E031
:10667C007B681B68DA6A02F10102DA62FB7A03F1C9
:10668C000103FB727B681B689B78FA7A9A42DDD314
:10669C007B681B687A681268D16AFA7A8A1ADA629D
:1066AC007B68FA68DA607B681B681846F968FFF744
:1066BC008BFB02467B681A617B683A89DA807B68BF
:1066CC001B6803F130023B8903F00F034FEA4313BD
:1066DC00D2187B685A614FF00003184607F1140773
:1066EC00BD4690BD80B586B000AF786078684FF03D
:1066FC000001FFF77DFE0346FB75FB7D002B01D0EF
:10670C00FB7D3BE07B681A687B681B691046194669
:10671C00FFF708FA0346FB75FB7D002B2AD17B683B
:10672C005B693B613B691B78FB73FB7B002B03D1E3
:10673C004FF00403FB7520E03B6903F10B031B785E
:10674C0003F00803002B0AD17B689B693869194652
:10675C004FF00B02FFF792F90346002B0CD0786830
:10676C004FF00001FFF7D0FE0346FB75FB7D002BBD
:10677C00C8D002E000BF00E000BFFB7D184607F167
:10678C001807BD4680BD00BF80B584B000AF7860EF
:10679C0078684FF00001FFF72BFE0346FB73FB7B81
:1067AC00002B22D17B681A687B681B69104619463E
:1067BC00FFF7B8F90346FB73FB7B002B14D17B6806
:1067CC005B691B78BB73BB7BE52B0ED0BB7B002BB3
:1067DC000BD078684FF00101FFF796FE0346FB7370
:1067EC00FB7B002BDED000E000BFFB7B002B23D11A
:1067FC007B681A687B681B6910461946FFF792F98B
:10680C000346FB73FB7B002B16D17B685B69BB607B
:10681C00B8684FF000014FF02002FFF70DF97B68CC
:10682C009B69B86819464FF00B02FFF7DDF87B68DF
:10683C001B684FF001021A71FB7B184607F1100719
:10684C00BD4680BD80B588B000AF786039603B68CC
:10685C001B68FB6003E0FB6803F10103FB60FB6852
:10686C001B782F2BF7D0FB681B785C2BF3D07B6845
:10687C009B69BB60B8684FF020014FF00B02FFF72B
:10688C00DBF84FF00003FB774FF000033B613B69F3
:10689C007B614FF00803BB61FA687B69D3181B78E6
:1068AC00BB777B6903F101037B61BB7F202B5DD937
:1068BC00BB7F2F2B5AD0BB7F5C2B57D0BB7F2E2B93
:1068CC0003D03A69BB699A4214D3BB69082B02D135
:1068DC00BB7F2E2B02D04FF0060383E04FF0080352
:1068EC003B614FF00B03BB61FB7F4FEA8303FB77EC
:1068FC0000BFD1E7BB7F5BB2002B09DAFB7F43F013
:10690C000303FB77BB7FA3F18003394AD35CBB77CE
:10691C00BB7F38481946FFF7E9F80346002B02D035
:10692C004FF006035EE0BB7F402B07D9BB7F5A2B91
:10693C0004D8FB7F43F00203FB770DE0BB7F602B99
:10694C000AD9BB7F7A2B07D8FB7F43F00103FB7777
:10695C00BB7FA3F12003BB77BA683B69D318BA7F1E
:10696C001A703B6903F101033B6195E7FA687B6997
:10697C00D2183B681A60BB7F202B02D84FF004035F
:10698C0001E04FF00003BB773B69002B02D14FF0C5
:10699C00060327E0BB681B78E52B03D1BB684FF0DF
:1069AC0005021A70BB69082B03D1FB7F4FEA8303E6
:1069BC00FB77FB7F03F00303012B03D1BB7F43F079
:1069CC001003BB77FB7F03F00C03042B03D1BB7FBD
:1069DC0043F00803BB77BB6803F10B03BA7F1A7053
:1069EC004FF00003184607F12007BD4680BD00BFDD
:1069FC00F8B7000808B7000880B584B000AF78601D
:106A0C0039603B681B782F2B03D03B681B785C2BC1
:106A1C0003D13B6803F101033B607B684FF000023C
:106A2C009A603B681B781F2B0BD878684FF00001DD
:106A3C00FFF7DEFC0346FB737B684FF000025A61E4
:106A4C0062E03B4678681946FFF7FCFE0346FB7391
:106A5C00FB7B002B51D17868FFF744FE0346FB7398
:106A6C007B689B6903F10B031B78BB73FB7B002BCF
:106A7C000BD0FB7B042B42D1BB7B03F00403002B1C
:106A8C003FD14FF00503FB733EE0BB7B03F00403E7
:106A9C00002B38D17B685B69BB60BB6803F10B03CF
:106AAC001B7803F01003002B03D14FF00503FB738D
:106ABC002AE0BB6803F115031B784FEA03239AB253
:106ACC00BB6803F114031B7842EA03039BB29BB22D
:106ADC004FEA0342BB6803F11B031B784FEA032305
:106AEC0099B2BB6803F11A031B7841EA03039BB20A
:106AFC009BB21A437B689A60A3E700BF04E000BF17
:106B0C0002E000BF00E000BFFB7B184607F1100756
:106B1C00BD4680BD80B582B000AF786039607B68BF
:106B2C005A787B6803F13003104619463A684FF0E7
:106B3C00010301F0DDFE0346002B02D04FF00303EE
:106B4C005EE07B6803F50A7303F107031B784FEAD9
:106B5C0003239AB27B6803F50A7303F106031B78CF
:106B6C0042EA03039BB21AB2284B9A4202D04FF06E
:106B7C00020345E07B6803F169031B784FEA03626B
:106B8C007B6803F168031B784FEA03431A437B6865
:106B9C0003F167031B784FEA03231A437B6803F165
:106BAC0066031B7842EA030323F07F42184B9A4298
:106BBC0002D14FF0000323E07B6803F185031B78BF
:106BCC004FEA03627B6803F184031B784FEA0343AB
:106BDC001A437B6803F183031B784FEA03231A43A0
:106BEC007B6803F182031B7842EA030323F07F42A4
:106BFC00074B9A4202D14FF0000301E04FF0010322
:106C0C00184607F10807BD4680BD00BF55AAFFFF17
:106C1C004641540080B592B000AFF860B96013469D
:106C2C00FB71FB681B68FB62FB6A1B78A3F13003EA
:106C3C003B643B6C092B0DD8FB6A03F101031B78F9
:106C4C003A2B07D1FB6A03F10203FB62FB68FA6A79
:106C5C001A6002E04FF000033B643B6C002B02D047
:106C6C004FF00B0308E39E4B3A6C53F82230BB6297
:106C7C00BB68BA6A1A60BB6A002B02D14FF00C03D6
:106C8C00FAE2BB6A1B78002B1CD0BB6A5B781846F7
:106C9C0001F018FE034687F8273097F8273003F0E9
:106CAC000103002B0ED1FB79002B08D097F827306D
:106CBC0003F00403002B02D04FF00A03DCE24FF088
:106CCC000003D9E2BB6A4FF000021A703B6CDAB2D7
:106CDC00BB6A5A70BB6A5B78184601F0FFFC03462E
:106CEC0087F8273097F8273003F00103DBB2002B2D
:106CFC0002D04FF00303BFE2FB79002B08D097F8CA
:106D0C00273003F00403002B02D04FF00A03B3E248
:106D1C004FF00003FB63B86AF96BFFF7FBFE034609
:106D2C0087F8473097F84730012B40D14FF00003DC
:106D3C0087F8463097F84630002B05D097F8463048
:106D4C0003F1FF3387F84630BB6A03F1300297F842
:106D5C0046304FEA031303F5DF73D3183B623B6AEB
:106D6C0003F104031B78002B21D03B6A03F10B03C6
:106D7C001B784FEA03623B6A03F10A031B784FEA64
:106D8C0003431A433B6A03F109031B784FEA0323BD
:106D9C001A433B6A03F108031B7842EA0303FB63C3
:106DAC00B86AF96BFFF7B6FE034687F8473097F8D9
:106DBC004730032B02D14FF001035DE297F84730C7
:106DCC00002B02D04FF00D0356E2BB6A03F13C03DB
:106DDC001B784FEA03239AB2BB6A03F13B031B787F
:106DEC0042EA03039BB21BB2B3F5007F02D04FF013
:106DFC000D0341E2BB6A03F147031B784FEA0323FF
:106E0C009AB2BB6A03F146031B7842EA03039BB2B6
:106E1C009BB2BB63BB6B002B1AD1BB6A03F157034C
:106E2C001B784FEA0362BB6A03F156031B784FEAE7
:106E3C0003431A43BB6A03F155031B784FEA032340
:106E4C001A43BB6A03F154031B7842EA0303BB6386
:106E5C00BB6ABA6BDA61BB6A93F84030FB77BB6AEA
:106E6C00FA7FDA70FB7F012B05D0FB7F022B02D05F
:106E7C004FF00D0300E2FA7FBB6B02FB03F3BB6325
:106E8C00BB6A93F83D30FB77BB6AFA7F9A70FB7F45
:106E9C00002B07D0FA7FFB7F03F1FF3302EA0303D9
:106EAC00002B02D04FF00D03E6E1BB6A03F1420365
:106EBC001B784FEA03239AB2BB6A03F141031B7898
:106ECC0042EA03039BB29AB2BB6A1A81BB6A1B8962
:106EDC0003F00F039BB2002B04D04FF00D03CBE15A
:106EEC000C010020BB6A03F144031B784FEA032317
:106EFC009AB2BB6A03F143031B7842EA03039BB2C9
:106F0C009BB27B637B6B002B1AD1BB6A03F15303DF
:106F1C001B784FEA0362BB6A03F152031B784FEAFA
:106F2C0003431A43BB6A03F151031B784FEA032353
:106F3C001A43BB6A03F150031B7842EA03037B63D9
:106F4C00BB6A03F13F031B784FEA03239AB2BB6A77
:106F5C0003F13E031B7842EA03039BB2BB83BB8B5A
:106F6C00002B02D14FF00D0386E1BA8BBB6BD2180C
:106F7C00BB6A1B894FEA13139BB2D318BB617A6BA4
:106F8C00BB699A4202D24FF00D0375E17A6BBB6973
:106F9C00D21ABB6A9B78B2FBF3F37B617B69002B43
:106FAC0002D14FF00D0367E14FF0010387F8473032
:106FBC007A6940F6F5739A4203D94FF0020387F8C9
:106FCC0047307A694FF6F5739A4203D94FF00303B1
:106FDC0087F847307B6903F10202BB6A9A61FA6B4E
:106FEC00BB69D218BB6A9A62BA8BFB6BD218BB6AAC
:106FFC001A6297F84730032B27D1BB6A1B89002BE9
:10700C0002D04FF00D0337E1BB6A03F15F031B782D
:10701C004FEA0362BB6A03F15E031B784FEA03433A
:10702C001A43BB6A03F15D031B784FEA03231A432F
:10703C00BB6A03F15C031B781A43BB6A5A62BB6AD6
:10704C009B694FEA83033B6323E0BB6A1B89002BDC
:10705C0002D14FF00D030FE1BB6A1A6ABB6BD21859
:10706C00BB6A5A6297F84730022B04D1BB6A9B6902
:10707C004FEA43030CE0BB6A9A6913464FEA430399
:10708C009B184FEA5302BB6A9B6903F00103D318A8
:10709C003B63BB6ADA693B6B03F5FE7303F10303D5
:1070AC004FEA53239A4202D24FF00D03E4E0BB6A3D
:1070BC004FF0FF321A61BB6A4FF00002DA6097F8AA
:1070CC004730032B40F0BF80BB6A4FF000025A716F
:1070DC00BB6A03F161031B784FEA03239AB2BB6AC4
:1070EC0003F160031B7842EA03039BB29BB21A467E
:1070FC00FB6BD218BB6A5A61BB6A5978BB6A03F145
:10710C003002BB6A5B69084611461A464FF0010310
:10711C0001F0EEFB0346002B40F09580BB6A03F5B3
:10712C000A7303F107031B784FEA03239AB2BB6A75
:10713C0003F50A7303F106031B7842EA03039BB2BF
:10714C001AB2504B9A427ED1BB6A03F133031B78BF
:10715C004FEA0362BB6A03F132031B784FEA034325
:10716C001A43BB6A03F131031B784FEA03231A431A
:10717C00BB6A93F830301A43434B9A4263D1BB6AD3
:10718C0003F5047303F107031B784FEA0362BB6A30
:10719C0003F5047303F106031B784FEA03431A4308
:1071AC00BB6A03F5047303F105031B784FEA032351
:1071BC001A43BB6A03F505731B781A43334B9A4287
:1071CC0041D1BB6A03F5067303F107031B784FEA41
:1071DC000362BB6A03F5067303F106031B784FEADF
:1071EC0003431A43BB6A03F5067303F105031B78CB
:1071FC004FEA03231A43BB6A03F507731B781A4340
:10720C00BB6ADA60BB6A03F5067303F103031B78F0
:10721C004FEA0362BB6A03F5067303F102031B78A2
:10722C004FEA03431A43BB6A03F5067303F10103E8
:10723C001B784FEA03231A43BB6A03F506731B78CA
:10724C001A43BB6A1A61BB6A97F847201A70104B35
:10725C001B8803F101039AB20D4B1A800C4B1A8850
:10726C00BB6ADA80BB6A4FF00002DA62BB6A4FF08D
:10727C0000021A714FF00003184607F14807BD468B
:10728C0080BD00BF55AAFFFF52526141727241612D
:10729C001001002080B582B000AF78600B467B8077
:1072AC007B68002B08D07B681B78002B04D07B6894
:1072BC00DB887A889A4202D04FF009030FE07B6892
:1072CC005B78184601F0FEFA034603F00103DBB2CB
:1072DC00002B02D04FF0030301E04FF000031846DF
:1072EC0007F10807BD4680BD80B485B000AF0346EA
:1072FC003960FB71FB79002B02D04FF00B0319E0C6
:10730C00FA790F4B53F82230FB60FB68002B03D04B
:10731C00FB684FF000021A703B68002B03D03B68EF
:10732C004FF000021A70FA79054B396843F82210B5
:10733C004FF00003184607F11407BD4680BC704798
:10734C000C01002080B592B000AFF860B960134614
:10735C00FB71FB684FF000021A60FB7903F01F030E
:10736C00FB71FB7923F00103DBB207F1080107F194
:10737C001C02084611461A46FFF74CFC034687F8D8
:10738C00473007F110037B6397F84730002B09D186
:10739C00BB6807F11C0210461946FFF72DFB03468C
:1073AC0087F847303B6B3B6497F84730002B06D18E
:1073BC003B6C002B03D14FF0060387F84730FB7969
:1073CC0003F01C03002B00F0D88097F84730002BFB
:1073DC0012D097F84730042B07D107F11C0318463D
:1073EC00FFF7D2F9034687F84730FB7943F00803DF
:1073FC00FB713B6B3B6415E03B6C03F10B031B789F
:10740C0003F01103002B04D04FF0070387F847302B
:10741C0008E0FB7903F00403002B03D04FF00803C2
:10742C0087F8473097F84730002B40F0C980FB793C
:10743C0003F00803002B00F0C38001F00BFFF8638E
:10744C003B6C03F10E03FA6BD2B21A703B6C03F176
:10745C000F03FA6B92B24FEA122292B2D2B21A70A6
:10746C003B6C03F11003FA6B4FEA1242D2B21A7062
:10747C003B6C03F11103FA6B4FEA1262D2B21A7031
:10748C003B6C03F10B034FF000021A703B6C03F1E1
:10749C001C034FF000021A703B6C03F11D034FF0FC
:1074AC0000021A703B6C03F11E034FF000021A70BD
:1074BC003B6C03F11F034FF000021A703B6C03F19D
:1074CC0015031B784FEA03239AB23B6C03F11403A8
:1074DC001B7842EA03039BB29BB24FEA03423B6C1C
:1074EC0003F11B031B784FEA032399B23B6C03F1A6
:1074FC001A031B7841EA03039BB29BB242EA0303D3
:10750C00BB633B6C03F11A034FF000021A703B6C27
:10751C0003F11B034FF000021A703B6C03F11403D0
:10752C004FF000021A703B6C03F115034FF0000290
:10753C001A70FB694FF001021A71BB6B002B3FD024
:10754C00FB69DB6AFB63FB691846B96BFEF762FEED
:10755C00034687F8473097F84730002B30D1FB694A
:10756C00BA6B02F1FF32DA60FB691846F96BFEF771
:10757C00D9FA034687F8473022E097F84730002BBA
:10758C001ED13B6C03F10B031B7803F01003002B93
:10759C0004D04FF0040387F8473011E0FB7903F077
:1075AC000203002B0CD03B6C03F10B031B7803F094
:1075BC000103DBB2002B03D04FF0070387F84730F1
:1075CC0097F84730002B0FD1FB7903F00803002B01
:1075DC0003D0FB7943F02003FB71FB69DA6AFB688B
:1075EC00DA61FB683A6C1A6297F84730002B4FD17E
:1075FC00FB68FA799A713B6C03F115031B784FEA1F
:10760C0003239AB23B6C03F114031B7842EA030385
:10761C009BB29BB24FEA03423B6C03F11B031B78FA
:10762C004FEA032399B23B6C03F11A031B7841EA2E
:10763C0003039BB29BB21A43FB681A613B6C03F1C8
:10764C001F031B784FEA03623B6C03F11E031B788C
:10765C004FEA03431A433B6C03F11D031B784FEABB
:10766C0003231A433B6C03F11C031B781A43FB687E
:10767C00DA60FB684FF000029A60FB684FF0000282
:10768C009A61FA69FB681A60FB69DA88FB689A8070
:10769C0097F84730184607F14807BD4680BD00BF34
:1076AC0080B58CB000AFF860B9607A603B60BB68A5
:1076BC003B623B684FF000021A60FB681A68FB687B
:1076CC009B8810461946FFF7E5FD0346FB77FB7FC9
:1076DC00002B01D0FB7F55E1FB689B79DBB25BB2E1
:1076EC00002B02DA4FF002034CE1FB689B7903F0AC
:1076FC000103002B02D14FF0070343E1FB68DA686A
:10770C00FB689B68D31ABB617A68BB699A4240F2EA
:10771C003381BB697B602FE1FB689B684FEAC353E5
:10772C004FEAD353002B40F0F580FB689B684FEA7F
:10773C005323DAB2FB681B689B7803F1FF33DBB28F
:10774C0002EA0303FB75FB7D002B2ED1FB689B68C3
:10775C00002B03D1FB681B69FB6208E0FB681A680D
:10776C00FB685B6910461946FEF750FBF862FB6A32
:10777C00012B09D8FB689B7963F07F03DAB2FB68B5
:10778C009A714FF00203FDE0FB6AB3F1FF3F09D1A0
:10779C00FB689B7963F07F03DAB2FB689A714FF058
:1077AC000103EFE0FB68FA6A5A61FB681A68FB6830
:1077BC005B6910461946FEF707FB38613B69002BE5
:1077CC0009D1FB689B7963F07F03DAB2FB689A718D
:1077DC004FF00203D6E0FB7D3A69D3183B617B681E
:1077EC004FEA53237B627B6A002B48D0FA7D7B6A7D
:1077FC00D218FB681B689B789A4206D9FB681B68F9
:10780C009B781A46FB7DD31A7B62FB681B685A78FF
:10781C007B6ADBB21046396A3A6901F069F80346B3
:10782C00002B09D0FB689B7963F07F03DAB2FB680D
:10783C009A714FF00103A5E0FB689B7903F04003BC
:10784C00002B17D0FB689A693B69D21A7B6A9A4263
:10785C0010D2FB689A693B69D31A4FEA43233A6A00
:10786C00D218FB6803F12403104619464FF400723A
:10787C00FEF7BAF87B6A4FEA4323BB6268E0FB6809
:10788C009A693B699A4242D0FB689B7903F04003AA
:10789C00002B22D0FB681B685978FB6803F124028B
:1078AC00FB689B69084611461A464FF0010301F02C
:1078BC0091F80346002B09D0FB689B7963F07F039A
:1078CC00DAB2FB689A714FF001035BE0FB689B79BD
:1078DC0023F04003DAB2FB689A71FB681B685A7894
:1078EC00FB6803F12403104619463A694FF0010373
:1078FC0000F0FEFF0346002B09D0FB689B7963F078
:10790C007F03DAB2FB689A714FF001033AE0FB682F
:10791C003A699A61FB689B684FEAC3534FEAD353A9
:10792C00C3F50073BB62BA6A7B689A4201D97B6863
:10793C00BB62FB6803F12402FB689B684FEAC353EC
:10794C004FEAD353D318386A1946BA6AFEF74CF883
:10795C003A6ABB6AD3183B62FB689A68BB6AD21856
:10796C00FB689A603B681A68BB6AD2183B681A605D
:10797C007A68BB6AD31A7B607B68002B7FF4CCAE31
:10798C004FF00003184607F13007BD4680BD00BF1D
:10799C0080B58AB000AFF860B9607A603B60BB68B4
:1079AC00BB613B684FF000021A60FB681A68FB6809
:1079BC009B8810461946FFF76DFC0346FB75FB7D53
:1079CC00002B01D0FB7D87E1FB689B79DBB25BB2BE
:1079DC00002B02DA4FF002037EE1FB689B7903F087
:1079EC000203002B02D14FF0070375E1FB68DA6844
:1079FC007B68D218FB68DB689A4280F054814FF0A8
:107A0C0000037B604FE1FB689B684FEAC3534FEA6E
:107A1C00D353002B40F00E81FB689B684FEA532335
:107A2C00DAB2FB681B689B7803F1FF33DBB202EA26
:107A3C000303BB75BB7D002B40D1FB689B68002BFF
:107A4C0011D1FB681B697B627B6A002B14D1FB682C
:107A5C001B6818464FF00001FEF734FC7862FB6897
:107A6C007A6A1A6108E0FB681A68FB685B69104661
:107A7C001946FEF727FC78627B6A002B00F0188110
:107A8C007B6A012B09D1FB689B7963F07F03DAB227
:107A9C00FB689A714FF002031EE17B6AB3F1FF3F62
:107AAC0009D1FB689B7963F07F03DAB2FB689A71AA
:107ABC004FF0010310E1FB687A6A5A61FB689B790D
:107ACC0003F04003002B22D0FB681B685978FB683D
:107ADC0003F12402FB689B69084611461A464FF0D5
:107AEC00010300F077FF0346002B09D0FB689B795C
:107AFC0063F07F03DAB2FB689A714FF00103EBE09D
:107B0C00FB689B7923F04003DAB2FB689A71FB683F
:107B1C001A68FB685B6910461946FEF755F938611F
:107B2C003B69002B09D1FB689B7963F07F03DAB2C8
:107B3C00FB689A714FF00203CEE0BB7D3A69D31813
:107B4C003B617B684FEA5323FB61FB69002B49D0F7
:107B5C00BA7DFB69D218FB681B689B789A4206D9E0
:107B6C00FB681B689B781A46BB7DD31AFB61FB68CC
:107B7C001B685A78FB69DBB21046B9693A6900F0A8
:107B8C0029FF0346002B09D0FB689B7963F07F0328
:107B9C00DAB2FB689A714FF001039DE0FB689A69B9
:107BAC003B69D21AFB699A4217D2FB6803F1240293
:107BBC00FB6899693B69CB1A4FEA4323B969CB1827
:107BCC00104619464FF40072FDF70EFFFB689B79C7
:107BDC0023F04003DAB2FB689A71FB694FEA432346
:107BEC003B624CE0FB689A693B699A421FD0FB6888
:107BFC009A68FB68DB689A4219D2FB681B685A7852
:107C0C00FB6803F12403104619463A694FF001034F
:107C1C0000F06EFE0346002B09D0FB689B7963F0E5
:107C2C007F03DAB2FB689A714FF0010354E0FB68F2
:107C3C003A699A61FB689B684FEAC3534FEAD35386
:107C4C00C3F500733B623A6A7B689A4201D97B6840
:107C5C003B62FB6803F12402FB689B684FEAC35349
:107C6C004FEAD353D3181846B9693A6AFDF7BCFEEC
:107C7C00FB689B7943F04003DAB2FB689A71BA69EE
:107C8C003B6AD318BB61FB689A683B6AD218FB68E5
:107C9C009A603B681A683B6AD2183B681A607A682B
:107CAC003B6AD31A7B607B68002B7FF4ACAE00E0A0
:107CBC0000BFFB689A68FB68DB689A4203D9FB68D3
:107CCC009A68FB68DA60FB689B7943F02003DAB2B0
:107CDC00FB689A714FF00003184607F12807BD4660
:107CEC0080BD00BF80B586B000AF78607B681A6835
:107CFC007B689B8810461946FFF7CCFA0346FB7548
:107D0C00FB7D002B40F0C7807B689B7903F0200340
:107D1C00002B00F0C0807B689B7903F04003002BA4
:107D2C001BD07B681B6859787B6803F124027B6845
:107D3C009B69084611461A464FF0010300F04AFEB3
:107D4C000346002B02D04FF00103A5E07B689B7922
:107D5C0023F04003DAB27B689A717B681A687B68FF
:107D6C00DB6910461946FDF7DDFE0346FB75FB7D0E
:107D7C00002B40F090807B681B6A3B613B6903F1F0
:107D8C000B033A6902F10B02127842F02002D2B2D4
:107D9C001A703B6903F11C037A68D268D2B21A706C
:107DAC003B6903F11D037A68D26892B24FEA122242
:107DBC0092B2D2B21A703B6903F11E037A68D26890
:107DCC004FEA1242D2B21A703B6903F11F037A6870
:107DDC00D2684FEA1262D2B21A703B6903F11A03ED
:107DEC007A681269D2B21A703B6903F11B037A6884
:107DFC00126992B24FEA122292B2D2B21A703B6955
:107E0C0003F114037A6812694FEA1242D2B21A7063
:107E1C003B6903F115037A6812694FEA124292B278
:107E2C004FEA122292B2D2B21A7001F013FAF86031
:107E3C003B6903F11603FA68D2B21A703B6903F17D
:107E4C001703FA6892B24FEA122292B2D2B21A70A7
:107E5C003B6903F11803FA684FEA1242D2B21A7066
:107E6C003B6903F11903FA684FEA1262D2B21A7035
:107E7C007B689B7923F02003DAB27B689A717B686C
:107E8C001B684FF001021A717B681B681846FDF7DE
:107E9C00B3FE0346FB75FB7D184607F11807BD467C
:107EAC0080BD00BF80B584B000AF78607868FFF704
:107EBC0019FF0346FB73FB7B002B03D17B684FF050
:107ECC0000021A60FB7B184607F11007BD4680BD07
:107EDC0080B588B000AF786039607B681A687B68C1
:107EEC009B8810461946FFF7D5F90346FB75FB7DB9
:107EFC00002B01D0FB7D57E17B689B79DBB25BB239
:107F0C00002B02DA4FF002034EE17B68DA683B6823
:107F1C009A4208D27B689B7903F00203002B02D1B2
:107F2C007B68DB683B607B689B683B614FF00003C0
:107F3C00BB617B68BA699A603B68002B00F0CF800C
:107F4C007B681B689B784FEA4323FB603B69002BE3
:107F5C001FD03B6803F1FF32FB68B2FBF3F23B69C5
:107F6C0003F1FF31FB68B1FBF3F39A4211D33B6988
:107F7C0003F1FF32FB68C3F100031A407B689A607F
:107F8C007B689B683A68D31A3B607B685B69FB61D2
:107F9C002EE07B681B69FB61FB69002B25D17B689C
:107FAC001B6818464FF00001FEF78CF9F861FB696D
:107FBC00012B09D17B689B7963F07F03DAB27B6874
:107FCC009A714FF00203EFE0FB69B3F1FF3F09D167
:107FDC007B689B7963F07F03DAB27B689A714FF010
:107FEC000103E1E07B68FA691A617B68FA695A61FE
:107FFC00FB69002B73D047E07B689B7903F002038D
:10800C00002B0CD07B681B681846F969FEF75AF9EF
:10801C00F861FB69002B09D1FB683B6038E07B6899
:10802C001B681846F969FDF7F1FEF861FB69B3F1BD
:10803C00FF3F09D17B689B7963F07F03DAB27B68E1
:10804C009A714FF00103AFE0FB69012B05D97B68F6
:10805C001B689A69FB699A4209D87B689B7963F023
:10806C007F03DAB27B689A714FF002039CE07B6865
:10807C00FA695A617B689A68FB68D2187B689A60C7
:10808C003A68FB68D31A3B603A68FB689A42B3D8EB
:10809C007B689A683B68D2187B689A603B684FEAA9
:1080AC00C3534FEAD353002B19D07B681B68184677
:1080BC00F969FDF789FEB861BB69002B09D17B68B2
:1080CC009B7963F07F03DAB27B689A714FF00203FD
:1080DC006AE03B684FEA5323BA69D318BB617B68EB
:1080EC009B684FEAC3534FEAD353002B4AD07B68AB
:1080FC009A69BB699A4245D07B689B7903F040032F
:10810C00002B22D07B681B6859787B6803F1240212
:10811C007B689B69084611461A464FF0010300F034
:10812C0059FC0346002B09D07B689B7963F07F03D5
:10813C00DAB27B689A714FF0010335E07B689B796A
:10814C0023F04003DAB27B689A717B681B685A781B
:10815C007B6803F1240310461946BA694FF00103FA
:10816C0000F0C6FB0346002B09D07B689B7963F0BB
:10817C007F03DAB27B689A714FF0010314E07B68DD
:10818C00BA699A617B689A687B68DB689A420AD9FB
:10819C007B689A687B68DA607B689B7943F0200384
:1081AC00DAB27B689A71FB7D184607F12007BD4651
:1081BC0080BD00BF80B485B000AF0346FB710D4B92
:1081CC001B889BB2FB60FB79002B04D1FB6843F04E
:1081DC003803FB6005E0FB6823F0380343F0080329
:1081EC00FB60044BFA6892B21A8007F11407BD4683
:1081FC0080BC70470038004080B400AFBD4680BCE6
:10820C00704700BF80B400AFBD4680BC704700BF54
:10821C0080B483B000AF0346FB7107F10C07BD4679
:10822C0080BC704780B400AF4FF001031846BD46C8
:10823C0080BC704780B582B000AF0346FB71FB7900
:10824C009BB20B48194601F051FC00BF08484FF097
:10825C00010101F087FC0346002BF7D0044801F024
:10826C0053FC0346DBB2184607F10807BD4680BD38
:10827C000038004080B500AF4FF0FF00FFF7DAFF89
:10828C000346184680BD00BF80B582B000AF0B4BD3
:10829C004FF032021A60FFF7EDFFFFF7EBFF0346DA
:1082AC00FB71FB79FF2B03D0044B1B68002BF4D123
:1082BC00FB79184607F10807BD4680BD1801002060
:1082CC0080B500AF03484FF4805101F0B1FAFFF7CD
:1082DC00D1FF80BD000C014080B588B000AF4FF0DD
:1082EC0008004FF0010101F0CDFA4FF480404FF03F
:1082FC00010101F0E9FA4FF00100FFF789FFFFF7E8
:10830C0081FFFFF779FF4FF000033B6004E000BFF3
:10831C003B6803F101033B603A6847F22F539A42E2
:10832C00F5DD4FF480533B814FF01003FB724FF09F
:10833C000303BB7207F108033048194601F098F9A2
:10834C002E484FF4805101F073FA4FF420433B81D7
:10835C004FF00303BB724FF01803FB7207F10803D5
:10836C002648194601F084F94FF480433B814FF0C5
:10837C004803FB7207F108032048194601F078F90D
:10838C004FF00003BB814FF48273FB814FF000036D
:10839C003B824FF000037B824FF00003BB824FF413
:1083AC000073FB824FF038033B834FF000037B8359
:1083BC004FF00703BB8307F10C031148194601F07A
:1083CC0029FB0F484FF0000101F0ACFB0C484FF0BB
:1083DC00010101F06BFB00BF09484FF0020101F0F5
:1083EC00C1FB0346002BF7D0054801F08DFB03467B
:1083FC00DBB2FB7107F12007BD4680BD000C0140CC
:10840C000038004080B582B000AF1D4B1B78DBB24A
:10841C0003F00103002B08D11A484FF4805101F0EE
:10842C0015FAFFF731FFFFF74BFF174801F0B2FACF
:10843C0015484FF0000101F039FB4FF480404FF02C
:10844C00000101F041FA4FF46043BB804FF0280368
:10845C00FB7107F104030B48194601F009F94FF0C1
:10846C000000FFF7D5FE064B1B78DBB243F001038F
:10847C00DAB2034B1A7007F10807BD4680BD00BF86
:10848C00E4000020000C01400038004080B584B0AE
:10849C0000AF786039602B4B4FF00A021A60FFF77F
:1084AC00E9FE0346FB73FB7BFF2B03D1254B1B68BB
:1084BC00002BF4D1FB7BFE2B02D04FF000033CE0F1
:1084CC004FF0FF00FFF7B6FE03461A467B681A70A2
:1084DC007B6803F101037B604FF0FF00FFF7AAFEFE
:1084EC0003461A467B681A707B6803F101037B60B4
:1084FC004FF0FF00FFF79EFE03461A467B681A708A
:10850C007B6803F101037B604FF0FF00FFF792FEE5
:10851C0003461A467B681A707B6803F101037B6083
:10852C003B68A3F104033B603B68002BC8D1FFF709
:10853C00A1FEFFF79FFE4FF00103184607F110074D
:10854C00BD4680BD1401002080B584B000AF7860BA
:10855C000B46FB70FFF798FE0346FF2B02D04FF043
:10856C00000338E0FB781846FFF764FEFB78FD2B20
:10857C002FD04FF00003FB737B681B787A6802F1F5
:10858C0001027A601846FFF755FE7B681B787A6803
:10859C0002F101027A601846FFF74CFEFB7B03F1F7
:1085AC00FF33FB73FB7B002BE6D14FF0FF00FFF793
:1085BC0041FE4FF0FF00FFF73DFEFFF75BFE034669
:1085CC00BB73BB7B03F01F03052B02D04FF00003E2
:1085DC0001E04FF00103184607F11007BD4680BDBE
:1085EC0080B584B000AF03463960FB71FB795BB298
:1085FC00002B10DAFB7903F07F03FB714FF077004F
:10860C004FF00001FFF7ECFF0346BB73BB7B012B64
:10861C0001D9BB7B5AE030484FF4805101F008F986
:10862C002D484FF4805101F011F9FFF72DFE034650
:10863C00FF2B02D04FF0FF0348E0FB791846FFF701
:10864C00F9FD3B684FEA1363DBB21846FFF7F2FD06
:10865C003B684FEA1343DBB21846FFF7EBFD3B6870
:10866C004FEA1323DBB21846FFF7E4FD3B68DBB29D
:10867C001846FFF7DFFD4FF00103FB73FB79402B2E
:10868C0002D14FF09503FB73FB79482B02D14FF0CD
:10869C008703FB73FB7B1846FFF7CCFDFB794C2B58
:1086AC0001D1FFF7E7FD4FF00A03FB73FFF7E2FD83
:1086BC000346BB73BB7B5BB2002B06DAFB7B03F17F
:1086CC00FF33FB73FB7B002BF0D1BB7B184607F110
:1086DC001007BD4680BD00BF000C014090B585B0B1
:1086EC0000AF0346FB71FB79002B02D04FF0010366
:1086FC00DCE0714B1B78DBB203F00203002B03D0E0
:10870C006D4B1B78DBB2D1E0FFF7E6FD4FF00000BC
:10871C00FFF750FD4FF00A03FB7305E0FFF7AAFDCE
:10872C00FB7B03F1FF33FB73FB7B002BF6D14FF08C
:10873C0000037B734FF040004FF00001FFF750FF38
:10874C000346012B40F098805C4B4FF064021A609A
:10875C004FF048004FF4D571FFF742FF0346012B51
:10876C0056D14FF00003FB730DE0FC7BFFF782FD4D
:10877C0003461A4607F110010B1903F8082CFB7B72
:10878C0003F10103FB73FB7B032BEED9BB7A012BAB
:10879C0072D1FB7AAA2B6FD100BF484B1B68002B00
:1087AC0008D04FF0E9004FF08041FFF719FF034666
:1087BC00002BF2D1414B1B68002B5DD04FF07A009F
:1087CC004FF00001FFF70CFF0346002B54D14FF084
:1087DC000003FB730DE0FC7BFFF74CFD03461A46D0
:1087EC0007F110010B1903F8082CFB7B03F10103B3
:1087FC00FB73FB7B032BEED93B7A03F04003002B7E
:10880C0002D04FF00C0301E04FF004037B7333E014
:10881C004FF0E9004FF00001FFF7E2FE0346012B99
:10882C0006D84FF002037B734FF0E903BB7306E0ED
:10883C004FF001037B734FF04103BB7300BF1F4B21
:10884C001B68002B08D0BB7B18464FF00001FFF7CC
:10885C00C7FE0346002BF2D1184B1B68002B08D027
:10886C004FF050004FF40071FFF7BAFE0346002B97
:10887C0002D04FF000037B73114B7A7B1A70FFF719
:10888C001FFD7B7B002B0CD00B4B1B78DBB223F03A
:10889C000103DAB2084B1A704FF00100FFF78AFCA3
:1088AC0001E0FFF7AFFD044B1B78DBB2184607F174
:1088BC001407BD4690BD00BFE40000201401002049
:1088CC001C01002080B483B000AF0346FB71FB7920
:1088DC00002B02D04FF0010302E0044B1B78DBB2FB
:1088EC00184607F10C07BD4680BC7047E400002019
:1088FC0080B584B000AFB9607A600246FA73FB7041
:10890C00FB7B002B02D1FB78002B02D14FF0040330
:10891C0056E02E4B1B78DBB203F00103DBB2002BCD
:10892C0002D04FF003034BE0294B1B7803F00803F4
:10893C00002B03D17B684FEA43237B60FB78012B30
:10894C0013D14FF051007968FFF74AFE0346002B14
:10895C002ED1B8684FF40071FFF798FD0346002B39
:10896C0026D04FF00003FB7022E04FF052007968E4
:10897C00FFF736FE0346002B1AD1B8684FF400718E
:10898C00FFF784FD0346002B0BD0BB6803F5007387
:10899C00BB60FB7803F1FF33FB70FB78002BECD151
:1089AC0000E000BF4FF04C004FF00001FFF718FE45
:1089BC00FFF786FCFB78002B0CBF00230123DBB2F6
:1089CC00184607F11007BD4680BD00BFE40000202B
:1089DC001C01002080B584B000AFB9607A600246FB
:1089EC00FA73FB70FB7B002B02D1FB78002B02D1BE
:1089FC004FF0040372E03C4B1B78DBB203F0010335
:108A0C00DBB2002B02D04FF0030367E0364B1B7830
:108A1C00DBB203F00403002B02D04FF002035DE045
:108A2C00324B1B7803F00803002B03D17B684FEA11
:108A3C0043237B60FB78012B13D14FF058007968EE
:108A4C00FFF7CEFD0346002B40D1B8684FF0FE0176
:108A5C00FFF77AFD0346002B38D04FF00003FB7074
:108A6C0034E0224B1B7803F00603002B05D0FB7877
:108A7C004FF0D7001946FFF7B3FD4FF05900796856
:108A8C00FFF7AEFD0346002B20D1B8684FF0FC0178
:108A9C00FFF75AFD0346002B0BD0BB6803F50073A0
:108AAC00BB60FB7803F1FF33FB70FB78002BECD140
:108ABC0000E000BF4FF000004FF0FD01FFF744FD58
:108ACC000346002B02D14FF00103FB70FFF7F8FBBC
:108ADC00FB78002B0CBF00230123DBB2184607F1F7
:108AEC001007BD4680BD00BFE40000201C01002023
:108AFC0090B58BB000AF0B463A600246FA71BB7171
:108B0C003B683B62FB79002B02D04FF0040310E270
:108B1C004FF0010387F82730BB79042B2DD13B6A2A
:108B2C001B78012B0FD0022B14D0002B20D1FFF778
:108B3C0079FB0346002B01D0FFF764FC4FF00003D8
:108B4C0087F82730F3E1FFF7C7FB4FF0000387F8F6
:108B5C002730ECE13B6A03F10104FFF763FB0346AA
:108B6C00DBB223704FF0000387F8273000BFDEE143
:108B7C004FF0040387F82730D9E1AE4B1B78DBB2FA
:108B8C0003F00103DBB2002B02D04FF00303D0E162
:108B9C00BB790E2B00F2A98101A252F823F000BF81
:108BAC00E98B0008098C0008D98C0008EB8C0008B4
:108BBC00F78E0008F78E0008F78E0008F78E000875
:108BCC00F78E0008F78E0008038E0008158E00083B
:108BDC004D8E0008798E0008C78E000896484FF419
:108BEC00805100F033FEFFF74FFB0346FF2B40F0A4
:108BFC0081814FF0000387F8273096E14FF0490050
:108C0C004FF00001FFF7ECFC0346002B40F07481A1
:108C1C0007F10C0318464FF01001FFF737FC034621
:108C2C00002B00F06B813B7B4FEA9313DBB2012BE3
:108C3C0010D17B7D1A463B7D4FEA03239BB2D318A0
:108C4C009BB203F10103FB833B68FA8B4FEA822250
:108C5C001A6036E07B7C03F00F03DAB2BB7D4FEA7F
:108C6C00D313DBB2D318DAB27B7D03F00303DBB290
:108C7C004FEA4303DBB2D318DBB203F1020387F8EC
:108C8C0026303B7D4FEA9313DBB21A46FB7C4FEA4E
:108C9C0083039BB2D3189AB2BB7C03F003039BB241
:108CAC004FEA83239BB2D3189BB203F10103FB83DE
:108CBC003B68F98B97F82620A2F1090201FA02F21F
:108CCC001A604FF0000387F827302EE13B684FF411
:108CDC0000721A804FF0000387F8273025E1574BBC
:108CEC001B7803F00403002B36D04FF0CD004FF06F
:108CFC000001FFF775FC0346002B40F00181FFF7E4
:108D0C00B9FA07F10C0318464FF01001FFF7BEFB40
:108D1C000346002B00F0F6804FF0300387F8263026
:108D2C0007E0FFF7A7FA97F8263003F1FF3387F82F
:108D3C00263097F82630002BF3D13B68BA7D4FEAEA
:108D4C001212D2B24FF0100101FA02F21A604FF077
:108D5C00000387F82730E8E04FF049004FF000019E
:108D6C00FFF73EFC0346002B40F0CE8007F10C03CE
:108D7C0018464FF01001FFF789FB0346002B00F05B
:108D8C00C5802E4B1B7803F00203002B16D03B68DA
:108D9C00BA7D02F03F024FEA4201FA7D4FEAD2124D
:108DAC00D2B28A1802F101017A7E4FEA9212D2B243
:108DBC0002F1FF3201FA02F21A6017E03B68BA7D49
:108DCC0002F07C024FEAA20292B202F10102F97D9A
:108DDC0001F003014FEAC100F97D4FEA5111C9B20C
:108DEC00411801F1010101FB02F21A604FF000037E
:108DFC0087F8273099E0114B1A783B6A1A704FF0BC
:108E0C00000387F8273090E04FF049004FF0000145
:108E1C00FFF7E6FB0346002B7AD1386A4FF01001BE
:108E2C00FFF734FB0346002B74D04FF0000387F898
:108E3C0027307AE0E4000020000C01401C010020E7
:108E4C004FF04A004FF00001FFF7CAFB0346002B1E
:108E5C0062D1386A4FF01001FFF718FB0346002B64
:108E6C005CD04FF0000387F827305EE04FF07A00BB
:108E7C004FF00001FFF7B4FB0346002B50D14FF02D
:108E8C00040387F826300FE0FFF7F4F903461A467F
:108E9C003B6A1A703B6A03F101033B6297F8263078
:108EAC0003F1FF3387F8263097F82630002BEBD1EF
:108EBC004FF0000387F8273037E04FF0CD004FF02C
:108ECC000001FFF78DFB0346002B2BD1FFF7D2F9E6
:108EDC00386A4FF04001FFF7D9FA0346002B23D034
:108EEC004FF0000387F827301FE04FF0040387F89A
:108EFC0027301AE000BF18E000BF16E000BF14E0F6
:108F0C0000BF12E000BF10E000BF0EE000BF0CE09D
:108F1C0000BF0AE000BF08E000BF06E000BF04E0AD
:108F2C0000BF02E000BF00E000BFFFF7C9F997F8EF
:108F3C002730184607F12C07BD4690BD80B485B08C
:108F4C0000AF786039607B685B68FB60FB685A68CF
:108F5C003B685A607B685A683B689A60FB685B6840
:108F6C003A689A603A68FB685A603A687B685A605B
:108F7C003B687A681A617B681B6803F101027B68A5
:108F8C001A6007F11407BD4680BC704780B485B0E9
:108F9C0000AF78607B685B687A6892689A607B68DF
:108FAC009B687A6852685A607B681B69FB60FB6837
:108FBC005A687B689A4203D17B689A68FB685A604E
:108FCC007B684FF000021A61FB681B6803F1FF32EB
:108FDC00FB681A6007F11407BD4680BC704700BFE0
:108FEC0080B584B000AF4A4B1B68002B40F08580E5
:108FFC00484B1B6803F10102464B1A60454B1B683A
:10900C00002B2CD1444B1B681B68002B04D04FF059
:10901C00500080F31188FEE73F4B1B68FB603F4B11
:10902C001A683D4B1A603D4BFA681A603C4B1B6842
:10903C0003F101023A4B1A60374B1B681B68002B7B
:10904C0004D1384B4FF0FF321A6008E0324B1B68EA
:10905C00DB68DB68BB60BB685A68324B1A602D4B0F
:10906C001A68304B1B689A424DD32B4B1B681B68FC
:10907C00002B04D12B4B4FF0FF321A6043E0264BF0
:10908C001B68DB68DB68BB60BB685B687B60214B83
:10909C001A687B689A4203D2224B7A681A6032E0D3
:1090AC00BB6803F104031846FFF770FFBB689B6AAB
:1090BC00002B05D0BB6803F118031846FFF766FFB9
:1090CC00BB68DA6A184B1B689A4203D9BB68DA6A28
:1090DC00154B1A60BB68DA6A13464FEA83039B1878
:1090EC004FEA83031A46114BD218BB6803F10403F1
:1090FC0010461946FFF722FFB7E70D4B1B6803F12B
:10910C0001020B4B1A6007F11007BD4680BD00BF72
:10911C009801002090010020880100208C01002083
:10912C00A4010020E800002094010020240100206C
:10913C009C01002080B582B000AF3D4B1B68002B1A
:10914C0004D03C4B4FF001021A606CE03A4B1B68A8
:10915C001A68394B1B681B6B9A420AD8364B1B6832
:10916C001A46354B1B6803F134031046194600F0C0
:10917C0001F9314B1B681B6B184630494FF0140238
:10918C00FBF7D6FF0346002B1BD02B4B1B681A4654
:10919C00294B1B6803F134031046194600F0EAF81A
:1091AC0010E0274B1B68002B04D14FF0500080F3CC
:1091BC001188FEE7224B1B6803F1FF32204B1A602B
:1091CC0000E000BF1E4B1A6813464FEA83039B183E
:1091DC004FEA83031A461B4BD3181B68002BE0D0B5
:1091EC00174B1A6813464FEA83039B184FEA830305
:1091FC001A46144BD3187B607B685B685A687B6893
:10920C005A607B685A687B6803F108039A4204D160
:10921C007B685B685A687B685A607B685B68DB6854
:10922C001A46054B1A6007F10807BD4680BD00BF02
:10923C0098010020A00100202001002078B800082F
:10924C00940100202401002080B500AFFCF764F9E4
:10925C0080BD00BF80B400AF054B1B681A4603F1FC
:10926C000101034B196013461846BD4680BC70477C
:10927C00A801002090B5ADF5A46D81B000AF4FF002
:10928C0000604FF4A04100F0DDF9FBF7CBFFFBF7DA
:10929C00D7FF01F0D1FC07F18002344B14460FCB01
:1092AC0007C4238004F102044FEA134323704FF0E8
:1092BC000000FFF713FA07F53B734FF00000194657
:1092CC00FEF712F807F1C803184629494FF01202AD
:1092DC00FEF738F8034687F81F3597F81F35002B33
:1092EC0042D107F1C803DB6807F1C80210461946E2
:1092FC00FEF7EEFD034687F81F3597F81F35002B58
:10930C0032D107F1C80107F1800207F1900308463A
:10931C0011464FF00F02FEF73BFB07F1C80318464E
:10932C00FEF7C0FD07F1C803184611494FF00102C2
:10933C00FEF708F8034687F81F3597F81F35002B02
:10934C0012D107F1C8013A4607F1900308461146BD
:10935C004FF08002FEF7A4F9034687F81F3507F19A
:10936C00C8031846FEF79EFDFEE700BF24B70008B1
:10937C0018B7000880B485B000AF786039604FF042
:10938C000003FB73FB7BDBB203F10103DBB2FB736A
:10939C00F8E700BF80B400AFBD4680BC704700BF8B
:1093AC0080B400AFFEE700BF80B400AFFEE700BFA3
:1093BC0080B400AFFEE700BF80B400AFFEE700BF93
:1093CC0080B400AFBD4680BC704700BF80B500AF15
:1093DC00154B154A126842F001021A60124A124BE0
:1093EC005968124B01EA030353600F4A0E4B1B687A
:1093FC0023F0847323F4803313600B4B0A4A1268F6
:10940C0022F480221A60084B074A526822F4FE02AA
:10941C005A60054B4FF41F029A6000F00BF8044B96
:10942C004FF000629A6080BD001002400000FFF80F
:10943C0000ED00E080B500AF00F002F880BD00BF89
:10944C0080B483B000AF4FF000037B604FF000039B
:10945C003B603B4B3A4A126842F480321A60384BFC
:10946C001B6803F400333B607B6803F101037B60F2
:10947C003B68002B03D17B68B3F5A06FEFD1304B69
:10948C001B6803F40033002B03D04FF001033B6047
:10949C0002E04FF000033B603B68012B4BD1294BA2
:1094AC00284A126842F010021A60264B254A1268AC
:1094BC0022F003021A60234B224A126842F0010286
:1094CC001A601F4B1E4A52685A601D4B1C4A526848
:1094DC005A601B4B1A4A526842F480625A60184B0D
:1094EC00174A526822F47C125A60154B144A52687F
:1094FC0042F488125A60124B114A126842F0807280
:10950C001A6000BF0E4B1B6803F00073002BF9D0E0
:10951C000B4B0B4A526822F003025A60084B084A64
:10952C00526842F002025A6000BF054B5B6803F0C0
:10953C000C03082BF9D107F10C07BD4680BC704712
:10954C00001002400020024080B483B000AF78606D
:10955C00054A7B6843F0BE6343F42023D36007F1D4
:10956C000C07BD4680BC704700ED00E080B487B0AE
:10957C0000AF78604FF000037B614FF000033B615C
:10958C004FF00F03FB607B68DB78002B3FD02B4B3D
:10959C00DB686FEA030303F4E0634FEA13237B6198
:1095AC007B69C3F104033B617B69FA6822FA03F31C
:1095BC00FB607B685B781A463B6902FA03F37B61BC
:1095CC007B689B781A46FB6802EA03037A6942EAD5
:1095DC0003037B617B694FEA03137B6118497B684A
:1095EC001B787A69D2B2CB1883F80023144B7A68B3
:1095FC0012784FEA5212D2B27968097801F01F0141
:10960C004FF0010000FA01F143F8221011E00C4B6D
:10961C007A6812784FEA5212D2B27968097801F05E
:10962C001F014FF0010000FA01F102F1200243F892
:10963C00221007F11C07BD4680BC704700ED00E00E
:10964C0000E100E080B483B000AF78603960074A75
:10965C003B6823F0604323F07F0379680B439360EE
:10966C0007F10C07BD4680BC704700BF00ED00E061
:10967C0080B489B000AF786039604FF00003FB61B3
:10968C004FF000033B614FF00003BB614FF0000350
:10969C00FB604FF000037B614FF00003BB603B6845
:1096AC00DB7803F00F03FB613B68DB7803F01003FE
:1096BC00002B05D03B689B78FA6942EA0303FB61F7
:1096CC003B681B8803F0FF03002B51D07B681B68A1
:1096DC007B614FF00003BB6144E0BB694FF00102BA
:1096EC0002FA03F3FB603B681B881A46FB6802EA2C
:1096FC0003033B613A69FB689A422FD1BB694FEA7D
:10970C008303FB60FB684FF00F0202FA03F3BB60AC
:10971C00BB686FEA03037A6902EA03037B61FB68A7
:10972C00FA6902FA03F37A6942EA03037B613B6844
:10973C00DB78282B07D1BB694FF0010202FA03F248
:10974C007B685A610AE03B68DB78482B06D1BB6921
:10975C004FF0010202FA03F27B681A61BB6903F154
:10976C000103BB61BB69072BB7D97B687A691A60A7
:10977C003B681B88FF2B56D97B685B687B614FF07D
:10978C000003BB6149E0BB6903F108034FF0010220
:10979C0002FA03F3FB603B681B881A46FB6802EA7B
:1097AC0003033B613A69FB689A4232D1BB694FEAC9
:1097BC008303FB60FB684FF00F0202FA03F3BB60FC
:1097CC00BB686FEA03037A6902EA03037B61FB68F7
:1097DC00FA6902FA03F37A6942EA03037B613B6894
:1097EC00DB78282B08D1BB6903F108034FF0010289
:1097FC0002FA03F27B685A613B68DB78482B08D18C
:10980C00BB6903F108034FF0010202FA03F27B6813
:10981C001A61BB6903F10103BB61BB69072BB2D9A8
:10982C007B687A695A6007F12407BD4680BC704793
:10983C0080B483B000AF78600B467B807A887B68FD
:10984C001A6107F10C07BD4680BC704780B483B029
:10985C0000AF78600B467B807A887B685A6107F191
:10986C000C07BD4680BC704780B483B000AF7860F5
:10987C00034B7A681A6007F10C07BD4680BC704731
:10988C00D800424280B483B000AF78600B46FB70C6
:10989C00FB78002B07D00B4B0A4A91697A6841EA96
:1098AC0002029A6108E0074B064A91697A686FEAEE
:1098BC00020201EA02029A6107F10C07BD4680BC64
:1098CC00704700BF0010024080B483B000AF7860D6
:1098DC000B46FB70FB78002B07D00B4B0A4AD16967
:1098EC007A6841EA0202DA6108E0074B064AD1695C
:1098FC007A686FEA020201EA0202DA6107F10C07E8
:10990C00BD4680BC704700BF0010024080B483B0DD
:10991C0000AF78600B46FB70FB78002B07D00B4B2D
:10992C000A4AD1687A6841EA0202DA6008E0074B19
:10993C00064AD1687A686FEA020201EA0202DA602A
:10994C0007F10C07BD4680BC704700BF00100240F9
:10995C0080B483B000AF78600B46FB70FB78002BB3
:10996C0007D00B4B0A4A11697A6841EA02021A6164
:10997C0008E0074B064A11697A686FEA020201EAAD
:10998C0002021A6107F10C07BD4680BC704700BF8C
:10999C000010024080B582B000AF78607A681A4B34
:1099AC009A420CD14FF480504FF00101FFF7AEFFFB
:1099BC004FF480504FF00001FFF7A8FF20E07A68C9
:1099CC00124B9A420CD14FF480404FF00101FFF73B
:1099DC00BFFF4FF480404FF00001FFF7B9FF0FE0DD
:1099EC007A680B4B9A420BD14FF400404FF00101B7
:1099FC00FFF7AEFF4FF400404FF00001FFF7A8FF58
:109A0C0007F10807BD4680BD00300140003800401A
:109A1C00003C004080B485B000AF786039604FF0F6
:109A2C000003FB817B681B88FB81FB8903F441539A
:109A3C00FB813B681A883B685B8842EA03039AB255
:109A4C003B689B8842EA03039AB23B68DB8842EA94
:109A5C0003039AB23B681B8942EA03039AB23B6840
:109A6C005B8942EA03039AB23B689B8942EA03038F
:109A7C009AB23B68DB8942EA03039AB2FB8942EA59
:109A8C000303FB817B68FA891A807B689B8B9BB2F2
:109A9C0023F400639AB27B689A833B681A8A7B68CA
:109AAC001A8207F11407BD4680BC704780B483B09E
:109ABC0000AF78600B46FB70FB78002B08D07B68FE
:109ACC001B889BB243F040039AB27B681A8007E074
:109ADC007B681B889BB223F040039AB27B681A8088
:109AEC0007F10C07BD4680BC704700BF80B483B043
:109AFC0000AF78600B467B807B687A889A8107F18F
:109B0C000C07BD4680BC704780B483B000AF786052
:109B1C007B689B899BB2184607F10C07BD4680BC3D
:109B2C00704700BF80B483B000AF78600B46FB7009
:109B3C00FB78002B08D07B681B889BB243F4005346
:109B4C009AB27B681A8007E07B681B889BB223F46F
:109B5C0000539AB27B681A8007F10C07BD4680BC93
:109B6C00704700BF80B485B000AF78600B467B8037
:109B7C004FF00003FB737B681B899AB27B8802EA67
:109B8C0003039BB2002B03D04FF00103FB7302E0E5
:109B9C004FF00003FB73FB7B184607F11407BD461F
:109BAC0080BC704780B582B000AF0346FB80FB8859
:109BBC00002B07D10A4B1B684FF001021A824FF0A1
:109BCC00000307E0074B1B681B689847044B1B6896
:109BDC0003F10A03184607F10807BD4680BD00BF14
:109BEC00380A0020340A002080B500AF104B1B68E7
:109BFC00DA78104B5B789A4216D80D4B1B689B7821
:109C0C00002B11D10A4B1B689B88002B0CD1084BE5
:109C1C001B68074A1268D2789A72074B1B685B68FC
:109C2C0098474FF0000301E04FF00203184680BD47
:109C3C00380A00205C000020340A002080B582B075
:109C4C0000AF0346FB80FB88002B07D10A4B1B6837
:109C5C004FF001021A824FF0000307E0074B1B681C
:109C6C009B689847044B1B6803F10C03184607F1DB
:109C7C000807BD4680BD00BF380A0020340A00200A
:109C8C0080B582B000AF204B1B689B691F4A1268DD
:109C9C0051791E4A1268D2780846114698470346F5
:109CAC00FB711A4B1B689B7A002B25D0FB79002B80
:109CBC0009D1164B1B681B79002B04D1134B1B6865
:109CCC009B78002B02D04FF0020317E0FB79002B9E
:109CDC0012D10F4B1B68DB6898470C4B1B680B4A67
:109CEC0012685279DA72094B1B68084A1268D278EA
:109CFC001A734FF0000301E04FF00203184607F10E
:109D0C000807BD4680BD00BF100A0020380A00209D
:109D1C00340A002080B584B000AF0346FB80FB887A
:109D2C00002B07D1494B1B684FF002021A824FF0EF
:109D3C00000386E0464B4FF000021A80434B1B6831
:109D4C001B7803F07F03002B2CD1404B1B685B7AF4
:109D5C00FB73FB7B03F02003002B07D03C4B1B78E1
:109D6C0043F00203DAB23A4B1A7006E0384B1B7818
:109D7C0023F00203DAB2364B1A70FB7B03F040037C
:109D8C00002B07D0324B1B7843F00103DAB2304B77
:109D9C001A7051E02E4B1B7823F00103DAB22C4BD6
:109DAC001A7049E0294B1B681B7803F07F03012BC9
:109DBC0001D1274B45E0254B1B681B7803F07F0333
:109DCC00022B36D1214B1B685B79BB73BB7B03F039
:109DDC000F037B73BB7B5BB2002B14DA7B7B4FEAEC
:109DEC00830303F1804303F5B8431B689BB203F074
:109DFC003003102B20D1164B1B7843F00103DAB241
:109E0C00134B1A7018E07B7B4FEA830303F18043FA
:109E1C0003F5B8431B689BB203F44053B3F5805F62
:109E2C000AD10B4B1B7843F00103DAB2084B1A70C2
:109E3C0002E04FF0000304E0064B1B681B699847D7
:109E4C00034B184607F11007BD4680BD380A0020A9
:109E5C00080A0020340A002090B587B000AF784B78
:109E6C001B681B7803F07F033B613B69002B0BD114
:109E7C00734B1B68724A1268527A22F02002D2B2DB
:109E8C005A724FF00003D5E03B69022B40F0D080B2
:109E9C006B4B1B685B88002B04D1694B1B681B79CF
:109EAC00002B02D04FF00203C4E0664BFB60644B06
:109EBC001B685B79BB60BB6823F080037B607B68AD
:109ECC003B605F4B1B685B79DBB25BB2002B0CDA3F
:109EDC003B684FEA830303F1804303F5B8431B68E7
:109EEC009BB203F030037B610BE03B684FEA8303CA
:109EFC0003F1804303F5B8431B689BB203F4405352
:109F0C007B61FB681B781A467B689A4207D97B6990
:109F1C00002B04D04A4B1B689B7A002B02D14FF0CC
:109F2C00020387E0BB6803F08003002B19D03B6869
:109F3C004FEA830303F1804303F5B8431B689BB2DC
:109F4C0003F03003102B6CD13B68DBB2184601F0E8
:109F5C0013FA3B68DBB218464FF0300101F0E2F81F
:109F6C005FE03B684FEA830303F1804303F5B8439A
:109F7C001B689BB203F44053B3F5805F51D13B682F
:109F8C00002B29D13B68DAB22F4B93F82C301046BA
:109F9C00194601F0C5FA3B684FEA830303F180438D
:109FAC0003F5B8431B689BB223F4804323F0700382
:109FBC009CB284F480539CB284F400539CB23B68F2
:109FCC004FEA830303F1804303F5B8431F4A44EA85
:109FDC00020292B21A6024E03B68DBB2184601F030
:109FEC0099F93B684FEA830303F1804303F5B843C7
:109FFC001B689BB223F4804323F070039CB284F45F
:10A00C0080539CB284F400539CB23B684FEA8303A8
:10A01C0003F1804303F5B8430C4A44EA020292B2BE
:10A02C001A600B4B1B685B6998474FF0000301E00B
:10A03C004FF00203184607F11C07BD4690BD00BF48
:10A04C00380A00205C000020600000208080FFFFA8
:10A05C00340A002090B585B000AF454B1B685B7986
:10A06C00BB60BB6823F080037B607B683B60404B2C
:10A07C001B685B79DBB25BB2002B0CDA3B684FEAF6
:10A08C00830303F1804303F5B8431B689BB203F0D1
:10A09C003003FB600BE03B684FEA830303F1804322
:10A0AC0003F5B8431B689BB203F44053FB60314B80
:10A0BC001B781A463B689A420CD92D4B1B685B885F
:10A0CC00002B07D1FB68002B04D0294B1B689B7A13
:10A0DC00002B02D14FF0020345E0BB6803F0800374
:10A0EC00002B1DD03B684FEA830303F1804303F53B
:10A0FC00B8431B689BB223F4E04323F040039CB2AB
:10A10C0084F010039CB23B684FEA830303F1804355
:10A11C0003F5B843184A44EA020292B21A601CE0F2
:10A12C003B684FEA830303F1804303F5B8431B6894
:10A13C009BB223F4804323F070039CB284F48053CD
:10A14C009CB23B684FEA830303F1804303F5B843A9
:10A15C00094A44EA020292B21A60084B1B689B69D6
:10A16C0098474FF00003184607F11407BD4690BD01
:10A17C00380A00205C0000208080FFFF340A002099
:10A18C0080B500AF084B1B68074A1268527A42F040
:10A19C002002D2B25A72054B1B68DB6998474FF00C
:10A1AC000003184680BD00BF380A0020340A002086
:10A1BC0080B485B000AF03463960FB800E4B1B6842
:10A1CC005B8AFB60FB88002B0BD10B4B1B683A683E
:10A1DC009188FA6892B28A1A92B21A824FF00003EE
:10A1EC0003E03B681A68FB68D318184607F114079C
:10A1FC00BD4680BC704700BF380A002080B584B0D3
:10A20C0000AF404B1B6803F11003BB60BB681B889D
:10A21C007B60BB689B68002B2FD07B68002B2CD0FD
:10A22C00BB689B88FB60FA687B689A4201D97B68A3
:10A23C00FB60BB689B68FA6892B21046984738601E
:10A24C00BB681A88FB689BB2D31A9AB2BB681A8097
:10A25C00BB685A88FB689BB2D3189AB2BB685A8009
:10A26C004FF0000001F020F903461A46FB689BB240
:10A27C00386811461A4600F0E3FEBB681B88002BB9
:10A28C000DD0214B4FF440521A804FF000004FF08C
:10A29C00000101F027F91D4B4FF030021A80BB680A
:10A2AC001A88BB689B889A4205D3164B1B684FF0E3
:10A2BC0003021A7221E0BB681B88002B05D0114BDE
:10A2CC001B684FF005021A7217E0BB681B88002B45
:10A2DC0013D10C4B1B684FF006021A720C4B1B6807
:10A2EC009BB21A460B4BD3184FEA43034FF00002B4
:10A2FC001A60064B4FF030021A8007F11007BD466A
:10A30C0080BD00BF380A00203E0A0020400A002011
:10A31C00505C00400230002080B586B000AF424B4C
:10A32C001B6803F11003FB60FB681B88BB603E4B92
:10A33C001B681B7A7B61BB68002B25D17B69042BC6
:10A34C0022D13A4B1B78012B16D1394B1B689BB28F
:10A35C001A46384BD3184FEA43034FF000021A60E9
:10A36C00354B4FF030021A804FF004037B612F4BBA
:10A37C004FF000021A704DE04FF007037B612E4B3B
:10A38C004FF010021A8045E0FB689B883B61BA686D
:10A39C003B699A4202D84FF0040301E04FF00203EC
:10A3AC007B613A69BB689A4201D9BB683B61FB6827
:10A3BC009B683A6992B21046984778604FF000005B
:10A3CC0001F054F803461A463B699BB27868114673
:10A3DC001A4600F0EFFD3B699BB24FF000001946A6
:10A3EC0001F080F8FB681A883B699BB2D31A9AB2C9
:10A3FC00FB681A80FB685A883B699BB2D3189AB2E7
:10A40C00FB685A800C4B4FF030021A800B4B4FF408
:10A41C0040521A80044B1B687A69D2B21A7207F147
:10A42C001807BD4680BD00BF380A0020AC010020D3
:10A43C00505C004002300020400A00203E0A002000
:10A44C0080B584B000AF4FF00203FB73634B1B6805
:10A45C005B787B60614B1B681B7803F07F03002BE0
:10A46C005BD17B68092B04D1FFF7BEFB0346FB7362
:10A47C007EE07B68052B1DD1584B1B68DB78DBB26B
:10A48C005BB2002B0EDB554B1B689B78002B09D164
:10A49C00524B1B689B88002B04D1504B1B689B7A3A
:10A4AC00002B03D04FF00803BB608DE04FF000038E
:10A4BC00FB735DE07B68032B12D1484B1B68DB7888
:10A4CC00012B09D1454B1B689B88002B04D1FFF74E
:10A4DC0057FE0346FB734BE04FF00203FB7347E060
:10A4EC007B68012B43D13D4B1B68DB78012B10D1D2
:10A4FC003A4B1B689B88002B0BD1384B1B685B7A43
:10A50C0003F02003002B04D0FFF7A6FC0346FB73DB
:10A51C002EE04FF00203FB732AE0304B1B681B78D4
:10A52C0003F07F03012B07D17B680B2B20D1FFF7A6
:10A53C00A7FB0346FB731BE0284B1B681B7803F03F
:10A54C007F03022B0FD17B68012B04D1FFF784FC16
:10A55C000346FB730CE07B68032B09D1FFF77AFDF4
:10A56C000346FB7304E04FF00203FB7300E000BFF3
:10A57C00FB7B002B0FD01A4B1B685B697A68D2B23D
:10A58C00104698470346FB73FB7B032B03D14FF01C
:10A59C000903BB6018E0FB7B002B03D04FF00803D2
:10A5AC00BB6011E04FF00603BB600E4B1B689BB207
:10A5BC001A460D4BD3184FEA43034FF000021A60B2
:10A5CC000A4B4FF030021A80044B1B68BA68D2B2A7
:10A5DC001A7207F11007BD4680BD00BF380A002073
:10A5EC00100A0020505C004002300020400A00207D
:10A5FC0080B58AB000AF874B1B685B78BB614FF0AE
:10A60C0000037B624FF000037B61BB69062B24D1F6
:10A61C00804B1B681B7803F07F03002B40F0E48019
:10A62C007C4B1B689B78FB74FB7C012B04D17A4B15
:10A63C001B68DB697B62D7E0FB7C022B04D1764B79
:10A64C001B681B6A7B62CFE0FB7C032B40F0CC8049
:10A65C00714B1B685B6A7B62C6E0BB69002B7DD1CA
:10A66C006C4B1B685B88002B78D16A4B1B68DB88B2
:10A67C00022B73D1674B1B681B79002B6ED1654B7A
:10A68C001B681B7803F07F03002B07D1614B1B6801
:10A69C009B88002B02D1614B7B62A5E05D4B1B6854
:10A6AC001B7803F07F03012B16D15B4B1B689B6956
:10A6BC00584A1268527910464FF0000198470346E9
:10A6CC00002B40F08680534B1B689B7A002B00F0CC
:10A6DC008280524B7B6287E04E4B1B681B7803F0E9
:10A6EC007F03022B79D14B4B1B685B7903F00F0373
:10A6FC00FB60484B1B685B7903F07003BB60454BF8
:10A70C001B685B79DBB25BB2002B0CDAFB684FEA9F
:10A71C00830303F1804303F5B8431B689BB203F03A
:10A72C003003FB610BE0FB684FEA830303F18043CA
:10A73C0003F5B8431B689BB203F44053FB61384BE1
:10A74C001B781A46FB689A4249D9BB68002B48D142
:10A75C00FB69002B47D0314B7B6245E0BB69082B72
:10A76C0009D12C4B1B681B7803F07F03002B3BD1CA
:10A77C002C4B7B6238E0BB690A2B35D1254B1B680F
:10A78C001B7803F07F03012B2ED1224B1B689B7A85
:10A79C00002B29D01F4B1B685B88002B24D11D4B31
:10A7AC001B681B79002B1FD11A4B1B68DB88012BF4
:10A7BC001AD1194B1B689B69164A126852791046BC
:10A7CC004FF0000198470346002B0DD1164B7B62CE
:10A7DC000AE000BF08E000BF06E000BF04E000BFD5
:10A7EC0002E000BF00E000BF7B6A002B1ED0094BCB
:10A7FC001B687A6992B25A82064B1B687A6A9A6114
:10A80C007B6A4FF0000098474FF0000387F8233025
:10A81C0021E000BF380A0020100A0020219D00080A
:10A82C005C000020B19B0008499C0008444B1B684D
:10A83C001B69444A1268527810469847034687F8B9
:10A84C00233097F82330032B05D13E4B1B684FF078
:10A85C0009021A726FE03B4B1B681A8A4FF6FF73A2
:10A86C009A4205D1374B1B684FF009021A7262E00D
:10A87C0097F82330022B04D0324B1B681B8A002B19
:10A88C0005D1304B1B684FF008021A7253E02D4B68
:10A89C001B681B78DBB25BB2002B42DA294B1B68BE
:10A8AC00DB887B60274B1B681B8A1A467B689A42A5
:10A8BC0005D9244B1B687A6892B21A8227E0214B87
:10A8CC001B681A8A1F4B1B68DB889A421FD21D4BD0
:10A8DC001B681A8A1A4B1B6893F82C309A4204D2C4
:10A8EC00194B4FF000021A7011E0164B1B681B8AB3
:10A8FC00134A126892F82C2093FBF2F102FB01F23E
:10A90C009B1A002B03D1104B4FF001021A700D4B08
:10A91C001B680B4A126892F82C209A82FFF7FCFCF9
:10A92C0009E0084B1B684FF003021A72074B4FF4F7
:10A93C0040521A8000BF07F12807BD4680BD00BFFA
:10A94C00100A0020380A0020AC0100203E0A00202A
:10A95C0090B583B000AF4FF00103FB80354B1B6803
:10A96C009BB21A46344BD3184FEA43031B689BB275
:10A97C0003F1005303F540534FEA43033B602F4B65
:10A98C001B681B7A092B3ED02C4B1A683B68197834
:10A99C00117003F101033B60284B1A683B6819786E
:10A9AC00517003F101033B603A68FB884FEA4303A3
:10A9BC00D3183B60214B1C683B681A8803F10203D7
:10A9CC003B60104600F018FE034663803A68FB8833
:10A9DC004FEA4303D3183B60184B1C683B681A883A
:10A9EC0003F102033B60104600F006FE0346A38011
:10A9FC003A68FB884FEA4303D3183B600F4B1B6844
:10AA0C003A681288DA800D4B1B684FF001021A72FB
:10AA1C000A4B1B68DB88002B02D1FFF711FD01E00C
:10AA2C00FFF7E6FD00F096F80346184607F10C0711
:10AA3C00BD4690BD505C004004300020380A002018
:10AA4C0080B582B000AF214B1B681B7A7B607B68A2
:10AA5C00022B02D07B68042B06D1FFF75DFC1B4B4D
:10AA6C001B681B7A7B6023E07B68062B1DD1174B80
:10AA7C001B685B78052B10D1144B1B681B7803F0FB
:10AA8C007F03002B09D1114B1B68DB78184600F0B3
:10AA9C008BF80F4B1B681B6A98470E4B1B689B6807
:10AAAC0098474FF008037B6002E04FF008037B608F
:10AABC00064B1B687A68D2B21A7200F04BF8034648
:10AACC00184607F10807BD4680BD00BF380A0020B4
