:020000040800F2
:103000000028002061470008294200082B420008E0
:103010002D4200082F420008314200080000000045
:10302000000000000000000000000000F132000875
:103030003342000800000000513300088D330008BF
:10304000A5470008A5470008A5470008A5470008B0
:10305000A5470008A5470008A5470008A5470008A0
:10306000A5470008A5470008A5470008A547000890
:10307000A5470008A5470008A5470008A547000880
:10308000A5470008A5470008A5470008A547000870
:10309000A5470008A5470008A5470008A547000860
:1030A000A5470008A5470008A5470008A547000850
:1030B000A5470008A5470008A5470008A547000840
:1030C000A5470008A5470008A5470008A547000830
:1030D000A5470008A5470008A5470008A547000820
:1030E000A5470008A5470008A54700080000000004
:1030F00000000000000000000000000000000000D0
:0C31000000000000000000005FF808F173
:10310C0040F21003C2F200031A780AB901201870B9
:10311C00704700BF40F20C00C2F2000008B5036813
:10312C002BB140F20003C0F2000303B1984708BD75
:10313C00032A70B404460D4626D941EA000313F065
:10314C00030F13D020782B78984208BF294606D05D
:10315C001EE014F8010F11F8013F984218D1012A12
:10316C0002F1FF32F5D1002070BC70470B460446CB
:10317C0051F8045B50F8046BAE4204D1043A044697
:10318C00032A0B46F2D81D461046002ADAD1EBE78B
:10319C00C01AE9E7032A2DE9F00109D82AB1002366
:1031AC00CC5CC45401339342FAD1BDE8F0017047B2
:1031BC000B468218014603E02478013301F8014BD9
:1031CC0011F0030F1C46F7D113F003055DD06E42CE
:1031DC00C5F1040CED009B594FEACC0C08E004340B
:1031EC00A7593B4607FA0CF748EA070741F8047B56
:1031FC00571A23FA05F8032FF1DC03E014F8013B0E
:10320C0001F8013B8A42F9D8CFE753F8404C41F81A
:10321C00404C53F83C4C41F83C4C53F8384C41F87A
:10322C00384C53F8344C41F8344C53F8304C41F88A
:10323C00304C53F82C4C41F82C4C53F8284C41F89A
:10324C00284C53F8244C41F8244C53F8204C41F8AA
:10325C00204C53F81C4C41F81C4C53F8184C41F8BA
:10326C00184C53F8144C41F8144C53F8104C41F8CA
:10327C00104C53F80C4C41F80C4C53F8084C41F8DA
:10328C00084C53F8044C41F8044C561A1D460C4695
:10329C00403340313F2EB8DC2B460FE053F8101C66
:1032AC0044F8101C53F80C1C44F80C1C53F8081C64
:1032BC0044F8081C53F8041C44F8041C161B214643
:1032CC001D46103410330F2EE8DC2B4602E0246828
:1032DC0041F8044B551A1C46032D03F10403F6DC8C
:1032EC0090E700BF064B19680868B0E8F00F80F350
:1032FC0009884FF0000080F311884EF00D0E7047D6
:10330C009C1A0020024B4FF080521A60704700BF8D
:10331C0004ED00E04FF0500080F31188024B1A6866
:10332C0001321A60704700BF00000020044A136885
:10333C00013B13601BB94FF0000080F311887047FC
:10334C0000000020EFF309800C4B1A6820E9F00F05
:10335C0010602DE908404FF0500080F3118800F008
:10336C0087FD4FF0000080F31188BDE80840196814
:10337C000868B0E8F00F80F3098870479C1A0020A9
:10338C0008B5074B4FF080521A604FF0500080F395
:10339C00118800F097FC4FF0000080F3118808BDF5
:1033AC0004ED00E010F0070F38B505461CBF20F007
:1033BC000705083500F07EFC094A1368ED18B5F5D1
:1033CC00C05F05D29D4203D9064C1560E41800E09D
:1033DC00002400F0E5FC0CB900F010FF204638BDCD
:1033EC00140000201800002082B0002301E0019B93
:1033FC0001330193019B8342F9DB02B0704700005B
:10340C0070B5582186B03A4801F096F839484FF417
:10341C00806101F093F801214FF4805001F016F90E
:10342C000820012101F012F90420012101F00EF90C
:10343C0010245822032505A92D48ADF814208DF829
:10344C0017404FF480668DF8165001F026F805A948
:10345C0028488DF81740ADF814608DF8165001F01F
:10346C001CF8A023ADF8143005A9182320488DF8BA
:10347C0017308DF8165001F010F808211C4801F097
:10348C005BF821461A4801F057F84021184801F022
:10349C0053F83146174801F04FF81748FFF7A4FFCF
:1034AC004CF20002ADF800204FF482730222ADF80A
:1034BC000230ADF8062000234FF40072ADF8043052
:1034CC000F3CADF80A20ADF80E30382207236946C0
:1034DC000A48ADF80840ADF80C20ADF8103001F0FA
:1034EC0003F90648214601F01FF906B070BD00BF74
:1034FC0000080140000C0140A08601000030014092
:10350C0010B51021094801F017F80821074801F0FF
:10351C0013F84021054801F00FF80548002101F08F
:10352C0003F90448BDE81040FFF75EBF00080140F6
:10353C0000300140A086010010B5044680210548EA
:10354C0001F001F90128F9D002482146BDE81040EC
:10355C0001F0F7B80030014010B58021054801F0AA
:10356C00F2F80128F9D004484021BDE8104000F0E1
:10357C00E5BF00BF003001400008014010B58021BC
:10358C00054801F0E0F80128F9D004484021BDE8D5
:10359C00104000F0D1BF00BF0030014000080140D6
:1035AC000148102100F0CABF000801400148102159
:1035BC0000F0C2BF000801400148082100F0BEBF66
:1035CC00000801400148082100F0B6BF0008014086
:1035DC0010B50446FFF7E4FFFFF7BEFF2046BDE839
:1035EC001040FFF7A9BF00000023054A0021D15469
:1035FC000133B3F5FC7FF8D1024B01221A707047EE
:10360C001C180020C81A0020062301385843013921
:10361C004E3303FB0101014B196070471818002051
:10362C001F292DE9F04728D9972941D9C0292AD03B
:10363C00C2292AD0C72922D0C92922D0CA292CD0E4
:10364C00CE292ED0E0291ED0E2291ED0E7291ED08B
:10365C00E8291ED0E9291ED0EA291ED0EB291ED05C
:10366C00EE291ED0EF291ED0F4291ED0F9291ED028
:10367C00FB2914BF942196211AE0942118E0802193
:10368C0016E0902114E0852112E0832110E08721BF
:10369C000EE08A210CE082210AE0882108E08921D1
:1036AC0006E08C2104E08B2102E0932100E09721BD
:1036BC000128354B12D11868344A203901EB8101AD
:1036CC008918441D024611F8016F314D7600AE5435
:1036DC000132A242F7D1053018604AE0022848D1E5
:1036EC001C68B4F154024DD42848203901EB8101F7
:1036FC00091827480525821811F8010F4FF0060804
:10370C004000C0B200F004074FF00C0C00F00206B1
:10371C000CFB07F708FB06F600F0080947EA06065B
:10372C00182707FB09F9000946EA090600F0020907
:10373C0008FB09F900F001084FEA480AD04449EAAD
:10374C00080800F004090CFB09FC00F008004743D2
:10375C0048EA0C0C013D4CEA0700EDB216705670AD
:10376C0082F8540082F855000232002DC4D10B347B
:10377C001C601A6806490020885401321A60054BF7
:10378C0001221A70BDE8F08718180020A547000820
:10379C001C180020C81A002038B505460C4602E05B
:1037AC002846FFF73DFF14F8011B0029F8D138BD5E
:1037BC00542810B522D8302920D8CB08542404FB27
:1037CC0003005C3C04FB03110D4CC9B2235C2AB909
:1037DC00013212FA01F123EA01030BE0012A02D1B2
:1037EC008A40134305E0022A04D1013A12FA01F18E
:1037FC004B40DBB22354034B01221A7010BD00BFA7
:10380C001C180020C81A00202DE9F74F5F1A054636
:10381C000C46019200939DF83090C0EB020803D542
:10382C007F424FF0FF3A01E04FF0010AB8F1000F70
:10383C00BABFC8F100084FF0FF3B4FF0010B4FEA45
:10384C0048087F00284621464A46FFF7B1FFB84595
:10385C0014DDA7EB68060DE0002E03DB5444E4B244
:10386C00C8EB06065D44EDB2284621464A46F619D9
:10387C00FFF79EFF019B9D42EED112E0A8EB67067D
:10388C000CE0002E02DB5D44EDB2F61B5444E4B2B6
:10389C00284621464A464644FFF78AFF009B9C4235
:1038AC00EFD1024B01221A70BDE8FE8FC81A00201E
:1038BC00002814BF24202020012908BF40F002005A
:1038CC00012A08BF40F00100FFF782BE012806D094
:1038DC00022806D003280CBF0D20082002E00C2083
:1038EC0000E00920FFF774BE00F0070040F0400034
:1038FC00FFF76EBE40F08000FFF76ABE10B5FFF711
:10390C0055FE002001460246FFF7D2FF0020FFF7CC
:10391C00EBFF0020FFF7EEFFFFF730FE0024064B15
:10392C00185D0134FFF708FEB4F5FC7FF7D1034BAB
:10393C0000221A7010BD00BF1C180020C81A0020ED
:10394C0000F0030040F00400FFF742BE00F0070057
:10395C0040F01000FFF73CBE10B54FF4FC71194855
:10396C00FFF74EFD4FF48020FFF73EFDFFF724FEDE
:10397C004FF48020FFF738FDFFF724FE4FF4802032
:10398C00FFF732FD002001460122FFF791FF0320D3
:10399C00FFF7DCFF0020FFF7D3FF002001460246B3
:1039AC00094CFFF785FF0120FFF790FF2378012BCF
:1039BC0003D1FFF719FE00232370BDE81040FFF779
:1039CC009DBF00BF1C1800200400002008B1FFF7A9
:1039DC00C3BFFFF795BD00F108034FF0FF328260C3
:1039EC004360C360036100230360704743685A68F7
:1039FC008B604A605A68916059600368416001337A
:103A0C000861036070470A6810B5B2F1FF3F01D13D
:103A1C00036907E000F1080300E05B685C68246858
:103A2C009442FAD95A68086191604A6059608B6077
:103A3C0003680133036010BD436882689A60826832
:103A4C00536003695968814208BF5A6000220261C1
:103A5C001A68013A1A60704710B50446FFF75AFC11
:103A6C000BE0636A63B104F1240000F07DFA08B145
:103A7C0000F0FCFAA36C013BA364A36C002BF0DCFC
:103A8C004FF0FF33A364FFF751FCFFF743FC0BE04F
:103A9C00236963B104F1100000F066FA08B100F07C
:103AAC00E5FA636C013B6364636C002BF0DC4FF054
:103ABC00FF336364BDE81040FFF738BC38B51346DC
:103ACC00026C044632B9056805BB406800F0D4FAB4
:103ADC0065601BE063B98068FFF75CFBA268236C30
:103AEC00D3186268A360934210D32368A3600DE0DF
:103AFC00C068FFF74FFB236CE2685B422168D21869
:103B0C008A42E26002D26268D318E360A36B01338D
:103B1C00A36338BD2DE9FF410C4601921E460546B4
:103B2C0020B94FF0500080F31188FEE719B100273F
:103B3C0007E0274605E0036C002BFAD067E0FEE7B0
:103B4C000127FFF7E7FBAA6BEB6B9A4212D22846D0
:103B5C0021463246FFF7B2FF6B6A3BB105F12400F8
:103B6C0000F002FA012801D1FFF7CCFBFFF7DEFBD6
:103B7C00012049E0DDF80480B8F1000F03D1FFF714
:103B8C00D5FB404640E017B902A800F025FAFFF734
:103B9C00CDFB00F08FF8FFF7BDFB6B6CB3F1FF3F73
:103BAC0001D101336B64AB6CB3F1FF3F01D1013335
:103BBC00AB64FFF7BBFB02A801A900F01FFAE8B940
:103BCC00FFF7A8FBD5F83880EF6BFFF7AFFBB845D4
:103BDC000ED105F11000019900F09EF92846FFF76F
:103BEC003BFF00F0DDF80028AAD1FFF78BFBA7E71D
:103BFC002846FFF731FF00F0D3F8A1E72846FFF77E
:103C0C002BFF00F0CDF8002004B0BDE8F0814FF0A0
:103C1C00500080F3118892E738B54C20FFF7C2FBB7
:103C2C000446D0B101230025C363023B4364836483
:103C3C00456005608560C560856305641030FFF7DD
:103C4C00CAFE04F12400FFF7C6FE204629462A4688
:103C5C002B46FFF75FFF204638BD4FF0500080F336
:103C6C001188FEE70E4B10B51A68044650600D4AD9
:103C7C001268904207D20C4A106819680431BDE8EA
:103C8C001040FFF7C0BE094A106819680431FFF7ED
:103C9C00BAFE074B1A68944238BF1C6010BD00BFB7
:103CAC009C1A0020B41A0020B81A00202C1A0020EC
:103CBC0008000020024B1A6801321A60704700BFDE
:103CCC00941A0020F8B52D4B1B68002B50D12C4DAD
:103CDC002B6801332B602B68EBB92A4B1A681268DE
:103CEC0022B14FF0500080F31188FEE7264A196884
:103CFC00106818601160254A1168013111601A684A
:103D0C001168234A11B94FF0FF3303E01B68DB68DD
:103D1C00DB685B6813601E4C2A6823689A422BD3BD
:103D2C00184B1A68126812B94FF0FF3306E01B6883
:103D3C00DB68DE682A6873689A4201D22360F8BD9A
:103D4C00371D3846FFF778FEB36A1BB106F1180031
:103D5C00FFF772FE0F4AF36A11688B4288BF13603B
:103D6C000D4A142000FB03203946FFF73FFED7E72E
:103D7C000A4B1A6801321A60F8BD00BF941A002071
:103D8C00B41A00202C1A0020B81A0020981A00200F
:103D9C0008000020BC1A0020301A0020141A002041
:103DAC0070B52B4C236823B94FF0500080F3118869
:103DBC00FEE7FFF7AFFA2368013B23602568002D6F
:103DCC0040D1244B1C68F4B93DE0DB68DC68261D4F
:103DDC0004F11800FFF730FE3046FFF72DFE1E4AA7
:103DEC00E36A11688B4288BF13601C4A142000FBE5
:103DFC0003203146FFF7FAFD194BE26A1B68DB6AB8
:103E0C009A4228BF0125174B1A68002ADDD1164E9D
:103E1C0034682CB909E0FFF755FF2368013B236098
:103E2C003368114C002BF6D105E0012D03D00F4B5C
:103E3C001B68012B07D10D4B00221A60FFF762FAA9
:103E4C00012400E00024FFF771FA204670BD00BF8A
:103E5C00941A0020C41A0020BC1A0020301A00202A
:103E6C009C1A0020A01A0020141A0020C01A00204E
:103E7C0038B5234B1B681BB1224B01221A6038BD8D
:103E8C00214C2268236812681B6B9A4204D8206864
:103E9C002168343100F0BAF923681C49186B1422DC
:103EAC00194DFFF745F978B128682968343100F0CD
:103EBC00ADF909E01A6822B94FF0500080F311886F
:103ECC00FEE71A68013A1A60114B14251968114A59
:103EDC00694351580029EDD0186845435319596866
:103EEC00083549685519A942596004BF4968596099
:103EFC00142303FB00225368DB68236038BD00BF2A
:103F0C00941A0020C01A00209C1A0020FE490008B8
:103F1C00BC1A0020301A002070B50D4620B94FF0A5
:103F2C00500080F31188FEE70C4C21681831FFF724
:103F3C006AFD20680430FFF77FFDB5F1FF3F06D125
:103F4C00216807480431BDE87040FFF74FBD054BB1
:103F5C0018682818BDE87040FFF784BE9C1A002032
:103F6C00181A0020B41A002038B5C368DC6824B9CC
:103F7C004FF0500080F31188FEE704F11805284635
:103F8C00FFF75AFD0F4B1B6873B9251D2846FFF729
:103F9C0053FD0D4AE36A11688B4288BF13600B4ACC
:103FAC00142000FB032000E009482946FFF71EFD02
:103FBC00084BE06A1B68DB6A984234BF0020012082
:103FCC0038BD00BF941A0020BC1A0020301A002003
:103FDC00A01A00209C1A002020B94FF0500080F34A
:103FEC001188FEE7034B1B680360034B1B6843609F
:103FFC00704700BF981A0020B41A002038B50C4640
:10400C00054620B94FF0500080F31188FEE721B926
:10401C004FF0500080F31188FEE7FFF77BF923681F
:10402C00B3F1FF3F16D00F4A11682A6891420E4A2D
:10403C0003D01068696888420ED211686A68891AC0
:10404C00994209D2084928460968521AD3182360A4
:10405C00FFF7C2FF002400E00124FFF767F92046B8
:10406C0038BD00BF981A0020B41A0020014B012261
:10407C001A607047C01A002070B50446D0B1C26AED
:10408C00036C9A4216D0051D2846FFF7D5FC236C0D
:10409C00C3F10502A261084AE36211688B4288BF32
:1040AC001360064A142000FB03202946BDE870402B
:1040BC00FFF79CBC70BD00BFBC1A0020301A00205A
:1040CC000B4A08B540F2FF71002382F8A43211604C
:1040DC00D118043340F2FF70B3F5A87F4860F7D1D4
:1040EC000120FFF799FD024BC3F8A80208BD00BFE1
:1040FC00CC1A002082B0002302E000BF019B0133E8
:10410C000193019A024B9A42F7DD02B0704700BF4F
:10411C00FF117A0013B500F013FA4FF4803000F061
:10412C002FFA00F0CBFA312000F0B4FA0128044643
:10413C00F9D1002000F04CFA002000F059FA0020D0
:10414C0000F060FA002000F067FA4FF480304FF472
:10415C00002100F031FA204600F03AFA392000F044
:10416C0099FA01280446F9D1022000F037FA2046CA
:10417C0000F05CFA4FF40000214600F073FA00F0F6
:10418C00D1F82046FFF722FCFFF79AFFFFF7B2FFAA
:10419C00FFF72AFA00200124014650221E23009426
:1041AC00FFF732FB00202821502203460094FFF732
:1041BC002BFB28200246002301460094FFF724FB2A
:1041CC0005200146FFF720FA20460A49FFF7E4FADA
:1041DC00FFF794FBFFF78EFFFFF706FA0520014669
:1041EC00FFF712FA20460449FFF7D6FAFFF786FBD1
:1041FC00CCE700BF124A0008194A000882B000231D
:10420C008DF807309DF807300133F9E782B00023B1
:10421C008DF807309DF807300133F9E77047FEE75A
:10422C00FEE7FEE7FEE770473A4B82B01A6842F0B1
:10423C0001021A605968384A01EA02025A601A6887
:10424C0022F0847222F480321A601A6822F48022DE
:10425C001A605A6822F4FE025A604FF41F029A60E8
:10426C000022019200921A6842F480321A60294BA3
:10427C001A6802F400320092019A01320192009AFB
:10428C001AB9019AB2F5A06FF1D11B6813F400337F
:10429C0018BF01230093009B012B34D11F4B1A68CC
:1042AC0042F010021A601A6822F003021A601A68AF
:1042BC0042F002021A60174B5A685A605A685A60E8
:1042CC005A6842F480625A605A6822F47C125A602E
:1042DC005A6842F4E8125A601A6842F080721A6006
:1042EC000C4B1A6812F0007FFAD05A6822F00302C5
:1042FC005A605A6842F002025A60064B5B6803F03F
:10430C000C03082BF9D1064B4FF000629A6002B0F7
:10431C00704700BF001002400000FFF80020024070
:10432C0000ED00E030B54FF4404087B000F084F968
:10433C004FF40170012100F089F9002405A9012531
:10434C001748ADF814508DF8174000F0A6F8154832
:10435C0000F02AF8684600F07BF84FF4602311480F
:10436C006946029300948DF8054003948DF8105023
:10437C0000F048F80B48012100F073F8094800F0F0
:10438C007AF8084800F07CF80028FAD1054800F0CB
:10439C007BF8044800F07DF80028FAD107B030BD56
:1043AC000008014000240140134B10B5984207D17E
:1043BC004FF40070012100F061F94FF4007014E02B
:1043CC000E4B984207D14FF48060012100F056F952
:1043DC004FF4806009E00A4B98420BD14FF4004037
:1043EC00012100F04BF94FF400400021BDE81040D2
:1043FC0000F044B910BD00BF00240140002801406A
:10440C00003C014043680A6823F4702323F4807352
:10441C0013430A7910B543EA022343608A68CB68D8
:10442C0084681A43094B04EA030342EA03034A79FA
:10443C0043EA420383600B7CC26A013B22F47002A4
:10444C00DBB242EA0353C36210BD00BFFDF7F1FFBC
:10445C0000230360037143718360C36001330374F1
:10446C00704719B1836843F0010302E0836823F0BD
:10447C00010383607047836843F0080383607047CF
:10448C008068C0F3C0007047836843F00403836006
:10449C0070478068C0F380007047CB78F0B513F09C
:1044AC00100F03F00F020E881CBF8B781A4316F006
:1044BC00FF0F1DD00468002301279F4007EA060563
:1044CC00BD4211D19F004FF00F0C0CFA07FC12FAF1
:1044DC0007F724EA0C043C43CF78282F01D145611F
:1044EC0002E0482F08BF05610133082BE4D10460BA
:1044FC000E88FF2E1FD94468002303F108050127FD
:10450C00AF4007EA0605BD4211D19F004FF00F0CDA
:10451C000CFA07FC12FA07F724EA0C043C43CF7898
:10452C00282F01D1456102E0482F08BF05610133F6
:10453C00082BE2D14460F0BD0161704741617047C6
:10454C000D4B1A6842F001021A6059680B4A01EAD5
:10455C0002025A601A6822F0847222F480321A60C5
:10456C001A6822F480221A605A6822F4FE025A60F9
:10457C004FF41F029A607047001002400000FFF8D1
:10458C000C4BB0F5803F1A6822F480321A601A681E
:10459C0022F480221A6003D0B0F5802F09D104E0F8
:1045AC001A6842F480321A6070471A6842F4A022EA
:1045BC001A60704700100240044B5A6822F47C12B7
:1045CC0040EA02020A435A60704700BF00100240E2
:1045DC00014B1860704700BF60004242034B5A68A1
:1045EC0022F0030240EA02025A60704700100240B7
:1045FC00034B5A6822F0F00240EA02025A607047FC
:10460C0000100240034B5A6822F4E06240EA0202B6
:10461C005A60704700100240034B5A6822F46052F3
:10462C0042EAC0025A60704700100240014B186009
:10463C00704700BFD8004242034B5A6822F44042F4
:10464C0040EA02025A60704700100240044B11B15C
:10465C009A69104302E09A6922EA00009861704757
:10466C0000100240044B11B1DA69104302E0DA6920
:10467C0022EA0000D861704700100240044B11B1CF
:10468C00DA68104302E0DA6822EA0000D86070476A
:10469C00001002404309012B074A01D1136803E0C3
:1046AC00022B0CBF136A536A00F01F0033FA00F0A0
:1046BC0000F00100704700BF0010024007B5002356
:1046CC0001933120FFF7E6FF019B01330193019B1E
:1046DC00B3F5A06F01D00028F3D03120FFF7DAFF3B
:1046EC00003818BF01200EBD0B8810B54C8802880D
:1046FC0044EA03038C8802F441522343CC882343BD
:10470C000C8923434C8923438C892343CC89234331
:10471C0042EA03030380838B23F400631B041B0C0A
:10472C0083830B8A038210BD21B103889BB243F0B3
:10473C00400304E0038823F040031B041B0C03809C
:10474C00704781817047038919420CBF00200120FA
:10475C0070470000002103E00A4B5B5843500431C2
:10476C0009480A4B42189A42F6D3094A02E0002340
:10477C0042F8043B074B9A42F9D3FFF755FDFFF77C
:10478C00C9FC70476C570008000000200C0000208A
:10479C0010000020781D0020FEE700000000000043
:1047AC00002F00000007000700147F147F14242A38
:1047BC007F2A12C4C81026463649552250000503DC
:1047CC000000001C2241000041221C0014083E087D
:1047DC001408083E0808000050300010101010108B
:1047EC00006060000020100804023E5149453E0064
:1047FC00427F400042615149462141454B311814DA
:10480C00127F1027454545393C4A49493001710909
:10481C0005033649494936064949291E00363600F2
:10482C00000056360000081422410014141414140D
:10483C0000412214080201510906324959513E7EA9
:10484C001111117E7F494949363E414141227F4138
:10485C0041221C7F494949417F090909013E4149CF
:10486C00497A7F0808087F00417F41002040413F82
:10487C00017F081422417F404040407F020C027FA0
:10488C007F0408107F3E4141413E7F090909063EE5
:10489C004151215E7F091929464649494931010197
:1048AC007F01013F4040403F1F2040201F3F4038C8
:1048BC00403F6314081463070870080761514945A9
:1048CC0043007F41410002040810200041417F0059
:1048DC000402010204404040404000010204002058
:1048EC00545454787F484444383844444420384421
:1048FC0044487F3854545418087E0901020C525213
:10490C00523E7F0804047800447D40002040443D22
:10491C00007F1028440000417F40007C041804787C
:10492C007C0804047838444444387C141414080873
:10493C001414187C7C080404084854545420043F74
:10494C004440203C4040207C1C2040201C3C4030FB
:10495C00403C44281028440C5050503C4464544C67
:10496C0044000836410000007F000000413608007A
:10497C00040204080400003600000E513111083CFA
:10498C004140217C385456551820565556782055A0
:10499C00545578205556547808082A1C080E513165
:1049AC00110838565556183855545518385556540C
:1049BC001800457C410000467D42007F7F7F7F7F51
:1049CC007F7F7F7F7F7F7F7F7F7F7C545655447FA7
:1049DC007F7F7F7F7F7F7F7F7F38464546387F7F15
:1049EC007F7F7F38454644383C4241227C3C4142E3
:1049FC00207CA5A5A5A5A5A5A5A5A5A5A5A5A5A509
:104A0C00A5A5A5A5A5A548656C6C6F2100486921D5
:104A1C0000000000F8B500BFF8BC08BC9E4670470B
:0C4A2C00F8B500BFF8BC08BC9E467047FF
:0457640021310008E7
:045768000D310008F7
:0C576C00AAAAAAAA01000000FFFFFFFF8C
:040000050800476147
:00000001FF
