:020000040800F2
:103000000028002005510008CD4B0008CF4B0008D8
:10301000D14B0008D34B0008D54B0008000000003E
:103020000000000000000000000000003D34000827
:10303000D74B000800000000ED34000829350008D7
:1030400049510008495100084951000849510008F8
:1030500049510008495100084951000849510008E8
:1030600049510008495100084951000849510008D8
:1030700049510008495100084951000849510008C8
:1030800049510008495100084951000849510008B8
:1030900049510008495100084951000849510008A8
:1030A0004951000849510008495100084951000898
:1030B0004951000849510008495100084951000888
:1030C0004951000849510008495100084951000878
:1030D0004951000849510008495100084951000868
:1030E00049510008495100084951000800000000FA
:1030F00000000000000000000000000000000000D0
:0C31000000000000000000005FF808F173
:10310C0040F21003C2F200031A780AB901201870B9
:10311C00704700BF40F20C00C2F2000008B5036813
:10312C002BB140F20003C0F2000303B1984708BD75
:10313C00032A70B404460D4626D941EA000313F065
:10314C00030F13D020782B78984208BF294606D05D
:10315C001EE014F8010F11F8013F984218D1012A12
:10316C0002F1FF32F5D1002070BC70470B460446CB
:10317C0051F8045B50F8046BAE4204D1043A044697
:10318C00032A0B46F2D81D461046002ADAD1EBE78B
:10319C00C01AE9E7032A2DE9F00109D82AB1002366
:1031AC00CC5CC45401339342FAD1BDE8F0017047B2
:1031BC000B468218014603E02478013301F8014BD9
:1031CC0011F0030F1C46F7D113F003055DD06E42CE
:1031DC00C5F1040CED009B594FEACC0C08E004340B
:1031EC00A7593B4607FA0CF748EA070741F8047B56
:1031FC00571A23FA05F8032FF1DC03E014F8013B0E
:10320C0001F8013B8A42F9D8CFE753F8404C41F81A
:10321C00404C53F83C4C41F83C4C53F8384C41F87A
:10322C00384C53F8344C41F8344C53F8304C41F88A
:10323C00304C53F82C4C41F82C4C53F8284C41F89A
:10324C00284C53F8244C41F8244C53F8204C41F8AA
:10325C00204C53F81C4C41F81C4C53F8184C41F8BA
:10326C00184C53F8144C41F8144C53F8104C41F8CA
:10327C00104C53F80C4C41F80C4C53F8084C41F8DA
:10328C00084C53F8044C41F8044C561A1D460C4695
:10329C00403340313F2EB8DC2B460FE053F8101C66
:1032AC0044F8101C53F80C1C44F80C1C53F8081C64
:1032BC0044F8081C53F8041C44F8041C161B214643
:1032CC001D46103410330F2EE8DC2B4602E0246828
:1032DC0041F8044B551A1C46032D03F10403F6DC8C
:1032EC0090E700BF032AC9B270B408D82AB10346CC
:1032FC00121803F8011B9342FBD170BC7047821863
:10330C00044601E004F8011B14F0030FFAD14FF04E
:10331C00013303FB01F31FE044F8403C44F83C3C10
:10332C0044F8383C44F8343C44F8303C44F82C3CE9
:10333C0044F8283C44F8243C44F8203C44F81C3C19
:10334C0044F8183C44F8143C44F8103C44F80C3C49
:10335C0044F8083C44F8043C161B254640343F2EE8
:10336C00DADC2C4607E044F8103C44F80C3C44F8FA
:10337C00083C44F8043C161B254610340F2EF2DC96
:10338C0001E045F8043B541B032CFADC01E005F882
:10339C00011B9542FBD3B0E741EA000313F0030F86
:1033AC000B4670B414BF00240124032A94BF0024DC
:1033BC0004F001040546D4B9BAB10E782B46013A93
:1033CC0003F8016B56B1AC1C7AB111F8015F2346BE
:1033DC00013A04F8015C0134002DF5D12AB19A1898
:1033EC00002103F8011B9342FBD170BC70471946B6
:1033FC0053F8044BA4F1013626EA040616F0803F7C
:10340C00DAD1043A45F8044B032A1946EFD8D3E72E
:10341C0010B5031F4FF0807440F8044C43F8041CA3
:10342C00002143F8081C43F81C2CA3F13C0010BDF0
:10343C00064B19680868B0E8F00F80F309884FF064
:10344C00000080F311884EF00D0E7047D01A00204A
:10345C0003480068006880F3088862B600DF00BF8C
:10346C0008ED00E00B4B10B51A68002442F4700212
:10347C001A601A6842F070421A60074B4BF67F32A2
:10348C001A60072243F8042C044B1C60FFF7E0FF82
:10349C00204610BD20ED00E014E000E0000000200C
:1034AC00024B4FF080521A60704700BF04ED00E0F1
:1034BC004FF0500080F31188024B1A6801321A60E9
:1034CC00704700BF00000020044A1368013B1360E2
:1034DC001BB94FF0000080F31188704700000020EA
:1034EC00EFF309800C4B1A6820E9F00F10602DE9FE
:1034FC0008404FF0500080F3118800F0B5FF4FF0FA
:10350C00000080F31188BDE8084019680868B0E82D
:10351C00F00F80F309887047D01A002008B5074BCC
:10352C004FF080521A604FF0500080F3118800F079
:10353C0079FE4FF0000080F3118808BD04ED00E027
:10354C0010F0070F38B505461CBF20F007050835ED
:10355C0000F054FE094A1368ED18B5F5C05F05D2AA
:10356C009D4203D9064C1560E41800E0002400F0DD
:10357C00C7FE0CB901F014FB204638BD1400002026
:10358C0018000020704782B0002301E0019B01333A
:10359C000193019B8342F9DB02B0704770B558214F
:1035AC0086B03A4801F09AFC39484FF4806101F03A
:1035BC0097FC01214FF4805001F01AFD08200121E5
:1035CC0001F016FD0420012101F012FD10245822F7
:1035DC00032505A92D48ADF814208DF817404FF49C
:1035EC0080668DF8165001F02AFC05A928488DF844
:1035FC001740ADF814608DF8165001F020FCA02394
:10360C00ADF8143005A9182320488DF817308DF823
:10361C00165001F014FC08211C4801F05FFC2146F7
:10362C001A4801F05BFC4021184801F057FC314668
:10363C00174801F053FC1748FFF7A5FF4CF20002A6
:10364C00ADF800204FF482730222ADF80230ADF8D1
:10365C00062000234FF40072ADF804300F3CADF897
:10366C000A20ADF80E303822072369460A48ADF817
:10367C000840ADF80C20ADF8103001F007FD0648FD
:10368C00214601F023FD06B070BD00BF00080140CB
:10369C00000C0140A08601000030014010B5102143
:1036AC00094801F01BFC0821074801F017FC4021D8
:1036BC00054801F013FC0548002101F007FD044802
:1036CC00BDE81040FFF75FBF00080140003001402B
:1036DC00A086010010B504468021054801F005FDC7
:1036EC000128F9D002482146BDE8104001F0FBBC8E
:1036FC000030014010B58021054801F0F6FC01288E
:10370C00F9D004484021BDE8104001F0E9BB00BFEE
:10371C00003001400008014010B58021054801F03F
:10372C00E4FC0128F9D004484021BDE8104001F028
:10373C00D5BB00BF003001400008014001481021FA
:10374C0001F0CEBB000801400148102101F0C6BBBE
:10375C00000801400148082101F0C2BB00080140EB
:10376C000148082101F0BABB0008014010B504461D
:10377C00FFF7E4FFFFF7BEFF2046BDE81040FFF760
:10378C00A9BF00000023054A0021D1540133B3F531
:10379C00FC7FF8D1024B01221A7070471C180020D4
:1037AC004C1B002006230138584301394E3303FBD0
:1037BC000101014B19607047181800201F292DE9D1
:1037CC00F04728D9972941D9C0292AD0C2292AD013
:1037DC00C72922D0C92922D0CA292CD0CE292ED033
:1037EC00E0291ED0E2291ED0E7291ED0E8291ED0E0
:1037FC00E9291ED0EA291ED0EB291ED0EE291ED0B5
:10380C00EF291ED0F4291ED0F9291ED0FB2914BF94
:10381C00942196211AE0942118E0802116E0902141
:10382C0014E0852112E0832110E087210EE08A212B
:10383C000CE082210AE0882108E0892106E08C2135
:10384C0004E08B2102E0932100E097210128354B05
:10385C0012D11868344A203901EB81018918441DB2
:10386C00024611F8016F314D7600AE540132A2427E
:10387C00F7D1053018604AE0022848D11C68B4F131
:10388C0054024DD42848203901EB810109182748EE
:10389C000525821811F8010F4FF006084000C0B240
:1038AC0000F004074FF00C0C00F002060CFB07F7BD
:1038BC0008FB06F600F0080947EA0606182707FB7E
:1038CC0009F9000946EA090600F0020908FB09F9A2
:1038DC0000F001084FEA480AD04449EA080800F011
:1038EC0004090CFB09FC00F00800474348EA0C0CE7
:1038FC00013D4CEA0700EDB21670567082F8540088
:10390C0082F855000232002DC4D10B341C601A68A9
:10391C0006490020885401321A60054B01221A70A6
:10392C00BDE8F08718180020495100081C18002029
:10393C004C1B002038B505460C4602E02846FFF724
:10394C003DFF14F8011B0029F8D138BD002814BF25
:10395C0024202020012908BF40F00200012A08BFC2
:10396C0040F00100FFF702BF012806D0022806D064
:10397C0003280CBF0D20082002E00C2000E00920D9
:10398C00FFF7F4BE00F0070040F04000FFF7EEBE7A
:10399C0040F08000FFF7EABE10B5FFF7D5FE00201F
:1039AC0001460246FFF7D2FF0020FFF7EBFF002095
:1039BC00FFF7EEFFFFF7B0FE0024064B185D013455
:1039CC00FFF788FEB4F5FC7FF7D1034B00221A7089
:1039DC0010BD00BF1C1800204C1B002000F0030081
:1039EC0040F00400FFF7C2BE00F0070040F01000EA
:1039FC00FFF7BCBE10B54FF4FC711948FFF7CEFDB4
:103A0C004FF48020FFF7BFFDFFF7A4FE4FF480209A
:103A1C00FFF7B9FDFFF7A4FE4FF48020FFF7B3FDCD
:103A2C00002001460122FFF791FF0320FFF7DCFF86
:103A3C000020FFF7D3FF002001460246094CFFF798
:103A4C0085FF0120FFF790FF2378012B03D1FFF7AF
:103A5C0099FE00232370BDE81040FFF79DBF00BF07
:103A6C001C1800200400002008B1FFF7C3BFFFF7AB
:103A7C0015BE00F108034FF0FF3282604360C36053
:103A8C0003610023036070470023036170474368A0
:103A9C005A688B604A605A6891605960036841604B
:103AAC0001330861036070470A6810B5B2F1FF3F3B
:103ABC0001D1036907E000F1080300E05B685C6872
:103ACC0024689442FAD95A68086191604A60596036
:103ADC008B6003680133036010BD436882689A6091
:103AEC008268536003695968814208BF5A6000229A
:103AFC0002611A68013A1A60704710B50446FFF764
:103B0C00D7FC0BE0636A63B104F1240000F044FDC0
:103B1C0008B100F0C3FDA36C013BA364A36C002BA4
:103B2C00F0DC4FF0FF33A364FFF7CEFCFFF7C0FCD3
:103B3C000BE0236963B104F1100000F02DFD08B116
:103B4C0000F0ACFD636C013B6364636C002BF0DC38
:103B5C004FF0FF336364BDE81040FFF7B5BC30B5E0
:103B6C00046803466CB1C568026CAD18C56040684A
:103B7C00854228BFDC600846D968BDE83040FFF7B5
:103B8C0009BB30BD38B51346026C044632B9056822
:103B9C0005BB406800F0D6FD65601BE063B980682A
:103BAC00FFF7F8FAA268236CD3186268A3609342FB
:103BBC0010D32368A3600DE0C068FFF7EBFA236C09
:103BCC00E2685B422168D2188A42E26002D26268E3
:103BDC00D318E360A36B0133A36338BDF8B50E466D
:103BEC00054638B34C20FFF7ABFC044610B305FB7D
:103BFC0006F7781CFFF7A4FC2060C0B10023A36378
:103C0C006B1EC719A06006FB03004FF0FF33E0608A
:103C1C006364A36404F110006760E5632664FFF736
:103C2C0028FF04F12400FFF724FF2046F8BD2046AE
:103C3C00FFF7A8FC4FF0500080F31188FEE72DE948
:103C4C00FF410C4601921E46054620B94FF050002C
:103C5C0080F31188FEE719B1002707E0274605E03D
:103C6C00036C002BFAD067E0FEE70127FFF720FC7E
:103C7C00AA6BEB6B9A4212D2284621463246FFF7CA
:103C8C0081FF6B6A3BB105F1240000F085FC012833
:103C9C0001D1FFF705FCFFF717FC012049E0DDF827
:103CAC000480B8F1000F03D1FFF70EFC404640E052
:103CBC0017B902A800F0A8FCFFF706FC00F09EFA6A
:103CCC00FFF7F6FB6B6CB3F1FF3F01D101336B6473
:103CDC00AB6CB3F1FF3F01D10133AB64FFF7F4FBE5
:103CEC0002A801A900F0A2FCE8B9FFF7E1FBD5F8A6
:103CFC003880EF6BFFF7E8FBB8450ED105F11000EB
:103D0C00019900F005FC2846FFF7F7FE00F0F8FAE1
:103D1C000028AAD1FFF7C4FBA7E72846FFF7EDFE62
:103D2C0000F0EEFAA1E72846FFF7E7FE00F0E8FA0C
:103D3C00002004B0BDE8F0814FF0500080F31188F2
:103D4C0092E738B54C20FFF7FBFB0446D0B10123BA
:103D5C000025C363023B4364836445600560856052
:103D6C00C560856305641030FFF783FE04F1240001
:103D7C00FFF77FFE204629462A462B46FFF75FFFBA
:103D8C00204638BD4FF0500080F31188FEE738B55F
:103D9C001446054620B94FF0500080F31188FEE719
:103DAC0022B94FF0500080F31188FEE709B9026C7C
:103DBC002ABB4FF0500080F31188A86BEA6B90423D
:103DCC0002D3002315E0FEE71A462846FFF7DAFE79
:103DDC00AB6CB3F1FF3F09D16B6A4BB105F1240019
:103DEC0000F0DAFB012320B1236002E00133AB6465
:103DFC0001234FF0000080F31188184638BD4FF0B6
:103E0C00500080F31188DEE72DE9FF410C4601924A
:103E1C001F46054620B94FF0500080F31188FEE78D
:103E2C0019B1002607E0264605E0036C002BFAD0FA
:103E3C007DE0FEE70126FFF73BFBAB6B23B3284687
:103E4C002146EE68FFF78BFE87B9AB6B013BAB638A
:103E5C002B6813B900F028FC68602B6983B105F15D
:103E6C00100000F099FB01280AD107E06B6AEE60A4
:103E7C0033B105F1240000F08FFB08B1FFF710FB04
:103E8C00FFF722FB01204FE0DDF80480B8F1000FB2
:103E9C0003D1FFF719FB404646E016B902A800F023
:103EAC00B3FBFFF711FB00F0A9F9FFF701FB6B6CFB
:103EBC00B3F1FF3F01D101336B64AB6CB3F1FF3F46
:103ECC0001D10133AB64FFF7FFFA02A801A900F09E
:103EDC00ADFB18BBFFF7ECFAAE6BFFF7F5FABEB90A
:103EEC002B6833B9FFF7E4FA686800F0F1FBFFF7D1
:103EFC00EBFA05F12400019900F00AFB2846FFF7C4
:103F0C00FCFD00F0FDF9002894D1FFF7C9FA91E708
:103F1C002846FFF7F2FD00F0F3F98BE72846FFF790
:103F2C00ECFD00F0EDF9002004B0BDE8F0814FF09D
:103F3C00500080F311887CE770B504460D46FFF7FE
:103F4C00B7FA636CB3F1FF3F01D101336364A36C27
:103F5C00B3F1FF3F01D10133A364FFF7B5FAA36BB3
:103F6C0023B904F12400294600F0FAFA2046BDE8F2
:103F7C007040FFF7C2BD00000E4B10B51A68044626
:103F8C0050600D4A1268904207D20C4A10681968AA
:103F9C000431BDE81040FFF787BD094A1068196865
:103FAC000431FFF781FD074B1A68944238BF1C603F
:103FBC0010BD00BFD01A0020E81A0020EC1A002017
:103FCC00301A0020080000202DE9F84F0A9F0D46FA
:103FDC0014469946DDF82CA0DDF830B0804620B9A7
:103FEC004FF0500080F31188FEE7042F04D94FF0F6
:103FFC00500080F31188FEE74420FFF7A1FA064633
:10400C00002800F0A380BBF1000F03D1A000FFF744
:10401C0097FA8346C6F830B0BBF1000F03D1304697
:10402C00FFF7B0FA92E0A200A5215846FFF75AF923
:10403C00336B29460A22013C06F1340003EB84045D
:10404C00351DFFF7A9F9002386F83D302846F762A5
:10405C003764FFF719FD06F11800FFF715FD24F082
:10406C000704C7F105033661B36176622046414609
:10407C004A46FFF7CDF910F0070F306004D04FF02F
:10408C00500080F31188FEE7BAF1000F01D0CAF896
:10409C000060FFF70DFA324B324C1A68DFF8EC90E7
:1040AC0001321A60226842BB26601B68012B2CD19E
:1040BC009046142000FB089008F10108FFF7D9FC8A
:1040CC00B8F1050FF5D1DFF8C8A0DFF8C88050466D
:1040DC00FFF7CFFC4046FFF7CCFC2348FFF7C9FCA9
:1040EC002248FFF7C6FC2248FFF7C3FC214BC3F85C
:1040FC0000A0214BC3F8008007E0204B1B6823B9BC
:10410C002368DB6ABB4298BF26601D4AF36A1168BC
:10411C008B4288BF13601B4A1168013111601A4A27
:10412C0011688B4288BF1360142000FB0390294652
:10413C00FFF7ADFCFFF7C8F9104B1B6853B12368B0
:10414C00DB6ABB4209D2FFF7ABF903E04FF0FF305B
:10415C00BDE8F88F0120BDE8F88F0120BDE8F88F8D
:10416C000C1B0020D01A0020D41A00203C1A00206E
:10417C001C1A0020301A0020EC1A0020341A0020DF
:10418C00101B0020181A0020F01A0020641A0020BE
:10419C00F41A0020501A00201FB500244622234692
:1041AC00124813490094019402940394FFF70CFFF6
:1041BC000128034611D100F031FB012803460CD134
:1041CC004FF0500080F311880A4A13600A4B1C60B0
:1041DC0004B0BDE81040FFF745B923B94FF05000CB
:1041EC0080F31188FEE704B010BD00BFDD4300086A
:1041FC00B6530008341A0020E81A0020024B1A6843
:10420C0001321A60704700BFC81A002010B5FFF7C2
:10421C004FF9034B1C68FFF757F9204610BD00BF40
:10422C00E81A0020F8B52D4B1B68002B50D12C4DF3
:10423C002B6801332B602B68EBB92A4B1A68126878
:10424C0022B14FF0500080F31188FEE7264A19681E
:10425C00106818601160254A1168013111601A68E4
:10426C001168234A11B94FF0FF3303E01B68DB6878
:10427C00DB685B6813601E4C2A6823689A422BD358
:10428C00184B1A68126812B94FF0FF3306E01B681E
:10429C00DB68DE682A6873689A4201D22360F8BD35
:1042AC00371D3846FFF719FCB36A1BB106F118002D
:1042BC00FFF713FC0F4AF36A11688B4288BF136037
:1042CC000D4A142000FB03203946FFF7E0FBD7E72B
:1042DC000A4B1A6801321A60F8BD00BFC81A0020D8
:1042EC00E81A0020301A0020EC1A0020CC1A00200A
:1042FC0008000020F01A0020641A0020141A002074
:10430C0070B52B4C236823B94FF0500080F3118803
:10431C00FEE7FFF7CDF82368013B23602568002DED
:10432C0040D1244B1C68F4B93DE0DB68DC68261DE9
:10433C0004F11800FFF7D1FB3046FFF7CEFB1E4A05
:10434C00E36A11688B4288BF13601C4A142000FB7F
:10435C0003203146FFF79BFB194BE26A1B68DB6AB3
:10436C009A4228BF0125174B1A68002ADDD1164E38
:10437C0034682CB909E0FFF755FF2368013B236033
:10438C003368114C002BF6D105E0012D03D00F4BF7
:10439C001B68012B07D10D4B00221A60FFF780F828
:1043AC00012400E00024FFF78FF8204670BD00BF09
:1043BC00C81A00200C1B0020F01A0020641A0020E0
:1043CC00D01A0020D41A0020141A0020081B002038
:1043DC0070B5134D2B68E3B1124CFFF70FFF266835
:1043EC00FFF78EFFAEB1FFF763F8E368DC68201DC2
:1043FC00FFF773FB0C4B1A68013A1A602B68013BF0
:10440C002B60FFF761F8206BFFF7BCF82046FFF735
:10441C00B9F8064B1B68012BDBD9FFF741F8D8E73D
:10442C00381A00203C1A00200C1B0020641A0020B3
:10443C0070B5044670B1FFF7E1FE094B1D68094BDE
:10444C0018680430FFF749FB6019FFF795FDFFF77B
:10445C0057FF18B9BDE87040FFF722B870BD00BF18
:10446C00E81A0020D01A002038B5234B1B681BB16A
:10447C00224B01221A6038BD214C22682368126835
:10448C001B6B9A4204D820682168343100F090FBF1
:10449C0023681C49186B1422194DFEF749FE78B19C
:1044AC0028682968343100F083FB09E01A6822B9C6
:1044BC004FF0500080F31188FEE71A68013A1A6039
:1044CC00114B14251968114A694351580029EDD034
:1044DC001868454353195968083549685519A94254
:1044EC00596004BF49685960142303FB00225368C8
:1044FC00DB68236038BD00BFC81A0020081B0020F1
:10450C00D01A0020A2530008F01A0020641A0020D0
:10451C0070B50D4620B94FF0500080F31188FEE7BE
:10452C000C4C21681831FFF7BFFA20680430FFF7F4
:10453C00D4FAB5F1FF3F06D1216807480431BDE834
:10454C007040FFF7A4BA054B18682818BDE87040F6
:10455C00FFF712BDD01A00201C1A0020E81A002008
:10456C0070B50D4620B94FF0500080F31188FEE76E
:10457C00074C21681831FFF78AFA20680430FFF7DE
:10458C00ACFA044B18682818BDE87040FFF7F4BC6F
:10459C00D01A0020E81A002038B5C368DC6824B9AA
:1045AC004FF0500080F31188FEE704F118052846FF
:1045BC00FFF793FA0F4B1B6873B9251D2846FFF7BD
:1045CC008CFA0D4AE36A11688B4288BF13600B4A60
:1045DC00142000FB032000E009482946FFF757FA96
:1045EC00084BE06A1B68DB6A984234BF002001204C
:1045FC0038BD00BFC81A0020F01A0020641A002031
:10460C00D41A0020D01A002020B94FF0500080F3AB
:10461C001188FEE7034B1B680360034B1B68436068
:10462C00704700BFCC1A0020E81A002038B50C46A1
:10463C00054620B94FF0500080F31188FEE721B9F0
:10464C004FF0500080F31188FEE7FEF731FF23682E
:10465C00B3F1FF3F16D00F4A11682A6891420E4AF7
:10466C0003D01068696888420ED211686A68891A8A
:10467C00994209D2084928460968521AD31823606E
:10468C00FFF7C2FF002400E00124FEF71DFF2046C7
:10469C0038BD00BFCC1A0020E81A0020014B0122C3
:1046AC001A607047081B0020014B1868704700BF48
:1046BC00D01A0020044B186828B1044B1868002845
:1046CC0014BF022001207047341A0020C81A0020A1
:1046DC002DE9F041044620B94FF0500080F31188C9
:1046EC00FEE7154DC36A2A68D26A934222D22A6821
:1046FC00124FD26AC2F105028261142202FB0373CB
:10470C0042699A4213D1061D3046FFF7E6F92B6831
:10471C000B4ADB6A1168E3628B4288BF136014207A
:10472C0000FB03703146BDE8F041FFF7B0B92B68D0
:10473C00DB6AC362BDE8F081D01A0020641A002045
:10474C00F01A002070B50446D0B1C26A036C9A42CC
:10475C0016D0051D2846FFF7C0F9236CC3F10502DE
:10476C00A261084AE36211688B4288BF1360064A53
:10477C00142000FB03202946BDE87040FFF787B9E1
:10478C0070BD00BFF01A0020641A00202DE9F04122
:10479C000D4CFEF78DFE25688DB90C4F0C4E38462E
:1047AC00FFF767F93046FFF764F90A4B05201F60E5
:1047BC00094B0C211E602A46FFF710FA2060BDE859
:1047CC00F041FEF781BE00BF441B0020181B0020E7
:1047DC002C1B0020141B0020481B0020914210B5FC
:1047EC0004464160006105D88169D21A8A420CD214
:1047FC00084B04E09A4201D2994208D2064B186841
:10480C00211DFFF751F9002010BD012010BD012022
:10481C0010BD00BF481B0020141B00201FB5FFF764
:10482C00B5FF0B4B1B685BB1032300930948033B9B
:10483C0009494622019302930393FFF7C5FB20B964
:10484C004FF0500080F31188FEE705B000BD00BFAB
:10485C00441B002051490008BB5300087FB50E4E85
:10486C00054630681C46A0B10191029203955BB9D4
:10487C00FFF720FF012801A930680CBF089A2246D7
:10488C002346FFF7DCF904E01A4601A90023FFF7E1
:10489C007EFA04B070BD00BF441B00202DE9F34725
:1048AC000546FFF7B3FC244E0446336898423CD2CD
:1048BC002DE0DA681768DB68D3F80C8008F1040A7D
:1048CC005046FFF70AF9D8F8243040469847D8F8F4
:1048DC001C30012B1BD1D8F81830FB18BB4209D95E
:1048EC00C8F80430C8F81080D9F800005146FFF71A
:1048FC00DBF80CE0002140463A460B460091FFF7EE
:10490C00ADFF20B94FF0500080F31188FEE7DFF8BF
:10491C003090D9F800301A68002ACAD1074A1168B9
:10492C001360C9F80010012300E000232B6020461F
:10493C003460BDE8FC8700BF401B0020481B0020F2
:10494C00141B0020F0B587B04B4C23681E68D6F1C1
:10495C00010638BF002616B9DB681D6800E000258B
:10496C00FFF74CFC05A8FFF799FF059B0746002BAA
:10497C0033D1002E26D1854224D8FFF7C1FC236801
:10498C00DB68DC68201DFFF7A8F8E369012B15D163
:10499C00A169204669183A462B46FFF71FFF0128EC
:1049AC000CD1204631462A4633460096FFF756FF77
:1049BC0020B94FF0500080F31188FEE7636A20465F
:1049CC0098470CE02D4BE91B1868FFF7B5FAFFF779
:1049DC0097FC20B9FEF764FD01E0FFF791FC05A8F8
:1049EC00FFF75CFF06463DE0049C24B1636913B1FC
:1049FC00201DFFF772F8029D022D21D0032D2ED021
:104A0C00002D2FD1039BA169204659183246FFF780
:104A1C00E5FE012826D1636A20469847E369012BFD
:104A2C0020D1A269039B2046D21829462B4600951B
:104A3C00FFF714FFB0B94FF0500080F31188FEE778
:104A4C000399A16121B94FF0500080F31188FEE762
:104A5C002046711832463346FFF7C0FE02E020466E
:104A6C00FEF790FD054B0022186802A91346FFF7CC
:104A7C00CBF90028B8D167E7141B0020441B002099
:104A8C000B4A08B540F2FF71002382F8A432116082
:104A9C00D118043340F2FF70B3F5A87F4860F7D10A
:104AAC000120FFF74EF9024BC3F8A80208BD00BF66
:104ABC00501B002008B5FEF765FE01200146FEF7ED
:104ACC0071FE0D490120FEF735FFFEF765FF4FF42F
:104ADC007A70FFF7ADFCFEF755FE01200146FEF79C
:104AEC0061FE01200549FEF725FFFEF755FF4FF447
:104AFC007A70FFF79DFCDEE7C3530008CA53000829
:104B0C001FB500F0EFF94FF4803000F00BFA00F015
:104B1C00A7FA312000F090FA01280446F9D10020C0
:104B2C0000F028FA002000F035FA002000F03CFAE2
:104B3C00002000F043FA4FF480304FF4002100F0D5
:104B4C000DFA204600F016FA392000F075FA01280B
:104B5C000446F9D1022000F013FA204600F038FA8E
:104B6C0021464FF4000000F04FFA00F0ADF820465B
:104B7C00FEF77AFFFFF784FF002307494FF40C720E
:104B8C0006480193029303930094FFF71DFAFFF775
:104B9C0003FB04B010BD00BFCE530008C14A00088F
:104BAC0082B000238DF807309DF807300133F9E708
:104BBC0082B000238DF807309DF807300133F9E7F8
:104BCC007047FEE7FEE7FEE7FEE770473A4B82B020
:104BDC001A6842F001021A605968384A01EA020266
:104BEC005A601A6822F0847222F480321A601A68B1
:104BFC0022F480221A605A6822F4FE025A604FF4A2
:104C0C001F029A600022019200921A6842F48032CC
:104C1C001A60294B1A6802F400320092019A013290
:104C2C000192009A1AB9019AB2F5A06FF1D11B68E2
:104C3C0013F4003318BF01230093009B012B34D1D4
:104C4C001F4B1A6842F010021A601A6822F0030215
:104C5C001A601A6842F002021A60174B5A685A60BE
:104C6C005A685A605A6842F480625A605A6822F450
:104C7C007C125A605A6842F4E8125A601A6842F080
:104C8C0080721A600C4B1A6812F0007FFAD05A68C6
:104C9C0022F003025A605A6842F002025A60064B34
:104CAC005B6803F00C03082BF9D1064B4FF0006244
:104CBC009A6002B0704700BF001002400000FFF87D
:104CCC000020024000ED00E030B54FF4404087B0CA
:104CDC0000F084F94FF40170012100F089F90024EF
:104CEC0005A901251748ADF814508DF8174000F0B0
:104CFC00A6F8154800F02AF8684600F07BF84FF447
:104D0C00602311486946029300948DF80540039482
:104D1C008DF8105000F048F80B48012100F073F8A2
:104D2C00094800F07AF8084800F07CF80028FAD11D
:104D3C00054800F07BF8044800F07DF80028FAD113
:104D4C0007B030BD0008014000240140134B10B5E2
:104D5C00984207D14FF40070012100F061F94FF433
:104D6C00007014E00E4B984207D14FF48060012183
:104D7C0000F056F94FF4806009E00A4B98420BD1D1
:104D8C004FF40040012100F04BF94FF4004000219A
:104D9C00BDE8104000F044B910BD00BF0024014034
:104DAC0000280140003C014043680A6823F470234A
:104DBC0023F4807313430A7910B543EA022343604A
:104DCC008A68CB6884681A43094B04EA030342EAF5
:104DDC0003034A7943EA420383600B7CC26A013BBA
:104DEC0022F47002DBB242EA0353C36210BD00BF6F
:104DFC00FDF7F1FF00230360037143718360C3600F
:104E0C0001330374704719B1836843F0010302E066
:104E1C00836823F0010383607047836843F00803C1
:104E2C00836070478068C0F3C0007047836843F0AC
:104E3C000403836070478068C0F380007047CB78B0
:104E4C00F0B513F0100F03F00F020E881CBF8B7817
:104E5C001A4316F0FF0F1DD00468002301279F4052
:104E6C0007EA0605BD4211D19F004FF00F0C0CFA5A
:104E7C0007FC12FA07F724EA0C043C43CF78282FDE
:104E8C0001D1456102E0482F08BF05610133082BB1
:104E9C00E4D104600E88FF2E1FD94468002303F16F
:104EAC0008050127AF4007EA0605BD4211D19F0056
:104EBC004FF00F0C0CFA07FC12FA07F724EA0C045B
:104ECC003C43CF78282F01D1456102E0482F08BF21
:104EDC0005610133082BE2D14460F0BD01617047DC
:104EEC00416170470D4B1A6842F001021A60596813
:104EFC000B4A01EA02025A601A6822F0847222F408
:104F0C0080321A601A6822F480221A605A6822F4DD
:104F1C00FE025A604FF41F029A6070470010024064
:104F2C000000FFF80C4BB0F5803F1A6822F4803279
:104F3C001A601A6822F480221A6003D0B0F5802F10
:104F4C0009D104E01A6842F480321A6070471A687A
:104F5C0042F4A0221A60704700100240044B5A68B9
:104F6C0022F47C1240EA02020A435A60704700BFE6
:104F7C0000100240014B1860704700BF60004242B5
:104F8C00034B5A6822F0030240EA02025A6070474F
:104F9C0000100240034B5A6822F0F00240EA020271
:104FAC005A60704700100240034B5A6822F4E062CA
:104FBC0040EA02025A60704700100240034B5A68E4
:104FCC0022F4605242EAC0025A607047001002405C
:104FDC00014B1860704700BFD8004242034B5A681F
:104FEC0022F4404240EA02025A607047001002402C
:104FFC00044B11B19A69104302E09A6922EA00004D
:10500C009861704700100240044B11B1DA691043EB
:10501C0002E0DA6922EA0000D86170470010024011
:10502C00044B11B1DA68104302E0DA6822EA00009E
:10503C00D8607047001002404309012B074A01D188
:10504C00136803E0022B0CBF136A536A00F01F00B5
:10505C0033FA00F000F00100704700BF001002406E
:10506C0007B5002301933120FFF7E6FF019B0133C5
:10507C000193019BB3F5A06F01D00028F3D0312030
:10508C00FFF7DAFF003818BF01200EBD0B8810B5F2
:10509C004C88028844EA03038C8802F4415223436F
:1050AC00CC8823430C8923434C8923438C89234389
:1050BC00CC89234342EA03030380838B23F40063EC
:1050CC001B041B0C83830B8A038210BD21B1038844
:1050DC009BB243F0400304E0038823F040031B041D
:1050EC001B0C0380704781817047038919420CBFE8
:1050FC000020012070470000002103E00A4B5B58A0
:10510C004350043109480A4B42189A42F6D3094AD3
:10511C0002E0002342F8043B074B9A42F9D3FFF715
:10512C0055FDFFF7EDFC70471C61000800000020E6
:10513C000C00002010000020FC1D0020FEE70000E9
:10514C0000000000002F00000007000700147F146F
:10515C007F14242A7F2A12C4C810264636495522A9
:10516C00500005030000001C2241000041221C00DD
:10517C0014083E081408083E0808000050300010BF
:10518C0010101010006060000020100804023E5146
:10519C0049453E00427F400042615149462141450C
:1051AC004B311814127F1027454545393C4A494963
:1051BC003001710905033649494936064949291E0A
:1051CC000036360000005636000008142241001448
:1051DC001414141400412214080201510906324916
:1051EC0059513E7E1111117E7F494949363E41414C
:1051FC0041227F4141221C7F494949417F090909CC
:10520C00013E4149497A7F0808087F00417F4100EF
:10521C002040413F017F081422417F404040407FA5
:10522C00020C027F7F0408107F3E4141413E7F0902
:10523C000909063E4151215E7F0919294646494913
:10524C00493101017F01013F4040403F1F20402078
:10525C001F3F4038403F6314081463070870080769
:10526C006151494543007F41410002040810200070
:10527C0041417F00040201020440404040400001D3
:10528C0002040020545454787F4844443838444431
:10529C004420384444487F3854545418087E09013B
:1052AC00020C5252523E7F0804047800447D4000A8
:1052BC002040443D007F1028440000417F40007C8A
:1052CC00041804787C0804047838444444387C146A
:1052DC00141408081414187C7C080404084854544A
:1052EC005420043F4440203C4040207C1C20402063
:1052FC001C3C4030403C44281028440C5050503C3E
:10530C004464544C44000836410000007F00000007
:10531C0041360800040204080400003600000E5157
:10532C003111083C4140217C3854565518205655B3
:10533C0056782055545578205556547808082A1C10
:10534C00080E513111083856555618385554551801
:10535C00385556541800457C410000467D42007F6C
:10536C007F7F7F7F7F7F7F7F7F7F7F7F7F7F7C546F
:10537C005655447F7F7F7F7F7F7F7F7F7F38464579
:10538C0046387F7F7F7F7F38454644383C424122F8
:10539C007C3C4142207CA5A5A5A5A5A5A5A5A5A5B8
:1053AC00A5A5A5A5A5A5A5A5A5A549444C4500540D
:1053BC006D72205376630048656C6C6F21004869F0
:1053CC0021006100F8B500BFF8BC08BC9E467047D0
:0C53DC00F8B500BFF8BC08BC9E46704746
:04611400213100082D
:046118000D3100083D
:0C611C00AAAAAAAA01000000FFFFFFFFD2
:040000050800510599
:00000001FF
