:020000040800F2
:100000000028002005050008FD030008FF03000884
:1000100001040008030400080504000800000000B3
:10002000000000000000000000000000A101000826
:100030000704000800000000C1010008FD010008DD
:100040004905000849050008490500084905000858
:100050004905000849050008490500084905000848
:100060004905000849050008490500084905000838
:100070004905000849050008490500084905000828
:100080004905000849050008490500084905000818
:100090004905000849050008490500084905000808
:1000A00049050008490500084905000849050008F8
:1000B00049050008490500084905000849050008E8
:1000C00049050008490500084905000849050008D8
:1000D00049050008490500084905000849050008C8
:1000E000490500084905000849050008000000000E
:1000F0000000000000000000000000000000000000
:0C01000000000000000000005FF808F1A3
:10010C0040F20403C2F200031A780AB901201870F5
:10011C00704700BF40F20400C2F2000008B503684B
:10012C002BB140F20003C0F2000303B1984708BDA5
:10013C00032A70B404460D4626D941EA000313F095
:10014C00030F13D020782B78984208BF294606D08D
:10015C001EE014F8010F11F8013F984218D1012A42
:10016C0002F1FF32F5D1002070BC70470B460446FB
:10017C0051F8045B50F8046BAE4204D1043A0446C7
:10018C00032A0B46F2D81D461046002ADAD1EBE7BB
:10019C00C01AE9E7064B19680868B0E8F00F80F35D
:1001AC0009884FF0000080F311884EF00D0E704757
:1001BC007C000020EFF309800C4B1A6820E9F00F4B
:1001CC0010602DE908404FF0500080F3118800F0CA
:1001DC00ADF84FF0000080F31188BDE808401968B5
:1001EC000868B0E8F00F80F3098870477C000020A5
:1001FC0008B5074B4FF080521A604FF0500080F357
:10020C00118800F025F84FF0000080F3118808BD2C
:10021C0004ED00E043685A688B604A605A6891604C
:10022C00596003684160013308610360704743689B
:10023C0082689A608268536003695968814208BF7A
:10024C005A60002202611A68013A1A607047000075
:10025C00F8B52D4B1B68002B50D12C4D2B6801335E
:10026C002B602B68EBB92A4B1A68126822B14FF03D
:10027C00500080F31188FEE7264A19681068186050
:10028C001160254A1168013111601A681168234AFE
:10029C0011B94FF0FF3303E01B68DB68DB685B6868
:1002AC0013601E4C2A6823689A422BD3184B1A6889
:1002BC00126812B94FF0FF3306E01B68DB68DE688A
:1002CC002A6873689A4201D22360F8BD371D3846FC
:1002DC00FFF7ADFFB36A1BB106F11800FFF7A7FFDC
:1002EC000F4AF36A11688B4288BF13600D4A1420C1
:1002FC0000FB03203946FFF78DFFD7E70A4B1A683E
:10030C0001321A60F8BD00BF74000020800000208C
:10031C000C00002084000020780000200000002049
:10032C0088000020100000200800002038B5234B66
:10033C001B681BB1224B01221A6038BD214C22686C
:10034C00236812681B6B9A4204D8206821683431E8
:10035C0000F046F823681C49186B1422194DFFF75E
:10036C00E7FE78B128682968343100F039F809E0E3
:10037C001A6822B94FF0500080F31188FEE71A6812
:10038C00013A1A60114B14251968114A69435158E6
:10039C000029EDD018684543531959680835496848
:1003AC005519A942596004BF49685960142303FBCD
:1003BC0000225368DB68236038BD00BF7400002046
:1003CC008C0000207C0000204A05000888000020DA
:1003DC001000002082B000230193019B0133FBE746
:1003EC0082B000238DF807309DF807300133F9E710
:1003FC007047FEE7FEE7FEE7FEE770473A4B82B038
:10040C001A6842F001021A605968384A01EA02027D
:10041C005A601A6822F0847222F480321A601A68C8
:10042C0022F480221A605A6822F4FE025A604FF4B9
:10043C001F029A600022019200921A6842F48032E4
:10044C001A60294B1A6802F400320092019A0132A8
:10045C000192009A1AB9019AB2F5A06FF1D11B68FA
:10046C0013F4003318BF01230093009B012B34D1EC
:10047C001F4B1A6842F010021A601A6822F003022D
:10048C001A601A6842F001021A60174B5A685A60D7
:10049C005A685A605A6842F480625A605A6822F468
:1004AC007C125A605A6842F488125A601A6842F0F8
:1004BC0080721A600C4B1A6812F0007FFAD05A68DE
:1004CC0022F003025A605A6842F002025A60064B4C
:1004DC005B6803F00C03082BF9D1064B4FF000625C
:1004EC009A6002B0704700BF001002400000FFF895
:1004FC000020024000ED00E0002103E00A4B5B58B5
:10050C004350043109480A4B42189A42F6D3094A1F
:10051C0002E0002342F8043B074B9A42F9D3FFF761
:10052C006DFFFFF757FF7047101300080000002005
:10053C00040000200400002090000020FEE7A5A588
:10054C00A5A5A5A5A5A5A5A5A5A5A5A5A5A5A5A54F
:10055C00A5A50000F8B500BFF8BC08BC9E467047C6
:0C056C00F8B500BFF8BC08BC9E46704704
:0413080021010008B7
:04130C000D010008C7
:04131000FFFFFFFFDD
:0400000508000505E5
:00000001FF
