:020000040800F2
:1050000000280020FD69000811540008155400080C
:10501000195400081D540008215400080000000025
:1050200000000000000000000000000025540008FF
:1050300029540008000000002D54000831540008D5
:10504000416A0008416A0008416A0008416A000894
:10505000416A0008416A0008416A0008416A000884
:10506000416A0008416A0008416A0008416A000874
:10507000416A0008416A0008416A0008416A000864
:10508000416A0008416A0008416A0008416A000854
:1050900035540008416A0008416A0008416A000866
:1050A000416A0008416A0008416A0008416A000834
:1050B000416A0008416A0008416A0008416A000824
:1050C000416A0008416A0008416A0008416A000814
:1050D000416A0008416A000839540008416A000822
:1050E000416A0008416A0008416A000800000000A7
:1050F00000000000000000000000000000000000B0
:0C51000000000000000000005FF808F153
:10510C0040F2E403C2F200031A780AB901201870C5
:10511C00704700BF40F2E400C2F2000008B503681B
:10512C002BB140F20003C0F2000303B1984708BD55
:10513C0070B4002A30D0531EDAB2561C760000240C
:10514C0016F0020F23461BD1030F092B29D9373335
:10515C000B700001020F0223092A4C7013D8303255
:10516C00CA540001CD180233020FB3426C7013D035
:10517C00092A13D83032CA54CD186C70023300018E
:10518C00020F092AEBD93732CA540001CD18023369
:10519C00020FB3426C70EBD170BC70473732CA54FB
:1051AC00EAE730330B70D4E7704700BF012010B52D
:1051BC0000F0FEFB4FF400000121BDE8104000F0B0
:1051CC00FDBB00BF10B54FF4C06082B000F0A4FB73
:1051DC000024012101A814228DF804208DF805105B
:1051EC008DF806408DF8071000F0A0FB252301A8D0
:1051FC008DF804308DF8054000F098FB02B010BD1E
:10520C00704700BF064B4FF4165200201A604FF443
:10521C00C0610C229880D880198198815A8170477E
:10522C0008090020274A1379012B3AD01BD2264BB0
:10523C000021D980517901293AD026D20021198137
:10524C00917907292AD0082910D119891E4809B14A
:10525C004FF480518180106800210C2218609981D4
:10526C005A8101207047022B26D0174B00204FF497
:10527C0016514FF4C06C0C229880D880988119601C
:10528C00A3F808C05A81002070470229EED1917909
:10529C004FF4C06C0729A3F808C0D4D10021998021
:1052AC00D9E75179084B4FF440500129D880C4D12B
:1052BC004FF480601881C3E7034B4FF4005CA3F8F4
:1052CC0006C0B7E7D800002008090020704700BFCF
:1052DC0070B51F4B1A78012A30D01E4A1068B0F5F1
:1052EC00006F2CD01C490D6885422ED034BFC0F500
:1052FC000065C0EB05051949402D0D6016D82C181A
:10530C001460002280B2ADB20A60154901242A460D
:10531C0008181C70C02101F0A7F92046294601F09D
:10532C00F9FA2046BDE8704001F052BA00F1400491
:10533C00403D0D6080B214604025E6E770BD064923
:10534C0000200D6810608542D0D10020187070BD0F
:10535C00E5000020EC000020E8000020F000002018
:10536C00080100200E4B9B79072B0CD0082B10D07A
:10537C000C4A13680133B3F5006F136002D109486E
:10538C00002202607047074A074913680F20C8546F
:10539C00F0E7044A044913680A20C854EAE700BF3E
:1053AC00D8000020E800002008010020094A0A4922
:1053BC0010B50B6814685068C01800D110BD0822D5
:1053CC000649FFF7B5FE064920460422BDE8104009
:1053DC00FFF7AEBEECF7FF1FE8F7FF1F020000203F
:1053EC001200002008B54FF000604FF4A04100F00F
:1053FC00D3FAFFF7D9FEFFF7D9FEFFF7E3FE01F072
:10540C0033F8FEE7704700BFFEE700BFFEE700BFC2
:10541C00FEE700BFFEE700BF704700BF704700BF4C
:10542C00704700BF704700BF00F0FCB810B50020FB
:10543C0040F2255100F0DAFA50B90020082100F0B2
:10544C00CFFA00B910BD0020BDE8104000F0C4BA7E
:10545C00FFF788FFF1E700BF3F4B404A1868002177
:10546C0040F001001860586882B000EA02025A60ED
:10547C0018681A4620F0847C2CF480301860186868
:10548C0020F480201860586820F4FE0058604FF417
:10549C001F00986001910091186840F480311960E8
:1054AC0003E00198B0F5A06F09D0116801F4003346
:1054BC0000930198411C0191009B002BF1D0264BCD
:1054CC001A6812F400330AD00121009100980128C7
:1054DC0009D023484FF00061816002B070470093FF
:1054EC0000980128F5D11F4A1B4B1068194640F053
:1054FC0010001060106820F003001060106840F07D
:10550C0001001060586858605A685A60586840F436
:10551C0080625A60586820F47C125A60586840F4D3
:10552C0088125A60186840F080721A600B680A4A38
:10553C0013F0007FFAD05368114623F0030050603B
:10554C00536843F0020050604A6802F00C0CBCF146
:10555C00080FF9D1BDE700BF001002400000FFF8B2
:10556C0000ED00E00020024010B5174B1A78012A1C
:10557C0000D010BD15490A68002A22D0402A16D83E
:10558C00134894B203689A18026000229BB20A6016
:10559C001048C021C018224601F066F801202146AF
:1055AC0001F0B8F90120BDE8104001F011B908482C
:1055BC00403A03680A6003F1400101609BB2402449
:1055CC00E6E71A7010BD00BFE5000020F0000020D7
:1055DC00EC0000200801002010B5074C03202146E8
:1055EC0001F0F4F9C1B22046FFF770FE0320BDE8CC
:1055FC00104001F0FFB800BF1809002007480368ED
:10560C00052B00D07047064B1A68511C052A1960EF
:10561C00F8D100201860FFF75BBE00BFFC00002033
:10562C00F4000020174A38B51368174C174D238027
:10563C0020882B8803EA000111F4007F16D1228800
:10564C0002F4004C1CEA030F0CD1218801F4806099
:10565C00184206D00B490E4A4FF6FF3008605368CB
:10566C00984738BD00F01CFF2B88EEE709484FF631
:10567C00FF53136001784A1C0270FFF7BFFF2B88A1
:10568C00DDE700BF445C0040580900209009002071
:10569C005C000020F80000200348837A13B1034912
:1056AC0005220A60704700BF6C090020FC00002036
:1056BC00014B04221A607047FC000020704700BFA9
:1056CC00212808B503D020280AD0022008BD104A92
:1056DC001168087800F07F03212BF6D10D4B0DE0FB
:1056EC000B4A0D49136893F800C00C4B0CF07F0C5F
:1056FC00BCF1210F18BF002308703BB112680021C8
:10570C000020936151829847002008BD022008BDFB
:10571C008C09002065570008F90000207D5700080F
:10572C00084B1A68117801F07F03212B01D002205D
:10573C007047022804D0222814BF02200020704792
:10574C00002070478C09002021B901288CBF022051
:10575C00002070470220704708B103487047034986
:10576C0008220B681A827047D80000208C09002090
:10577C0008B103487047034908220B681A82704726
:10578C00D80000208C09002005490B68DB78042B1D
:10579C0001D900207047034A02EBC30100F04ABB59
:1057AC008C090020B8000020014900F043BB00BF69
:1057BC0054000020014900F03DBB00BFB0000020A8
:1057CC0010B5054C2378202B00D010BDFFF72AFD17
:1057DC000020207010BD00BFF900002010B5344A25
:1057EC00344C106894F807C0002480F809C0847207
:1057FC00C472204600F094FF20464FF4007100F074
:10580C0099FF1021204600F0A3FF4021204601F013
:10581C004DF88021204601F037F8204600F0FCFFBF
:10582C002549204691F82C1001F084F8204600F010
:10583C00E1FF0120214600F07DFF0120C02101F095
:10584C0023F80120202100F083FF0120214600F0E5
:10585C009FFF02204FF4C06100F06CFF02204FF458
:10586C00807101F011F80220214600F091FF022016
:10587C00202100F06DFF0320214600F05BFF032088
:10588C004FF4887101F012F80320402101F052F816
:10589C0003204FF4405100F07BFF2146032000F021
:1058AC0057FF204600F04EFD044B01221A6010BD3C
:1058BC008C090020B86A00085C000020FC00002065
:1058CC0010B5FFF773FD064900240868847200F0D8
:1058DC000BF801F06BF8FFF795FC024B1C6010BD48
:1058EC008C090020FC00002010B50120FFF788FC7B
:1058FC00064B01241C600648064C00224FF4E05174
:10590C0001801A6010462260196010BD405C004096
:10591C0090090020445C004040F0BE61024B41F411
:10592C002020D860704700BF00ED00E0C37830B491
:10593C0063B90378012103F01F0011FA00F05B0931
:10594C00134A203342F8230030BC70471149447885
:10595C00CD680F22EB43C3F3022132FA01F3C1F1FC
:10596C000405AC408578017803EA050C084B4CEA39
:10597C000402120101EB030C8CF8002303780121C3
:10598C0003F01F029140024A580942F82010DBE74D
:10599C0000E100E000ED00E021F0604C2CF07F0213
:1059AC00024B42EA00019960704700BF00ED00E035
:1059BC00014B1860704700BFD800424229B9054B13
:1059CC00DA6922EA0001D9617047024BDA691043A7
:1059DC00D8617047001002408188C805C00D70471F
:1059EC00038819420CBF00200120704710B401F04D
:1059FC001F020124C1F342139440012B16D0022B39
:105A0C000CBF028A828A1FFA82FC04EA0C0200880C
:105A1C0083B24AB1080A012212FA00F119420CBFF2
:105A2C000020012010BC70471046FBE783899AB216
:105A3C0004EA0202EBE700BF08B538B106490B686F
:105A4C001A689047054800680A3008BD03490122CE
:105A5C000B681A8208BD00BF880900208C09002041
:105A6C0008B538B106490B689A6890470548006834
:105A7C000C3008BD034901220B681A8208BD00BF17
:105A8C00880900208C09002008B5002829D02A4A52
:105A9C002A4800231268038092F800C01CF07F0390
:105AAC0018D1517A90F800E011F0200F14BF4EF08D
:105ABC00020E0EF0FD0E11F0400F14BF4EF0010E51
:105ACC002EF0010E80F800E01D4B19680869804724
:105ADC001A4808BD012B00D108BD022B06D00020AE
:105AEC00FAE7154902220B681A8208BD92F805C024
:105AFC001CF0800F0CF00F0211D1930003F18041C8
:105B0C0001F5B84EDEF8002002F4405CBCF5805F75
:105B1C00DAD1027842F0010C80F800C0D4E793008F
:105B2C0003F1804101F5B84EDEF8002002F030039D
:105B3C00102BC9D1EDE700BF8C0900205C090020B7
:105B4C00880900202DE9F041254E3468238A277AF4
:105B5C0023B9042F2CD0A58A042703E0A58AAB42D5
:105B6C00FAD902279D4228BF1D46A26928469047B4
:105B7C008046002000F0AEFE2A460146404600F06A
:105B8C0073FD2946002000F0C5FE208A618AC5EB12
:105B9C00000C144B14486D1830224FF44051A4F8EB
:105BAC0010C065821A80346801802772BDE8F081CC
:105BBC000E4A1178012906D00A4B072710221A80A9
:105BCC002772BDE8F0810A480A4900681FFA80FC78
:105BDC006144480003490360302008801370E4E7F7
:105BEC008C0900209409002092090020000100205B
:105BFC00505C00400230002010B50B4B0B4A1B6868
:105C0C005178DA78914205D3987818B99C881CB1F0
:105C1C00022010BD022010BD9A72054B1A68516803
:105C2C008847204610BD00BF8C090020E0000020F2
:105C3C008809002038B51048104C02682168936917
:105C4C004879C978984723689A7A8AB180B91979C2
:105C5C0071B99D7875B90A4B1968C8688047236873
:105C6C0028465A7993F803C0DA7283F80CC038BD11
:105C7C00022038BD022038BD640900208C090020A8
:105C8C008809002038B53A4B1B68187810F07F0053
:105C9C0035D0022801D0022038BD5A88002A2DD1D7
:105CAC00197959BB5A7912F0800F22F080002BD150
:105CBC00840004F1804101F5B84CDCF8005005F487
:105CCC0040552C4991F800C06045E4D2002DE2D03B
:105CDC009B7A93B112F0800F20D004F1804404F52C
:105CEC00B844226802F0300EBEF1100F33D0224BB4
:105CFC00196848698047002038BD022038BD597AA0
:105D0C0021F020025A7238BD840004F1804101F563
:105D1C00B84CDCF8005005F03005D2E704F18043B4
:105D2C0003F5B844216801F4405CBCF5805FDED11A
:105D3C00D0B9124A92F82C1000F0FCFD22684BF6F8
:105D4C008F7302EA030181F4405C4CF4004E4EF078
:105D5C0080002060CBE7C4B2204600F081FD2046D5
:105D6C00302100F0F5FCC2E700F066FDE6E700BF6D
:105D7C008C090020E0000020880900205C00002035
:105D8C0038B5294B19684B7913F0800F23F080023A
:105D9C002BD1900000F1804C0CF5B844256805F42B
:105DAC004055224C2478A2421DD24A88DAB9D5B18A
:105DBC00897A19B313F0800F22D000F1804000F5DE
:105DCC00B840036848F6BF7103EA010282F0100C78
:105DDC004CF4004E4EF0800303601548036899693B
:105DEC008847002038BD022038BD900000F1804C5F
:105DFC000CF5B844256805F03005D2E7022038BD13
:105E0C0000F1804E0EF5B84EDEF800204BF68F7088
:105E1C0002EA000383F4805141F4004C4CF0800200
:105E2C00CEF80020D9E700BF8C090020E00000204C
:105E3C0088090020054B1B685A8A10B10868801825
:105E4C00704789888A1A1A82704700BF8C09002013
:105E5C0008B50D49002091F82C1000F06BFD0B4893
:105E6C000368187A082807D109490A4B4FF4805C5B
:105E7C001022A1F800C01A80A0F10900D0F1000E88
:105E8C004EEB000008BD00BF5C0000208C09002018
:105E9C0092090020940900202DE9F0412F4D2C6827
:105EAC00237A022B07D0042B05D0032B09D0052B0A
:105EBC0007D0072B42D008232372BDE8F041FFF72F
:105ECC00C7BFA369228AB3B11AB3A68A964228BF68
:105EDC00164630469847218A0746608A8A1B331833
:105EEC0022826382002000F005FD324601463846CE
:105EFC0000F0EEFB228A62B1194A00204FF4405C9C
:105F0C000146A2F800C000F005FD164B3020228A95
:105F1C001880A48A944218D9DAB92C680620124940
:105F2C0020720B6811481FFA83FC0CEB00014B002C
:105F3C000C481A603021237A0180BDE70C4B1C6899
:105F4C00E26890472C680823B6E72C680323237279
:105F5C00B2E72C6805232372AEE700BF8C09002042
:105F6C009209002094090020505C0040023000206F
:105F7C0064090020F0B59C4E9C4C326826689C4904
:105F8C001FFA82FC327A0CEB01004300092A83B021
:105F9C001B684CD01FFA83FC0CF1005101F54057E3
:105FAC007B001D4615F8010B03F10A07307093F8BE
:105FBC0001E086F801E0B5F8030000F0F1FC708018
:105FCC00B5F80700256800F0EBFCA88026687B88F4
:105FDC000122F3803272002B2ED07178062900F04A
:105FEC008D80002948D17288002A00F09E80814D56
:105FFC002B6808461A699047032800F0F180236843
:10600C004FF6FF7E1A8A724549D002282DD0002AFD
:10601C002BD093F900C0BCF1000FC0F2BC8003215F
:10602C001972754B4FF4405CA3F800C01FE0F38865
:10603C0001223272002BD0D13378757813F07F03A4
:10604C0030D0012B00F0BD80022B00F0F680694BA4
:10605C0028461A6851698847032800F018810028DF
:10606C003BD026680823337201E00821197203B073
:10607C00BDE8F040FFF7ECBE082969D1327812F088
:10608C007F0FB4D15D4B0021B36100207182984722
:10609C0023684FF6FF7E1A8A00207245B5D109227B
:1060AC001A72E4E7092D00F0E880052D00F0B680A7
:1060BC00032D00F0CE80012DC9D196F803E0BEF17E
:1060CC00010FC4D1B0880028C1D1767A16F0200F08
:1060DC00BDD0FFF7D7FD0028B9D1434E48483168F1
:1060EC0000261FFA81FC0CEB00035A001660454990
:1060FC0026683020062308803372B8E7357815F00F
:10610C007F0F7FF474AFB378012B00F0BC80022BAF
:10611C0000F08080032B7FF46AAF364D2868436A09
:10612C00002BB0D12068417862E7736823F47F4E6E
:10613C00BEF5003F7FF45BAF96F800C01CF07F0308
:10614C0040F0A980B08800287FF451AF2E4B9AE71D
:10615C000A297FF44CAF357805F07F03012B7FF4CF
:10616C0046AFB07A00283FF442AF7288002A7FF421
:10617C003EAF736823F47F4CBCF5803F7FF437AFA0
:10618C001C4D11462B6870799A6990470028C9D12B
:10619C0026681E4B77E7D98801910198824218D85E
:1061AC008A4280F09B801349086890F82C108A4230
:1061BC0080F09980164A002010709982FFF7C2FC7B
:1061CC0055E70B2D7FF443AFFFF734FD002884D047
:1061DC003DE7084801990268198292F82C10ECE707
:1061EC0020680921017242E7505C00408C090020B4
:1061FC00043000206409002092090020455A000850
:10620C000230002094090020955A00086D5A0008AD
:10621C0000010020464D2B681B6A81E796F90300AC
:10622C00002807DBB17829B9B2881AB9B37A002BE8
:10623C003FF453AF0823337219E7012D3FF449AFF4
:10624C00032D7FF404AFFFF79BFD00283FF445AF0F
:10625C00FDE696F803E0BEF1010F7FF4F8AEB088CE
:10626C0000287FF4F4AE737A324A43F0200C86F89F
:10627C0009C01168CE69B0472FE7FFF7BDFC0028B5
:10628C003FF42BAFE3E62A4D2A68D36948E726682A
:10629C0009233372EBE6012B30D0022B7FF4A7AE2F
:1062AC00737913F0800F03F00F0236D1900000F1D8
:1062BC00804C0CF5B84EDEF8005005F440551E48E5
:1062CC0090F800E07245BFF492AE13F0700F7FF4BB
:1062DC008EAE002D3FF48BAE184BD4E614490A68F1
:1062EC0092F82C1069E792FBF1FE01FB1E200028AE
:1062FC007FF463AF124A012010705EE70C4D707989
:10630C002B689A69904700287FF40CAF2668B17A05
:10631C0000297FF41BAF71786AE6900000F1804C85
:10632C000CF5B84EDEF8005005F03005C7E700BF9D
:10633C006409002088090020E0000020955A00081C
:10634C0000010020F0B42A4B1E78002E49D0294AB7
:10635C0040F60F7C1468711E04EA0C0343F4004CE5
:10636C004CF08003136001239E4201F0010138D9E7
:10637C0069B1214940F60F720C6848F2810C04EAAD
:10638C00020343EA0C0202239E420A6029D9DCB2C2
:10639C00A20002F1804101F5B84CDCF80070013329
:1063AC00D9B244F4004540F60F7407EA040445F0F2
:1063BC0080028F0042EA040507F18044CCF80050BB
:1063CC0004F5B844256841F4004140F60F7241F0E1
:1063DC00800C05EA020201334CEA02019E42216064
:1063EC00D5D8064B40F080001860F0BC704700BF59
:1063FC00E0000020005C0040045C00404C5C00406D
:10640C0010B5154C23681A7A022A13D0042A11D01D
:10641C00062A05D008221A72BDE81040FFF718BDF5
:10642C005A78052A0BD00D490B6898688047236869
:10643C000822F0E7FFF786FB23681A7AEBE7187857
:10644C0010F07F0FEFD1D878FFF77CFF044A11686A
:10645C000B6A9847E7E700BF8C090020640900200D
:10646C0088090020704700BF08B5074A074B022176
:10647C0007481A601172074B0749084A18601160E7
:10648C000368984708BD00BF6C0900208C090020E8
:10649C005C000020640900208C000020880900208A
:1064AC002DE9F04F674F83B00023DFF8ACA1DFF884
:1064BC00B4B1DFF89C81ADF80630B946DBF80010BA
:1064CC00614C3980B7F800C0604D0FFA8CF0002891
:1064DC004BF6BF725E4E80F2A880B9F800C00CF08B
:1064EC000F00830003F1804101F5B8418AF80000E8
:1064FC00002836D12168A8F80010B8F8000000F088
:10650C00300CA5F800C0B8F8003003F44051A8F8DE
:10651C000010206800EA020282F4005C8CF0200378
:10652C0043F4004141F080002060B9F8002012F0E3
:10653C00100F46D02068ADF80600BDF806C01CF45C
:10654C00006F75D1BDF806C00FFA8CF3002BB5DACD
:10655C00226840F68F7102EA01002060FFF79CFC74
:10656C0037E00E68ADF80660BDF806502CB2002C72
:10657C0019DBBDF806C01CF0800F9FD09AF80030D4
:10658C0048F60F7E990001F1804C0CF5B844266852
:10659C00304B06EA0E0525609AF80000421E53F8AF
:1065AC00221088478AE70E6840F68F7E06EA0E05B1
:1065BC00294C0D602078294B421E53F82210884735
:1065CC00D7E7236848F60F7E03EA0E022260FFF736
:1065DC0017FF236831884BF6BF7E01F4805C1FFAED
:1065EC008CF003EA0E0308B183F48053B6F800E094
:1065FC000EF4005082B20AB183F400532A8802F0E0
:10660C00100C1FFA8CF109B183F01003298801F0EA
:10661C00200E1FFA8EF008B183F02003104843EAD5
:10662C00000C094B1FFA8CF21A6003B0BDE8F08F16
:10663C00226840F68F7E02EA0E012160FFF79AFC79
:10664C00C7E700BF58090020005C004094090020F7
:10665C00920900201C00002068090020380000204E
:10666C008080FFFF445C004001325210F0B42DD00A
:10667C000346447813F802CB01F10051013A01F5BD
:10668C0040554CEA04206D001146288002F00102AE
:10669C000420D9B142B15C7813F802CB08204CEA43
:1066AC0004220139AA8011D01A4612F802CB5F7865
:1066BC00041D4CEA0726465393F802C05678931CE7
:1066CC004CEA06206053201D0239EDD1F0BC704716
:1066DC000132521070B420D001F1005101F5405339
:1066EC005B00013A53F8044B114620F8024B02F0C0
:1066FC00010291B12AB153F8042B013920F8022B75
:10670C000BD01C4654F8046B5D68024622F8026BF1
:10671C00231D4580901C0239F3D170BC704700BF1B
:10672C004FF6F871024A00EA01031360704700BF8C
:10673C00505C0040800000F1804202F5B8421368C2
:10674C0048F68F1C03EA0C0040EA01031360704703
:10675C0010B4840004F1804000F5B840046801F0E6
:10676C00100C48F6BF731FFA8CF204EA03030AB14B
:10677C0083F0100301F0200291B209B183F02003E1
:10678C0043F4004C4CF08003036010BC704700BF16
:10679C0010B4840004F1804000F5B840046801F4A2
:1067AC00805C4BF68F731FFA8CF204EA03030AB178
:1067BC0083F4805301F4005291B209B183F4005375
:1067CC0043F4004C4CF08003036010BC704700BFD6
:1067DC00810001F1804202F5B842106848F6BF739F
:1067EC0000EA030C8CF0300141F4004040F08003CF
:1067FC0013607047810001F1804202F5B8421068C5
:10680C004BF68F7300EA030C8CF4405141F40040BA
:10681C0040F0800313607047800000F1804202F565
:10682C00B842136840F60F6C03EA0C0141F40040C7
:10683C0040F0800313607047800000F1804303F543
:10684C00B8431A6812F4804F09D0196840F60F70DB
:10685C0001EA000242F4404C4CF080011960704790
:10686C00800000F1804303F5B8431A6812F0400F22
:10687C0009D0196840F60F7001EA000242F4004C8E
:10688C004CF0C00119607047074A4FF6FE7312684E
:10689C0001EA030392B202EBC00C0CF1005101F5BA
:1068AC004050420013607047505C0040074B10B4DE
:1068BC001C68074AA4B204EBC00398184FF6FE7C80
:1068CC00420001EA0C03136010BC7047505C00409E
:1068DC000430002006490B681FFA83FC0CEBC00245
:1068EC0002F1005101F5405043001888704700BF79
:1068FC00505C0040054A064913681FFA83FC0CEBF8
:10690C00C002501843001888704700BF505C00400C
:10691C0004300020054A064B12681FFA82FC0CEB6F
:10692C00C002D01843001960704700BF505C004093
:10693C00023000200F4A104B12681FFA82FC0CEB3D
:10694C00030202EBC0035B003E290AD94A0911F08D
:10695C001F0F01D1501E82B2920242F40041196005
:10696C0070474A0811F0010F18BF013290021860ED
:10697C00704700BF505C004006300020064B0749B2
:10698C001A6893B203EBC00C0CEB010253001968AC
:10699C008805800D704700BF505C00400630002019
:1069AC00C3B2000A40EA0320704700BF044A00202B
:1069BC0010600449044A4FF406430B80136070477F
:1069CC00445C004090090020405C004070B500F031
:1069DC007F0528460E46FFF7D1FF04462846FFF7F1
:1069EC0089FF224601463046FFF772FE204670BDF5
:1069FC00002103E00A4B5B584350043109480A4B11
:106A0C0042189A42F6D3094A02E0002342F8043BAA
:106A1C00074B9A42F9D3FEF71FFDFEF7E3FC7047D4
:106A2C003873000800000020E4000020E40000207F
:106A3C0098090020FEE700002603530054004D0087
:106A4C006900630072006F0065006C0065006300F4
:106A5C00740072006F006E00690063007300000028
:106A6C0012010002020000408304405700020102A0
:106A7C0003010000040309043203530054004D00C9
:106A8C00330032002000560069007200740075005B
:106A9C0061006C00200043004F004D0020005000AE
:106AAC006F007200740020002000000009024300F7
:106ABC00020100C032090400000102020100052499
:106ACC000010010524010001042402020524060023
:106ADC0001070582030800FF09040100020A0000F7
:106AEC00000705030240000007058102400000007A
:106AFC00F8B500BFF8BC08BC9E467047F8B500BF9F
:086B0C00F8BC08BC9E4670476E
:0473300021510008DF
:047334000D510008EF
:107338001A03530054004D0033003200310030006E
:107348000000000000000000000000007555000863
:1073580071640008716400087164000871640008B1
:1073680071640008716400087164000871640008A1
:10737800E55500087164000871640008716400082C
:1073880071640008B86A000843000000CD5800087E
:10739800E9570008CD570008C9560008CD5600081F
:1073A8002D57000855570008C1570008B557000861
:1073B80095570008000000004000000071640008B4
:1073C800A55600087164000871640008716400081B
:1073D800716400087164000871640008BD560008F3
:1073E8006C6A000812000000806A000804000000AF
:1073F800446A000826000000846A00083200000081
:10740800000000201A00000000C20100000008006F
:04741800040100006B
:04000005080069FD89
:00000001FF
